09:00:05.320249 I gateway3			[EVT.onPending:00] [MAPTX] [NEW][order.RefId=364][order.OrderId=55239][clOrdId=4865] [seqNo=938]
09:00:07.001122 I FIXPUMP		gateway3:[FIXTX] 8=FIXT.1.1|9=218|35=D|43=N|52=20180919-01:00:07.000|122=20180919-01:00:05.320|49=UBSACCOUNT|56=EXCHANGE|34=938|11=4865|38=8963|54=2|40=1|59=9|60=20180919-01:00:05.320|48=MASKED|22=8|453=1|448=BROKERID|447=D|452=1|207=XHKG|1812=1|1813=100|1814=1|10=220|
09:00:07.004858 I FIXPUMP 		gateway3:[FIXRX] 8=FIXT.1.1|9=229|35=8|49=EXCHANGE|56=UBSACCOUNT|34=942|52=20180919-01:00:07.004|1128=9|11=4865|14=0|17=hB0.kV./MX6|150=0|151=8963|1093=2|453=1|448=BROKERID|447=D|452=1|37=2242049|38=8963|39=0|40=1|207=XHKG|48=MASKED|22=8|54=2|59=9|60=20180919-01:00:07.000|10=078|
09:00:07.004858 I FIXPUMP 		gateway3:[FIXRX] 8=FIXT.1.1|9=295|35=8|49=EXCHANGE|56=UBS|34=942|52=20180919-01:00:07.004|1128=9|11=4865|14=3673|17=hB0.kV./MX6|150=F|151=5290|1093=2|453=1|448=BROKERID|447=D|452=17|37=2242049|38=8963|39=1|40=1|207=UBS|48=MASKED|22=MASKED|54=1|59=9|60=20180919-01:00:07.000|10=078|
09:00:07.004858 I FIXPUMP 		gateway3:[FIXRX] 8=FIXT.1.1|9=295|35=8|49=EXCHANGE|56=UBS|34=942|52=20180919-01:00:07.004|1128=9|11=4865|14=4299|17=hB0.kV./MX6|150=F|151=991|1093=2|453=1|448=BROKERID|447=D|452=17|37=2242049|38=8963|39=1|40=1|207=UBS|48=MASKED|22=MASKED|54=1|59=9|60=20180919-01:00:07.000|10=078|
09:00:07.004858 I FIXPUMP 		gateway3:[FIXRX] 8=FIXT.1.1|9=295|35=8|49=EXCHANGE|56=UBS|34=942|52=20180919-01:00:07.004|1128=9|11=4865|14=750|17=hB0.kV./MX6|150=F|151=241|1093=2|453=1|448=BROKERID|447=D|452=17|37=2242049|38=8963|39=1|40=1|207=UBS|48=MASKED|22=MASKED|54=1|59=9|60=20180919-01:00:07.000|10=078|
09:00:07.004858 I FIXPUMP 		gateway3:[FIXRX] 8=FIXT.1.1|9=295|35=8|49=EXCHANGE|56=UBS|34=942|52=20180919-01:00:07.004|1128=9|11=4865|14=4669|17=hB0.kV./MX6|150=F|151=0|1093=2|453=1|448=BROKERID|447=D|452=17|37=2242049|38=8963|39=2|40=1|207=UBS|48=MASKED|22=MASKED|54=0|59=9|60=20180919-01:00:07.000|10=078|
09:00:05.320249 I gateway3			[EVT.onPendingReplace:06] [MAPTX] [RPL][order.RefId=364][order.OrderId=55239][clOrdId=4865] [seqNo=67175]
09:00:07.001122 I FIXPUMP		gateway3:[FIXTX] 8=FIXT.1.1|9=218|35=G|43=N|52=20180919-01:00:07.000|122=20180919-01:00:05.320|49=UBSACCOUNT|56=EXCHANGE|34=938|11=4865|38=8963|54=2|40=1|59=9|60=20180919-01:00:05.320|48=MASKED|22=8|453=1|448=BROKERID|447=D|452=1|207=XHKG|1812=1|1813=100|1814=1|10=220|
09:00:07.004858 I FIXPUMP 		gateway3:[FIXRX] 8=FIXT.1.1|9=229|35=8|49=EXCHANGE|56=UBSACCOUNT|34=942|52=20180919-01:00:07.004|1128=9|11=4865|14=0|17=hB0.kV./MX6|150=0|151=8963|1093=2|453=1|448=BROKERID|447=D|452=1|37=2242049|38=8963|39=5|40=1|207=XHKG|48=MASKED|22=8|54=2|59=9|60=20180919-01:00:07.000|10=078|
09:00:05.320249 I gateway3			[EVT.onPending:00] [MAPTX] [NEW][order.RefId=984][order.OrderId=20091][clOrdId=49407] [seqNo=938]
09:00:07.001122 I FIXPUMP		gateway3:[FIXTX] 8=FIXT.1.1|9=218|35=D|43=N|52=20180919-01:00:07.000|122=20180919-01:00:05.320|49=UBSACCOUNT|56=EXCHANGE|34=938|11=49407|38=8313|54=2|40=1|59=9|60=20180919-01:00:05.320|48=MASKED|22=8|453=1|448=BROKERID|447=D|452=1|207=XHKG|1812=1|1813=100|1814=1|10=220|
09:00:07.004858 I FIXPUMP 		gateway3:[FIXRX] 8=FIXT.1.1|9=229|35=8|49=EXCHANGE|56=UBSACCOUNT|34=942|52=20180919-01:00:07.004|1128=9|11=49407|14=0|17=hB0.kV./MX6|150=0|151=8313|1093=2|453=1|448=BROKERID|447=D|452=1|37=2242049|38=8313|39=0|40=1|207=XHKG|48=MASKED|22=8|54=2|59=9|60=20180919-01:00:07.000|10=078|
09:00:07.004858 I FIXPUMP 		gateway3:[FIXRX] 8=FIXT.1.1|9=295|35=8|49=EXCHANGE|56=UBS|34=942|52=20180919-01:00:07.004|1128=9|11=49407|14=1783|17=hB0.kV./MX6|150=F|151=6530|1093=2|453=1|448=BROKERID|447=D|452=17|37=2242049|38=8313|39=1|40=1|207=UBS|48=MASKED|22=MASKED|54=1|59=9|60=20180919-01:00:07.000|10=078|
09:00:07.004858 I FIXPUMP 		gateway3:[FIXRX] 8=FIXT.1.1|9=295|35=8|49=EXCHANGE|56=UBS|34=942|52=20180919-01:00:07.004|1128=9|11=49407|14=1546|17=hB0.kV./MX6|150=F|151=4984|1093=2|453=1|448=BROKERID|447=D|452=17|37=2242049|38=8313|39=1|40=1|207=UBS|48=MASKED|22=MASKED|54=1|59=9|60=20180919-01:00:07.000|10=078|
09:00:07.004858 I FIXPUMP 		gateway3:[FIXRX] 8=FIXT.1.1|9=295|35=8|49=EXCHANGE|56=UBS|34=942|52=20180919-01:00:07.004|1128=9|11=49407|14=2953|17=hB0.kV./MX6|150=F|151=2031|1093=2|453=1|448=BROKERID|447=D|452=17|37=2242049|38=8313|39=1|40=1|207=UBS|48=MASKED|22=MASKED|54=1|59=9|60=20180919-01:00:07.000|10=078|
09:00:07.004858 I FIXPUMP 		gateway3:[FIXRX] 8=FIXT.1.1|9=295|35=8|49=EXCHANGE|56=UBS|34=942|52=20180919-01:00:07.004|1128=9|11=49407|14=3703|17=hB0.kV./MX6|150=F|151=0|1093=2|453=1|448=BROKERID|447=D|452=17|37=2242049|38=8313|39=2|40=1|207=UBS|48=MASKED|22=MASKED|54=0|59=9|60=20180919-01:00:07.000|10=078|
09:00:05.320249 I gateway3			[EVT.onPendingReplace:06] [MAPTX] [RPL][order.RefId=984][order.OrderId=20091][clOrdId=49407] [seqNo=67175]
09:00:07.001122 I FIXPUMP		gateway3:[FIXTX] 8=FIXT.1.1|9=218|35=G|43=N|52=20180919-01:00:07.000|122=20180919-01:00:05.320|49=UBSACCOUNT|56=EXCHANGE|34=938|11=49407|38=8313|54=2|40=1|59=9|60=20180919-01:00:05.320|48=MASKED|22=8|453=1|448=BROKERID|447=D|452=1|207=XHKG|1812=1|1813=100|1814=1|10=220|
09:00:07.004858 I FIXPUMP 		gateway3:[FIXRX] 8=FIXT.1.1|9=229|35=8|49=EXCHANGE|56=UBSACCOUNT|34=942|52=20180919-01:00:07.004|1128=9|11=49407|14=0|17=hB0.kV./MX6|150=0|151=8313|1093=2|453=1|448=BROKERID|447=D|452=1|37=2242049|38=8313|39=5|40=1|207=XHKG|48=MASKED|22=8|54=2|59=9|60=20180919-01:00:07.000|10=078|
09:00:05.320249 I gateway3			[EVT.onPending:00] [MAPTX] [NEW][order.RefId=689][order.OrderId=34259][clOrdId=49580] [seqNo=938]
09:00:07.001122 I FIXPUMP		gateway3:[FIXTX] 8=FIXT.1.1|9=218|35=D|43=N|52=20180919-01:00:07.000|122=20180919-01:00:05.320|49=UBSACCOUNT|56=EXCHANGE|34=938|11=49580|38=9320|54=2|40=1|59=9|60=20180919-01:00:05.320|48=MASKED|22=8|453=1|448=BROKERID|447=D|452=1|207=XHKG|1812=1|1813=100|1814=1|10=220|
09:00:07.004858 I FIXPUMP 		gateway3:[FIXRX] 8=FIXT.1.1|9=229|35=8|49=EXCHANGE|56=UBSACCOUNT|34=942|52=20180919-01:00:07.004|1128=9|11=49580|14=0|17=hB0.kV./MX6|150=0|151=9320|1093=2|453=1|448=BROKERID|447=D|452=1|37=2242049|38=9320|39=0|40=1|207=XHKG|48=MASKED|22=8|54=2|59=9|60=20180919-01:00:07.000|10=078|
09:00:07.004858 I FIXPUMP 		gateway3:[FIXRX] 8=FIXT.1.1|9=295|35=8|49=EXCHANGE|56=UBS|34=942|52=20180919-01:00:07.004|1128=9|11=49580|14=888|17=hB0.kV./MX6|150=F|151=8432|1093=2|453=1|448=BROKERID|447=D|452=17|37=2242049|38=9320|39=1|40=1|207=UBS|48=MASKED|22=MASKED|54=1|59=9|60=20180919-01:00:07.000|10=078|
09:00:07.004858 I FIXPUMP 		gateway3:[FIXRX] 8=FIXT.1.1|9=295|35=8|49=EXCHANGE|56=UBS|34=942|52=20180919-01:00:07.004|1128=9|11=49580|14=1923|17=hB0.kV./MX6|150=F|151=6509|1093=2|453=1|448=BROKERID|447=D|452=17|37=2242049|38=9320|39=1|40=1|207=UBS|48=MASKED|22=MASKED|54=1|59=9|60=20180919-01:00:07.000|10=078|
09:00:07.004858 I FIXPUMP 		gateway3:[FIXRX] 8=FIXT.1.1|9=295|35=8|49=EXCHANGE|56=UBS|34=942|52=20180919-01:00:07.004|1128=9|11=49580|14=1673|17=hB0.kV./MX6|150=F|151=4836|1093=2|453=1|448=BROKERID|447=D|452=17|37=2242049|38=9320|39=1|40=1|207=UBS|48=MASKED|22=MASKED|54=1|59=9|60=20180919-01:00:07.000|10=078|
09:00:07.004858 I FIXPUMP 		gateway3:[FIXRX] 8=FIXT.1.1|9=295|35=8|49=EXCHANGE|56=UBS|34=942|52=20180919-01:00:07.004|1128=9|11=49580|14=3789|17=hB0.kV./MX6|150=F|151=1047|1093=2|453=1|448=BROKERID|447=D|452=17|37=2242049|38=9320|39=1|40=1|207=UBS|48=MASKED|22=MASKED|54=1|59=9|60=20180919-01:00:07.000|10=078|
09:00:07.004858 I FIXPUMP 		gateway3:[FIXRX] 8=FIXT.1.1|9=295|35=8|49=EXCHANGE|56=UBS|34=942|52=20180919-01:00:07.004|1128=9|11=49580|14=1074|17=hB0.kV./MX6|150=F|151=0|1093=2|453=1|448=BROKERID|447=D|452=17|37=2242049|38=9320|39=2|40=1|207=UBS|48=MASKED|22=MASKED|54=0|59=9|60=20180919-01:00:07.000|10=078|
09:00:05.320249 I gateway3			[EVT.onPendingReplace:06] [MAPTX] [RPL][order.RefId=689][order.OrderId=34259][clOrdId=49580] [seqNo=67175]
09:00:07.001122 I FIXPUMP		gateway3:[FIXTX] 8=FIXT.1.1|9=218|35=G|43=N|52=20180919-01:00:07.000|122=20180919-01:00:05.320|49=UBSACCOUNT|56=EXCHANGE|34=938|11=49580|38=9320|54=2|40=1|59=9|60=20180919-01:00:05.320|48=MASKED|22=8|453=1|448=BROKERID|447=D|452=1|207=XHKG|1812=1|1813=100|1814=1|10=220|
09:00:07.004858 I FIXPUMP 		gateway3:[FIXRX] 8=FIXT.1.1|9=229|35=8|49=EXCHANGE|56=UBSACCOUNT|34=942|52=20180919-01:00:07.004|1128=9|11=49580|14=0|17=hB0.kV./MX6|150=0|151=9320|1093=2|453=1|448=BROKERID|447=D|452=1|37=2242049|38=9320|39=5|40=1|207=XHKG|48=MASKED|22=8|54=2|59=9|60=20180919-01:00:07.000|10=078|
09:00:05.320249 I gateway3			[EVT.onPending:00] [MAPTX] [NEW][order.RefId=886][order.OrderId=12691][clOrdId=38316] [seqNo=938]
09:00:07.001122 I FIXPUMP		gateway3:[FIXTX] 8=FIXT.1.1|9=218|35=D|43=N|52=20180919-01:00:07.000|122=20180919-01:00:05.320|49=UBSACCOUNT|56=EXCHANGE|34=938|11=38316|38=2077|54=2|40=1|59=9|60=20180919-01:00:05.320|48=MASKED|22=8|453=1|448=BROKERID|447=D|452=1|207=XHKG|1812=1|1813=100|1814=1|10=220|
09:00:07.004858 I FIXPUMP 		gateway3:[FIXRX] 8=FIXT.1.1|9=229|35=8|49=EXCHANGE|56=UBSACCOUNT|34=942|52=20180919-01:00:07.004|1128=9|11=38316|14=0|17=hB0.kV./MX6|150=0|151=2077|1093=2|453=1|448=BROKERID|447=D|452=1|37=2242049|38=2077|39=0|40=1|207=XHKG|48=MASKED|22=8|54=2|59=9|60=20180919-01:00:07.000|10=078|
09:00:07.004858 I FIXPUMP 		gateway3:[FIXRX] 8=FIXT.1.1|9=295|35=8|49=EXCHANGE|56=UBS|34=942|52=20180919-01:00:07.004|1128=9|11=38316|14=800|17=hB0.kV./MX6|150=F|151=1277|1093=2|453=1|448=BROKERID|447=D|452=17|37=2242049|38=2077|39=1|40=1|207=UBS|48=MASKED|22=MASKED|54=1|59=9|60=20180919-01:00:07.000|10=078|
09:00:07.004858 I FIXPUMP 		gateway3:[FIXRX] 8=FIXT.1.1|9=295|35=8|49=EXCHANGE|56=UBS|34=942|52=20180919-01:00:07.004|1128=9|11=38316|14=1990|17=hB0.kV./MX6|150=F|151=0|1093=2|453=1|448=BROKERID|447=D|452=17|37=2242049|38=2077|39=2|40=1|207=UBS|48=MASKED|22=MASKED|54=0|59=9|60=20180919-01:00:07.000|10=078|
09:00:05.320249 I gateway3			[EVT.onPendingReplace:06] [MAPTX] [RPL][order.RefId=886][order.OrderId=12691][clOrdId=38316] [seqNo=67175]
09:00:07.001122 I FIXPUMP		gateway3:[FIXTX] 8=FIXT.1.1|9=218|35=G|43=N|52=20180919-01:00:07.000|122=20180919-01:00:05.320|49=UBSACCOUNT|56=EXCHANGE|34=938|11=38316|38=2077|54=2|40=1|59=9|60=20180919-01:00:05.320|48=MASKED|22=8|453=1|448=BROKERID|447=D|452=1|207=XHKG|1812=1|1813=100|1814=1|10=220|
09:00:07.004858 I FIXPUMP 		gateway3:[FIXRX] 8=FIXT.1.1|9=229|35=8|49=EXCHANGE|56=UBSACCOUNT|34=942|52=20180919-01:00:07.004|1128=9|11=38316|14=0|17=hB0.kV./MX6|150=0|151=2077|1093=2|453=1|448=BROKERID|447=D|452=1|37=2242049|38=2077|39=5|40=1|207=XHKG|48=MASKED|22=8|54=2|59=9|60=20180919-01:00:07.000|10=078|
09:00:05.320249 I gateway3			[EVT.onPending:00] [MAPTX] [NEW][order.RefId=774][order.OrderId=19351][clOrdId=67450] [seqNo=938]
09:00:07.001122 I FIXPUMP		gateway3:[FIXTX] 8=FIXT.1.1|9=218|35=D|43=N|52=20180919-01:00:07.000|122=20180919-01:00:05.320|49=UBSACCOUNT|56=EXCHANGE|34=938|11=67450|38=3766|54=2|40=1|59=9|60=20180919-01:00:05.320|48=MASKED|22=8|453=1|448=BROKERID|447=D|452=1|207=XHKG|1812=1|1813=100|1814=1|10=220|
09:00:07.004858 I FIXPUMP 		gateway3:[FIXRX] 8=FIXT.1.1|9=229|35=8|49=EXCHANGE|56=UBSACCOUNT|34=942|52=20180919-01:00:07.004|1128=9|11=67450|14=0|17=hB0.kV./MX6|150=0|151=3766|1093=2|453=1|448=BROKERID|447=D|452=1|37=2242049|38=3766|39=0|40=1|207=XHKG|48=MASKED|22=8|54=2|59=9|60=20180919-01:00:07.000|10=078|
09:00:07.004858 I FIXPUMP 		gateway3:[FIXRX] 8=FIXT.1.1|9=295|35=8|49=EXCHANGE|56=UBS|34=942|52=20180919-01:00:07.004|1128=9|11=67450|14=1120|17=hB0.kV./MX6|150=F|151=2646|1093=2|453=1|448=BROKERID|447=D|452=17|37=2242049|38=3766|39=1|40=1|207=UBS|48=MASKED|22=MASKED|54=1|59=9|60=20180919-01:00:07.000|10=078|
09:00:07.004858 I FIXPUMP 		gateway3:[FIXRX] 8=FIXT.1.1|9=295|35=8|49=EXCHANGE|56=UBS|34=942|52=20180919-01:00:07.004|1128=9|11=67450|14=3326|17=hB0.kV./MX6|150=F|151=0|1093=2|453=1|448=BROKERID|447=D|452=17|37=2242049|38=3766|39=2|40=1|207=UBS|48=MASKED|22=MASKED|54=0|59=9|60=20180919-01:00:07.000|10=078|
09:00:05.320249 I gateway3			[EVT.onPendingReplace:06] [MAPTX] [RPL][order.RefId=774][order.OrderId=19351][clOrdId=67450] [seqNo=67175]
09:00:07.001122 I FIXPUMP		gateway3:[FIXTX] 8=FIXT.1.1|9=218|35=G|43=N|52=20180919-01:00:07.000|122=20180919-01:00:05.320|49=UBSACCOUNT|56=EXCHANGE|34=938|11=67450|38=3766|54=2|40=1|59=9|60=20180919-01:00:05.320|48=MASKED|22=8|453=1|448=BROKERID|447=D|452=1|207=XHKG|1812=1|1813=100|1814=1|10=220|
09:00:07.004858 I FIXPUMP 		gateway3:[FIXRX] 8=FIXT.1.1|9=229|35=8|49=EXCHANGE|56=UBSACCOUNT|34=942|52=20180919-01:00:07.004|1128=9|11=67450|14=0|17=hB0.kV./MX6|150=0|151=3766|1093=2|453=1|448=BROKERID|447=D|452=1|37=2242049|38=3766|39=5|40=1|207=XHKG|48=MASKED|22=8|54=2|59=9|60=20180919-01:00:07.000|10=078|
09:00:05.320249 I gateway3			[EVT.onPending:00] [MAPTX] [NEW][order.RefId=343][order.OrderId=40026][clOrdId=55018] [seqNo=938]
09:00:07.001122 I FIXPUMP		gateway3:[FIXTX] 8=FIXT.1.1|9=218|35=D|43=N|52=20180919-01:00:07.000|122=20180919-01:00:05.320|49=UBSACCOUNT|56=EXCHANGE|34=938|11=55018|38=4117|54=2|40=1|59=9|60=20180919-01:00:05.320|48=MASKED|22=8|453=1|448=BROKERID|447=D|452=1|207=XHKG|1812=1|1813=100|1814=1|10=220|
09:00:07.004858 I FIXPUMP 		gateway3:[FIXRX] 8=FIXT.1.1|9=229|35=8|49=EXCHANGE|56=UBSACCOUNT|34=942|52=20180919-01:00:07.004|1128=9|11=55018|14=0|17=hB0.kV./MX6|150=0|151=4117|1093=2|453=1|448=BROKERID|447=D|452=1|37=2242049|38=4117|39=0|40=1|207=XHKG|48=MASKED|22=8|54=2|59=9|60=20180919-01:00:07.000|10=078|
09:00:07.004858 I FIXPUMP 		gateway3:[FIXRX] 8=FIXT.1.1|9=295|35=8|49=EXCHANGE|56=UBS|34=942|52=20180919-01:00:07.004|1128=9|11=55018|14=3634|17=hB0.kV./MX6|150=F|151=483|1093=2|453=1|448=BROKERID|447=D|452=17|37=2242049|38=4117|39=1|40=1|207=UBS|48=MASKED|22=MASKED|54=1|59=9|60=20180919-01:00:07.000|10=078|
09:00:07.004858 I FIXPUMP 		gateway3:[FIXRX] 8=FIXT.1.1|9=295|35=8|49=EXCHANGE|56=UBS|34=942|52=20180919-01:00:07.004|1128=9|11=55018|14=3907|17=hB0.kV./MX6|150=F|151=0|1093=2|453=1|448=BROKERID|447=D|452=17|37=2242049|38=4117|39=2|40=1|207=UBS|48=MASKED|22=MASKED|54=0|59=9|60=20180919-01:00:07.000|10=078|
09:00:05.320249 I gateway3			[EVT.onPendingReplace:06] [MAPTX] [RPL][order.RefId=343][order.OrderId=40026][clOrdId=55018] [seqNo=67175]
09:00:07.001122 I FIXPUMP		gateway3:[FIXTX] 8=FIXT.1.1|9=218|35=G|43=N|52=20180919-01:00:07.000|122=20180919-01:00:05.320|49=UBSACCOUNT|56=EXCHANGE|34=938|11=55018|38=4117|54=2|40=1|59=9|60=20180919-01:00:05.320|48=MASKED|22=8|453=1|448=BROKERID|447=D|452=1|207=XHKG|1812=1|1813=100|1814=1|10=220|
09:00:07.004858 I FIXPUMP 		gateway3:[FIXRX] 8=FIXT.1.1|9=229|35=8|49=EXCHANGE|56=UBSACCOUNT|34=942|52=20180919-01:00:07.004|1128=9|11=55018|14=0|17=hB0.kV./MX6|150=0|151=4117|1093=2|453=1|448=BROKERID|447=D|452=1|37=2242049|38=4117|39=5|40=1|207=XHKG|48=MASKED|22=8|54=2|59=9|60=20180919-01:00:07.000|10=078|
09:00:05.320249 I gateway3			[EVT.onPending:00] [MAPTX] [NEW][order.RefId=783][order.OrderId=19903][clOrdId=58094] [seqNo=938]
09:00:07.001122 I FIXPUMP		gateway3:[FIXTX] 8=FIXT.1.1|9=218|35=D|43=N|52=20180919-01:00:07.000|122=20180919-01:00:05.320|49=UBSACCOUNT|56=EXCHANGE|34=938|11=58094|38=1282|54=2|40=1|59=9|60=20180919-01:00:05.320|48=MASKED|22=8|453=1|448=BROKERID|447=D|452=1|207=XHKG|1812=1|1813=100|1814=1|10=220|
09:00:07.004858 I FIXPUMP 		gateway3:[FIXRX] 8=FIXT.1.1|9=229|35=8|49=EXCHANGE|56=UBSACCOUNT|34=942|52=20180919-01:00:07.004|1128=9|11=58094|14=0|17=hB0.kV./MX6|150=0|151=1282|1093=2|453=1|448=BROKERID|447=D|452=1|37=2242049|38=1282|39=0|40=1|207=XHKG|48=MASKED|22=8|54=2|59=9|60=20180919-01:00:07.000|10=078|
09:00:07.004858 I FIXPUMP 		gateway3:[FIXRX] 8=FIXT.1.1|9=295|35=8|49=EXCHANGE|56=UBS|34=942|52=20180919-01:00:07.004|1128=9|11=58094|14=1007|17=hB0.kV./MX6|150=F|151=275|1093=2|453=1|448=BROKERID|447=D|452=17|37=2242049|38=1282|39=1|40=1|207=UBS|48=MASKED|22=MASKED|54=1|59=9|60=20180919-01:00:07.000|10=078|
09:00:07.004858 I FIXPUMP 		gateway3:[FIXRX] 8=FIXT.1.1|9=295|35=8|49=EXCHANGE|56=UBS|34=942|52=20180919-01:00:07.004|1128=9|11=58094|14=2349|17=hB0.kV./MX6|150=F|151=0|1093=2|453=1|448=BROKERID|447=D|452=17|37=2242049|38=1282|39=2|40=1|207=UBS|48=MASKED|22=MASKED|54=0|59=9|60=20180919-01:00:07.000|10=078|
09:00:05.320249 I gateway3			[EVT.onPendingReplace:06] [MAPTX] [RPL][order.RefId=783][order.OrderId=19903][clOrdId=58094] [seqNo=67175]
09:00:07.001122 I FIXPUMP		gateway3:[FIXTX] 8=FIXT.1.1|9=218|35=G|43=N|52=20180919-01:00:07.000|122=20180919-01:00:05.320|49=UBSACCOUNT|56=EXCHANGE|34=938|11=58094|38=1282|54=2|40=1|59=9|60=20180919-01:00:05.320|48=MASKED|22=8|453=1|448=BROKERID|447=D|452=1|207=XHKG|1812=1|1813=100|1814=1|10=220|
09:00:07.004858 I FIXPUMP 		gateway3:[FIXRX] 8=FIXT.1.1|9=229|35=8|49=EXCHANGE|56=UBSACCOUNT|34=942|52=20180919-01:00:07.004|1128=9|11=58094|14=0|17=hB0.kV./MX6|150=0|151=1282|1093=2|453=1|448=BROKERID|447=D|452=1|37=2242049|38=1282|39=5|40=1|207=XHKG|48=MASKED|22=8|54=2|59=9|60=20180919-01:00:07.000|10=078|
09:00:05.320249 I gateway3			[EVT.onPending:00] [MAPTX] [NEW][order.RefId=821][order.OrderId=98617][clOrdId=174] [seqNo=938]
09:00:07.001122 I FIXPUMP		gateway3:[FIXTX] 8=FIXT.1.1|9=218|35=D|43=N|52=20180919-01:00:07.000|122=20180919-01:00:05.320|49=UBSACCOUNT|56=EXCHANGE|34=938|11=174|38=7339|54=2|40=1|59=9|60=20180919-01:00:05.320|48=MASKED|22=8|453=1|448=BROKERID|447=D|452=1|207=XHKG|1812=1|1813=100|1814=1|10=220|
09:00:07.004858 I FIXPUMP 		gateway3:[FIXRX] 8=FIXT.1.1|9=229|35=8|49=EXCHANGE|56=UBSACCOUNT|34=942|52=20180919-01:00:07.004|1128=9|11=174|14=0|17=hB0.kV./MX6|150=0|151=7339|1093=2|453=1|448=BROKERID|447=D|452=1|37=2242049|38=7339|39=0|40=1|207=XHKG|48=MASKED|22=8|54=2|59=9|60=20180919-01:00:07.000|10=078|
09:00:07.004858 I FIXPUMP 		gateway3:[FIXRX] 8=FIXT.1.1|9=295|35=8|49=EXCHANGE|56=UBS|34=942|52=20180919-01:00:07.004|1128=9|11=174|14=3519|17=hB0.kV./MX6|150=F|151=3820|1093=2|453=1|448=BROKERID|447=D|452=17|37=2242049|38=7339|39=1|40=1|207=UBS|48=MASKED|22=MASKED|54=1|59=9|60=20180919-01:00:07.000|10=078|
09:00:07.004858 I FIXPUMP 		gateway3:[FIXRX] 8=FIXT.1.1|9=295|35=8|49=EXCHANGE|56=UBS|34=942|52=20180919-01:00:07.004|1128=9|11=174|14=2919|17=hB0.kV./MX6|150=F|151=901|1093=2|453=1|448=BROKERID|447=D|452=17|37=2242049|38=7339|39=1|40=1|207=UBS|48=MASKED|22=MASKED|54=1|59=9|60=20180919-01:00:07.000|10=078|
09:00:07.004858 I FIXPUMP 		gateway3:[FIXRX] 8=FIXT.1.1|9=295|35=8|49=EXCHANGE|56=UBS|34=942|52=20180919-01:00:07.004|1128=9|11=174|14=2090|17=hB0.kV./MX6|150=F|151=0|1093=2|453=1|448=BROKERID|447=D|452=17|37=2242049|38=7339|39=2|40=1|207=UBS|48=MASKED|22=MASKED|54=0|59=9|60=20180919-01:00:07.000|10=078|
09:00:05.320249 I gateway3			[EVT.onPendingReplace:06] [MAPTX] [RPL][order.RefId=821][order.OrderId=98617][clOrdId=174] [seqNo=67175]
09:00:07.001122 I FIXPUMP		gateway3:[FIXTX] 8=FIXT.1.1|9=218|35=G|43=N|52=20180919-01:00:07.000|122=20180919-01:00:05.320|49=UBSACCOUNT|56=EXCHANGE|34=938|11=174|38=7339|54=2|40=1|59=9|60=20180919-01:00:05.320|48=MASKED|22=8|453=1|448=BROKERID|447=D|452=1|207=XHKG|1812=1|1813=100|1814=1|10=220|
09:00:07.004858 I FIXPUMP 		gateway3:[FIXRX] 8=FIXT.1.1|9=229|35=8|49=EXCHANGE|56=UBSACCOUNT|34=942|52=20180919-01:00:07.004|1128=9|11=174|14=0|17=hB0.kV./MX6|150=0|151=7339|1093=2|453=1|448=BROKERID|447=D|452=1|37=2242049|38=7339|39=5|40=1|207=XHKG|48=MASKED|22=8|54=2|59=9|60=20180919-01:00:07.000|10=078|
09:00:05.320249 I gateway3			[EVT.onPending:00] [MAPTX] [NEW][order.RefId=637][order.OrderId=87163][clOrdId=6029] [seqNo=938]
09:00:07.001122 I FIXPUMP		gateway3:[FIXTX] 8=FIXT.1.1|9=218|35=D|43=N|52=20180919-01:00:07.000|122=20180919-01:00:05.320|49=UBSACCOUNT|56=EXCHANGE|34=938|11=6029|38=2566|54=2|40=1|59=9|60=20180919-01:00:05.320|48=MASKED|22=8|453=1|448=BROKERID|447=D|452=1|207=XHKG|1812=1|1813=100|1814=1|10=220|
09:00:07.004858 I FIXPUMP 		gateway3:[FIXRX] 8=FIXT.1.1|9=229|35=8|49=EXCHANGE|56=UBSACCOUNT|34=942|52=20180919-01:00:07.004|1128=9|11=6029|14=0|17=hB0.kV./MX6|150=0|151=2566|1093=2|453=1|448=BROKERID|447=D|452=1|37=2242049|38=2566|39=0|40=1|207=XHKG|48=MASKED|22=8|54=2|59=9|60=20180919-01:00:07.000|10=078|
09:00:07.004858 I FIXPUMP 		gateway3:[FIXRX] 8=FIXT.1.1|9=295|35=8|49=EXCHANGE|56=UBS|34=942|52=20180919-01:00:07.004|1128=9|11=6029|14=4001|17=hB0.kV./MX6|150=F|151=0|1093=2|453=1|448=BROKERID|447=D|452=17|37=2242049|38=2566|39=2|40=1|207=UBS|48=MASKED|22=MASKED|54=0|59=9|60=20180919-01:00:07.000|10=078|
09:00:05.320249 I gateway3			[EVT.onPendingReplace:06] [MAPTX] [RPL][order.RefId=637][order.OrderId=87163][clOrdId=6029] [seqNo=67175]
09:00:07.001122 I FIXPUMP		gateway3:[FIXTX] 8=FIXT.1.1|9=218|35=G|43=N|52=20180919-01:00:07.000|122=20180919-01:00:05.320|49=UBSACCOUNT|56=EXCHANGE|34=938|11=6029|38=2566|54=2|40=1|59=9|60=20180919-01:00:05.320|48=MASKED|22=8|453=1|448=BROKERID|447=D|452=1|207=XHKG|1812=1|1813=100|1814=1|10=220|
09:00:07.004858 I FIXPUMP 		gateway3:[FIXRX] 8=FIXT.1.1|9=229|35=8|49=EXCHANGE|56=UBSACCOUNT|34=942|52=20180919-01:00:07.004|1128=9|11=6029|14=0|17=hB0.kV./MX6|150=0|151=2566|1093=2|453=1|448=BROKERID|447=D|452=1|37=2242049|38=2566|39=5|40=1|207=XHKG|48=MASKED|22=8|54=2|59=9|60=20180919-01:00:07.000|10=078|
09:00:05.320249 I gateway3			[EVT.onPending:00] [MAPTX] [NEW][order.RefId=113][order.OrderId=6899][clOrdId=42287] [seqNo=938]
09:00:07.001122 I FIXPUMP		gateway3:[FIXTX] 8=FIXT.1.1|9=218|35=D|43=N|52=20180919-01:00:07.000|122=20180919-01:00:05.320|49=UBSACCOUNT|56=EXCHANGE|34=938|11=42287|38=7442|54=2|40=1|59=9|60=20180919-01:00:05.320|48=MASKED|22=8|453=1|448=BROKERID|447=D|452=1|207=XHKG|1812=1|1813=100|1814=1|10=220|
09:00:07.004858 I FIXPUMP 		gateway3:[FIXRX] 8=FIXT.1.1|9=229|35=8|49=EXCHANGE|56=UBSACCOUNT|34=942|52=20180919-01:00:07.004|1128=9|11=42287|14=0|17=hB0.kV./MX6|150=0|151=7442|1093=2|453=1|448=BROKERID|447=D|452=1|37=2242049|38=7442|39=0|40=1|207=XHKG|48=MASKED|22=8|54=2|59=9|60=20180919-01:00:07.000|10=078|
09:00:07.004858 I FIXPUMP 		gateway3:[FIXRX] 8=FIXT.1.1|9=295|35=8|49=EXCHANGE|56=UBS|34=942|52=20180919-01:00:07.004|1128=9|11=42287|14=1563|17=hB0.kV./MX6|150=F|151=5879|1093=2|453=1|448=BROKERID|447=D|452=17|37=2242049|38=7442|39=1|40=1|207=UBS|48=MASKED|22=MASKED|54=1|59=9|60=20180919-01:00:07.000|10=078|
09:00:07.004858 I FIXPUMP 		gateway3:[FIXRX] 8=FIXT.1.1|9=295|35=8|49=EXCHANGE|56=UBS|34=942|52=20180919-01:00:07.004|1128=9|11=42287|14=536|17=hB0.kV./MX6|150=F|151=5343|1093=2|453=1|448=BROKERID|447=D|452=17|37=2242049|38=7442|39=1|40=1|207=UBS|48=MASKED|22=MASKED|54=1|59=9|60=20180919-01:00:07.000|10=078|
09:00:07.004858 I FIXPUMP 		gateway3:[FIXRX] 8=FIXT.1.1|9=295|35=8|49=EXCHANGE|56=UBS|34=942|52=20180919-01:00:07.004|1128=9|11=42287|14=4177|17=hB0.kV./MX6|150=F|151=1166|1093=2|453=1|448=BROKERID|447=D|452=17|37=2242049|38=7442|39=1|40=1|207=UBS|48=MASKED|22=MASKED|54=1|59=9|60=20180919-01:00:07.000|10=078|
09:00:07.004858 I FIXPUMP 		gateway3:[FIXRX] 8=FIXT.1.1|9=295|35=8|49=EXCHANGE|56=UBS|34=942|52=20180919-01:00:07.004|1128=9|11=42287|14=200|17=hB0.kV./MX6|150=F|151=966|1093=2|453=1|448=BROKERID|447=D|452=17|37=2242049|38=7442|39=1|40=1|207=UBS|48=MASKED|22=MASKED|54=1|59=9|60=20180919-01:00:07.000|10=078|
09:00:07.004858 I FIXPUMP 		gateway3:[FIXRX] 8=FIXT.1.1|9=295|35=8|49=EXCHANGE|56=UBS|34=942|52=20180919-01:00:07.004|1128=9|11=42287|14=601|17=hB0.kV./MX6|150=F|151=365|1093=2|453=1|448=BROKERID|447=D|452=17|37=2242049|38=7442|39=1|40=1|207=UBS|48=MASKED|22=MASKED|54=1|59=9|60=20180919-01:00:07.000|10=078|
09:00:07.004858 I FIXPUMP 		gateway3:[FIXRX] 8=FIXT.1.1|9=295|35=8|49=EXCHANGE|56=UBS|34=942|52=20180919-01:00:07.004|1128=9|11=42287|14=53|17=hB0.kV./MX6|150=F|151=312|1093=2|453=1|448=BROKERID|447=D|452=17|37=2242049|38=7442|39=1|40=1|207=UBS|48=MASKED|22=MASKED|54=1|59=9|60=20180919-01:00:07.000|10=078|
09:00:07.004858 I FIXPUMP 		gateway3:[FIXRX] 8=FIXT.1.1|9=295|35=8|49=EXCHANGE|56=UBS|34=942|52=20180919-01:00:07.004|1128=9|11=42287|14=32|17=hB0.kV./MX6|150=F|151=280|1093=2|453=1|448=BROKERID|447=D|452=17|37=2242049|38=7442|39=1|40=1|207=UBS|48=MASKED|22=MASKED|54=1|59=9|60=20180919-01:00:07.000|10=078|
09:00:07.004858 I FIXPUMP 		gateway3:[FIXRX] 8=FIXT.1.1|9=295|35=8|49=EXCHANGE|56=UBS|34=942|52=20180919-01:00:07.004|1128=9|11=42287|14=84|17=hB0.kV./MX6|150=F|151=196|1093=2|453=1|448=BROKERID|447=D|452=17|37=2242049|38=7442|39=1|40=1|207=UBS|48=MASKED|22=MASKED|54=1|59=9|60=20180919-01:00:07.000|10=078|
09:00:07.004858 I FIXPUMP 		gateway3:[FIXRX] 8=FIXT.1.1|9=295|35=8|49=EXCHANGE|56=UBS|34=942|52=20180919-01:00:07.004|1128=9|11=42287|14=2911|17=hB0.kV./MX6|150=F|151=0|1093=2|453=1|448=BROKERID|447=D|452=17|37=2242049|38=7442|39=2|40=1|207=UBS|48=MASKED|22=MASKED|54=0|59=9|60=20180919-01:00:07.000|10=078|
09:00:05.320249 I gateway3			[EVT.onPendingReplace:06] [MAPTX] [RPL][order.RefId=113][order.OrderId=6899][clOrdId=42287] [seqNo=67175]
09:00:07.001122 I FIXPUMP		gateway3:[FIXTX] 8=FIXT.1.1|9=218|35=G|43=N|52=20180919-01:00:07.000|122=20180919-01:00:05.320|49=UBSACCOUNT|56=EXCHANGE|34=938|11=42287|38=7442|54=2|40=1|59=9|60=20180919-01:00:05.320|48=MASKED|22=8|453=1|448=BROKERID|447=D|452=1|207=XHKG|1812=1|1813=100|1814=1|10=220|
09:00:07.004858 I FIXPUMP 		gateway3:[FIXRX] 8=FIXT.1.1|9=229|35=8|49=EXCHANGE|56=UBSACCOUNT|34=942|52=20180919-01:00:07.004|1128=9|11=42287|14=0|17=hB0.kV./MX6|150=0|151=7442|1093=2|453=1|448=BROKERID|447=D|452=1|37=2242049|38=7442|39=5|40=1|207=XHKG|48=MASKED|22=8|54=2|59=9|60=20180919-01:00:07.000|10=078|
09:00:05.320249 I gateway3			[EVT.onPending:00] [MAPTX] [NEW][order.RefId=765][order.OrderId=93894][clOrdId=94716] [seqNo=938]
09:00:07.001122 I FIXPUMP		gateway3:[FIXTX] 8=FIXT.1.1|9=218|35=D|43=N|52=20180919-01:00:07.000|122=20180919-01:00:05.320|49=UBSACCOUNT|56=EXCHANGE|34=938|11=94716|38=2683|54=2|40=1|59=9|60=20180919-01:00:05.320|48=MASKED|22=8|453=1|448=BROKERID|447=D|452=1|207=XHKG|1812=1|1813=100|1814=1|10=220|
09:00:07.004858 I FIXPUMP 		gateway3:[FIXRX] 8=FIXT.1.1|9=229|35=8|49=EXCHANGE|56=UBSACCOUNT|34=942|52=20180919-01:00:07.004|1128=9|11=94716|14=0|17=hB0.kV./MX6|150=0|151=2683|1093=2|453=1|448=BROKERID|447=D|452=1|37=2242049|38=2683|39=0|40=1|207=XHKG|48=MASKED|22=8|54=2|59=9|60=20180919-01:00:07.000|10=078|
09:00:07.004858 I FIXPUMP 		gateway3:[FIXRX] 8=FIXT.1.1|9=295|35=8|49=EXCHANGE|56=UBS|34=942|52=20180919-01:00:07.004|1128=9|11=94716|14=193|17=hB0.kV./MX6|150=F|151=2490|1093=2|453=1|448=BROKERID|447=D|452=17|37=2242049|38=2683|39=1|40=1|207=UBS|48=MASKED|22=MASKED|54=1|59=9|60=20180919-01:00:07.000|10=078|
09:00:07.004858 I FIXPUMP 		gateway3:[FIXRX] 8=FIXT.1.1|9=295|35=8|49=EXCHANGE|56=UBS|34=942|52=20180919-01:00:07.004|1128=9|11=94716|14=3213|17=hB0.kV./MX6|150=F|151=0|1093=2|453=1|448=BROKERID|447=D|452=17|37=2242049|38=2683|39=2|40=1|207=UBS|48=MASKED|22=MASKED|54=0|59=9|60=20180919-01:00:07.000|10=078|
09:00:05.320249 I gateway3			[EVT.onPendingReplace:06] [MAPTX] [RPL][order.RefId=765][order.OrderId=93894][clOrdId=94716] [seqNo=67175]
09:00:07.001122 I FIXPUMP		gateway3:[FIXTX] 8=FIXT.1.1|9=218|35=G|43=N|52=20180919-01:00:07.000|122=20180919-01:00:05.320|49=UBSACCOUNT|56=EXCHANGE|34=938|11=94716|38=2683|54=2|40=1|59=9|60=20180919-01:00:05.320|48=MASKED|22=8|453=1|448=BROKERID|447=D|452=1|207=XHKG|1812=1|1813=100|1814=1|10=220|
09:00:07.004858 I FIXPUMP 		gateway3:[FIXRX] 8=FIXT.1.1|9=229|35=8|49=EXCHANGE|56=UBSACCOUNT|34=942|52=20180919-01:00:07.004|1128=9|11=94716|14=0|17=hB0.kV./MX6|150=0|151=2683|1093=2|453=1|448=BROKERID|447=D|452=1|37=2242049|38=2683|39=5|40=1|207=XHKG|48=MASKED|22=8|54=2|59=9|60=20180919-01:00:07.000|10=078|
09:00:05.320249 I gateway3			[EVT.onPending:00] [MAPTX] [NEW][order.RefId=850][order.OrderId=64373][clOrdId=19433] [seqNo=938]
09:00:07.001122 I FIXPUMP		gateway3:[FIXTX] 8=FIXT.1.1|9=218|35=D|43=N|52=20180919-01:00:07.000|122=20180919-01:00:05.320|49=UBSACCOUNT|56=EXCHANGE|34=938|11=19433|38=7203|54=2|40=1|59=9|60=20180919-01:00:05.320|48=MASKED|22=8|453=1|448=BROKERID|447=D|452=1|207=XHKG|1812=1|1813=100|1814=1|10=220|
09:00:07.004858 I FIXPUMP 		gateway3:[FIXRX] 8=FIXT.1.1|9=229|35=8|49=EXCHANGE|56=UBSACCOUNT|34=942|52=20180919-01:00:07.004|1128=9|11=19433|14=0|17=hB0.kV./MX6|150=0|151=7203|1093=2|453=1|448=BROKERID|447=D|452=1|37=2242049|38=7203|39=0|40=1|207=XHKG|48=MASKED|22=8|54=2|59=9|60=20180919-01:00:07.000|10=078|
09:00:07.004858 I FIXPUMP 		gateway3:[FIXRX] 8=FIXT.1.1|9=295|35=8|49=EXCHANGE|56=UBS|34=942|52=20180919-01:00:07.004|1128=9|11=19433|14=4449|17=hB0.kV./MX6|150=F|151=2754|1093=2|453=1|448=BROKERID|447=D|452=17|37=2242049|38=7203|39=1|40=1|207=UBS|48=MASKED|22=MASKED|54=1|59=9|60=20180919-01:00:07.000|10=078|
09:00:07.004858 I FIXPUMP 		gateway3:[FIXRX] 8=FIXT.1.1|9=295|35=8|49=EXCHANGE|56=UBS|34=942|52=20180919-01:00:07.004|1128=9|11=19433|14=4566|17=hB0.kV./MX6|150=F|151=0|1093=2|453=1|448=BROKERID|447=D|452=17|37=2242049|38=7203|39=2|40=1|207=UBS|48=MASKED|22=MASKED|54=0|59=9|60=20180919-01:00:07.000|10=078|
09:00:05.320249 I gateway3			[EVT.onPendingReplace:06] [MAPTX] [RPL][order.RefId=850][order.OrderId=64373][clOrdId=19433] [seqNo=67175]
09:00:07.001122 I FIXPUMP		gateway3:[FIXTX] 8=FIXT.1.1|9=218|35=G|43=N|52=20180919-01:00:07.000|122=20180919-01:00:05.320|49=UBSACCOUNT|56=EXCHANGE|34=938|11=19433|38=7203|54=2|40=1|59=9|60=20180919-01:00:05.320|48=MASKED|22=8|453=1|448=BROKERID|447=D|452=1|207=XHKG|1812=1|1813=100|1814=1|10=220|
09:00:07.004858 I FIXPUMP 		gateway3:[FIXRX] 8=FIXT.1.1|9=229|35=8|49=EXCHANGE|56=UBSACCOUNT|34=942|52=20180919-01:00:07.004|1128=9|11=19433|14=0|17=hB0.kV./MX6|150=0|151=7203|1093=2|453=1|448=BROKERID|447=D|452=1|37=2242049|38=7203|39=5|40=1|207=XHKG|48=MASKED|22=8|54=2|59=9|60=20180919-01:00:07.000|10=078|
09:00:05.320249 I gateway3			[EVT.onPending:00] [MAPTX] [NEW][order.RefId=33][order.OrderId=11950][clOrdId=94448] [seqNo=938]
09:00:07.001122 I FIXPUMP		gateway3:[FIXTX] 8=FIXT.1.1|9=218|35=D|43=N|52=20180919-01:00:07.000|122=20180919-01:00:05.320|49=UBSACCOUNT|56=EXCHANGE|34=938|11=94448|38=1517|54=2|40=1|59=9|60=20180919-01:00:05.320|48=MASKED|22=8|453=1|448=BROKERID|447=D|452=1|207=XHKG|1812=1|1813=100|1814=1|10=220|
09:00:07.004858 I FIXPUMP 		gateway3:[FIXRX] 8=FIXT.1.1|9=229|35=8|49=EXCHANGE|56=UBSACCOUNT|34=942|52=20180919-01:00:07.004|1128=9|11=94448|14=0|17=hB0.kV./MX6|150=0|151=1517|1093=2|453=1|448=BROKERID|447=D|452=1|37=2242049|38=1517|39=0|40=1|207=XHKG|48=MASKED|22=8|54=2|59=9|60=20180919-01:00:07.000|10=078|
09:00:07.004858 I FIXPUMP 		gateway3:[FIXRX] 8=FIXT.1.1|9=295|35=8|49=EXCHANGE|56=UBS|34=942|52=20180919-01:00:07.004|1128=9|11=94448|14=774|17=hB0.kV./MX6|150=F|151=743|1093=2|453=1|448=BROKERID|447=D|452=17|37=2242049|38=1517|39=1|40=1|207=UBS|48=MASKED|22=MASKED|54=1|59=9|60=20180919-01:00:07.000|10=078|
09:00:07.004858 I FIXPUMP 		gateway3:[FIXRX] 8=FIXT.1.1|9=295|35=8|49=EXCHANGE|56=UBS|34=942|52=20180919-01:00:07.004|1128=9|11=94448|14=3807|17=hB0.kV./MX6|150=F|151=0|1093=2|453=1|448=BROKERID|447=D|452=17|37=2242049|38=1517|39=2|40=1|207=UBS|48=MASKED|22=MASKED|54=0|59=9|60=20180919-01:00:07.000|10=078|
09:00:05.320249 I gateway3			[EVT.onPendingReplace:06] [MAPTX] [RPL][order.RefId=33][order.OrderId=11950][clOrdId=94448] [seqNo=67175]
09:00:07.001122 I FIXPUMP		gateway3:[FIXTX] 8=FIXT.1.1|9=218|35=G|43=N|52=20180919-01:00:07.000|122=20180919-01:00:05.320|49=UBSACCOUNT|56=EXCHANGE|34=938|11=94448|38=1517|54=2|40=1|59=9|60=20180919-01:00:05.320|48=MASKED|22=8|453=1|448=BROKERID|447=D|452=1|207=XHKG|1812=1|1813=100|1814=1|10=220|
09:00:07.004858 I FIXPUMP 		gateway3:[FIXRX] 8=FIXT.1.1|9=229|35=8|49=EXCHANGE|56=UBSACCOUNT|34=942|52=20180919-01:00:07.004|1128=9|11=94448|14=0|17=hB0.kV./MX6|150=0|151=1517|1093=2|453=1|448=BROKERID|447=D|452=1|37=2242049|38=1517|39=5|40=1|207=XHKG|48=MASKED|22=8|54=2|59=9|60=20180919-01:00:07.000|10=078|
09:00:05.320249 I gateway3			[EVT.onPending:00] [MAPTX] [NEW][order.RefId=823][order.OrderId=47001][clOrdId=38618] [seqNo=938]
09:00:07.001122 I FIXPUMP		gateway3:[FIXTX] 8=FIXT.1.1|9=218|35=D|43=N|52=20180919-01:00:07.000|122=20180919-01:00:05.320|49=UBSACCOUNT|56=EXCHANGE|34=938|11=38618|38=9558|54=2|40=1|59=9|60=20180919-01:00:05.320|48=MASKED|22=8|453=1|448=BROKERID|447=D|452=1|207=XHKG|1812=1|1813=100|1814=1|10=220|
09:00:07.004858 I FIXPUMP 		gateway3:[FIXRX] 8=FIXT.1.1|9=229|35=8|49=EXCHANGE|56=UBSACCOUNT|34=942|52=20180919-01:00:07.004|1128=9|11=38618|14=0|17=hB0.kV./MX6|150=0|151=9558|1093=2|453=1|448=BROKERID|447=D|452=1|37=2242049|38=9558|39=0|40=1|207=XHKG|48=MASKED|22=8|54=2|59=9|60=20180919-01:00:07.000|10=078|
09:00:07.004858 I FIXPUMP 		gateway3:[FIXRX] 8=FIXT.1.1|9=295|35=8|49=EXCHANGE|56=UBS|34=942|52=20180919-01:00:07.004|1128=9|11=38618|14=4174|17=hB0.kV./MX6|150=F|151=5384|1093=2|453=1|448=BROKERID|447=D|452=17|37=2242049|38=9558|39=1|40=1|207=UBS|48=MASKED|22=MASKED|54=1|59=9|60=20180919-01:00:07.000|10=078|
09:00:07.004858 I FIXPUMP 		gateway3:[FIXRX] 8=FIXT.1.1|9=295|35=8|49=EXCHANGE|56=UBS|34=942|52=20180919-01:00:07.004|1128=9|11=38618|14=1070|17=hB0.kV./MX6|150=F|151=4314|1093=2|453=1|448=BROKERID|447=D|452=17|37=2242049|38=9558|39=1|40=1|207=UBS|48=MASKED|22=MASKED|54=1|59=9|60=20180919-01:00:07.000|10=078|
09:00:07.004858 I FIXPUMP 		gateway3:[FIXRX] 8=FIXT.1.1|9=295|35=8|49=EXCHANGE|56=UBS|34=942|52=20180919-01:00:07.004|1128=9|11=38618|14=1756|17=hB0.kV./MX6|150=F|151=2558|1093=2|453=1|448=BROKERID|447=D|452=17|37=2242049|38=9558|39=1|40=1|207=UBS|48=MASKED|22=MASKED|54=1|59=9|60=20180919-01:00:07.000|10=078|
09:00:07.004858 I FIXPUMP 		gateway3:[FIXRX] 8=FIXT.1.1|9=295|35=8|49=EXCHANGE|56=UBS|34=942|52=20180919-01:00:07.004|1128=9|11=38618|14=2794|17=hB0.kV./MX6|150=F|151=0|1093=2|453=1|448=BROKERID|447=D|452=17|37=2242049|38=9558|39=2|40=1|207=UBS|48=MASKED|22=MASKED|54=0|59=9|60=20180919-01:00:07.000|10=078|
09:00:05.320249 I gateway3			[EVT.onPendingReplace:06] [MAPTX] [RPL][order.RefId=823][order.OrderId=47001][clOrdId=38618] [seqNo=67175]
09:00:07.001122 I FIXPUMP		gateway3:[FIXTX] 8=FIXT.1.1|9=218|35=G|43=N|52=20180919-01:00:07.000|122=20180919-01:00:05.320|49=UBSACCOUNT|56=EXCHANGE|34=938|11=38618|38=9558|54=2|40=1|59=9|60=20180919-01:00:05.320|48=MASKED|22=8|453=1|448=BROKERID|447=D|452=1|207=XHKG|1812=1|1813=100|1814=1|10=220|
09:00:07.004858 I FIXPUMP 		gateway3:[FIXRX] 8=FIXT.1.1|9=229|35=8|49=EXCHANGE|56=UBSACCOUNT|34=942|52=20180919-01:00:07.004|1128=9|11=38618|14=0|17=hB0.kV./MX6|150=0|151=9558|1093=2|453=1|448=BROKERID|447=D|452=1|37=2242049|38=9558|39=5|40=1|207=XHKG|48=MASKED|22=8|54=2|59=9|60=20180919-01:00:07.000|10=078|
09:00:05.320249 I gateway3			[EVT.onPending:00] [MAPTX] [NEW][order.RefId=88][order.OrderId=67046][clOrdId=48799] [seqNo=938]
09:00:07.001122 I FIXPUMP		gateway3:[FIXTX] 8=FIXT.1.1|9=218|35=D|43=N|52=20180919-01:00:07.000|122=20180919-01:00:05.320|49=UBSACCOUNT|56=EXCHANGE|34=938|11=48799|38=5257|54=2|40=1|59=9|60=20180919-01:00:05.320|48=MASKED|22=8|453=1|448=BROKERID|447=D|452=1|207=XHKG|1812=1|1813=100|1814=1|10=220|
09:00:07.004858 I FIXPUMP 		gateway3:[FIXRX] 8=FIXT.1.1|9=229|35=8|49=EXCHANGE|56=UBSACCOUNT|34=942|52=20180919-01:00:07.004|1128=9|11=48799|14=0|17=hB0.kV./MX6|150=0|151=5257|1093=2|453=1|448=BROKERID|447=D|452=1|37=2242049|38=5257|39=0|40=1|207=XHKG|48=MASKED|22=8|54=2|59=9|60=20180919-01:00:07.000|10=078|
09:00:07.004858 I FIXPUMP 		gateway3:[FIXRX] 8=FIXT.1.1|9=295|35=8|49=EXCHANGE|56=UBS|34=942|52=20180919-01:00:07.004|1128=9|11=48799|14=3226|17=hB0.kV./MX6|150=F|151=2031|1093=2|453=1|448=BROKERID|447=D|452=17|37=2242049|38=5257|39=1|40=1|207=UBS|48=MASKED|22=MASKED|54=1|59=9|60=20180919-01:00:07.000|10=078|
09:00:07.004858 I FIXPUMP 		gateway3:[FIXRX] 8=FIXT.1.1|9=295|35=8|49=EXCHANGE|56=UBS|34=942|52=20180919-01:00:07.004|1128=9|11=48799|14=2843|17=hB0.kV./MX6|150=F|151=0|1093=2|453=1|448=BROKERID|447=D|452=17|37=2242049|38=5257|39=2|40=1|207=UBS|48=MASKED|22=MASKED|54=0|59=9|60=20180919-01:00:07.000|10=078|
09:00:05.320249 I gateway3			[EVT.onPendingReplace:06] [MAPTX] [RPL][order.RefId=88][order.OrderId=67046][clOrdId=48799] [seqNo=67175]
09:00:07.001122 I FIXPUMP		gateway3:[FIXTX] 8=FIXT.1.1|9=218|35=G|43=N|52=20180919-01:00:07.000|122=20180919-01:00:05.320|49=UBSACCOUNT|56=EXCHANGE|34=938|11=48799|38=5257|54=2|40=1|59=9|60=20180919-01:00:05.320|48=MASKED|22=8|453=1|448=BROKERID|447=D|452=1|207=XHKG|1812=1|1813=100|1814=1|10=220|
09:00:07.004858 I FIXPUMP 		gateway3:[FIXRX] 8=FIXT.1.1|9=229|35=8|49=EXCHANGE|56=UBSACCOUNT|34=942|52=20180919-01:00:07.004|1128=9|11=48799|14=0|17=hB0.kV./MX6|150=0|151=5257|1093=2|453=1|448=BROKERID|447=D|452=1|37=2242049|38=5257|39=5|40=1|207=XHKG|48=MASKED|22=8|54=2|59=9|60=20180919-01:00:07.000|10=078|
09:00:05.320249 I gateway3			[EVT.onPending:00] [MAPTX] [NEW][order.RefId=159][order.OrderId=76161][clOrdId=56303] [seqNo=938]
09:00:07.001122 I FIXPUMP		gateway3:[FIXTX] 8=FIXT.1.1|9=218|35=D|43=N|52=20180919-01:00:07.000|122=20180919-01:00:05.320|49=UBSACCOUNT|56=EXCHANGE|34=938|11=56303|38=8490|54=2|40=1|59=9|60=20180919-01:00:05.320|48=MASKED|22=8|453=1|448=BROKERID|447=D|452=1|207=XHKG|1812=1|1813=100|1814=1|10=220|
09:00:07.004858 I FIXPUMP 		gateway3:[FIXRX] 8=FIXT.1.1|9=229|35=8|49=EXCHANGE|56=UBSACCOUNT|34=942|52=20180919-01:00:07.004|1128=9|11=56303|14=0|17=hB0.kV./MX6|150=0|151=8490|1093=2|453=1|448=BROKERID|447=D|452=1|37=2242049|38=8490|39=0|40=1|207=XHKG|48=MASKED|22=8|54=2|59=9|60=20180919-01:00:07.000|10=078|
09:00:07.004858 I FIXPUMP 		gateway3:[FIXRX] 8=FIXT.1.1|9=295|35=8|49=EXCHANGE|56=UBS|34=942|52=20180919-01:00:07.004|1128=9|11=56303|14=2894|17=hB0.kV./MX6|150=F|151=5596|1093=2|453=1|448=BROKERID|447=D|452=17|37=2242049|38=8490|39=1|40=1|207=UBS|48=MASKED|22=MASKED|54=1|59=9|60=20180919-01:00:07.000|10=078|
09:00:07.004858 I FIXPUMP 		gateway3:[FIXRX] 8=FIXT.1.1|9=295|35=8|49=EXCHANGE|56=UBS|34=942|52=20180919-01:00:07.004|1128=9|11=56303|14=2687|17=hB0.kV./MX6|150=F|151=2909|1093=2|453=1|448=BROKERID|447=D|452=17|37=2242049|38=8490|39=1|40=1|207=UBS|48=MASKED|22=MASKED|54=1|59=9|60=20180919-01:00:07.000|10=078|
09:00:07.004858 I FIXPUMP 		gateway3:[FIXRX] 8=FIXT.1.1|9=295|35=8|49=EXCHANGE|56=UBS|34=942|52=20180919-01:00:07.004|1128=9|11=56303|14=2126|17=hB0.kV./MX6|150=F|151=783|1093=2|453=1|448=BROKERID|447=D|452=17|37=2242049|38=8490|39=1|40=1|207=UBS|48=MASKED|22=MASKED|54=1|59=9|60=20180919-01:00:07.000|10=078|
09:00:07.004858 I FIXPUMP 		gateway3:[FIXRX] 8=FIXT.1.1|9=295|35=8|49=EXCHANGE|56=UBS|34=942|52=20180919-01:00:07.004|1128=9|11=56303|14=113|17=hB0.kV./MX6|150=F|151=670|1093=2|453=1|448=BROKERID|447=D|452=17|37=2242049|38=8490|39=1|40=1|207=UBS|48=MASKED|22=MASKED|54=1|59=9|60=20180919-01:00:07.000|10=078|
09:00:07.004858 I FIXPUMP 		gateway3:[FIXRX] 8=FIXT.1.1|9=295|35=8|49=EXCHANGE|56=UBS|34=942|52=20180919-01:00:07.004|1128=9|11=56303|14=1545|17=hB0.kV./MX6|150=F|151=0|1093=2|453=1|448=BROKERID|447=D|452=17|37=2242049|38=8490|39=2|40=1|207=UBS|48=MASKED|22=MASKED|54=0|59=9|60=20180919-01:00:07.000|10=078|
09:00:05.320249 I gateway3			[EVT.onPendingReplace:06] [MAPTX] [RPL][order.RefId=159][order.OrderId=76161][clOrdId=56303] [seqNo=67175]
09:00:07.001122 I FIXPUMP		gateway3:[FIXTX] 8=FIXT.1.1|9=218|35=G|43=N|52=20180919-01:00:07.000|122=20180919-01:00:05.320|49=UBSACCOUNT|56=EXCHANGE|34=938|11=56303|38=8490|54=2|40=1|59=9|60=20180919-01:00:05.320|48=MASKED|22=8|453=1|448=BROKERID|447=D|452=1|207=XHKG|1812=1|1813=100|1814=1|10=220|
09:00:07.004858 I FIXPUMP 		gateway3:[FIXRX] 8=FIXT.1.1|9=229|35=8|49=EXCHANGE|56=UBSACCOUNT|34=942|52=20180919-01:00:07.004|1128=9|11=56303|14=0|17=hB0.kV./MX6|150=0|151=8490|1093=2|453=1|448=BROKERID|447=D|452=1|37=2242049|38=8490|39=5|40=1|207=XHKG|48=MASKED|22=8|54=2|59=9|60=20180919-01:00:07.000|10=078|
09:00:05.320249 I gateway3			[EVT.onPending:00] [MAPTX] [NEW][order.RefId=200][order.OrderId=22905][clOrdId=80344] [seqNo=938]
09:00:07.001122 I FIXPUMP		gateway3:[FIXTX] 8=FIXT.1.1|9=218|35=D|43=N|52=20180919-01:00:07.000|122=20180919-01:00:05.320|49=UBSACCOUNT|56=EXCHANGE|34=938|11=80344|38=2745|54=2|40=1|59=9|60=20180919-01:00:05.320|48=MASKED|22=8|453=1|448=BROKERID|447=D|452=1|207=XHKG|1812=1|1813=100|1814=1|10=220|
09:00:07.004858 I FIXPUMP 		gateway3:[FIXRX] 8=FIXT.1.1|9=229|35=8|49=EXCHANGE|56=UBSACCOUNT|34=942|52=20180919-01:00:07.004|1128=9|11=80344|14=0|17=hB0.kV./MX6|150=0|151=2745|1093=2|453=1|448=BROKERID|447=D|452=1|37=2242049|38=2745|39=0|40=1|207=XHKG|48=MASKED|22=8|54=2|59=9|60=20180919-01:00:07.000|10=078|
09:00:07.004858 I FIXPUMP 		gateway3:[FIXRX] 8=FIXT.1.1|9=295|35=8|49=EXCHANGE|56=UBS|34=942|52=20180919-01:00:07.004|1128=9|11=80344|14=4806|17=hB0.kV./MX6|150=F|151=0|1093=2|453=1|448=BROKERID|447=D|452=17|37=2242049|38=2745|39=2|40=1|207=UBS|48=MASKED|22=MASKED|54=0|59=9|60=20180919-01:00:07.000|10=078|
09:00:05.320249 I gateway3			[EVT.onPendingReplace:06] [MAPTX] [RPL][order.RefId=200][order.OrderId=22905][clOrdId=80344] [seqNo=67175]
09:00:07.001122 I FIXPUMP		gateway3:[FIXTX] 8=FIXT.1.1|9=218|35=G|43=N|52=20180919-01:00:07.000|122=20180919-01:00:05.320|49=UBSACCOUNT|56=EXCHANGE|34=938|11=80344|38=2745|54=2|40=1|59=9|60=20180919-01:00:05.320|48=MASKED|22=8|453=1|448=BROKERID|447=D|452=1|207=XHKG|1812=1|1813=100|1814=1|10=220|
09:00:07.004858 I FIXPUMP 		gateway3:[FIXRX] 8=FIXT.1.1|9=229|35=8|49=EXCHANGE|56=UBSACCOUNT|34=942|52=20180919-01:00:07.004|1128=9|11=80344|14=0|17=hB0.kV./MX6|150=0|151=2745|1093=2|453=1|448=BROKERID|447=D|452=1|37=2242049|38=2745|39=5|40=1|207=XHKG|48=MASKED|22=8|54=2|59=9|60=20180919-01:00:07.000|10=078|
09:00:05.320249 I gateway3			[EVT.onPending:00] [MAPTX] [NEW][order.RefId=165][order.OrderId=61255][clOrdId=801] [seqNo=938]
09:00:07.001122 I FIXPUMP		gateway3:[FIXTX] 8=FIXT.1.1|9=218|35=D|43=N|52=20180919-01:00:07.000|122=20180919-01:00:05.320|49=UBSACCOUNT|56=EXCHANGE|34=938|11=801|38=7711|54=2|40=1|59=9|60=20180919-01:00:05.320|48=MASKED|22=8|453=1|448=BROKERID|447=D|452=1|207=XHKG|1812=1|1813=100|1814=1|10=220|
09:00:07.004858 I FIXPUMP 		gateway3:[FIXRX] 8=FIXT.1.1|9=229|35=8|49=EXCHANGE|56=UBSACCOUNT|34=942|52=20180919-01:00:07.004|1128=9|11=801|14=0|17=hB0.kV./MX6|150=0|151=7711|1093=2|453=1|448=BROKERID|447=D|452=1|37=2242049|38=7711|39=0|40=1|207=XHKG|48=MASKED|22=8|54=2|59=9|60=20180919-01:00:07.000|10=078|
09:00:07.004858 I FIXPUMP 		gateway3:[FIXRX] 8=FIXT.1.1|9=295|35=8|49=EXCHANGE|56=UBS|34=942|52=20180919-01:00:07.004|1128=9|11=801|14=3598|17=hB0.kV./MX6|150=F|151=4113|1093=2|453=1|448=BROKERID|447=D|452=17|37=2242049|38=7711|39=1|40=1|207=UBS|48=MASKED|22=MASKED|54=1|59=9|60=20180919-01:00:07.000|10=078|
09:00:07.004858 I FIXPUMP 		gateway3:[FIXRX] 8=FIXT.1.1|9=295|35=8|49=EXCHANGE|56=UBS|34=942|52=20180919-01:00:07.004|1128=9|11=801|14=2231|17=hB0.kV./MX6|150=F|151=1882|1093=2|453=1|448=BROKERID|447=D|452=17|37=2242049|38=7711|39=1|40=1|207=UBS|48=MASKED|22=MASKED|54=1|59=9|60=20180919-01:00:07.000|10=078|
09:00:07.004858 I FIXPUMP 		gateway3:[FIXRX] 8=FIXT.1.1|9=295|35=8|49=EXCHANGE|56=UBS|34=942|52=20180919-01:00:07.004|1128=9|11=801|14=4103|17=hB0.kV./MX6|150=F|151=0|1093=2|453=1|448=BROKERID|447=D|452=17|37=2242049|38=7711|39=2|40=1|207=UBS|48=MASKED|22=MASKED|54=0|59=9|60=20180919-01:00:07.000|10=078|
09:00:05.320249 I gateway3			[EVT.onPendingReplace:06] [MAPTX] [RPL][order.RefId=165][order.OrderId=61255][clOrdId=801] [seqNo=67175]
09:00:07.001122 I FIXPUMP		gateway3:[FIXTX] 8=FIXT.1.1|9=218|35=G|43=N|52=20180919-01:00:07.000|122=20180919-01:00:05.320|49=UBSACCOUNT|56=EXCHANGE|34=938|11=801|38=7711|54=2|40=1|59=9|60=20180919-01:00:05.320|48=MASKED|22=8|453=1|448=BROKERID|447=D|452=1|207=XHKG|1812=1|1813=100|1814=1|10=220|
09:00:07.004858 I FIXPUMP 		gateway3:[FIXRX] 8=FIXT.1.1|9=229|35=8|49=EXCHANGE|56=UBSACCOUNT|34=942|52=20180919-01:00:07.004|1128=9|11=801|14=0|17=hB0.kV./MX6|150=0|151=7711|1093=2|453=1|448=BROKERID|447=D|452=1|37=2242049|38=7711|39=5|40=1|207=XHKG|48=MASKED|22=8|54=2|59=9|60=20180919-01:00:07.000|10=078|
09:00:05.320249 I gateway3			[EVT.onPending:00] [MAPTX] [NEW][order.RefId=730][order.OrderId=87939][clOrdId=63026] [seqNo=938]
09:00:07.001122 I FIXPUMP		gateway3:[FIXTX] 8=FIXT.1.1|9=218|35=D|43=N|52=20180919-01:00:07.000|122=20180919-01:00:05.320|49=UBSACCOUNT|56=EXCHANGE|34=938|11=63026|38=6971|54=2|40=1|59=9|60=20180919-01:00:05.320|48=MASKED|22=8|453=1|448=BROKERID|447=D|452=1|207=XHKG|1812=1|1813=100|1814=1|10=220|
09:00:07.004858 I FIXPUMP 		gateway3:[FIXRX] 8=FIXT.1.1|9=229|35=8|49=EXCHANGE|56=UBSACCOUNT|34=942|52=20180919-01:00:07.004|1128=9|11=63026|14=0|17=hB0.kV./MX6|150=0|151=6971|1093=2|453=1|448=BROKERID|447=D|452=1|37=2242049|38=6971|39=0|40=1|207=XHKG|48=MASKED|22=8|54=2|59=9|60=20180919-01:00:07.000|10=078|
09:00:07.004858 I FIXPUMP 		gateway3:[FIXRX] 8=FIXT.1.1|9=295|35=8|49=EXCHANGE|56=UBS|34=942|52=20180919-01:00:07.004|1128=9|11=63026|14=1600|17=hB0.kV./MX6|150=F|151=5371|1093=2|453=1|448=BROKERID|447=D|452=17|37=2242049|38=6971|39=1|40=1|207=UBS|48=MASKED|22=MASKED|54=1|59=9|60=20180919-01:00:07.000|10=078|
09:00:07.004858 I FIXPUMP 		gateway3:[FIXRX] 8=FIXT.1.1|9=295|35=8|49=EXCHANGE|56=UBS|34=942|52=20180919-01:00:07.004|1128=9|11=63026|14=3450|17=hB0.kV./MX6|150=F|151=1921|1093=2|453=1|448=BROKERID|447=D|452=17|37=2242049|38=6971|39=1|40=1|207=UBS|48=MASKED|22=MASKED|54=1|59=9|60=20180919-01:00:07.000|10=078|
09:00:07.004858 I FIXPUMP 		gateway3:[FIXRX] 8=FIXT.1.1|9=295|35=8|49=EXCHANGE|56=UBS|34=942|52=20180919-01:00:07.004|1128=9|11=63026|14=187|17=hB0.kV./MX6|150=F|151=1734|1093=2|453=1|448=BROKERID|447=D|452=17|37=2242049|38=6971|39=1|40=1|207=UBS|48=MASKED|22=MASKED|54=1|59=9|60=20180919-01:00:07.000|10=078|
09:00:07.004858 I FIXPUMP 		gateway3:[FIXRX] 8=FIXT.1.1|9=295|35=8|49=EXCHANGE|56=UBS|34=942|52=20180919-01:00:07.004|1128=9|11=63026|14=290|17=hB0.kV./MX6|150=F|151=1444|1093=2|453=1|448=BROKERID|447=D|452=17|37=2242049|38=6971|39=1|40=1|207=UBS|48=MASKED|22=MASKED|54=1|59=9|60=20180919-01:00:07.000|10=078|
09:00:07.004858 I FIXPUMP 		gateway3:[FIXRX] 8=FIXT.1.1|9=295|35=8|49=EXCHANGE|56=UBS|34=942|52=20180919-01:00:07.004|1128=9|11=63026|14=1407|17=hB0.kV./MX6|150=F|151=37|1093=2|453=1|448=BROKERID|447=D|452=17|37=2242049|38=6971|39=1|40=1|207=UBS|48=MASKED|22=MASKED|54=1|59=9|60=20180919-01:00:07.000|10=078|
09:00:07.004858 I FIXPUMP 		gateway3:[FIXRX] 8=FIXT.1.1|9=295|35=8|49=EXCHANGE|56=UBS|34=942|52=20180919-01:00:07.004|1128=9|11=63026|14=4898|17=hB0.kV./MX6|150=F|151=0|1093=2|453=1|448=BROKERID|447=D|452=17|37=2242049|38=6971|39=2|40=1|207=UBS|48=MASKED|22=MASKED|54=0|59=9|60=20180919-01:00:07.000|10=078|
09:00:05.320249 I gateway3			[EVT.onPendingReplace:06] [MAPTX] [RPL][order.RefId=730][order.OrderId=87939][clOrdId=63026] [seqNo=67175]
09:00:07.001122 I FIXPUMP		gateway3:[FIXTX] 8=FIXT.1.1|9=218|35=G|43=N|52=20180919-01:00:07.000|122=20180919-01:00:05.320|49=UBSACCOUNT|56=EXCHANGE|34=938|11=63026|38=6971|54=2|40=1|59=9|60=20180919-01:00:05.320|48=MASKED|22=8|453=1|448=BROKERID|447=D|452=1|207=XHKG|1812=1|1813=100|1814=1|10=220|
09:00:07.004858 I FIXPUMP 		gateway3:[FIXRX] 8=FIXT.1.1|9=229|35=8|49=EXCHANGE|56=UBSACCOUNT|34=942|52=20180919-01:00:07.004|1128=9|11=63026|14=0|17=hB0.kV./MX6|150=0|151=6971|1093=2|453=1|448=BROKERID|447=D|452=1|37=2242049|38=6971|39=5|40=1|207=XHKG|48=MASKED|22=8|54=2|59=9|60=20180919-01:00:07.000|10=078|
09:00:05.320249 I gateway3			[EVT.onPending:00] [MAPTX] [NEW][order.RefId=63][order.OrderId=41324][clOrdId=73777] [seqNo=938]
09:00:07.001122 I FIXPUMP		gateway3:[FIXTX] 8=FIXT.1.1|9=218|35=D|43=N|52=20180919-01:00:07.000|122=20180919-01:00:05.320|49=UBSACCOUNT|56=EXCHANGE|34=938|11=73777|38=4938|54=2|40=1|59=9|60=20180919-01:00:05.320|48=MASKED|22=8|453=1|448=BROKERID|447=D|452=1|207=XHKG|1812=1|1813=100|1814=1|10=220|
09:00:07.004858 I FIXPUMP 		gateway3:[FIXRX] 8=FIXT.1.1|9=229|35=8|49=EXCHANGE|56=UBSACCOUNT|34=942|52=20180919-01:00:07.004|1128=9|11=73777|14=0|17=hB0.kV./MX6|150=0|151=4938|1093=2|453=1|448=BROKERID|447=D|452=1|37=2242049|38=4938|39=0|40=1|207=XHKG|48=MASKED|22=8|54=2|59=9|60=20180919-01:00:07.000|10=078|
09:00:07.004858 I FIXPUMP 		gateway3:[FIXRX] 8=FIXT.1.1|9=295|35=8|49=EXCHANGE|56=UBS|34=942|52=20180919-01:00:07.004|1128=9|11=73777|14=4742|17=hB0.kV./MX6|150=F|151=196|1093=2|453=1|448=BROKERID|447=D|452=17|37=2242049|38=4938|39=1|40=1|207=UBS|48=MASKED|22=MASKED|54=1|59=9|60=20180919-01:00:07.000|10=078|
09:00:07.004858 I FIXPUMP 		gateway3:[FIXRX] 8=FIXT.1.1|9=295|35=8|49=EXCHANGE|56=UBS|34=942|52=20180919-01:00:07.004|1128=9|11=73777|14=2871|17=hB0.kV./MX6|150=F|151=0|1093=2|453=1|448=BROKERID|447=D|452=17|37=2242049|38=4938|39=2|40=1|207=UBS|48=MASKED|22=MASKED|54=0|59=9|60=20180919-01:00:07.000|10=078|
09:00:05.320249 I gateway3			[EVT.onPendingReplace:06] [MAPTX] [RPL][order.RefId=63][order.OrderId=41324][clOrdId=73777] [seqNo=67175]
09:00:07.001122 I FIXPUMP		gateway3:[FIXTX] 8=FIXT.1.1|9=218|35=G|43=N|52=20180919-01:00:07.000|122=20180919-01:00:05.320|49=UBSACCOUNT|56=EXCHANGE|34=938|11=73777|38=4938|54=2|40=1|59=9|60=20180919-01:00:05.320|48=MASKED|22=8|453=1|448=BROKERID|447=D|452=1|207=XHKG|1812=1|1813=100|1814=1|10=220|
09:00:07.004858 I FIXPUMP 		gateway3:[FIXRX] 8=FIXT.1.1|9=229|35=8|49=EXCHANGE|56=UBSACCOUNT|34=942|52=20180919-01:00:07.004|1128=9|11=73777|14=0|17=hB0.kV./MX6|150=0|151=4938|1093=2|453=1|448=BROKERID|447=D|452=1|37=2242049|38=4938|39=5|40=1|207=XHKG|48=MASKED|22=8|54=2|59=9|60=20180919-01:00:07.000|10=078|
09:00:05.320249 I gateway3			[EVT.onPending:00] [MAPTX] [NEW][order.RefId=423][order.OrderId=49969][clOrdId=54335] [seqNo=938]
09:00:07.001122 I FIXPUMP		gateway3:[FIXTX] 8=FIXT.1.1|9=218|35=D|43=N|52=20180919-01:00:07.000|122=20180919-01:00:05.320|49=UBSACCOUNT|56=EXCHANGE|34=938|11=54335|38=2685|54=2|40=1|59=9|60=20180919-01:00:05.320|48=MASKED|22=8|453=1|448=BROKERID|447=D|452=1|207=XHKG|1812=1|1813=100|1814=1|10=220|
09:00:07.004858 I FIXPUMP 		gateway3:[FIXRX] 8=FIXT.1.1|9=229|35=8|49=EXCHANGE|56=UBSACCOUNT|34=942|52=20180919-01:00:07.004|1128=9|11=54335|14=0|17=hB0.kV./MX6|150=0|151=2685|1093=2|453=1|448=BROKERID|447=D|452=1|37=2242049|38=2685|39=0|40=1|207=XHKG|48=MASKED|22=8|54=2|59=9|60=20180919-01:00:07.000|10=078|
09:00:07.004858 I FIXPUMP 		gateway3:[FIXRX] 8=FIXT.1.1|9=295|35=8|49=EXCHANGE|56=UBS|34=942|52=20180919-01:00:07.004|1128=9|11=54335|14=4337|17=hB0.kV./MX6|150=F|151=0|1093=2|453=1|448=BROKERID|447=D|452=17|37=2242049|38=2685|39=2|40=1|207=UBS|48=MASKED|22=MASKED|54=0|59=9|60=20180919-01:00:07.000|10=078|
09:00:05.320249 I gateway3			[EVT.onPendingReplace:06] [MAPTX] [RPL][order.RefId=423][order.OrderId=49969][clOrdId=54335] [seqNo=67175]
09:00:07.001122 I FIXPUMP		gateway3:[FIXTX] 8=FIXT.1.1|9=218|35=G|43=N|52=20180919-01:00:07.000|122=20180919-01:00:05.320|49=UBSACCOUNT|56=EXCHANGE|34=938|11=54335|38=2685|54=2|40=1|59=9|60=20180919-01:00:05.320|48=MASKED|22=8|453=1|448=BROKERID|447=D|452=1|207=XHKG|1812=1|1813=100|1814=1|10=220|
09:00:07.004858 I FIXPUMP 		gateway3:[FIXRX] 8=FIXT.1.1|9=229|35=8|49=EXCHANGE|56=UBSACCOUNT|34=942|52=20180919-01:00:07.004|1128=9|11=54335|14=0|17=hB0.kV./MX6|150=0|151=2685|1093=2|453=1|448=BROKERID|447=D|452=1|37=2242049|38=2685|39=5|40=1|207=XHKG|48=MASKED|22=8|54=2|59=9|60=20180919-01:00:07.000|10=078|
09:00:05.320249 I gateway3			[EVT.onPending:00] [MAPTX] [NEW][order.RefId=153][order.OrderId=48243][clOrdId=36217] [seqNo=938]
09:00:07.001122 I FIXPUMP		gateway3:[FIXTX] 8=FIXT.1.1|9=218|35=D|43=N|52=20180919-01:00:07.000|122=20180919-01:00:05.320|49=UBSACCOUNT|56=EXCHANGE|34=938|11=36217|38=4266|54=2|40=1|59=9|60=20180919-01:00:05.320|48=MASKED|22=8|453=1|448=BROKERID|447=D|452=1|207=XHKG|1812=1|1813=100|1814=1|10=220|
09:00:07.004858 I FIXPUMP 		gateway3:[FIXRX] 8=FIXT.1.1|9=229|35=8|49=EXCHANGE|56=UBSACCOUNT|34=942|52=20180919-01:00:07.004|1128=9|11=36217|14=0|17=hB0.kV./MX6|150=0|151=4266|1093=2|453=1|448=BROKERID|447=D|452=1|37=2242049|38=4266|39=0|40=1|207=XHKG|48=MASKED|22=8|54=2|59=9|60=20180919-01:00:07.000|10=078|
09:00:07.004858 I FIXPUMP 		gateway3:[FIXRX] 8=FIXT.1.1|9=295|35=8|49=EXCHANGE|56=UBS|34=942|52=20180919-01:00:07.004|1128=9|11=36217|14=3051|17=hB0.kV./MX6|150=F|151=1215|1093=2|453=1|448=BROKERID|447=D|452=17|37=2242049|38=4266|39=1|40=1|207=UBS|48=MASKED|22=MASKED|54=1|59=9|60=20180919-01:00:07.000|10=078|
09:00:07.004858 I FIXPUMP 		gateway3:[FIXRX] 8=FIXT.1.1|9=295|35=8|49=EXCHANGE|56=UBS|34=942|52=20180919-01:00:07.004|1128=9|11=36217|14=3150|17=hB0.kV./MX6|150=F|151=0|1093=2|453=1|448=BROKERID|447=D|452=17|37=2242049|38=4266|39=2|40=1|207=UBS|48=MASKED|22=MASKED|54=0|59=9|60=20180919-01:00:07.000|10=078|
09:00:05.320249 I gateway3			[EVT.onPendingReplace:06] [MAPTX] [RPL][order.RefId=153][order.OrderId=48243][clOrdId=36217] [seqNo=67175]
09:00:07.001122 I FIXPUMP		gateway3:[FIXTX] 8=FIXT.1.1|9=218|35=G|43=N|52=20180919-01:00:07.000|122=20180919-01:00:05.320|49=UBSACCOUNT|56=EXCHANGE|34=938|11=36217|38=4266|54=2|40=1|59=9|60=20180919-01:00:05.320|48=MASKED|22=8|453=1|448=BROKERID|447=D|452=1|207=XHKG|1812=1|1813=100|1814=1|10=220|
09:00:07.004858 I FIXPUMP 		gateway3:[FIXRX] 8=FIXT.1.1|9=229|35=8|49=EXCHANGE|56=UBSACCOUNT|34=942|52=20180919-01:00:07.004|1128=9|11=36217|14=0|17=hB0.kV./MX6|150=0|151=4266|1093=2|453=1|448=BROKERID|447=D|452=1|37=2242049|38=4266|39=5|40=1|207=XHKG|48=MASKED|22=8|54=2|59=9|60=20180919-01:00:07.000|10=078|
09:00:05.320249 I gateway3			[EVT.onPending:00] [MAPTX] [NEW][order.RefId=523][order.OrderId=3129][clOrdId=20155] [seqNo=938]
09:00:07.001122 I FIXPUMP		gateway3:[FIXTX] 8=FIXT.1.1|9=218|35=D|43=N|52=20180919-01:00:07.000|122=20180919-01:00:05.320|49=UBSACCOUNT|56=EXCHANGE|34=938|11=20155|38=2871|54=2|40=1|59=9|60=20180919-01:00:05.320|48=MASKED|22=8|453=1|448=BROKERID|447=D|452=1|207=XHKG|1812=1|1813=100|1814=1|10=220|
09:00:07.004858 I FIXPUMP 		gateway3:[FIXRX] 8=FIXT.1.1|9=229|35=8|49=EXCHANGE|56=UBSACCOUNT|34=942|52=20180919-01:00:07.004|1128=9|11=20155|14=0|17=hB0.kV./MX6|150=0|151=2871|1093=2|453=1|448=BROKERID|447=D|452=1|37=2242049|38=2871|39=0|40=1|207=XHKG|48=MASKED|22=8|54=2|59=9|60=20180919-01:00:07.000|10=078|
09:00:07.004858 I FIXPUMP 		gateway3:[FIXRX] 8=FIXT.1.1|9=295|35=8|49=EXCHANGE|56=UBS|34=942|52=20180919-01:00:07.004|1128=9|11=20155|14=3730|17=hB0.kV./MX6|150=F|151=0|1093=2|453=1|448=BROKERID|447=D|452=17|37=2242049|38=2871|39=2|40=1|207=UBS|48=MASKED|22=MASKED|54=0|59=9|60=20180919-01:00:07.000|10=078|
09:00:05.320249 I gateway3			[EVT.onPendingReplace:06] [MAPTX] [RPL][order.RefId=523][order.OrderId=3129][clOrdId=20155] [seqNo=67175]
09:00:07.001122 I FIXPUMP		gateway3:[FIXTX] 8=FIXT.1.1|9=218|35=G|43=N|52=20180919-01:00:07.000|122=20180919-01:00:05.320|49=UBSACCOUNT|56=EXCHANGE|34=938|11=20155|38=2871|54=2|40=1|59=9|60=20180919-01:00:05.320|48=MASKED|22=8|453=1|448=BROKERID|447=D|452=1|207=XHKG|1812=1|1813=100|1814=1|10=220|
09:00:07.004858 I FIXPUMP 		gateway3:[FIXRX] 8=FIXT.1.1|9=229|35=8|49=EXCHANGE|56=UBSACCOUNT|34=942|52=20180919-01:00:07.004|1128=9|11=20155|14=0|17=hB0.kV./MX6|150=0|151=2871|1093=2|453=1|448=BROKERID|447=D|452=1|37=2242049|38=2871|39=5|40=1|207=XHKG|48=MASKED|22=8|54=2|59=9|60=20180919-01:00:07.000|10=078|
09:00:05.320249 I gateway3			[EVT.onPending:00] [MAPTX] [NEW][order.RefId=590][order.OrderId=66931][clOrdId=69188] [seqNo=938]
09:00:07.001122 I FIXPUMP		gateway3:[FIXTX] 8=FIXT.1.1|9=218|35=D|43=N|52=20180919-01:00:07.000|122=20180919-01:00:05.320|49=UBSACCOUNT|56=EXCHANGE|34=938|11=69188|38=7126|54=2|40=1|59=9|60=20180919-01:00:05.320|48=MASKED|22=8|453=1|448=BROKERID|447=D|452=1|207=XHKG|1812=1|1813=100|1814=1|10=220|
09:00:07.004858 I FIXPUMP 		gateway3:[FIXRX] 8=FIXT.1.1|9=229|35=8|49=EXCHANGE|56=UBSACCOUNT|34=942|52=20180919-01:00:07.004|1128=9|11=69188|14=0|17=hB0.kV./MX6|150=0|151=7126|1093=2|453=1|448=BROKERID|447=D|452=1|37=2242049|38=7126|39=0|40=1|207=XHKG|48=MASKED|22=8|54=2|59=9|60=20180919-01:00:07.000|10=078|
09:00:07.004858 I FIXPUMP 		gateway3:[FIXRX] 8=FIXT.1.1|9=295|35=8|49=EXCHANGE|56=UBS|34=942|52=20180919-01:00:07.004|1128=9|11=69188|14=3396|17=hB0.kV./MX6|150=F|151=3730|1093=2|453=1|448=BROKERID|447=D|452=17|37=2242049|38=7126|39=1|40=1|207=UBS|48=MASKED|22=MASKED|54=1|59=9|60=20180919-01:00:07.000|10=078|
09:00:07.004858 I FIXPUMP 		gateway3:[FIXRX] 8=FIXT.1.1|9=295|35=8|49=EXCHANGE|56=UBS|34=942|52=20180919-01:00:07.004|1128=9|11=69188|14=3464|17=hB0.kV./MX6|150=F|151=266|1093=2|453=1|448=BROKERID|447=D|452=17|37=2242049|38=7126|39=1|40=1|207=UBS|48=MASKED|22=MASKED|54=1|59=9|60=20180919-01:00:07.000|10=078|
09:00:07.004858 I FIXPUMP 		gateway3:[FIXRX] 8=FIXT.1.1|9=295|35=8|49=EXCHANGE|56=UBS|34=942|52=20180919-01:00:07.004|1128=9|11=69188|14=1058|17=hB0.kV./MX6|150=F|151=0|1093=2|453=1|448=BROKERID|447=D|452=17|37=2242049|38=7126|39=2|40=1|207=UBS|48=MASKED|22=MASKED|54=0|59=9|60=20180919-01:00:07.000|10=078|
09:00:05.320249 I gateway3			[EVT.onPendingReplace:06] [MAPTX] [RPL][order.RefId=590][order.OrderId=66931][clOrdId=69188] [seqNo=67175]
09:00:07.001122 I FIXPUMP		gateway3:[FIXTX] 8=FIXT.1.1|9=218|35=G|43=N|52=20180919-01:00:07.000|122=20180919-01:00:05.320|49=UBSACCOUNT|56=EXCHANGE|34=938|11=69188|38=7126|54=2|40=1|59=9|60=20180919-01:00:05.320|48=MASKED|22=8|453=1|448=BROKERID|447=D|452=1|207=XHKG|1812=1|1813=100|1814=1|10=220|
09:00:07.004858 I FIXPUMP 		gateway3:[FIXRX] 8=FIXT.1.1|9=229|35=8|49=EXCHANGE|56=UBSACCOUNT|34=942|52=20180919-01:00:07.004|1128=9|11=69188|14=0|17=hB0.kV./MX6|150=0|151=7126|1093=2|453=1|448=BROKERID|447=D|452=1|37=2242049|38=7126|39=5|40=1|207=XHKG|48=MASKED|22=8|54=2|59=9|60=20180919-01:00:07.000|10=078|
09:00:05.320249 I gateway3			[EVT.onPending:00] [MAPTX] [NEW][order.RefId=136][order.OrderId=41904][clOrdId=33467] [seqNo=938]
09:00:07.001122 I FIXPUMP		gateway3:[FIXTX] 8=FIXT.1.1|9=218|35=D|43=N|52=20180919-01:00:07.000|122=20180919-01:00:05.320|49=UBSACCOUNT|56=EXCHANGE|34=938|11=33467|38=9704|54=2|40=1|59=9|60=20180919-01:00:05.320|48=MASKED|22=8|453=1|448=BROKERID|447=D|452=1|207=XHKG|1812=1|1813=100|1814=1|10=220|
09:00:07.004858 I FIXPUMP 		gateway3:[FIXRX] 8=FIXT.1.1|9=229|35=8|49=EXCHANGE|56=UBSACCOUNT|34=942|52=20180919-01:00:07.004|1128=9|11=33467|14=0|17=hB0.kV./MX6|150=0|151=9704|1093=2|453=1|448=BROKERID|447=D|452=1|37=2242049|38=9704|39=0|40=1|207=XHKG|48=MASKED|22=8|54=2|59=9|60=20180919-01:00:07.000|10=078|
09:00:07.004858 I FIXPUMP 		gateway3:[FIXRX] 8=FIXT.1.1|9=295|35=8|49=EXCHANGE|56=UBS|34=942|52=20180919-01:00:07.004|1128=9|11=33467|14=73|17=hB0.kV./MX6|150=F|151=9631|1093=2|453=1|448=BROKERID|447=D|452=17|37=2242049|38=9704|39=1|40=1|207=UBS|48=MASKED|22=MASKED|54=1|59=9|60=20180919-01:00:07.000|10=078|
09:00:07.004858 I FIXPUMP 		gateway3:[FIXRX] 8=FIXT.1.1|9=295|35=8|49=EXCHANGE|56=UBS|34=942|52=20180919-01:00:07.004|1128=9|11=33467|14=1046|17=hB0.kV./MX6|150=F|151=8585|1093=2|453=1|448=BROKERID|447=D|452=17|37=2242049|38=9704|39=1|40=1|207=UBS|48=MASKED|22=MASKED|54=1|59=9|60=20180919-01:00:07.000|10=078|
09:00:07.004858 I FIXPUMP 		gateway3:[FIXRX] 8=FIXT.1.1|9=295|35=8|49=EXCHANGE|56=UBS|34=942|52=20180919-01:00:07.004|1128=9|11=33467|14=454|17=hB0.kV./MX6|150=F|151=8131|1093=2|453=1|448=BROKERID|447=D|452=17|37=2242049|38=9704|39=1|40=1|207=UBS|48=MASKED|22=MASKED|54=1|59=9|60=20180919-01:00:07.000|10=078|
09:00:07.004858 I FIXPUMP 		gateway3:[FIXRX] 8=FIXT.1.1|9=295|35=8|49=EXCHANGE|56=UBS|34=942|52=20180919-01:00:07.004|1128=9|11=33467|14=1336|17=hB0.kV./MX6|150=F|151=6795|1093=2|453=1|448=BROKERID|447=D|452=17|37=2242049|38=9704|39=1|40=1|207=UBS|48=MASKED|22=MASKED|54=1|59=9|60=20180919-01:00:07.000|10=078|
09:00:07.004858 I FIXPUMP 		gateway3:[FIXRX] 8=FIXT.1.1|9=295|35=8|49=EXCHANGE|56=UBS|34=942|52=20180919-01:00:07.004|1128=9|11=33467|14=2618|17=hB0.kV./MX6|150=F|151=4177|1093=2|453=1|448=BROKERID|447=D|452=17|37=2242049|38=9704|39=1|40=1|207=UBS|48=MASKED|22=MASKED|54=1|59=9|60=20180919-01:00:07.000|10=078|
09:00:07.004858 I FIXPUMP 		gateway3:[FIXRX] 8=FIXT.1.1|9=295|35=8|49=EXCHANGE|56=UBS|34=942|52=20180919-01:00:07.004|1128=9|11=33467|14=2385|17=hB0.kV./MX6|150=F|151=1792|1093=2|453=1|448=BROKERID|447=D|452=17|37=2242049|38=9704|39=1|40=1|207=UBS|48=MASKED|22=MASKED|54=1|59=9|60=20180919-01:00:07.000|10=078|
09:00:07.004858 I FIXPUMP 		gateway3:[FIXRX] 8=FIXT.1.1|9=295|35=8|49=EXCHANGE|56=UBS|34=942|52=20180919-01:00:07.004|1128=9|11=33467|14=560|17=hB0.kV./MX6|150=F|151=1232|1093=2|453=1|448=BROKERID|447=D|452=17|37=2242049|38=9704|39=1|40=1|207=UBS|48=MASKED|22=MASKED|54=1|59=9|60=20180919-01:00:07.000|10=078|
09:00:07.004858 I FIXPUMP 		gateway3:[FIXRX] 8=FIXT.1.1|9=295|35=8|49=EXCHANGE|56=UBS|34=942|52=20180919-01:00:07.004|1128=9|11=33467|14=3377|17=hB0.kV./MX6|150=F|151=0|1093=2|453=1|448=BROKERID|447=D|452=17|37=2242049|38=9704|39=2|40=1|207=UBS|48=MASKED|22=MASKED|54=0|59=9|60=20180919-01:00:07.000|10=078|
09:00:05.320249 I gateway3			[EVT.onPendingReplace:06] [MAPTX] [RPL][order.RefId=136][order.OrderId=41904][clOrdId=33467] [seqNo=67175]
09:00:07.001122 I FIXPUMP		gateway3:[FIXTX] 8=FIXT.1.1|9=218|35=G|43=N|52=20180919-01:00:07.000|122=20180919-01:00:05.320|49=UBSACCOUNT|56=EXCHANGE|34=938|11=33467|38=9704|54=2|40=1|59=9|60=20180919-01:00:05.320|48=MASKED|22=8|453=1|448=BROKERID|447=D|452=1|207=XHKG|1812=1|1813=100|1814=1|10=220|
09:00:07.004858 I FIXPUMP 		gateway3:[FIXRX] 8=FIXT.1.1|9=229|35=8|49=EXCHANGE|56=UBSACCOUNT|34=942|52=20180919-01:00:07.004|1128=9|11=33467|14=0|17=hB0.kV./MX6|150=0|151=9704|1093=2|453=1|448=BROKERID|447=D|452=1|37=2242049|38=9704|39=5|40=1|207=XHKG|48=MASKED|22=8|54=2|59=9|60=20180919-01:00:07.000|10=078|
09:00:05.320249 I gateway3			[EVT.onPending:00] [MAPTX] [NEW][order.RefId=923][order.OrderId=4306][clOrdId=43973] [seqNo=938]
09:00:07.001122 I FIXPUMP		gateway3:[FIXTX] 8=FIXT.1.1|9=218|35=D|43=N|52=20180919-01:00:07.000|122=20180919-01:00:05.320|49=UBSACCOUNT|56=EXCHANGE|34=938|11=43973|38=6452|54=2|40=1|59=9|60=20180919-01:00:05.320|48=MASKED|22=8|453=1|448=BROKERID|447=D|452=1|207=XHKG|1812=1|1813=100|1814=1|10=220|
09:00:07.004858 I FIXPUMP 		gateway3:[FIXRX] 8=FIXT.1.1|9=229|35=8|49=EXCHANGE|56=UBSACCOUNT|34=942|52=20180919-01:00:07.004|1128=9|11=43973|14=0|17=hB0.kV./MX6|150=0|151=6452|1093=2|453=1|448=BROKERID|447=D|452=1|37=2242049|38=6452|39=0|40=1|207=XHKG|48=MASKED|22=8|54=2|59=9|60=20180919-01:00:07.000|10=078|
09:00:07.004858 I FIXPUMP 		gateway3:[FIXRX] 8=FIXT.1.1|9=295|35=8|49=EXCHANGE|56=UBS|34=942|52=20180919-01:00:07.004|1128=9|11=43973|14=4801|17=hB0.kV./MX6|150=F|151=1651|1093=2|453=1|448=BROKERID|447=D|452=17|37=2242049|38=6452|39=1|40=1|207=UBS|48=MASKED|22=MASKED|54=1|59=9|60=20180919-01:00:07.000|10=078|
09:00:07.004858 I FIXPUMP 		gateway3:[FIXRX] 8=FIXT.1.1|9=295|35=8|49=EXCHANGE|56=UBS|34=942|52=20180919-01:00:07.004|1128=9|11=43973|14=3703|17=hB0.kV./MX6|150=F|151=0|1093=2|453=1|448=BROKERID|447=D|452=17|37=2242049|38=6452|39=2|40=1|207=UBS|48=MASKED|22=MASKED|54=0|59=9|60=20180919-01:00:07.000|10=078|
09:00:05.320249 I gateway3			[EVT.onPendingReplace:06] [MAPTX] [RPL][order.RefId=923][order.OrderId=4306][clOrdId=43973] [seqNo=67175]
09:00:07.001122 I FIXPUMP		gateway3:[FIXTX] 8=FIXT.1.1|9=218|35=G|43=N|52=20180919-01:00:07.000|122=20180919-01:00:05.320|49=UBSACCOUNT|56=EXCHANGE|34=938|11=43973|38=6452|54=2|40=1|59=9|60=20180919-01:00:05.320|48=MASKED|22=8|453=1|448=BROKERID|447=D|452=1|207=XHKG|1812=1|1813=100|1814=1|10=220|
09:00:07.004858 I FIXPUMP 		gateway3:[FIXRX] 8=FIXT.1.1|9=229|35=8|49=EXCHANGE|56=UBSACCOUNT|34=942|52=20180919-01:00:07.004|1128=9|11=43973|14=0|17=hB0.kV./MX6|150=0|151=6452|1093=2|453=1|448=BROKERID|447=D|452=1|37=2242049|38=6452|39=5|40=1|207=XHKG|48=MASKED|22=8|54=2|59=9|60=20180919-01:00:07.000|10=078|
09:00:05.320249 I gateway3			[EVT.onPending:00] [MAPTX] [NEW][order.RefId=150][order.OrderId=20723][clOrdId=82975] [seqNo=938]
09:00:07.001122 I FIXPUMP		gateway3:[FIXTX] 8=FIXT.1.1|9=218|35=D|43=N|52=20180919-01:00:07.000|122=20180919-01:00:05.320|49=UBSACCOUNT|56=EXCHANGE|34=938|11=82975|38=9247|54=2|40=1|59=9|60=20180919-01:00:05.320|48=MASKED|22=8|453=1|448=BROKERID|447=D|452=1|207=XHKG|1812=1|1813=100|1814=1|10=220|
09:00:07.004858 I FIXPUMP 		gateway3:[FIXRX] 8=FIXT.1.1|9=229|35=8|49=EXCHANGE|56=UBSACCOUNT|34=942|52=20180919-01:00:07.004|1128=9|11=82975|14=0|17=hB0.kV./MX6|150=0|151=9247|1093=2|453=1|448=BROKERID|447=D|452=1|37=2242049|38=9247|39=0|40=1|207=XHKG|48=MASKED|22=8|54=2|59=9|60=20180919-01:00:07.000|10=078|
09:00:07.004858 I FIXPUMP 		gateway3:[FIXRX] 8=FIXT.1.1|9=295|35=8|49=EXCHANGE|56=UBS|34=942|52=20180919-01:00:07.004|1128=9|11=82975|14=1678|17=hB0.kV./MX6|150=F|151=7569|1093=2|453=1|448=BROKERID|447=D|452=17|37=2242049|38=9247|39=1|40=1|207=UBS|48=MASKED|22=MASKED|54=1|59=9|60=20180919-01:00:07.000|10=078|
09:00:07.004858 I FIXPUMP 		gateway3:[FIXRX] 8=FIXT.1.1|9=295|35=8|49=EXCHANGE|56=UBS|34=942|52=20180919-01:00:07.004|1128=9|11=82975|14=1753|17=hB0.kV./MX6|150=F|151=5816|1093=2|453=1|448=BROKERID|447=D|452=17|37=2242049|38=9247|39=1|40=1|207=UBS|48=MASKED|22=MASKED|54=1|59=9|60=20180919-01:00:07.000|10=078|
09:00:07.004858 I FIXPUMP 		gateway3:[FIXRX] 8=FIXT.1.1|9=295|35=8|49=EXCHANGE|56=UBS|34=942|52=20180919-01:00:07.004|1128=9|11=82975|14=1762|17=hB0.kV./MX6|150=F|151=4054|1093=2|453=1|448=BROKERID|447=D|452=17|37=2242049|38=9247|39=1|40=1|207=UBS|48=MASKED|22=MASKED|54=1|59=9|60=20180919-01:00:07.000|10=078|
09:00:07.004858 I FIXPUMP 		gateway3:[FIXRX] 8=FIXT.1.1|9=295|35=8|49=EXCHANGE|56=UBS|34=942|52=20180919-01:00:07.004|1128=9|11=82975|14=907|17=hB0.kV./MX6|150=F|151=3147|1093=2|453=1|448=BROKERID|447=D|452=17|37=2242049|38=9247|39=1|40=1|207=UBS|48=MASKED|22=MASKED|54=1|59=9|60=20180919-01:00:07.000|10=078|
09:00:07.004858 I FIXPUMP 		gateway3:[FIXRX] 8=FIXT.1.1|9=295|35=8|49=EXCHANGE|56=UBS|34=942|52=20180919-01:00:07.004|1128=9|11=82975|14=479|17=hB0.kV./MX6|150=F|151=2668|1093=2|453=1|448=BROKERID|447=D|452=17|37=2242049|38=9247|39=1|40=1|207=UBS|48=MASKED|22=MASKED|54=1|59=9|60=20180919-01:00:07.000|10=078|
09:00:07.004858 I FIXPUMP 		gateway3:[FIXRX] 8=FIXT.1.1|9=295|35=8|49=EXCHANGE|56=UBS|34=942|52=20180919-01:00:07.004|1128=9|11=82975|14=3815|17=hB0.kV./MX6|150=F|151=0|1093=2|453=1|448=BROKERID|447=D|452=17|37=2242049|38=9247|39=2|40=1|207=UBS|48=MASKED|22=MASKED|54=0|59=9|60=20180919-01:00:07.000|10=078|
09:00:05.320249 I gateway3			[EVT.onPendingReplace:06] [MAPTX] [RPL][order.RefId=150][order.OrderId=20723][clOrdId=82975] [seqNo=67175]
09:00:07.001122 I FIXPUMP		gateway3:[FIXTX] 8=FIXT.1.1|9=218|35=G|43=N|52=20180919-01:00:07.000|122=20180919-01:00:05.320|49=UBSACCOUNT|56=EXCHANGE|34=938|11=82975|38=9247|54=2|40=1|59=9|60=20180919-01:00:05.320|48=MASKED|22=8|453=1|448=BROKERID|447=D|452=1|207=XHKG|1812=1|1813=100|1814=1|10=220|
09:00:07.004858 I FIXPUMP 		gateway3:[FIXRX] 8=FIXT.1.1|9=229|35=8|49=EXCHANGE|56=UBSACCOUNT|34=942|52=20180919-01:00:07.004|1128=9|11=82975|14=0|17=hB0.kV./MX6|150=0|151=9247|1093=2|453=1|448=BROKERID|447=D|452=1|37=2242049|38=9247|39=5|40=1|207=XHKG|48=MASKED|22=8|54=2|59=9|60=20180919-01:00:07.000|10=078|
09:00:05.320249 I gateway3			[EVT.onPending:00] [MAPTX] [NEW][order.RefId=723][order.OrderId=64780][clOrdId=49520] [seqNo=938]
09:00:07.001122 I FIXPUMP		gateway3:[FIXTX] 8=FIXT.1.1|9=218|35=D|43=N|52=20180919-01:00:07.000|122=20180919-01:00:05.320|49=UBSACCOUNT|56=EXCHANGE|34=938|11=49520|38=1064|54=2|40=1|59=9|60=20180919-01:00:05.320|48=MASKED|22=8|453=1|448=BROKERID|447=D|452=1|207=XHKG|1812=1|1813=100|1814=1|10=220|
09:00:07.004858 I FIXPUMP 		gateway3:[FIXRX] 8=FIXT.1.1|9=229|35=8|49=EXCHANGE|56=UBSACCOUNT|34=942|52=20180919-01:00:07.004|1128=9|11=49520|14=0|17=hB0.kV./MX6|150=0|151=1064|1093=2|453=1|448=BROKERID|447=D|452=1|37=2242049|38=1064|39=0|40=1|207=XHKG|48=MASKED|22=8|54=2|59=9|60=20180919-01:00:07.000|10=078|
09:00:07.004858 I FIXPUMP 		gateway3:[FIXRX] 8=FIXT.1.1|9=295|35=8|49=EXCHANGE|56=UBS|34=942|52=20180919-01:00:07.004|1128=9|11=49520|14=3422|17=hB0.kV./MX6|150=F|151=0|1093=2|453=1|448=BROKERID|447=D|452=17|37=2242049|38=1064|39=2|40=1|207=UBS|48=MASKED|22=MASKED|54=0|59=9|60=20180919-01:00:07.000|10=078|
09:00:05.320249 I gateway3			[EVT.onPendingReplace:06] [MAPTX] [RPL][order.RefId=723][order.OrderId=64780][clOrdId=49520] [seqNo=67175]
09:00:07.001122 I FIXPUMP		gateway3:[FIXTX] 8=FIXT.1.1|9=218|35=G|43=N|52=20180919-01:00:07.000|122=20180919-01:00:05.320|49=UBSACCOUNT|56=EXCHANGE|34=938|11=49520|38=1064|54=2|40=1|59=9|60=20180919-01:00:05.320|48=MASKED|22=8|453=1|448=BROKERID|447=D|452=1|207=XHKG|1812=1|1813=100|1814=1|10=220|
09:00:07.004858 I FIXPUMP 		gateway3:[FIXRX] 8=FIXT.1.1|9=229|35=8|49=EXCHANGE|56=UBSACCOUNT|34=942|52=20180919-01:00:07.004|1128=9|11=49520|14=0|17=hB0.kV./MX6|150=0|151=1064|1093=2|453=1|448=BROKERID|447=D|452=1|37=2242049|38=1064|39=5|40=1|207=XHKG|48=MASKED|22=8|54=2|59=9|60=20180919-01:00:07.000|10=078|
09:00:05.320249 I gateway3			[EVT.onPending:00] [MAPTX] [NEW][order.RefId=193][order.OrderId=3115][clOrdId=3195] [seqNo=938]
09:00:07.001122 I FIXPUMP		gateway3:[FIXTX] 8=FIXT.1.1|9=218|35=D|43=N|52=20180919-01:00:07.000|122=20180919-01:00:05.320|49=UBSACCOUNT|56=EXCHANGE|34=938|11=3195|38=4222|54=2|40=1|59=9|60=20180919-01:00:05.320|48=MASKED|22=8|453=1|448=BROKERID|447=D|452=1|207=XHKG|1812=1|1813=100|1814=1|10=220|
09:00:07.004858 I FIXPUMP 		gateway3:[FIXRX] 8=FIXT.1.1|9=229|35=8|49=EXCHANGE|56=UBSACCOUNT|34=942|52=20180919-01:00:07.004|1128=9|11=3195|14=0|17=hB0.kV./MX6|150=0|151=4222|1093=2|453=1|448=BROKERID|447=D|452=1|37=2242049|38=4222|39=0|40=1|207=XHKG|48=MASKED|22=8|54=2|59=9|60=20180919-01:00:07.000|10=078|
09:00:07.004858 I FIXPUMP 		gateway3:[FIXRX] 8=FIXT.1.1|9=295|35=8|49=EXCHANGE|56=UBS|34=942|52=20180919-01:00:07.004|1128=9|11=3195|14=683|17=hB0.kV./MX6|150=F|151=3539|1093=2|453=1|448=BROKERID|447=D|452=17|37=2242049|38=4222|39=1|40=1|207=UBS|48=MASKED|22=MASKED|54=1|59=9|60=20180919-01:00:07.000|10=078|
09:00:07.004858 I FIXPUMP 		gateway3:[FIXRX] 8=FIXT.1.1|9=295|35=8|49=EXCHANGE|56=UBS|34=942|52=20180919-01:00:07.004|1128=9|11=3195|14=3358|17=hB0.kV./MX6|150=F|151=181|1093=2|453=1|448=BROKERID|447=D|452=17|37=2242049|38=4222|39=1|40=1|207=UBS|48=MASKED|22=MASKED|54=1|59=9|60=20180919-01:00:07.000|10=078|
09:00:07.004858 I FIXPUMP 		gateway3:[FIXRX] 8=FIXT.1.1|9=295|35=8|49=EXCHANGE|56=UBS|34=942|52=20180919-01:00:07.004|1128=9|11=3195|14=4098|17=hB0.kV./MX6|150=F|151=0|1093=2|453=1|448=BROKERID|447=D|452=17|37=2242049|38=4222|39=2|40=1|207=UBS|48=MASKED|22=MASKED|54=0|59=9|60=20180919-01:00:07.000|10=078|
09:00:05.320249 I gateway3			[EVT.onPendingReplace:06] [MAPTX] [RPL][order.RefId=193][order.OrderId=3115][clOrdId=3195] [seqNo=67175]
09:00:07.001122 I FIXPUMP		gateway3:[FIXTX] 8=FIXT.1.1|9=218|35=G|43=N|52=20180919-01:00:07.000|122=20180919-01:00:05.320|49=UBSACCOUNT|56=EXCHANGE|34=938|11=3195|38=4222|54=2|40=1|59=9|60=20180919-01:00:05.320|48=MASKED|22=8|453=1|448=BROKERID|447=D|452=1|207=XHKG|1812=1|1813=100|1814=1|10=220|
09:00:07.004858 I FIXPUMP 		gateway3:[FIXRX] 8=FIXT.1.1|9=229|35=8|49=EXCHANGE|56=UBSACCOUNT|34=942|52=20180919-01:00:07.004|1128=9|11=3195|14=0|17=hB0.kV./MX6|150=0|151=4222|1093=2|453=1|448=BROKERID|447=D|452=1|37=2242049|38=4222|39=5|40=1|207=XHKG|48=MASKED|22=8|54=2|59=9|60=20180919-01:00:07.000|10=078|
09:00:05.320249 I gateway3			[EVT.onPending:00] [MAPTX] [NEW][order.RefId=611][order.OrderId=82048][clOrdId=36452] [seqNo=938]
09:00:07.001122 I FIXPUMP		gateway3:[FIXTX] 8=FIXT.1.1|9=218|35=D|43=N|52=20180919-01:00:07.000|122=20180919-01:00:05.320|49=UBSACCOUNT|56=EXCHANGE|34=938|11=36452|38=3824|54=2|40=1|59=9|60=20180919-01:00:05.320|48=MASKED|22=8|453=1|448=BROKERID|447=D|452=1|207=XHKG|1812=1|1813=100|1814=1|10=220|
09:00:07.004858 I FIXPUMP 		gateway3:[FIXRX] 8=FIXT.1.1|9=229|35=8|49=EXCHANGE|56=UBSACCOUNT|34=942|52=20180919-01:00:07.004|1128=9|11=36452|14=0|17=hB0.kV./MX6|150=0|151=3824|1093=2|453=1|448=BROKERID|447=D|452=1|37=2242049|38=3824|39=0|40=1|207=XHKG|48=MASKED|22=8|54=2|59=9|60=20180919-01:00:07.000|10=078|
09:00:07.004858 I FIXPUMP 		gateway3:[FIXRX] 8=FIXT.1.1|9=295|35=8|49=EXCHANGE|56=UBS|34=942|52=20180919-01:00:07.004|1128=9|11=36452|14=2061|17=hB0.kV./MX6|150=F|151=1763|1093=2|453=1|448=BROKERID|447=D|452=17|37=2242049|38=3824|39=1|40=1|207=UBS|48=MASKED|22=MASKED|54=1|59=9|60=20180919-01:00:07.000|10=078|
09:00:07.004858 I FIXPUMP 		gateway3:[FIXRX] 8=FIXT.1.1|9=295|35=8|49=EXCHANGE|56=UBS|34=942|52=20180919-01:00:07.004|1128=9|11=36452|14=4157|17=hB0.kV./MX6|150=F|151=0|1093=2|453=1|448=BROKERID|447=D|452=17|37=2242049|38=3824|39=2|40=1|207=UBS|48=MASKED|22=MASKED|54=0|59=9|60=20180919-01:00:07.000|10=078|
09:00:05.320249 I gateway3			[EVT.onPendingReplace:06] [MAPTX] [RPL][order.RefId=611][order.OrderId=82048][clOrdId=36452] [seqNo=67175]
09:00:07.001122 I FIXPUMP		gateway3:[FIXTX] 8=FIXT.1.1|9=218|35=G|43=N|52=20180919-01:00:07.000|122=20180919-01:00:05.320|49=UBSACCOUNT|56=EXCHANGE|34=938|11=36452|38=3824|54=2|40=1|59=9|60=20180919-01:00:05.320|48=MASKED|22=8|453=1|448=BROKERID|447=D|452=1|207=XHKG|1812=1|1813=100|1814=1|10=220|
09:00:07.004858 I FIXPUMP 		gateway3:[FIXRX] 8=FIXT.1.1|9=229|35=8|49=EXCHANGE|56=UBSACCOUNT|34=942|52=20180919-01:00:07.004|1128=9|11=36452|14=0|17=hB0.kV./MX6|150=0|151=3824|1093=2|453=1|448=BROKERID|447=D|452=1|37=2242049|38=3824|39=5|40=1|207=XHKG|48=MASKED|22=8|54=2|59=9|60=20180919-01:00:07.000|10=078|
09:00:05.320249 I gateway3			[EVT.onPending:00] [MAPTX] [NEW][order.RefId=647][order.OrderId=90953][clOrdId=61440] [seqNo=938]
09:00:07.001122 I FIXPUMP		gateway3:[FIXTX] 8=FIXT.1.1|9=218|35=D|43=N|52=20180919-01:00:07.000|122=20180919-01:00:05.320|49=UBSACCOUNT|56=EXCHANGE|34=938|11=61440|38=4953|54=2|40=1|59=9|60=20180919-01:00:05.320|48=MASKED|22=8|453=1|448=BROKERID|447=D|452=1|207=XHKG|1812=1|1813=100|1814=1|10=220|
09:00:07.004858 I FIXPUMP 		gateway3:[FIXRX] 8=FIXT.1.1|9=229|35=8|49=EXCHANGE|56=UBSACCOUNT|34=942|52=20180919-01:00:07.004|1128=9|11=61440|14=0|17=hB0.kV./MX6|150=0|151=4953|1093=2|453=1|448=BROKERID|447=D|452=1|37=2242049|38=4953|39=0|40=1|207=XHKG|48=MASKED|22=8|54=2|59=9|60=20180919-01:00:07.000|10=078|
09:00:07.004858 I FIXPUMP 		gateway3:[FIXRX] 8=FIXT.1.1|9=295|35=8|49=EXCHANGE|56=UBS|34=942|52=20180919-01:00:07.004|1128=9|11=61440|14=1819|17=hB0.kV./MX6|150=F|151=3134|1093=2|453=1|448=BROKERID|447=D|452=17|37=2242049|38=4953|39=1|40=1|207=UBS|48=MASKED|22=MASKED|54=1|59=9|60=20180919-01:00:07.000|10=078|
09:00:07.004858 I FIXPUMP 		gateway3:[FIXRX] 8=FIXT.1.1|9=295|35=8|49=EXCHANGE|56=UBS|34=942|52=20180919-01:00:07.004|1128=9|11=61440|14=1106|17=hB0.kV./MX6|150=F|151=2028|1093=2|453=1|448=BROKERID|447=D|452=17|37=2242049|38=4953|39=1|40=1|207=UBS|48=MASKED|22=MASKED|54=1|59=9|60=20180919-01:00:07.000|10=078|
09:00:07.004858 I FIXPUMP 		gateway3:[FIXRX] 8=FIXT.1.1|9=295|35=8|49=EXCHANGE|56=UBS|34=942|52=20180919-01:00:07.004|1128=9|11=61440|14=2590|17=hB0.kV./MX6|150=F|151=0|1093=2|453=1|448=BROKERID|447=D|452=17|37=2242049|38=4953|39=2|40=1|207=UBS|48=MASKED|22=MASKED|54=0|59=9|60=20180919-01:00:07.000|10=078|
09:00:05.320249 I gateway3			[EVT.onPendingReplace:06] [MAPTX] [RPL][order.RefId=647][order.OrderId=90953][clOrdId=61440] [seqNo=67175]
09:00:07.001122 I FIXPUMP		gateway3:[FIXTX] 8=FIXT.1.1|9=218|35=G|43=N|52=20180919-01:00:07.000|122=20180919-01:00:05.320|49=UBSACCOUNT|56=EXCHANGE|34=938|11=61440|38=4953|54=2|40=1|59=9|60=20180919-01:00:05.320|48=MASKED|22=8|453=1|448=BROKERID|447=D|452=1|207=XHKG|1812=1|1813=100|1814=1|10=220|
09:00:07.004858 I FIXPUMP 		gateway3:[FIXRX] 8=FIXT.1.1|9=229|35=8|49=EXCHANGE|56=UBSACCOUNT|34=942|52=20180919-01:00:07.004|1128=9|11=61440|14=0|17=hB0.kV./MX6|150=0|151=4953|1093=2|453=1|448=BROKERID|447=D|452=1|37=2242049|38=4953|39=5|40=1|207=XHKG|48=MASKED|22=8|54=2|59=9|60=20180919-01:00:07.000|10=078|
09:00:05.320249 I gateway3			[EVT.onPending:00] [MAPTX] [NEW][order.RefId=788][order.OrderId=95614][clOrdId=34369] [seqNo=938]
09:00:07.001122 I FIXPUMP		gateway3:[FIXTX] 8=FIXT.1.1|9=218|35=D|43=N|52=20180919-01:00:07.000|122=20180919-01:00:05.320|49=UBSACCOUNT|56=EXCHANGE|34=938|11=34369|38=2850|54=2|40=1|59=9|60=20180919-01:00:05.320|48=MASKED|22=8|453=1|448=BROKERID|447=D|452=1|207=XHKG|1812=1|1813=100|1814=1|10=220|
09:00:07.004858 I FIXPUMP 		gateway3:[FIXRX] 8=FIXT.1.1|9=229|35=8|49=EXCHANGE|56=UBSACCOUNT|34=942|52=20180919-01:00:07.004|1128=9|11=34369|14=0|17=hB0.kV./MX6|150=0|151=2850|1093=2|453=1|448=BROKERID|447=D|452=1|37=2242049|38=2850|39=0|40=1|207=XHKG|48=MASKED|22=8|54=2|59=9|60=20180919-01:00:07.000|10=078|
09:00:07.004858 I FIXPUMP 		gateway3:[FIXRX] 8=FIXT.1.1|9=295|35=8|49=EXCHANGE|56=UBS|34=942|52=20180919-01:00:07.004|1128=9|11=34369|14=3463|17=hB0.kV./MX6|150=F|151=0|1093=2|453=1|448=BROKERID|447=D|452=17|37=2242049|38=2850|39=2|40=1|207=UBS|48=MASKED|22=MASKED|54=0|59=9|60=20180919-01:00:07.000|10=078|
09:00:05.320249 I gateway3			[EVT.onPendingReplace:06] [MAPTX] [RPL][order.RefId=788][order.OrderId=95614][clOrdId=34369] [seqNo=67175]
09:00:07.001122 I FIXPUMP		gateway3:[FIXTX] 8=FIXT.1.1|9=218|35=G|43=N|52=20180919-01:00:07.000|122=20180919-01:00:05.320|49=UBSACCOUNT|56=EXCHANGE|34=938|11=34369|38=2850|54=2|40=1|59=9|60=20180919-01:00:05.320|48=MASKED|22=8|453=1|448=BROKERID|447=D|452=1|207=XHKG|1812=1|1813=100|1814=1|10=220|
09:00:07.004858 I FIXPUMP 		gateway3:[FIXRX] 8=FIXT.1.1|9=229|35=8|49=EXCHANGE|56=UBSACCOUNT|34=942|52=20180919-01:00:07.004|1128=9|11=34369|14=0|17=hB0.kV./MX6|150=0|151=2850|1093=2|453=1|448=BROKERID|447=D|452=1|37=2242049|38=2850|39=5|40=1|207=XHKG|48=MASKED|22=8|54=2|59=9|60=20180919-01:00:07.000|10=078|
09:00:05.320249 I gateway3			[EVT.onPending:00] [MAPTX] [NEW][order.RefId=278][order.OrderId=95076][clOrdId=83991] [seqNo=938]
09:00:07.001122 I FIXPUMP		gateway3:[FIXTX] 8=FIXT.1.1|9=218|35=D|43=N|52=20180919-01:00:07.000|122=20180919-01:00:05.320|49=UBSACCOUNT|56=EXCHANGE|34=938|11=83991|38=5520|54=2|40=1|59=9|60=20180919-01:00:05.320|48=MASKED|22=8|453=1|448=BROKERID|447=D|452=1|207=XHKG|1812=1|1813=100|1814=1|10=220|
09:00:07.004858 I FIXPUMP 		gateway3:[FIXRX] 8=FIXT.1.1|9=229|35=8|49=EXCHANGE|56=UBSACCOUNT|34=942|52=20180919-01:00:07.004|1128=9|11=83991|14=0|17=hB0.kV./MX6|150=0|151=5520|1093=2|453=1|448=BROKERID|447=D|452=1|37=2242049|38=5520|39=0|40=1|207=XHKG|48=MASKED|22=8|54=2|59=9|60=20180919-01:00:07.000|10=078|
09:00:07.004858 I FIXPUMP 		gateway3:[FIXRX] 8=FIXT.1.1|9=295|35=8|49=EXCHANGE|56=UBS|34=942|52=20180919-01:00:07.004|1128=9|11=83991|14=2997|17=hB0.kV./MX6|150=F|151=2523|1093=2|453=1|448=BROKERID|447=D|452=17|37=2242049|38=5520|39=1|40=1|207=UBS|48=MASKED|22=MASKED|54=1|59=9|60=20180919-01:00:07.000|10=078|
09:00:07.004858 I FIXPUMP 		gateway3:[FIXRX] 8=FIXT.1.1|9=295|35=8|49=EXCHANGE|56=UBS|34=942|52=20180919-01:00:07.004|1128=9|11=83991|14=4727|17=hB0.kV./MX6|150=F|151=0|1093=2|453=1|448=BROKERID|447=D|452=17|37=2242049|38=5520|39=2|40=1|207=UBS|48=MASKED|22=MASKED|54=0|59=9|60=20180919-01:00:07.000|10=078|
09:00:05.320249 I gateway3			[EVT.onPendingReplace:06] [MAPTX] [RPL][order.RefId=278][order.OrderId=95076][clOrdId=83991] [seqNo=67175]
09:00:07.001122 I FIXPUMP		gateway3:[FIXTX] 8=FIXT.1.1|9=218|35=G|43=N|52=20180919-01:00:07.000|122=20180919-01:00:05.320|49=UBSACCOUNT|56=EXCHANGE|34=938|11=83991|38=5520|54=2|40=1|59=9|60=20180919-01:00:05.320|48=MASKED|22=8|453=1|448=BROKERID|447=D|452=1|207=XHKG|1812=1|1813=100|1814=1|10=220|
09:00:07.004858 I FIXPUMP 		gateway3:[FIXRX] 8=FIXT.1.1|9=229|35=8|49=EXCHANGE|56=UBSACCOUNT|34=942|52=20180919-01:00:07.004|1128=9|11=83991|14=0|17=hB0.kV./MX6|150=0|151=5520|1093=2|453=1|448=BROKERID|447=D|452=1|37=2242049|38=5520|39=5|40=1|207=XHKG|48=MASKED|22=8|54=2|59=9|60=20180919-01:00:07.000|10=078|
09:00:05.320249 I gateway3			[EVT.onPending:00] [MAPTX] [NEW][order.RefId=405][order.OrderId=29876][clOrdId=74058] [seqNo=938]
09:00:07.001122 I FIXPUMP		gateway3:[FIXTX] 8=FIXT.1.1|9=218|35=D|43=N|52=20180919-01:00:07.000|122=20180919-01:00:05.320|49=UBSACCOUNT|56=EXCHANGE|34=938|11=74058|38=1829|54=2|40=1|59=9|60=20180919-01:00:05.320|48=MASKED|22=8|453=1|448=BROKERID|447=D|452=1|207=XHKG|1812=1|1813=100|1814=1|10=220|
09:00:07.004858 I FIXPUMP 		gateway3:[FIXRX] 8=FIXT.1.1|9=229|35=8|49=EXCHANGE|56=UBSACCOUNT|34=942|52=20180919-01:00:07.004|1128=9|11=74058|14=0|17=hB0.kV./MX6|150=0|151=1829|1093=2|453=1|448=BROKERID|447=D|452=1|37=2242049|38=1829|39=0|40=1|207=XHKG|48=MASKED|22=8|54=2|59=9|60=20180919-01:00:07.000|10=078|
09:00:07.004858 I FIXPUMP 		gateway3:[FIXRX] 8=FIXT.1.1|9=295|35=8|49=EXCHANGE|56=UBS|34=942|52=20180919-01:00:07.004|1128=9|11=74058|14=2633|17=hB0.kV./MX6|150=F|151=0|1093=2|453=1|448=BROKERID|447=D|452=17|37=2242049|38=1829|39=2|40=1|207=UBS|48=MASKED|22=MASKED|54=0|59=9|60=20180919-01:00:07.000|10=078|
09:00:05.320249 I gateway3			[EVT.onPendingReplace:06] [MAPTX] [RPL][order.RefId=405][order.OrderId=29876][clOrdId=74058] [seqNo=67175]
09:00:07.001122 I FIXPUMP		gateway3:[FIXTX] 8=FIXT.1.1|9=218|35=G|43=N|52=20180919-01:00:07.000|122=20180919-01:00:05.320|49=UBSACCOUNT|56=EXCHANGE|34=938|11=74058|38=1829|54=2|40=1|59=9|60=20180919-01:00:05.320|48=MASKED|22=8|453=1|448=BROKERID|447=D|452=1|207=XHKG|1812=1|1813=100|1814=1|10=220|
09:00:07.004858 I FIXPUMP 		gateway3:[FIXRX] 8=FIXT.1.1|9=229|35=8|49=EXCHANGE|56=UBSACCOUNT|34=942|52=20180919-01:00:07.004|1128=9|11=74058|14=0|17=hB0.kV./MX6|150=0|151=1829|1093=2|453=1|448=BROKERID|447=D|452=1|37=2242049|38=1829|39=5|40=1|207=XHKG|48=MASKED|22=8|54=2|59=9|60=20180919-01:00:07.000|10=078|
09:00:05.320249 I gateway3			[EVT.onPending:00] [MAPTX] [NEW][order.RefId=677][order.OrderId=60639][clOrdId=81632] [seqNo=938]
09:00:07.001122 I FIXPUMP		gateway3:[FIXTX] 8=FIXT.1.1|9=218|35=D|43=N|52=20180919-01:00:07.000|122=20180919-01:00:05.320|49=UBSACCOUNT|56=EXCHANGE|34=938|11=81632|38=6883|54=2|40=1|59=9|60=20180919-01:00:05.320|48=MASKED|22=8|453=1|448=BROKERID|447=D|452=1|207=XHKG|1812=1|1813=100|1814=1|10=220|
09:00:07.004858 I FIXPUMP 		gateway3:[FIXRX] 8=FIXT.1.1|9=229|35=8|49=EXCHANGE|56=UBSACCOUNT|34=942|52=20180919-01:00:07.004|1128=9|11=81632|14=0|17=hB0.kV./MX6|150=0|151=6883|1093=2|453=1|448=BROKERID|447=D|452=1|37=2242049|38=6883|39=0|40=1|207=XHKG|48=MASKED|22=8|54=2|59=9|60=20180919-01:00:07.000|10=078|
09:00:07.004858 I FIXPUMP 		gateway3:[FIXRX] 8=FIXT.1.1|9=295|35=8|49=EXCHANGE|56=UBS|34=942|52=20180919-01:00:07.004|1128=9|11=81632|14=928|17=hB0.kV./MX6|150=F|151=5955|1093=2|453=1|448=BROKERID|447=D|452=17|37=2242049|38=6883|39=1|40=1|207=UBS|48=MASKED|22=MASKED|54=1|59=9|60=20180919-01:00:07.000|10=078|
09:00:07.004858 I FIXPUMP 		gateway3:[FIXRX] 8=FIXT.1.1|9=295|35=8|49=EXCHANGE|56=UBS|34=942|52=20180919-01:00:07.004|1128=9|11=81632|14=2102|17=hB0.kV./MX6|150=F|151=3853|1093=2|453=1|448=BROKERID|447=D|452=17|37=2242049|38=6883|39=1|40=1|207=UBS|48=MASKED|22=MASKED|54=1|59=9|60=20180919-01:00:07.000|10=078|
09:00:07.004858 I FIXPUMP 		gateway3:[FIXRX] 8=FIXT.1.1|9=295|35=8|49=EXCHANGE|56=UBS|34=942|52=20180919-01:00:07.004|1128=9|11=81632|14=1553|17=hB0.kV./MX6|150=F|151=2300|1093=2|453=1|448=BROKERID|447=D|452=17|37=2242049|38=6883|39=1|40=1|207=UBS|48=MASKED|22=MASKED|54=1|59=9|60=20180919-01:00:07.000|10=078|
09:00:07.004858 I FIXPUMP 		gateway3:[FIXRX] 8=FIXT.1.1|9=295|35=8|49=EXCHANGE|56=UBS|34=942|52=20180919-01:00:07.004|1128=9|11=81632|14=1060|17=hB0.kV./MX6|150=F|151=1240|1093=2|453=1|448=BROKERID|447=D|452=17|37=2242049|38=6883|39=1|40=1|207=UBS|48=MASKED|22=MASKED|54=1|59=9|60=20180919-01:00:07.000|10=078|
09:00:07.004858 I FIXPUMP 		gateway3:[FIXRX] 8=FIXT.1.1|9=295|35=8|49=EXCHANGE|56=UBS|34=942|52=20180919-01:00:07.004|1128=9|11=81632|14=3852|17=hB0.kV./MX6|150=F|151=0|1093=2|453=1|448=BROKERID|447=D|452=17|37=2242049|38=6883|39=2|40=1|207=UBS|48=MASKED|22=MASKED|54=0|59=9|60=20180919-01:00:07.000|10=078|
09:00:05.320249 I gateway3			[EVT.onPendingReplace:06] [MAPTX] [RPL][order.RefId=677][order.OrderId=60639][clOrdId=81632] [seqNo=67175]
09:00:07.001122 I FIXPUMP		gateway3:[FIXTX] 8=FIXT.1.1|9=218|35=G|43=N|52=20180919-01:00:07.000|122=20180919-01:00:05.320|49=UBSACCOUNT|56=EXCHANGE|34=938|11=81632|38=6883|54=2|40=1|59=9|60=20180919-01:00:05.320|48=MASKED|22=8|453=1|448=BROKERID|447=D|452=1|207=XHKG|1812=1|1813=100|1814=1|10=220|
09:00:07.004858 I FIXPUMP 		gateway3:[FIXRX] 8=FIXT.1.1|9=229|35=8|49=EXCHANGE|56=UBSACCOUNT|34=942|52=20180919-01:00:07.004|1128=9|11=81632|14=0|17=hB0.kV./MX6|150=0|151=6883|1093=2|453=1|448=BROKERID|447=D|452=1|37=2242049|38=6883|39=5|40=1|207=XHKG|48=MASKED|22=8|54=2|59=9|60=20180919-01:00:07.000|10=078|
09:00:05.320249 I gateway3			[EVT.onPending:00] [MAPTX] [NEW][order.RefId=560][order.OrderId=35694][clOrdId=95124] [seqNo=938]
09:00:07.001122 I FIXPUMP		gateway3:[FIXTX] 8=FIXT.1.1|9=218|35=D|43=N|52=20180919-01:00:07.000|122=20180919-01:00:05.320|49=UBSACCOUNT|56=EXCHANGE|34=938|11=95124|38=9809|54=2|40=1|59=9|60=20180919-01:00:05.320|48=MASKED|22=8|453=1|448=BROKERID|447=D|452=1|207=XHKG|1812=1|1813=100|1814=1|10=220|
09:00:07.004858 I FIXPUMP 		gateway3:[FIXRX] 8=FIXT.1.1|9=229|35=8|49=EXCHANGE|56=UBSACCOUNT|34=942|52=20180919-01:00:07.004|1128=9|11=95124|14=0|17=hB0.kV./MX6|150=0|151=9809|1093=2|453=1|448=BROKERID|447=D|452=1|37=2242049|38=9809|39=0|40=1|207=XHKG|48=MASKED|22=8|54=2|59=9|60=20180919-01:00:07.000|10=078|
09:00:07.004858 I FIXPUMP 		gateway3:[FIXRX] 8=FIXT.1.1|9=295|35=8|49=EXCHANGE|56=UBS|34=942|52=20180919-01:00:07.004|1128=9|11=95124|14=2038|17=hB0.kV./MX6|150=F|151=7771|1093=2|453=1|448=BROKERID|447=D|452=17|37=2242049|38=9809|39=1|40=1|207=UBS|48=MASKED|22=MASKED|54=1|59=9|60=20180919-01:00:07.000|10=078|
09:00:07.004858 I FIXPUMP 		gateway3:[FIXRX] 8=FIXT.1.1|9=295|35=8|49=EXCHANGE|56=UBS|34=942|52=20180919-01:00:07.004|1128=9|11=95124|14=871|17=hB0.kV./MX6|150=F|151=6900|1093=2|453=1|448=BROKERID|447=D|452=17|37=2242049|38=9809|39=1|40=1|207=UBS|48=MASKED|22=MASKED|54=1|59=9|60=20180919-01:00:07.000|10=078|
09:00:07.004858 I FIXPUMP 		gateway3:[FIXRX] 8=FIXT.1.1|9=295|35=8|49=EXCHANGE|56=UBS|34=942|52=20180919-01:00:07.004|1128=9|11=95124|14=2933|17=hB0.kV./MX6|150=F|151=3967|1093=2|453=1|448=BROKERID|447=D|452=17|37=2242049|38=9809|39=1|40=1|207=UBS|48=MASKED|22=MASKED|54=1|59=9|60=20180919-01:00:07.000|10=078|
09:00:07.004858 I FIXPUMP 		gateway3:[FIXRX] 8=FIXT.1.1|9=295|35=8|49=EXCHANGE|56=UBS|34=942|52=20180919-01:00:07.004|1128=9|11=95124|14=3566|17=hB0.kV./MX6|150=F|151=401|1093=2|453=1|448=BROKERID|447=D|452=17|37=2242049|38=9809|39=1|40=1|207=UBS|48=MASKED|22=MASKED|54=1|59=9|60=20180919-01:00:07.000|10=078|
09:00:07.004858 I FIXPUMP 		gateway3:[FIXRX] 8=FIXT.1.1|9=295|35=8|49=EXCHANGE|56=UBS|34=942|52=20180919-01:00:07.004|1128=9|11=95124|14=958|17=hB0.kV./MX6|150=F|151=0|1093=2|453=1|448=BROKERID|447=D|452=17|37=2242049|38=9809|39=2|40=1|207=UBS|48=MASKED|22=MASKED|54=0|59=9|60=20180919-01:00:07.000|10=078|
09:00:05.320249 I gateway3			[EVT.onPendingReplace:06] [MAPTX] [RPL][order.RefId=560][order.OrderId=35694][clOrdId=95124] [seqNo=67175]
09:00:07.001122 I FIXPUMP		gateway3:[FIXTX] 8=FIXT.1.1|9=218|35=G|43=N|52=20180919-01:00:07.000|122=20180919-01:00:05.320|49=UBSACCOUNT|56=EXCHANGE|34=938|11=95124|38=9809|54=2|40=1|59=9|60=20180919-01:00:05.320|48=MASKED|22=8|453=1|448=BROKERID|447=D|452=1|207=XHKG|1812=1|1813=100|1814=1|10=220|
09:00:07.004858 I FIXPUMP 		gateway3:[FIXRX] 8=FIXT.1.1|9=229|35=8|49=EXCHANGE|56=UBSACCOUNT|34=942|52=20180919-01:00:07.004|1128=9|11=95124|14=0|17=hB0.kV./MX6|150=0|151=9809|1093=2|453=1|448=BROKERID|447=D|452=1|37=2242049|38=9809|39=5|40=1|207=XHKG|48=MASKED|22=8|54=2|59=9|60=20180919-01:00:07.000|10=078|
09:00:05.320249 I gateway3			[EVT.onPending:00] [MAPTX] [NEW][order.RefId=924][order.OrderId=74548][clOrdId=6249] [seqNo=938]
09:00:07.001122 I FIXPUMP		gateway3:[FIXTX] 8=FIXT.1.1|9=218|35=D|43=N|52=20180919-01:00:07.000|122=20180919-01:00:05.320|49=UBSACCOUNT|56=EXCHANGE|34=938|11=6249|38=6286|54=2|40=1|59=9|60=20180919-01:00:05.320|48=MASKED|22=8|453=1|448=BROKERID|447=D|452=1|207=XHKG|1812=1|1813=100|1814=1|10=220|
09:00:07.004858 I FIXPUMP 		gateway3:[FIXRX] 8=FIXT.1.1|9=229|35=8|49=EXCHANGE|56=UBSACCOUNT|34=942|52=20180919-01:00:07.004|1128=9|11=6249|14=0|17=hB0.kV./MX6|150=0|151=6286|1093=2|453=1|448=BROKERID|447=D|452=1|37=2242049|38=6286|39=0|40=1|207=XHKG|48=MASKED|22=8|54=2|59=9|60=20180919-01:00:07.000|10=078|
09:00:07.004858 I FIXPUMP 		gateway3:[FIXRX] 8=FIXT.1.1|9=295|35=8|49=EXCHANGE|56=UBS|34=942|52=20180919-01:00:07.004|1128=9|11=6249|14=2545|17=hB0.kV./MX6|150=F|151=3741|1093=2|453=1|448=BROKERID|447=D|452=17|37=2242049|38=6286|39=1|40=1|207=UBS|48=MASKED|22=MASKED|54=1|59=9|60=20180919-01:00:07.000|10=078|
09:00:07.004858 I FIXPUMP 		gateway3:[FIXRX] 8=FIXT.1.1|9=295|35=8|49=EXCHANGE|56=UBS|34=942|52=20180919-01:00:07.004|1128=9|11=6249|14=737|17=hB0.kV./MX6|150=F|151=3004|1093=2|453=1|448=BROKERID|447=D|452=17|37=2242049|38=6286|39=1|40=1|207=UBS|48=MASKED|22=MASKED|54=1|59=9|60=20180919-01:00:07.000|10=078|
09:00:07.004858 I FIXPUMP 		gateway3:[FIXRX] 8=FIXT.1.1|9=295|35=8|49=EXCHANGE|56=UBS|34=942|52=20180919-01:00:07.004|1128=9|11=6249|14=195|17=hB0.kV./MX6|150=F|151=2809|1093=2|453=1|448=BROKERID|447=D|452=17|37=2242049|38=6286|39=1|40=1|207=UBS|48=MASKED|22=MASKED|54=1|59=9|60=20180919-01:00:07.000|10=078|
09:00:07.004858 I FIXPUMP 		gateway3:[FIXRX] 8=FIXT.1.1|9=295|35=8|49=EXCHANGE|56=UBS|34=942|52=20180919-01:00:07.004|1128=9|11=6249|14=4411|17=hB0.kV./MX6|150=F|151=0|1093=2|453=1|448=BROKERID|447=D|452=17|37=2242049|38=6286|39=2|40=1|207=UBS|48=MASKED|22=MASKED|54=0|59=9|60=20180919-01:00:07.000|10=078|
09:00:05.320249 I gateway3			[EVT.onPendingReplace:06] [MAPTX] [RPL][order.RefId=924][order.OrderId=74548][clOrdId=6249] [seqNo=67175]
09:00:07.001122 I FIXPUMP		gateway3:[FIXTX] 8=FIXT.1.1|9=218|35=G|43=N|52=20180919-01:00:07.000|122=20180919-01:00:05.320|49=UBSACCOUNT|56=EXCHANGE|34=938|11=6249|38=6286|54=2|40=1|59=9|60=20180919-01:00:05.320|48=MASKED|22=8|453=1|448=BROKERID|447=D|452=1|207=XHKG|1812=1|1813=100|1814=1|10=220|
09:00:07.004858 I FIXPUMP 		gateway3:[FIXRX] 8=FIXT.1.1|9=229|35=8|49=EXCHANGE|56=UBSACCOUNT|34=942|52=20180919-01:00:07.004|1128=9|11=6249|14=0|17=hB0.kV./MX6|150=0|151=6286|1093=2|453=1|448=BROKERID|447=D|452=1|37=2242049|38=6286|39=5|40=1|207=XHKG|48=MASKED|22=8|54=2|59=9|60=20180919-01:00:07.000|10=078|
09:00:05.320249 I gateway3			[EVT.onPending:00] [MAPTX] [NEW][order.RefId=227][order.OrderId=13400][clOrdId=40925] [seqNo=938]
09:00:07.001122 I FIXPUMP		gateway3:[FIXTX] 8=FIXT.1.1|9=218|35=D|43=N|52=20180919-01:00:07.000|122=20180919-01:00:05.320|49=UBSACCOUNT|56=EXCHANGE|34=938|11=40925|38=1246|54=2|40=1|59=9|60=20180919-01:00:05.320|48=MASKED|22=8|453=1|448=BROKERID|447=D|452=1|207=XHKG|1812=1|1813=100|1814=1|10=220|
09:00:07.004858 I FIXPUMP 		gateway3:[FIXRX] 8=FIXT.1.1|9=229|35=8|49=EXCHANGE|56=UBSACCOUNT|34=942|52=20180919-01:00:07.004|1128=9|11=40925|14=0|17=hB0.kV./MX6|150=0|151=1246|1093=2|453=1|448=BROKERID|447=D|452=1|37=2242049|38=1246|39=0|40=1|207=XHKG|48=MASKED|22=8|54=2|59=9|60=20180919-01:00:07.000|10=078|
09:00:07.004858 I FIXPUMP 		gateway3:[FIXRX] 8=FIXT.1.1|9=295|35=8|49=EXCHANGE|56=UBS|34=942|52=20180919-01:00:07.004|1128=9|11=40925|14=2197|17=hB0.kV./MX6|150=F|151=0|1093=2|453=1|448=BROKERID|447=D|452=17|37=2242049|38=1246|39=2|40=1|207=UBS|48=MASKED|22=MASKED|54=0|59=9|60=20180919-01:00:07.000|10=078|
09:00:05.320249 I gateway3			[EVT.onPendingReplace:06] [MAPTX] [RPL][order.RefId=227][order.OrderId=13400][clOrdId=40925] [seqNo=67175]
09:00:07.001122 I FIXPUMP		gateway3:[FIXTX] 8=FIXT.1.1|9=218|35=G|43=N|52=20180919-01:00:07.000|122=20180919-01:00:05.320|49=UBSACCOUNT|56=EXCHANGE|34=938|11=40925|38=1246|54=2|40=1|59=9|60=20180919-01:00:05.320|48=MASKED|22=8|453=1|448=BROKERID|447=D|452=1|207=XHKG|1812=1|1813=100|1814=1|10=220|
09:00:07.004858 I FIXPUMP 		gateway3:[FIXRX] 8=FIXT.1.1|9=229|35=8|49=EXCHANGE|56=UBSACCOUNT|34=942|52=20180919-01:00:07.004|1128=9|11=40925|14=0|17=hB0.kV./MX6|150=0|151=1246|1093=2|453=1|448=BROKERID|447=D|452=1|37=2242049|38=1246|39=5|40=1|207=XHKG|48=MASKED|22=8|54=2|59=9|60=20180919-01:00:07.000|10=078|
09:00:05.320249 I gateway3			[EVT.onPending:00] [MAPTX] [NEW][order.RefId=277][order.OrderId=5021][clOrdId=75771] [seqNo=938]
09:00:07.001122 I FIXPUMP		gateway3:[FIXTX] 8=FIXT.1.1|9=218|35=D|43=N|52=20180919-01:00:07.000|122=20180919-01:00:05.320|49=UBSACCOUNT|56=EXCHANGE|34=938|11=75771|38=9368|54=2|40=1|59=9|60=20180919-01:00:05.320|48=MASKED|22=8|453=1|448=BROKERID|447=D|452=1|207=XHKG|1812=1|1813=100|1814=1|10=220|
09:00:07.004858 I FIXPUMP 		gateway3:[FIXRX] 8=FIXT.1.1|9=229|35=8|49=EXCHANGE|56=UBSACCOUNT|34=942|52=20180919-01:00:07.004|1128=9|11=75771|14=0|17=hB0.kV./MX6|150=0|151=9368|1093=2|453=1|448=BROKERID|447=D|452=1|37=2242049|38=9368|39=0|40=1|207=XHKG|48=MASKED|22=8|54=2|59=9|60=20180919-01:00:07.000|10=078|
09:00:07.004858 I FIXPUMP 		gateway3:[FIXRX] 8=FIXT.1.1|9=295|35=8|49=EXCHANGE|56=UBS|34=942|52=20180919-01:00:07.004|1128=9|11=75771|14=2530|17=hB0.kV./MX6|150=F|151=6838|1093=2|453=1|448=BROKERID|447=D|452=17|37=2242049|38=9368|39=1|40=1|207=UBS|48=MASKED|22=MASKED|54=1|59=9|60=20180919-01:00:07.000|10=078|
09:00:07.004858 I FIXPUMP 		gateway3:[FIXRX] 8=FIXT.1.1|9=295|35=8|49=EXCHANGE|56=UBS|34=942|52=20180919-01:00:07.004|1128=9|11=75771|14=3235|17=hB0.kV./MX6|150=F|151=3603|1093=2|453=1|448=BROKERID|447=D|452=17|37=2242049|38=9368|39=1|40=1|207=UBS|48=MASKED|22=MASKED|54=1|59=9|60=20180919-01:00:07.000|10=078|
09:00:07.004858 I FIXPUMP 		gateway3:[FIXRX] 8=FIXT.1.1|9=295|35=8|49=EXCHANGE|56=UBS|34=942|52=20180919-01:00:07.004|1128=9|11=75771|14=4417|17=hB0.kV./MX6|150=F|151=0|1093=2|453=1|448=BROKERID|447=D|452=17|37=2242049|38=9368|39=2|40=1|207=UBS|48=MASKED|22=MASKED|54=0|59=9|60=20180919-01:00:07.000|10=078|
09:00:05.320249 I gateway3			[EVT.onPendingReplace:06] [MAPTX] [RPL][order.RefId=277][order.OrderId=5021][clOrdId=75771] [seqNo=67175]
09:00:07.001122 I FIXPUMP		gateway3:[FIXTX] 8=FIXT.1.1|9=218|35=G|43=N|52=20180919-01:00:07.000|122=20180919-01:00:05.320|49=UBSACCOUNT|56=EXCHANGE|34=938|11=75771|38=9368|54=2|40=1|59=9|60=20180919-01:00:05.320|48=MASKED|22=8|453=1|448=BROKERID|447=D|452=1|207=XHKG|1812=1|1813=100|1814=1|10=220|
09:00:07.004858 I FIXPUMP 		gateway3:[FIXRX] 8=FIXT.1.1|9=229|35=8|49=EXCHANGE|56=UBSACCOUNT|34=942|52=20180919-01:00:07.004|1128=9|11=75771|14=0|17=hB0.kV./MX6|150=0|151=9368|1093=2|453=1|448=BROKERID|447=D|452=1|37=2242049|38=9368|39=5|40=1|207=XHKG|48=MASKED|22=8|54=2|59=9|60=20180919-01:00:07.000|10=078|
09:00:05.320249 I gateway3			[EVT.onPending:00] [MAPTX] [NEW][order.RefId=511][order.OrderId=85651][clOrdId=43194] [seqNo=938]
09:00:07.001122 I FIXPUMP		gateway3:[FIXTX] 8=FIXT.1.1|9=218|35=D|43=N|52=20180919-01:00:07.000|122=20180919-01:00:05.320|49=UBSACCOUNT|56=EXCHANGE|34=938|11=43194|38=5112|54=2|40=1|59=9|60=20180919-01:00:05.320|48=MASKED|22=8|453=1|448=BROKERID|447=D|452=1|207=XHKG|1812=1|1813=100|1814=1|10=220|
09:00:07.004858 I FIXPUMP 		gateway3:[FIXRX] 8=FIXT.1.1|9=229|35=8|49=EXCHANGE|56=UBSACCOUNT|34=942|52=20180919-01:00:07.004|1128=9|11=43194|14=0|17=hB0.kV./MX6|150=0|151=5112|1093=2|453=1|448=BROKERID|447=D|452=1|37=2242049|38=5112|39=0|40=1|207=XHKG|48=MASKED|22=8|54=2|59=9|60=20180919-01:00:07.000|10=078|
09:00:07.004858 I FIXPUMP 		gateway3:[FIXRX] 8=FIXT.1.1|9=295|35=8|49=EXCHANGE|56=UBS|34=942|52=20180919-01:00:07.004|1128=9|11=43194|14=3443|17=hB0.kV./MX6|150=F|151=1669|1093=2|453=1|448=BROKERID|447=D|452=17|37=2242049|38=5112|39=1|40=1|207=UBS|48=MASKED|22=MASKED|54=1|59=9|60=20180919-01:00:07.000|10=078|
09:00:07.004858 I FIXPUMP 		gateway3:[FIXRX] 8=FIXT.1.1|9=295|35=8|49=EXCHANGE|56=UBS|34=942|52=20180919-01:00:07.004|1128=9|11=43194|14=1105|17=hB0.kV./MX6|150=F|151=564|1093=2|453=1|448=BROKERID|447=D|452=17|37=2242049|38=5112|39=1|40=1|207=UBS|48=MASKED|22=MASKED|54=1|59=9|60=20180919-01:00:07.000|10=078|
09:00:07.004858 I FIXPUMP 		gateway3:[FIXRX] 8=FIXT.1.1|9=295|35=8|49=EXCHANGE|56=UBS|34=942|52=20180919-01:00:07.004|1128=9|11=43194|14=318|17=hB0.kV./MX6|150=F|151=246|1093=2|453=1|448=BROKERID|447=D|452=17|37=2242049|38=5112|39=1|40=1|207=UBS|48=MASKED|22=MASKED|54=1|59=9|60=20180919-01:00:07.000|10=078|
09:00:07.004858 I FIXPUMP 		gateway3:[FIXRX] 8=FIXT.1.1|9=295|35=8|49=EXCHANGE|56=UBS|34=942|52=20180919-01:00:07.004|1128=9|11=43194|14=4659|17=hB0.kV./MX6|150=F|151=0|1093=2|453=1|448=BROKERID|447=D|452=17|37=2242049|38=5112|39=2|40=1|207=UBS|48=MASKED|22=MASKED|54=0|59=9|60=20180919-01:00:07.000|10=078|
09:00:05.320249 I gateway3			[EVT.onPendingReplace:06] [MAPTX] [RPL][order.RefId=511][order.OrderId=85651][clOrdId=43194] [seqNo=67175]
09:00:07.001122 I FIXPUMP		gateway3:[FIXTX] 8=FIXT.1.1|9=218|35=G|43=N|52=20180919-01:00:07.000|122=20180919-01:00:05.320|49=UBSACCOUNT|56=EXCHANGE|34=938|11=43194|38=5112|54=2|40=1|59=9|60=20180919-01:00:05.320|48=MASKED|22=8|453=1|448=BROKERID|447=D|452=1|207=XHKG|1812=1|1813=100|1814=1|10=220|
09:00:07.004858 I FIXPUMP 		gateway3:[FIXRX] 8=FIXT.1.1|9=229|35=8|49=EXCHANGE|56=UBSACCOUNT|34=942|52=20180919-01:00:07.004|1128=9|11=43194|14=0|17=hB0.kV./MX6|150=0|151=5112|1093=2|453=1|448=BROKERID|447=D|452=1|37=2242049|38=5112|39=5|40=1|207=XHKG|48=MASKED|22=8|54=2|59=9|60=20180919-01:00:07.000|10=078|
09:00:05.320249 I gateway3			[EVT.onPending:00] [MAPTX] [NEW][order.RefId=215][order.OrderId=60371][clOrdId=95560] [seqNo=938]
09:00:07.001122 I FIXPUMP		gateway3:[FIXTX] 8=FIXT.1.1|9=218|35=D|43=N|52=20180919-01:00:07.000|122=20180919-01:00:05.320|49=UBSACCOUNT|56=EXCHANGE|34=938|11=95560|38=8392|54=2|40=1|59=9|60=20180919-01:00:05.320|48=MASKED|22=8|453=1|448=BROKERID|447=D|452=1|207=XHKG|1812=1|1813=100|1814=1|10=220|
09:00:07.004858 I FIXPUMP 		gateway3:[FIXRX] 8=FIXT.1.1|9=229|35=8|49=EXCHANGE|56=UBSACCOUNT|34=942|52=20180919-01:00:07.004|1128=9|11=95560|14=0|17=hB0.kV./MX6|150=0|151=8392|1093=2|453=1|448=BROKERID|447=D|452=1|37=2242049|38=8392|39=0|40=1|207=XHKG|48=MASKED|22=8|54=2|59=9|60=20180919-01:00:07.000|10=078|
09:00:07.004858 I FIXPUMP 		gateway3:[FIXRX] 8=FIXT.1.1|9=295|35=8|49=EXCHANGE|56=UBS|34=942|52=20180919-01:00:07.004|1128=9|11=95560|14=4563|17=hB0.kV./MX6|150=F|151=3829|1093=2|453=1|448=BROKERID|447=D|452=17|37=2242049|38=8392|39=1|40=1|207=UBS|48=MASKED|22=MASKED|54=1|59=9|60=20180919-01:00:07.000|10=078|
09:00:07.004858 I FIXPUMP 		gateway3:[FIXRX] 8=FIXT.1.1|9=295|35=8|49=EXCHANGE|56=UBS|34=942|52=20180919-01:00:07.004|1128=9|11=95560|14=1775|17=hB0.kV./MX6|150=F|151=2054|1093=2|453=1|448=BROKERID|447=D|452=17|37=2242049|38=8392|39=1|40=1|207=UBS|48=MASKED|22=MASKED|54=1|59=9|60=20180919-01:00:07.000|10=078|
09:00:07.004858 I FIXPUMP 		gateway3:[FIXRX] 8=FIXT.1.1|9=295|35=8|49=EXCHANGE|56=UBS|34=942|52=20180919-01:00:07.004|1128=9|11=95560|14=4160|17=hB0.kV./MX6|150=F|151=0|1093=2|453=1|448=BROKERID|447=D|452=17|37=2242049|38=8392|39=2|40=1|207=UBS|48=MASKED|22=MASKED|54=0|59=9|60=20180919-01:00:07.000|10=078|
09:00:05.320249 I gateway3			[EVT.onPendingReplace:06] [MAPTX] [RPL][order.RefId=215][order.OrderId=60371][clOrdId=95560] [seqNo=67175]
09:00:07.001122 I FIXPUMP		gateway3:[FIXTX] 8=FIXT.1.1|9=218|35=G|43=N|52=20180919-01:00:07.000|122=20180919-01:00:05.320|49=UBSACCOUNT|56=EXCHANGE|34=938|11=95560|38=8392|54=2|40=1|59=9|60=20180919-01:00:05.320|48=MASKED|22=8|453=1|448=BROKERID|447=D|452=1|207=XHKG|1812=1|1813=100|1814=1|10=220|
09:00:07.004858 I FIXPUMP 		gateway3:[FIXRX] 8=FIXT.1.1|9=229|35=8|49=EXCHANGE|56=UBSACCOUNT|34=942|52=20180919-01:00:07.004|1128=9|11=95560|14=0|17=hB0.kV./MX6|150=0|151=8392|1093=2|453=1|448=BROKERID|447=D|452=1|37=2242049|38=8392|39=5|40=1|207=XHKG|48=MASKED|22=8|54=2|59=9|60=20180919-01:00:07.000|10=078|
09:00:05.320249 I gateway3			[EVT.onPending:00] [MAPTX] [NEW][order.RefId=146][order.OrderId=57083][clOrdId=43047] [seqNo=938]
09:00:07.001122 I FIXPUMP		gateway3:[FIXTX] 8=FIXT.1.1|9=218|35=D|43=N|52=20180919-01:00:07.000|122=20180919-01:00:05.320|49=UBSACCOUNT|56=EXCHANGE|34=938|11=43047|38=6096|54=2|40=1|59=9|60=20180919-01:00:05.320|48=MASKED|22=8|453=1|448=BROKERID|447=D|452=1|207=XHKG|1812=1|1813=100|1814=1|10=220|
09:00:07.004858 I FIXPUMP 		gateway3:[FIXRX] 8=FIXT.1.1|9=229|35=8|49=EXCHANGE|56=UBSACCOUNT|34=942|52=20180919-01:00:07.004|1128=9|11=43047|14=0|17=hB0.kV./MX6|150=0|151=6096|1093=2|453=1|448=BROKERID|447=D|452=1|37=2242049|38=6096|39=0|40=1|207=XHKG|48=MASKED|22=8|54=2|59=9|60=20180919-01:00:07.000|10=078|
09:00:07.004858 I FIXPUMP 		gateway3:[FIXRX] 8=FIXT.1.1|9=295|35=8|49=EXCHANGE|56=UBS|34=942|52=20180919-01:00:07.004|1128=9|11=43047|14=1485|17=hB0.kV./MX6|150=F|151=4611|1093=2|453=1|448=BROKERID|447=D|452=17|37=2242049|38=6096|39=1|40=1|207=UBS|48=MASKED|22=MASKED|54=1|59=9|60=20180919-01:00:07.000|10=078|
