09:00:05.320249 I gateway3			[EVT.onPending:00] [MAPTX] [NEW][order.RefId=317][order.OrderId=47624][clOrdId=16229] [seqNo=938]
09:00:07.001122 I FIXPUMP		gateway3:[FIXTX] 8=FIXT.1.1|9=218|35=D|43=N|52=20180919-01:00:07.000|122=20180919-01:00:05.320|49=UBSACCOUNT|56=EXCHANGE|34=938|11=16229|38=4164|54=2|40=1|59=9|60=20180919-01:00:05.320|48=MASKED|22=8|453=1|448=BROKERID|447=D|452=1|207=XHKG|1812=1|1813=100|1814=1|10=220|
09:00:07.004858 I FIXPUMP 		gateway3:[FIXRX] 8=FIXT.1.1|9=229|35=8|49=EXCHANGE|56=UBSACCOUNT|34=942|52=20180919-01:00:07.004|1128=9|11=16229|14=0|17=hB0.kV./MX6|150=0|151=4164|1093=2|453=1|448=BROKERID|447=D|452=1|37=2242049|38=4164|39=0|40=1|207=XHKG|48=MASKED|22=8|54=2|59=9|60=20180919-01:00:07.000|10=078|
09:00:07.004858 I FIXPUMP 		gateway3:[FIXRX] 8=FIXT.1.1|9=295|35=8|49=EXCHANGE|56=UBS|34=942|52=20180919-01:00:07.004|1128=9|11=16229|14=3868|17=hB0.kV./MX6|150=F|151=296|1093=2|453=1|448=BROKERID|447=D|452=17|37=2242049|38=4164|39=1|40=1|207=UBS|48=MASKED|22=MASKED|54=1|59=9|60=20180919-01:00:07.000|10=078|
09:00:07.004858 I FIXPUMP 		gateway3:[FIXRX] 8=FIXT.1.1|9=295|35=8|49=EXCHANGE|56=UBS|34=942|52=20180919-01:00:07.004|1128=9|11=16229|14=3547|17=hB0.kV./MX6|150=F|151=0|1093=2|453=1|448=BROKERID|447=D|452=17|37=2242049|38=4164|39=2|40=1|207=UBS|48=MASKED|22=MASKED|54=0|59=9|60=20180919-01:00:07.000|10=078|
09:00:05.320249 I gateway3			[EVT.onPendingReplace:06] [MAPTX] [RPL][order.RefId=317][order.OrderId=47624][clOrdId=16229] [seqNo=67175]
09:00:07.001122 I FIXPUMP		gateway3:[FIXTX] 8=FIXT.1.1|9=218|35=G|43=N|52=20180919-01:00:07.000|122=20180919-01:00:05.320|49=UBSACCOUNT|56=EXCHANGE|34=938|11=16229|38=4164|54=2|40=1|59=9|60=20180919-01:00:05.320|48=MASKED|22=8|453=1|448=BROKERID|447=D|452=1|207=XHKG|1812=1|1813=100|1814=1|10=220|
09:00:07.004858 I FIXPUMP 		gateway3:[FIXRX] 8=FIXT.1.1|9=229|35=8|49=EXCHANGE|56=UBSACCOUNT|34=942|52=20180919-01:00:07.004|1128=9|11=16229|14=0|17=hB0.kV./MX6|150=0|151=4164|1093=2|453=1|448=BROKERID|447=D|452=1|37=2242049|38=4164|39=5|40=1|207=XHKG|48=MASKED|22=8|54=2|59=9|60=20180919-01:00:07.000|10=078|
09:00:05.320249 I gateway3			[EVT.onPending:00] [MAPTX] [NEW][order.RefId=643][order.OrderId=44313][clOrdId=57833] [seqNo=938]
09:00:07.001122 I FIXPUMP		gateway3:[FIXTX] 8=FIXT.1.1|9=218|35=D|43=N|52=20180919-01:00:07.000|122=20180919-01:00:05.320|49=UBSACCOUNT|56=EXCHANGE|34=938|11=57833|38=2240|54=2|40=1|59=9|60=20180919-01:00:05.320|48=MASKED|22=8|453=1|448=BROKERID|447=D|452=1|207=XHKG|1812=1|1813=100|1814=1|10=220|
09:00:07.004858 I FIXPUMP 		gateway3:[FIXRX] 8=FIXT.1.1|9=229|35=8|49=EXCHANGE|56=UBSACCOUNT|34=942|52=20180919-01:00:07.004|1128=9|11=57833|14=0|17=hB0.kV./MX6|150=0|151=2240|1093=2|453=1|448=BROKERID|447=D|452=1|37=2242049|38=2240|39=0|40=1|207=XHKG|48=MASKED|22=8|54=2|59=9|60=20180919-01:00:07.000|10=078|
09:00:07.004858 I FIXPUMP 		gateway3:[FIXRX] 8=FIXT.1.1|9=295|35=8|49=EXCHANGE|56=UBS|34=942|52=20180919-01:00:07.004|1128=9|11=57833|14=2357|17=hB0.kV./MX6|150=F|151=0|1093=2|453=1|448=BROKERID|447=D|452=17|37=2242049|38=2240|39=2|40=1|207=UBS|48=MASKED|22=MASKED|54=0|59=9|60=20180919-01:00:07.000|10=078|
09:00:05.320249 I gateway3			[EVT.onPendingReplace:06] [MAPTX] [RPL][order.RefId=643][order.OrderId=44313][clOrdId=57833] [seqNo=67175]
09:00:07.001122 I FIXPUMP		gateway3:[FIXTX] 8=FIXT.1.1|9=218|35=G|43=N|52=20180919-01:00:07.000|122=20180919-01:00:05.320|49=UBSACCOUNT|56=EXCHANGE|34=938|11=57833|38=2240|54=2|40=1|59=9|60=20180919-01:00:05.320|48=MASKED|22=8|453=1|448=BROKERID|447=D|452=1|207=XHKG|1812=1|1813=100|1814=1|10=220|
09:00:07.004858 I FIXPUMP 		gateway3:[FIXRX] 8=FIXT.1.1|9=229|35=8|49=EXCHANGE|56=UBSACCOUNT|34=942|52=20180919-01:00:07.004|1128=9|11=57833|14=0|17=hB0.kV./MX6|150=0|151=2240|1093=2|453=1|448=BROKERID|447=D|452=1|37=2242049|38=2240|39=5|40=1|207=XHKG|48=MASKED|22=8|54=2|59=9|60=20180919-01:00:07.000|10=078|
09:00:05.320249 I gateway3			[EVT.onPending:00] [MAPTX] [NEW][order.RefId=305][order.OrderId=63178][clOrdId=72743] [seqNo=938]
09:00:07.001122 I FIXPUMP		gateway3:[FIXTX] 8=FIXT.1.1|9=218|35=D|43=N|52=20180919-01:00:07.000|122=20180919-01:00:05.320|49=UBSACCOUNT|56=EXCHANGE|34=938|11=72743|38=4990|54=2|40=1|59=9|60=20180919-01:00:05.320|48=MASKED|22=8|453=1|448=BROKERID|447=D|452=1|207=XHKG|1812=1|1813=100|1814=1|10=220|
09:00:07.004858 I FIXPUMP 		gateway3:[FIXRX] 8=FIXT.1.1|9=229|35=8|49=EXCHANGE|56=UBSACCOUNT|34=942|52=20180919-01:00:07.004|1128=9|11=72743|14=0|17=hB0.kV./MX6|150=0|151=4990|1093=2|453=1|448=BROKERID|447=D|452=1|37=2242049|38=4990|39=0|40=1|207=XHKG|48=MASKED|22=8|54=2|59=9|60=20180919-01:00:07.000|10=078|
09:00:07.004858 I FIXPUMP 		gateway3:[FIXRX] 8=FIXT.1.1|9=295|35=8|49=EXCHANGE|56=UBS|34=942|52=20180919-01:00:07.004|1128=9|11=72743|14=1980|17=hB0.kV./MX6|150=F|151=3010|1093=2|453=1|448=BROKERID|447=D|452=17|37=2242049|38=4990|39=1|40=1|207=UBS|48=MASKED|22=MASKED|54=1|59=9|60=20180919-01:00:07.000|10=078|
09:00:07.004858 I FIXPUMP 		gateway3:[FIXRX] 8=FIXT.1.1|9=295|35=8|49=EXCHANGE|56=UBS|34=942|52=20180919-01:00:07.004|1128=9|11=72743|14=3445|17=hB0.kV./MX6|150=F|151=0|1093=2|453=1|448=BROKERID|447=D|452=17|37=2242049|38=4990|39=2|40=1|207=UBS|48=MASKED|22=MASKED|54=0|59=9|60=20180919-01:00:07.000|10=078|
09:00:05.320249 I gateway3			[EVT.onPendingReplace:06] [MAPTX] [RPL][order.RefId=305][order.OrderId=63178][clOrdId=72743] [seqNo=67175]
09:00:07.001122 I FIXPUMP		gateway3:[FIXTX] 8=FIXT.1.1|9=218|35=G|43=N|52=20180919-01:00:07.000|122=20180919-01:00:05.320|49=UBSACCOUNT|56=EXCHANGE|34=938|11=72743|38=4990|54=2|40=1|59=9|60=20180919-01:00:05.320|48=MASKED|22=8|453=1|448=BROKERID|447=D|452=1|207=XHKG|1812=1|1813=100|1814=1|10=220|
09:00:07.004858 I FIXPUMP 		gateway3:[FIXRX] 8=FIXT.1.1|9=229|35=8|49=EXCHANGE|56=UBSACCOUNT|34=942|52=20180919-01:00:07.004|1128=9|11=72743|14=0|17=hB0.kV./MX6|150=0|151=4990|1093=2|453=1|448=BROKERID|447=D|452=1|37=2242049|38=4990|39=5|40=1|207=XHKG|48=MASKED|22=8|54=2|59=9|60=20180919-01:00:07.000|10=078|
09:00:05.320249 I gateway3			[EVT.onPending:00] [MAPTX] [NEW][order.RefId=331][order.OrderId=44457][clOrdId=14348] [seqNo=938]
09:00:07.001122 I FIXPUMP		gateway3:[FIXTX] 8=FIXT.1.1|9=218|35=D|43=N|52=20180919-01:00:07.000|122=20180919-01:00:05.320|49=UBSACCOUNT|56=EXCHANGE|34=938|11=14348|38=8820|54=2|40=1|59=9|60=20180919-01:00:05.320|48=MASKED|22=8|453=1|448=BROKERID|447=D|452=1|207=XHKG|1812=1|1813=100|1814=1|10=220|
09:00:07.004858 I FIXPUMP 		gateway3:[FIXRX] 8=FIXT.1.1|9=229|35=8|49=EXCHANGE|56=UBSACCOUNT|34=942|52=20180919-01:00:07.004|1128=9|11=14348|14=0|17=hB0.kV./MX6|150=0|151=8820|1093=2|453=1|448=BROKERID|447=D|452=1|37=2242049|38=8820|39=0|40=1|207=XHKG|48=MASKED|22=8|54=2|59=9|60=20180919-01:00:07.000|10=078|
09:00:07.004858 I FIXPUMP 		gateway3:[FIXRX] 8=FIXT.1.1|9=295|35=8|49=EXCHANGE|56=UBS|34=942|52=20180919-01:00:07.004|1128=9|11=14348|14=3198|17=hB0.kV./MX6|150=F|151=5622|1093=2|453=1|448=BROKERID|447=D|452=17|37=2242049|38=8820|39=1|40=1|207=UBS|48=MASKED|22=MASKED|54=1|59=9|60=20180919-01:00:07.000|10=078|
09:00:07.004858 I FIXPUMP 		gateway3:[FIXRX] 8=FIXT.1.1|9=295|35=8|49=EXCHANGE|56=UBS|34=942|52=20180919-01:00:07.004|1128=9|11=14348|14=409|17=hB0.kV./MX6|150=F|151=5213|1093=2|453=1|448=BROKERID|447=D|452=17|37=2242049|38=8820|39=1|40=1|207=UBS|48=MASKED|22=MASKED|54=1|59=9|60=20180919-01:00:07.000|10=078|
09:00:07.004858 I FIXPUMP 		gateway3:[FIXRX] 8=FIXT.1.1|9=295|35=8|49=EXCHANGE|56=UBS|34=942|52=20180919-01:00:07.004|1128=9|11=14348|14=3637|17=hB0.kV./MX6|150=F|151=1576|1093=2|453=1|448=BROKERID|447=D|452=17|37=2242049|38=8820|39=1|40=1|207=UBS|48=MASKED|22=MASKED|54=1|59=9|60=20180919-01:00:07.000|10=078|
09:00:07.004858 I FIXPUMP 		gateway3:[FIXRX] 8=FIXT.1.1|9=295|35=8|49=EXCHANGE|56=UBS|34=942|52=20180919-01:00:07.004|1128=9|11=14348|14=3189|17=hB0.kV./MX6|150=F|151=0|1093=2|453=1|448=BROKERID|447=D|452=17|37=2242049|38=8820|39=2|40=1|207=UBS|48=MASKED|22=MASKED|54=0|59=9|60=20180919-01:00:07.000|10=078|
09:00:05.320249 I gateway3			[EVT.onPendingReplace:06] [MAPTX] [RPL][order.RefId=331][order.OrderId=44457][clOrdId=14348] [seqNo=67175]
09:00:07.001122 I FIXPUMP		gateway3:[FIXTX] 8=FIXT.1.1|9=218|35=G|43=N|52=20180919-01:00:07.000|122=20180919-01:00:05.320|49=UBSACCOUNT|56=EXCHANGE|34=938|11=14348|38=8820|54=2|40=1|59=9|60=20180919-01:00:05.320|48=MASKED|22=8|453=1|448=BROKERID|447=D|452=1|207=XHKG|1812=1|1813=100|1814=1|10=220|
09:00:07.004858 I FIXPUMP 		gateway3:[FIXRX] 8=FIXT.1.1|9=229|35=8|49=EXCHANGE|56=UBSACCOUNT|34=942|52=20180919-01:00:07.004|1128=9|11=14348|14=0|17=hB0.kV./MX6|150=0|151=8820|1093=2|453=1|448=BROKERID|447=D|452=1|37=2242049|38=8820|39=5|40=1|207=XHKG|48=MASKED|22=8|54=2|59=9|60=20180919-01:00:07.000|10=078|
09:00:05.320249 I gateway3			[EVT.onPending:00] [MAPTX] [NEW][order.RefId=687][order.OrderId=73498][clOrdId=60158] [seqNo=938]
09:00:07.001122 I FIXPUMP		gateway3:[FIXTX] 8=FIXT.1.1|9=218|35=D|43=N|52=20180919-01:00:07.000|122=20180919-01:00:05.320|49=UBSACCOUNT|56=EXCHANGE|34=938|11=60158|38=4123|54=2|40=1|59=9|60=20180919-01:00:05.320|48=MASKED|22=8|453=1|448=BROKERID|447=D|452=1|207=XHKG|1812=1|1813=100|1814=1|10=220|
09:00:07.004858 I FIXPUMP 		gateway3:[FIXRX] 8=FIXT.1.1|9=229|35=8|49=EXCHANGE|56=UBSACCOUNT|34=942|52=20180919-01:00:07.004|1128=9|11=60158|14=0|17=hB0.kV./MX6|150=0|151=4123|1093=2|453=1|448=BROKERID|447=D|452=1|37=2242049|38=4123|39=0|40=1|207=XHKG|48=MASKED|22=8|54=2|59=9|60=20180919-01:00:07.000|10=078|
09:00:07.004858 I FIXPUMP 		gateway3:[FIXRX] 8=FIXT.1.1|9=295|35=8|49=EXCHANGE|56=UBS|34=942|52=20180919-01:00:07.004|1128=9|11=60158|14=1150|17=hB0.kV./MX6|150=F|151=2973|1093=2|453=1|448=BROKERID|447=D|452=17|37=2242049|38=4123|39=1|40=1|207=UBS|48=MASKED|22=MASKED|54=1|59=9|60=20180919-01:00:07.000|10=078|
09:00:07.004858 I FIXPUMP 		gateway3:[FIXRX] 8=FIXT.1.1|9=295|35=8|49=EXCHANGE|56=UBS|34=942|52=20180919-01:00:07.004|1128=9|11=60158|14=2026|17=hB0.kV./MX6|150=F|151=947|1093=2|453=1|448=BROKERID|447=D|452=17|37=2242049|38=4123|39=1|40=1|207=UBS|48=MASKED|22=MASKED|54=1|59=9|60=20180919-01:00:07.000|10=078|
09:00:07.004858 I FIXPUMP 		gateway3:[FIXRX] 8=FIXT.1.1|9=295|35=8|49=EXCHANGE|56=UBS|34=942|52=20180919-01:00:07.004|1128=9|11=60158|14=669|17=hB0.kV./MX6|150=F|151=278|1093=2|453=1|448=BROKERID|447=D|452=17|37=2242049|38=4123|39=1|40=1|207=UBS|48=MASKED|22=MASKED|54=1|59=9|60=20180919-01:00:07.000|10=078|
09:00:07.004858 I FIXPUMP 		gateway3:[FIXRX] 8=FIXT.1.1|9=295|35=8|49=EXCHANGE|56=UBS|34=942|52=20180919-01:00:07.004|1128=9|11=60158|14=4540|17=hB0.kV./MX6|150=F|151=0|1093=2|453=1|448=BROKERID|447=D|452=17|37=2242049|38=4123|39=2|40=1|207=UBS|48=MASKED|22=MASKED|54=0|59=9|60=20180919-01:00:07.000|10=078|
09:00:05.320249 I gateway3			[EVT.onPendingReplace:06] [MAPTX] [RPL][order.RefId=687][order.OrderId=73498][clOrdId=60158] [seqNo=67175]
09:00:07.001122 I FIXPUMP		gateway3:[FIXTX] 8=FIXT.1.1|9=218|35=G|43=N|52=20180919-01:00:07.000|122=20180919-01:00:05.320|49=UBSACCOUNT|56=EXCHANGE|34=938|11=60158|38=4123|54=2|40=1|59=9|60=20180919-01:00:05.320|48=MASKED|22=8|453=1|448=BROKERID|447=D|452=1|207=XHKG|1812=1|1813=100|1814=1|10=220|
09:00:07.004858 I FIXPUMP 		gateway3:[FIXRX] 8=FIXT.1.1|9=229|35=8|49=EXCHANGE|56=UBSACCOUNT|34=942|52=20180919-01:00:07.004|1128=9|11=60158|14=0|17=hB0.kV./MX6|150=0|151=4123|1093=2|453=1|448=BROKERID|447=D|452=1|37=2242049|38=4123|39=5|40=1|207=XHKG|48=MASKED|22=8|54=2|59=9|60=20180919-01:00:07.000|10=078|
09:00:05.320249 I gateway3			[EVT.onPending:00] [MAPTX] [NEW][order.RefId=702][order.OrderId=95058][clOrdId=41682] [seqNo=938]
09:00:07.001122 I FIXPUMP		gateway3:[FIXTX] 8=FIXT.1.1|9=218|35=D|43=N|52=20180919-01:00:07.000|122=20180919-01:00:05.320|49=UBSACCOUNT|56=EXCHANGE|34=938|11=41682|38=1238|54=2|40=1|59=9|60=20180919-01:00:05.320|48=MASKED|22=8|453=1|448=BROKERID|447=D|452=1|207=XHKG|1812=1|1813=100|1814=1|10=220|
09:00:07.004858 I FIXPUMP 		gateway3:[FIXRX] 8=FIXT.1.1|9=229|35=8|49=EXCHANGE|56=UBSACCOUNT|34=942|52=20180919-01:00:07.004|1128=9|11=41682|14=0|17=hB0.kV./MX6|150=0|151=1238|1093=2|453=1|448=BROKERID|447=D|452=1|37=2242049|38=1238|39=0|40=1|207=XHKG|48=MASKED|22=8|54=2|59=9|60=20180919-01:00:07.000|10=078|
09:00:07.004858 I FIXPUMP 		gateway3:[FIXRX] 8=FIXT.1.1|9=295|35=8|49=EXCHANGE|56=UBS|34=942|52=20180919-01:00:07.004|1128=9|11=41682|14=1159|17=hB0.kV./MX6|150=F|151=79|1093=2|453=1|448=BROKERID|447=D|452=17|37=2242049|38=1238|39=1|40=1|207=UBS|48=MASKED|22=MASKED|54=1|59=9|60=20180919-01:00:07.000|10=078|
09:00:07.004858 I FIXPUMP 		gateway3:[FIXRX] 8=FIXT.1.1|9=295|35=8|49=EXCHANGE|56=UBS|34=942|52=20180919-01:00:07.004|1128=9|11=41682|14=2257|17=hB0.kV./MX6|150=F|151=0|1093=2|453=1|448=BROKERID|447=D|452=17|37=2242049|38=1238|39=2|40=1|207=UBS|48=MASKED|22=MASKED|54=0|59=9|60=20180919-01:00:07.000|10=078|
09:00:05.320249 I gateway3			[EVT.onPendingReplace:06] [MAPTX] [RPL][order.RefId=702][order.OrderId=95058][clOrdId=41682] [seqNo=67175]
09:00:07.001122 I FIXPUMP		gateway3:[FIXTX] 8=FIXT.1.1|9=218|35=G|43=N|52=20180919-01:00:07.000|122=20180919-01:00:05.320|49=UBSACCOUNT|56=EXCHANGE|34=938|11=41682|38=1238|54=2|40=1|59=9|60=20180919-01:00:05.320|48=MASKED|22=8|453=1|448=BROKERID|447=D|452=1|207=XHKG|1812=1|1813=100|1814=1|10=220|
09:00:07.004858 I FIXPUMP 		gateway3:[FIXRX] 8=FIXT.1.1|9=229|35=8|49=EXCHANGE|56=UBSACCOUNT|34=942|52=20180919-01:00:07.004|1128=9|11=41682|14=0|17=hB0.kV./MX6|150=0|151=1238|1093=2|453=1|448=BROKERID|447=D|452=1|37=2242049|38=1238|39=5|40=1|207=XHKG|48=MASKED|22=8|54=2|59=9|60=20180919-01:00:07.000|10=078|
09:00:05.320249 I gateway3			[EVT.onPending:00] [MAPTX] [NEW][order.RefId=407][order.OrderId=85106][clOrdId=62690] [seqNo=938]
09:00:07.001122 I FIXPUMP		gateway3:[FIXTX] 8=FIXT.1.1|9=218|35=D|43=N|52=20180919-01:00:07.000|122=20180919-01:00:05.320|49=UBSACCOUNT|56=EXCHANGE|34=938|11=62690|38=1044|54=2|40=1|59=9|60=20180919-01:00:05.320|48=MASKED|22=8|453=1|448=BROKERID|447=D|452=1|207=XHKG|1812=1|1813=100|1814=1|10=220|
09:00:07.004858 I FIXPUMP 		gateway3:[FIXRX] 8=FIXT.1.1|9=229|35=8|49=EXCHANGE|56=UBSACCOUNT|34=942|52=20180919-01:00:07.004|1128=9|11=62690|14=0|17=hB0.kV./MX6|150=0|151=1044|1093=2|453=1|448=BROKERID|447=D|452=1|37=2242049|38=1044|39=0|40=1|207=XHKG|48=MASKED|22=8|54=2|59=9|60=20180919-01:00:07.000|10=078|
09:00:07.004858 I FIXPUMP 		gateway3:[FIXRX] 8=FIXT.1.1|9=295|35=8|49=EXCHANGE|56=UBS|34=942|52=20180919-01:00:07.004|1128=9|11=62690|14=2422|17=hB0.kV./MX6|150=F|151=0|1093=2|453=1|448=BROKERID|447=D|452=17|37=2242049|38=1044|39=2|40=1|207=UBS|48=MASKED|22=MASKED|54=0|59=9|60=20180919-01:00:07.000|10=078|
09:00:05.320249 I gateway3			[EVT.onPendingReplace:06] [MAPTX] [RPL][order.RefId=407][order.OrderId=85106][clOrdId=62690] [seqNo=67175]
09:00:07.001122 I FIXPUMP		gateway3:[FIXTX] 8=FIXT.1.1|9=218|35=G|43=N|52=20180919-01:00:07.000|122=20180919-01:00:05.320|49=UBSACCOUNT|56=EXCHANGE|34=938|11=62690|38=1044|54=2|40=1|59=9|60=20180919-01:00:05.320|48=MASKED|22=8|453=1|448=BROKERID|447=D|452=1|207=XHKG|1812=1|1813=100|1814=1|10=220|
09:00:07.004858 I FIXPUMP 		gateway3:[FIXRX] 8=FIXT.1.1|9=229|35=8|49=EXCHANGE|56=UBSACCOUNT|34=942|52=20180919-01:00:07.004|1128=9|11=62690|14=0|17=hB0.kV./MX6|150=0|151=1044|1093=2|453=1|448=BROKERID|447=D|452=1|37=2242049|38=1044|39=5|40=1|207=XHKG|48=MASKED|22=8|54=2|59=9|60=20180919-01:00:07.000|10=078|
09:00:05.320249 I gateway3			[EVT.onPending:00] [MAPTX] [NEW][order.RefId=903][order.OrderId=58759][clOrdId=20949] [seqNo=938]
09:00:07.001122 I FIXPUMP		gateway3:[FIXTX] 8=FIXT.1.1|9=218|35=D|43=N|52=20180919-01:00:07.000|122=20180919-01:00:05.320|49=UBSACCOUNT|56=EXCHANGE|34=938|11=20949|38=2552|54=2|40=1|59=9|60=20180919-01:00:05.320|48=MASKED|22=8|453=1|448=BROKERID|447=D|452=1|207=XHKG|1812=1|1813=100|1814=1|10=220|
09:00:07.004858 I FIXPUMP 		gateway3:[FIXRX] 8=FIXT.1.1|9=229|35=8|49=EXCHANGE|56=UBSACCOUNT|34=942|52=20180919-01:00:07.004|1128=9|11=20949|14=0|17=hB0.kV./MX6|150=0|151=2552|1093=2|453=1|448=BROKERID|447=D|452=1|37=2242049|38=2552|39=0|40=1|207=XHKG|48=MASKED|22=8|54=2|59=9|60=20180919-01:00:07.000|10=078|
09:00:07.004858 I FIXPUMP 		gateway3:[FIXRX] 8=FIXT.1.1|9=295|35=8|49=EXCHANGE|56=UBS|34=942|52=20180919-01:00:07.004|1128=9|11=20949|14=2515|17=hB0.kV./MX6|150=F|151=37|1093=2|453=1|448=BROKERID|447=D|452=17|37=2242049|38=2552|39=1|40=1|207=UBS|48=MASKED|22=MASKED|54=1|59=9|60=20180919-01:00:07.000|10=078|
09:00:07.004858 I FIXPUMP 		gateway3:[FIXRX] 8=FIXT.1.1|9=295|35=8|49=EXCHANGE|56=UBS|34=942|52=20180919-01:00:07.004|1128=9|11=20949|14=3020|17=hB0.kV./MX6|150=F|151=0|1093=2|453=1|448=BROKERID|447=D|452=17|37=2242049|38=2552|39=2|40=1|207=UBS|48=MASKED|22=MASKED|54=0|59=9|60=20180919-01:00:07.000|10=078|
09:00:05.320249 I gateway3			[EVT.onPendingReplace:06] [MAPTX] [RPL][order.RefId=903][order.OrderId=58759][clOrdId=20949] [seqNo=67175]
09:00:07.001122 I FIXPUMP		gateway3:[FIXTX] 8=FIXT.1.1|9=218|35=G|43=N|52=20180919-01:00:07.000|122=20180919-01:00:05.320|49=UBSACCOUNT|56=EXCHANGE|34=938|11=20949|38=2552|54=2|40=1|59=9|60=20180919-01:00:05.320|48=MASKED|22=8|453=1|448=BROKERID|447=D|452=1|207=XHKG|1812=1|1813=100|1814=1|10=220|
09:00:07.004858 I FIXPUMP 		gateway3:[FIXRX] 8=FIXT.1.1|9=229|35=8|49=EXCHANGE|56=UBSACCOUNT|34=942|52=20180919-01:00:07.004|1128=9|11=20949|14=0|17=hB0.kV./MX6|150=0|151=2552|1093=2|453=1|448=BROKERID|447=D|452=1|37=2242049|38=2552|39=5|40=1|207=XHKG|48=MASKED|22=8|54=2|59=9|60=20180919-01:00:07.000|10=078|
09:00:05.320249 I gateway3			[EVT.onPending:00] [MAPTX] [NEW][order.RefId=251][order.OrderId=81895][clOrdId=17904] [seqNo=938]
09:00:07.001122 I FIXPUMP		gateway3:[FIXTX] 8=FIXT.1.1|9=218|35=D|43=N|52=20180919-01:00:07.000|122=20180919-01:00:05.320|49=UBSACCOUNT|56=EXCHANGE|34=938|11=17904|38=3623|54=2|40=1|59=9|60=20180919-01:00:05.320|48=MASKED|22=8|453=1|448=BROKERID|447=D|452=1|207=XHKG|1812=1|1813=100|1814=1|10=220|
09:00:07.004858 I FIXPUMP 		gateway3:[FIXRX] 8=FIXT.1.1|9=229|35=8|49=EXCHANGE|56=UBSACCOUNT|34=942|52=20180919-01:00:07.004|1128=9|11=17904|14=0|17=hB0.kV./MX6|150=0|151=3623|1093=2|453=1|448=BROKERID|447=D|452=1|37=2242049|38=3623|39=0|40=1|207=XHKG|48=MASKED|22=8|54=2|59=9|60=20180919-01:00:07.000|10=078|
09:00:07.004858 I FIXPUMP 		gateway3:[FIXRX] 8=FIXT.1.1|9=295|35=8|49=EXCHANGE|56=UBS|34=942|52=20180919-01:00:07.004|1128=9|11=17904|14=652|17=hB0.kV./MX6|150=F|151=2971|1093=2|453=1|448=BROKERID|447=D|452=17|37=2242049|38=3623|39=1|40=1|207=UBS|48=MASKED|22=MASKED|54=1|59=9|60=20180919-01:00:07.000|10=078|
09:00:07.004858 I FIXPUMP 		gateway3:[FIXRX] 8=FIXT.1.1|9=295|35=8|49=EXCHANGE|56=UBS|34=942|52=20180919-01:00:07.004|1128=9|11=17904|14=4154|17=hB0.kV./MX6|150=F|151=0|1093=2|453=1|448=BROKERID|447=D|452=17|37=2242049|38=3623|39=2|40=1|207=UBS|48=MASKED|22=MASKED|54=0|59=9|60=20180919-01:00:07.000|10=078|
09:00:05.320249 I gateway3			[EVT.onPendingReplace:06] [MAPTX] [RPL][order.RefId=251][order.OrderId=81895][clOrdId=17904] [seqNo=67175]
09:00:07.001122 I FIXPUMP		gateway3:[FIXTX] 8=FIXT.1.1|9=218|35=G|43=N|52=20180919-01:00:07.000|122=20180919-01:00:05.320|49=UBSACCOUNT|56=EXCHANGE|34=938|11=17904|38=3623|54=2|40=1|59=9|60=20180919-01:00:05.320|48=MASKED|22=8|453=1|448=BROKERID|447=D|452=1|207=XHKG|1812=1|1813=100|1814=1|10=220|
09:00:07.004858 I FIXPUMP 		gateway3:[FIXRX] 8=FIXT.1.1|9=229|35=8|49=EXCHANGE|56=UBSACCOUNT|34=942|52=20180919-01:00:07.004|1128=9|11=17904|14=0|17=hB0.kV./MX6|150=0|151=3623|1093=2|453=1|448=BROKERID|447=D|452=1|37=2242049|38=3623|39=5|40=1|207=XHKG|48=MASKED|22=8|54=2|59=9|60=20180919-01:00:07.000|10=078|
09:00:05.320249 I gateway3			[EVT.onPending:00] [MAPTX] [NEW][order.RefId=458][order.OrderId=34967][clOrdId=43821] [seqNo=938]
09:00:07.001122 I FIXPUMP		gateway3:[FIXTX] 8=FIXT.1.1|9=218|35=D|43=N|52=20180919-01:00:07.000|122=20180919-01:00:05.320|49=UBSACCOUNT|56=EXCHANGE|34=938|11=43821|38=1378|54=2|40=1|59=9|60=20180919-01:00:05.320|48=MASKED|22=8|453=1|448=BROKERID|447=D|452=1|207=XHKG|1812=1|1813=100|1814=1|10=220|
09:00:07.004858 I FIXPUMP 		gateway3:[FIXRX] 8=FIXT.1.1|9=229|35=8|49=EXCHANGE|56=UBSACCOUNT|34=942|52=20180919-01:00:07.004|1128=9|11=43821|14=0|17=hB0.kV./MX6|150=0|151=1378|1093=2|453=1|448=BROKERID|447=D|452=1|37=2242049|38=1378|39=0|40=1|207=XHKG|48=MASKED|22=8|54=2|59=9|60=20180919-01:00:07.000|10=078|
09:00:07.004858 I FIXPUMP 		gateway3:[FIXRX] 8=FIXT.1.1|9=295|35=8|49=EXCHANGE|56=UBS|34=942|52=20180919-01:00:07.004|1128=9|11=43821|14=382|17=hB0.kV./MX6|150=F|151=996|1093=2|453=1|448=BROKERID|447=D|452=17|37=2242049|38=1378|39=1|40=1|207=UBS|48=MASKED|22=MASKED|54=1|59=9|60=20180919-01:00:07.000|10=078|
09:00:07.004858 I FIXPUMP 		gateway3:[FIXRX] 8=FIXT.1.1|9=295|35=8|49=EXCHANGE|56=UBS|34=942|52=20180919-01:00:07.004|1128=9|11=43821|14=2658|17=hB0.kV./MX6|150=F|151=0|1093=2|453=1|448=BROKERID|447=D|452=17|37=2242049|38=1378|39=2|40=1|207=UBS|48=MASKED|22=MASKED|54=0|59=9|60=20180919-01:00:07.000|10=078|
09:00:05.320249 I gateway3			[EVT.onPendingReplace:06] [MAPTX] [RPL][order.RefId=458][order.OrderId=34967][clOrdId=43821] [seqNo=67175]
09:00:07.001122 I FIXPUMP		gateway3:[FIXTX] 8=FIXT.1.1|9=218|35=G|43=N|52=20180919-01:00:07.000|122=20180919-01:00:05.320|49=UBSACCOUNT|56=EXCHANGE|34=938|11=43821|38=1378|54=2|40=1|59=9|60=20180919-01:00:05.320|48=MASKED|22=8|453=1|448=BROKERID|447=D|452=1|207=XHKG|1812=1|1813=100|1814=1|10=220|
09:00:07.004858 I FIXPUMP 		gateway3:[FIXRX] 8=FIXT.1.1|9=229|35=8|49=EXCHANGE|56=UBSACCOUNT|34=942|52=20180919-01:00:07.004|1128=9|11=43821|14=0|17=hB0.kV./MX6|150=0|151=1378|1093=2|453=1|448=BROKERID|447=D|452=1|37=2242049|38=1378|39=5|40=1|207=XHKG|48=MASKED|22=8|54=2|59=9|60=20180919-01:00:07.000|10=078|
09:00:05.320249 I gateway3			[EVT.onPending:00] [MAPTX] [NEW][order.RefId=78][order.OrderId=26773][clOrdId=35102] [seqNo=938]
09:00:07.001122 I FIXPUMP		gateway3:[FIXTX] 8=FIXT.1.1|9=218|35=D|43=N|52=20180919-01:00:07.000|122=20180919-01:00:05.320|49=UBSACCOUNT|56=EXCHANGE|34=938|11=35102|38=3012|54=2|40=1|59=9|60=20180919-01:00:05.320|48=MASKED|22=8|453=1|448=BROKERID|447=D|452=1|207=XHKG|1812=1|1813=100|1814=1|10=220|
09:00:07.004858 I FIXPUMP 		gateway3:[FIXRX] 8=FIXT.1.1|9=229|35=8|49=EXCHANGE|56=UBSACCOUNT|34=942|52=20180919-01:00:07.004|1128=9|11=35102|14=0|17=hB0.kV./MX6|150=0|151=3012|1093=2|453=1|448=BROKERID|447=D|452=1|37=2242049|38=3012|39=0|40=1|207=XHKG|48=MASKED|22=8|54=2|59=9|60=20180919-01:00:07.000|10=078|
09:00:07.004858 I FIXPUMP 		gateway3:[FIXRX] 8=FIXT.1.1|9=295|35=8|49=EXCHANGE|56=UBS|34=942|52=20180919-01:00:07.004|1128=9|11=35102|14=3832|17=hB0.kV./MX6|150=F|151=0|1093=2|453=1|448=BROKERID|447=D|452=17|37=2242049|38=3012|39=2|40=1|207=UBS|48=MASKED|22=MASKED|54=0|59=9|60=20180919-01:00:07.000|10=078|
09:00:05.320249 I gateway3			[EVT.onPendingReplace:06] [MAPTX] [RPL][order.RefId=78][order.OrderId=26773][clOrdId=35102] [seqNo=67175]
09:00:07.001122 I FIXPUMP		gateway3:[FIXTX] 8=FIXT.1.1|9=218|35=G|43=N|52=20180919-01:00:07.000|122=20180919-01:00:05.320|49=UBSACCOUNT|56=EXCHANGE|34=938|11=35102|38=3012|54=2|40=1|59=9|60=20180919-01:00:05.320|48=MASKED|22=8|453=1|448=BROKERID|447=D|452=1|207=XHKG|1812=1|1813=100|1814=1|10=220|
09:00:07.004858 I FIXPUMP 		gateway3:[FIXRX] 8=FIXT.1.1|9=229|35=8|49=EXCHANGE|56=UBSACCOUNT|34=942|52=20180919-01:00:07.004|1128=9|11=35102|14=0|17=hB0.kV./MX6|150=0|151=3012|1093=2|453=1|448=BROKERID|447=D|452=1|37=2242049|38=3012|39=5|40=1|207=XHKG|48=MASKED|22=8|54=2|59=9|60=20180919-01:00:07.000|10=078|
09:00:05.320249 I gateway3			[EVT.onPending:00] [MAPTX] [NEW][order.RefId=712][order.OrderId=98967][clOrdId=92736] [seqNo=938]
09:00:07.001122 I FIXPUMP		gateway3:[FIXTX] 8=FIXT.1.1|9=218|35=D|43=N|52=20180919-01:00:07.000|122=20180919-01:00:05.320|49=UBSACCOUNT|56=EXCHANGE|34=938|11=92736|38=6473|54=2|40=1|59=9|60=20180919-01:00:05.320|48=MASKED|22=8|453=1|448=BROKERID|447=D|452=1|207=XHKG|1812=1|1813=100|1814=1|10=220|
09:00:07.004858 I FIXPUMP 		gateway3:[FIXRX] 8=FIXT.1.1|9=229|35=8|49=EXCHANGE|56=UBSACCOUNT|34=942|52=20180919-01:00:07.004|1128=9|11=92736|14=0|17=hB0.kV./MX6|150=0|151=6473|1093=2|453=1|448=BROKERID|447=D|452=1|37=2242049|38=6473|39=0|40=1|207=XHKG|48=MASKED|22=8|54=2|59=9|60=20180919-01:00:07.000|10=078|
09:00:07.004858 I FIXPUMP 		gateway3:[FIXRX] 8=FIXT.1.1|9=295|35=8|49=EXCHANGE|56=UBS|34=942|52=20180919-01:00:07.004|1128=9|11=92736|14=2258|17=hB0.kV./MX6|150=F|151=4215|1093=2|453=1|448=BROKERID|447=D|452=17|37=2242049|38=6473|39=1|40=1|207=UBS|48=MASKED|22=MASKED|54=1|59=9|60=20180919-01:00:07.000|10=078|
09:00:07.004858 I FIXPUMP 		gateway3:[FIXRX] 8=FIXT.1.1|9=295|35=8|49=EXCHANGE|56=UBS|34=942|52=20180919-01:00:07.004|1128=9|11=92736|14=1689|17=hB0.kV./MX6|150=F|151=2526|1093=2|453=1|448=BROKERID|447=D|452=17|37=2242049|38=6473|39=1|40=1|207=UBS|48=MASKED|22=MASKED|54=1|59=9|60=20180919-01:00:07.000|10=078|
09:00:07.004858 I FIXPUMP 		gateway3:[FIXRX] 8=FIXT.1.1|9=295|35=8|49=EXCHANGE|56=UBS|34=942|52=20180919-01:00:07.004|1128=9|11=92736|14=3177|17=hB0.kV./MX6|150=F|151=0|1093=2|453=1|448=BROKERID|447=D|452=17|37=2242049|38=6473|39=2|40=1|207=UBS|48=MASKED|22=MASKED|54=0|59=9|60=20180919-01:00:07.000|10=078|
09:00:05.320249 I gateway3			[EVT.onPendingReplace:06] [MAPTX] [RPL][order.RefId=712][order.OrderId=98967][clOrdId=92736] [seqNo=67175]
09:00:07.001122 I FIXPUMP		gateway3:[FIXTX] 8=FIXT.1.1|9=218|35=G|43=N|52=20180919-01:00:07.000|122=20180919-01:00:05.320|49=UBSACCOUNT|56=EXCHANGE|34=938|11=92736|38=6473|54=2|40=1|59=9|60=20180919-01:00:05.320|48=MASKED|22=8|453=1|448=BROKERID|447=D|452=1|207=XHKG|1812=1|1813=100|1814=1|10=220|
09:00:07.004858 I FIXPUMP 		gateway3:[FIXRX] 8=FIXT.1.1|9=229|35=8|49=EXCHANGE|56=UBSACCOUNT|34=942|52=20180919-01:00:07.004|1128=9|11=92736|14=0|17=hB0.kV./MX6|150=0|151=6473|1093=2|453=1|448=BROKERID|447=D|452=1|37=2242049|38=6473|39=5|40=1|207=XHKG|48=MASKED|22=8|54=2|59=9|60=20180919-01:00:07.000|10=078|
09:00:05.320249 I gateway3			[EVT.onPending:00] [MAPTX] [NEW][order.RefId=484][order.OrderId=49208][clOrdId=89442] [seqNo=938]
09:00:07.001122 I FIXPUMP		gateway3:[FIXTX] 8=FIXT.1.1|9=218|35=D|43=N|52=20180919-01:00:07.000|122=20180919-01:00:05.320|49=UBSACCOUNT|56=EXCHANGE|34=938|11=89442|38=6248|54=2|40=1|59=9|60=20180919-01:00:05.320|48=MASKED|22=8|453=1|448=BROKERID|447=D|452=1|207=XHKG|1812=1|1813=100|1814=1|10=220|
09:00:07.004858 I FIXPUMP 		gateway3:[FIXRX] 8=FIXT.1.1|9=229|35=8|49=EXCHANGE|56=UBSACCOUNT|34=942|52=20180919-01:00:07.004|1128=9|11=89442|14=0|17=hB0.kV./MX6|150=0|151=6248|1093=2|453=1|448=BROKERID|447=D|452=1|37=2242049|38=6248|39=0|40=1|207=XHKG|48=MASKED|22=8|54=2|59=9|60=20180919-01:00:07.000|10=078|
09:00:07.004858 I FIXPUMP 		gateway3:[FIXRX] 8=FIXT.1.1|9=295|35=8|49=EXCHANGE|56=UBS|34=942|52=20180919-01:00:07.004|1128=9|11=89442|14=559|17=hB0.kV./MX6|150=F|151=5689|1093=2|453=1|448=BROKERID|447=D|452=17|37=2242049|38=6248|39=1|40=1|207=UBS|48=MASKED|22=MASKED|54=1|59=9|60=20180919-01:00:07.000|10=078|
09:00:07.004858 I FIXPUMP 		gateway3:[FIXRX] 8=FIXT.1.1|9=295|35=8|49=EXCHANGE|56=UBS|34=942|52=20180919-01:00:07.004|1128=9|11=89442|14=838|17=hB0.kV./MX6|150=F|151=4851|1093=2|453=1|448=BROKERID|447=D|452=17|37=2242049|38=6248|39=1|40=1|207=UBS|48=MASKED|22=MASKED|54=1|59=9|60=20180919-01:00:07.000|10=078|
09:00:07.004858 I FIXPUMP 		gateway3:[FIXRX] 8=FIXT.1.1|9=295|35=8|49=EXCHANGE|56=UBS|34=942|52=20180919-01:00:07.004|1128=9|11=89442|14=4307|17=hB0.kV./MX6|150=F|151=544|1093=2|453=1|448=BROKERID|447=D|452=17|37=2242049|38=6248|39=1|40=1|207=UBS|48=MASKED|22=MASKED|54=1|59=9|60=20180919-01:00:07.000|10=078|
09:00:07.004858 I FIXPUMP 		gateway3:[FIXRX] 8=FIXT.1.1|9=295|35=8|49=EXCHANGE|56=UBS|34=942|52=20180919-01:00:07.004|1128=9|11=89442|14=4278|17=hB0.kV./MX6|150=F|151=0|1093=2|453=1|448=BROKERID|447=D|452=17|37=2242049|38=6248|39=2|40=1|207=UBS|48=MASKED|22=MASKED|54=0|59=9|60=20180919-01:00:07.000|10=078|
09:00:05.320249 I gateway3			[EVT.onPendingReplace:06] [MAPTX] [RPL][order.RefId=484][order.OrderId=49208][clOrdId=89442] [seqNo=67175]
09:00:07.001122 I FIXPUMP		gateway3:[FIXTX] 8=FIXT.1.1|9=218|35=G|43=N|52=20180919-01:00:07.000|122=20180919-01:00:05.320|49=UBSACCOUNT|56=EXCHANGE|34=938|11=89442|38=6248|54=2|40=1|59=9|60=20180919-01:00:05.320|48=MASKED|22=8|453=1|448=BROKERID|447=D|452=1|207=XHKG|1812=1|1813=100|1814=1|10=220|
09:00:07.004858 I FIXPUMP 		gateway3:[FIXRX] 8=FIXT.1.1|9=229|35=8|49=EXCHANGE|56=UBSACCOUNT|34=942|52=20180919-01:00:07.004|1128=9|11=89442|14=0|17=hB0.kV./MX6|150=0|151=6248|1093=2|453=1|448=BROKERID|447=D|452=1|37=2242049|38=6248|39=5|40=1|207=XHKG|48=MASKED|22=8|54=2|59=9|60=20180919-01:00:07.000|10=078|
09:00:05.320249 I gateway3			[EVT.onPending:00] [MAPTX] [NEW][order.RefId=96][order.OrderId=43893][clOrdId=90010] [seqNo=938]
09:00:07.001122 I FIXPUMP		gateway3:[FIXTX] 8=FIXT.1.1|9=218|35=D|43=N|52=20180919-01:00:07.000|122=20180919-01:00:05.320|49=UBSACCOUNT|56=EXCHANGE|34=938|11=90010|38=1494|54=2|40=1|59=9|60=20180919-01:00:05.320|48=MASKED|22=8|453=1|448=BROKERID|447=D|452=1|207=XHKG|1812=1|1813=100|1814=1|10=220|
09:00:07.004858 I FIXPUMP 		gateway3:[FIXRX] 8=FIXT.1.1|9=229|35=8|49=EXCHANGE|56=UBSACCOUNT|34=942|52=20180919-01:00:07.004|1128=9|11=90010|14=0|17=hB0.kV./MX6|150=0|151=1494|1093=2|453=1|448=BROKERID|447=D|452=1|37=2242049|38=1494|39=0|40=1|207=XHKG|48=MASKED|22=8|54=2|59=9|60=20180919-01:00:07.000|10=078|
09:00:07.004858 I FIXPUMP 		gateway3:[FIXRX] 8=FIXT.1.1|9=295|35=8|49=EXCHANGE|56=UBS|34=942|52=20180919-01:00:07.004|1128=9|11=90010|14=3736|17=hB0.kV./MX6|150=F|151=0|1093=2|453=1|448=BROKERID|447=D|452=17|37=2242049|38=1494|39=2|40=1|207=UBS|48=MASKED|22=MASKED|54=0|59=9|60=20180919-01:00:07.000|10=078|
09:00:05.320249 I gateway3			[EVT.onPendingReplace:06] [MAPTX] [RPL][order.RefId=96][order.OrderId=43893][clOrdId=90010] [seqNo=67175]
09:00:07.001122 I FIXPUMP		gateway3:[FIXTX] 8=FIXT.1.1|9=218|35=G|43=N|52=20180919-01:00:07.000|122=20180919-01:00:05.320|49=UBSACCOUNT|56=EXCHANGE|34=938|11=90010|38=1494|54=2|40=1|59=9|60=20180919-01:00:05.320|48=MASKED|22=8|453=1|448=BROKERID|447=D|452=1|207=XHKG|1812=1|1813=100|1814=1|10=220|
09:00:07.004858 I FIXPUMP 		gateway3:[FIXRX] 8=FIXT.1.1|9=229|35=8|49=EXCHANGE|56=UBSACCOUNT|34=942|52=20180919-01:00:07.004|1128=9|11=90010|14=0|17=hB0.kV./MX6|150=0|151=1494|1093=2|453=1|448=BROKERID|447=D|452=1|37=2242049|38=1494|39=5|40=1|207=XHKG|48=MASKED|22=8|54=2|59=9|60=20180919-01:00:07.000|10=078|
09:00:05.320249 I gateway3			[EVT.onPending:00] [MAPTX] [NEW][order.RefId=365][order.OrderId=10611][clOrdId=74642] [seqNo=938]
09:00:07.001122 I FIXPUMP		gateway3:[FIXTX] 8=FIXT.1.1|9=218|35=D|43=N|52=20180919-01:00:07.000|122=20180919-01:00:05.320|49=UBSACCOUNT|56=EXCHANGE|34=938|11=74642|38=1279|54=2|40=1|59=9|60=20180919-01:00:05.320|48=MASKED|22=8|453=1|448=BROKERID|447=D|452=1|207=XHKG|1812=1|1813=100|1814=1|10=220|
09:00:07.004858 I FIXPUMP 		gateway3:[FIXRX] 8=FIXT.1.1|9=229|35=8|49=EXCHANGE|56=UBSACCOUNT|34=942|52=20180919-01:00:07.004|1128=9|11=74642|14=0|17=hB0.kV./MX6|150=0|151=1279|1093=2|453=1|448=BROKERID|447=D|452=1|37=2242049|38=1279|39=0|40=1|207=XHKG|48=MASKED|22=8|54=2|59=9|60=20180919-01:00:07.000|10=078|
09:00:07.004858 I FIXPUMP 		gateway3:[FIXRX] 8=FIXT.1.1|9=295|35=8|49=EXCHANGE|56=UBS|34=942|52=20180919-01:00:07.004|1128=9|11=74642|14=3086|17=hB0.kV./MX6|150=F|151=0|1093=2|453=1|448=BROKERID|447=D|452=17|37=2242049|38=1279|39=2|40=1|207=UBS|48=MASKED|22=MASKED|54=0|59=9|60=20180919-01:00:07.000|10=078|
09:00:05.320249 I gateway3			[EVT.onPendingReplace:06] [MAPTX] [RPL][order.RefId=365][order.OrderId=10611][clOrdId=74642] [seqNo=67175]
09:00:07.001122 I FIXPUMP		gateway3:[FIXTX] 8=FIXT.1.1|9=218|35=G|43=N|52=20180919-01:00:07.000|122=20180919-01:00:05.320|49=UBSACCOUNT|56=EXCHANGE|34=938|11=74642|38=1279|54=2|40=1|59=9|60=20180919-01:00:05.320|48=MASKED|22=8|453=1|448=BROKERID|447=D|452=1|207=XHKG|1812=1|1813=100|1814=1|10=220|
09:00:07.004858 I FIXPUMP 		gateway3:[FIXRX] 8=FIXT.1.1|9=229|35=8|49=EXCHANGE|56=UBSACCOUNT|34=942|52=20180919-01:00:07.004|1128=9|11=74642|14=0|17=hB0.kV./MX6|150=0|151=1279|1093=2|453=1|448=BROKERID|447=D|452=1|37=2242049|38=1279|39=5|40=1|207=XHKG|48=MASKED|22=8|54=2|59=9|60=20180919-01:00:07.000|10=078|
09:00:05.320249 I gateway3			[EVT.onPending:00] [MAPTX] [NEW][order.RefId=849][order.OrderId=90117][clOrdId=7986] [seqNo=938]
09:00:07.001122 I FIXPUMP		gateway3:[FIXTX] 8=FIXT.1.1|9=218|35=D|43=N|52=20180919-01:00:07.000|122=20180919-01:00:05.320|49=UBSACCOUNT|56=EXCHANGE|34=938|11=7986|38=8311|54=2|40=1|59=9|60=20180919-01:00:05.320|48=MASKED|22=8|453=1|448=BROKERID|447=D|452=1|207=XHKG|1812=1|1813=100|1814=1|10=220|
09:00:07.004858 I FIXPUMP 		gateway3:[FIXRX] 8=FIXT.1.1|9=229|35=8|49=EXCHANGE|56=UBSACCOUNT|34=942|52=20180919-01:00:07.004|1128=9|11=7986|14=0|17=hB0.kV./MX6|150=0|151=8311|1093=2|453=1|448=BROKERID|447=D|452=1|37=2242049|38=8311|39=0|40=1|207=XHKG|48=MASKED|22=8|54=2|59=9|60=20180919-01:00:07.000|10=078|
09:00:07.004858 I FIXPUMP 		gateway3:[FIXRX] 8=FIXT.1.1|9=295|35=8|49=EXCHANGE|56=UBS|34=942|52=20180919-01:00:07.004|1128=9|11=7986|14=3094|17=hB0.kV./MX6|150=F|151=5217|1093=2|453=1|448=BROKERID|447=D|452=17|37=2242049|38=8311|39=1|40=1|207=UBS|48=MASKED|22=MASKED|54=1|59=9|60=20180919-01:00:07.000|10=078|
09:00:07.004858 I FIXPUMP 		gateway3:[FIXRX] 8=FIXT.1.1|9=295|35=8|49=EXCHANGE|56=UBS|34=942|52=20180919-01:00:07.004|1128=9|11=7986|14=1865|17=hB0.kV./MX6|150=F|151=3352|1093=2|453=1|448=BROKERID|447=D|452=17|37=2242049|38=8311|39=1|40=1|207=UBS|48=MASKED|22=MASKED|54=1|59=9|60=20180919-01:00:07.000|10=078|
09:00:07.004858 I FIXPUMP 		gateway3:[FIXRX] 8=FIXT.1.1|9=295|35=8|49=EXCHANGE|56=UBS|34=942|52=20180919-01:00:07.004|1128=9|11=7986|14=4882|17=hB0.kV./MX6|150=F|151=0|1093=2|453=1|448=BROKERID|447=D|452=17|37=2242049|38=8311|39=2|40=1|207=UBS|48=MASKED|22=MASKED|54=0|59=9|60=20180919-01:00:07.000|10=078|
09:00:05.320249 I gateway3			[EVT.onPendingReplace:06] [MAPTX] [RPL][order.RefId=849][order.OrderId=90117][clOrdId=7986] [seqNo=67175]
09:00:07.001122 I FIXPUMP		gateway3:[FIXTX] 8=FIXT.1.1|9=218|35=G|43=N|52=20180919-01:00:07.000|122=20180919-01:00:05.320|49=UBSACCOUNT|56=EXCHANGE|34=938|11=7986|38=8311|54=2|40=1|59=9|60=20180919-01:00:05.320|48=MASKED|22=8|453=1|448=BROKERID|447=D|452=1|207=XHKG|1812=1|1813=100|1814=1|10=220|
09:00:07.004858 I FIXPUMP 		gateway3:[FIXRX] 8=FIXT.1.1|9=229|35=8|49=EXCHANGE|56=UBSACCOUNT|34=942|52=20180919-01:00:07.004|1128=9|11=7986|14=0|17=hB0.kV./MX6|150=0|151=8311|1093=2|453=1|448=BROKERID|447=D|452=1|37=2242049|38=8311|39=5|40=1|207=XHKG|48=MASKED|22=8|54=2|59=9|60=20180919-01:00:07.000|10=078|
09:00:05.320249 I gateway3			[EVT.onPending:00] [MAPTX] [NEW][order.RefId=860][order.OrderId=7252][clOrdId=54479] [seqNo=938]
09:00:07.001122 I FIXPUMP		gateway3:[FIXTX] 8=FIXT.1.1|9=218|35=D|43=N|52=20180919-01:00:07.000|122=20180919-01:00:05.320|49=UBSACCOUNT|56=EXCHANGE|34=938|11=54479|38=2739|54=2|40=1|59=9|60=20180919-01:00:05.320|48=MASKED|22=8|453=1|448=BROKERID|447=D|452=1|207=XHKG|1812=1|1813=100|1814=1|10=220|
09:00:07.004858 I FIXPUMP 		gateway3:[FIXRX] 8=FIXT.1.1|9=229|35=8|49=EXCHANGE|56=UBSACCOUNT|34=942|52=20180919-01:00:07.004|1128=9|11=54479|14=0|17=hB0.kV./MX6|150=0|151=2739|1093=2|453=1|448=BROKERID|447=D|452=1|37=2242049|38=2739|39=0|40=1|207=XHKG|48=MASKED|22=8|54=2|59=9|60=20180919-01:00:07.000|10=078|
09:00:07.004858 I FIXPUMP 		gateway3:[FIXRX] 8=FIXT.1.1|9=295|35=8|49=EXCHANGE|56=UBS|34=942|52=20180919-01:00:07.004|1128=9|11=54479|14=2805|17=hB0.kV./MX6|150=F|151=0|1093=2|453=1|448=BROKERID|447=D|452=17|37=2242049|38=2739|39=2|40=1|207=UBS|48=MASKED|22=MASKED|54=0|59=9|60=20180919-01:00:07.000|10=078|
09:00:05.320249 I gateway3			[EVT.onPendingReplace:06] [MAPTX] [RPL][order.RefId=860][order.OrderId=7252][clOrdId=54479] [seqNo=67175]
09:00:07.001122 I FIXPUMP		gateway3:[FIXTX] 8=FIXT.1.1|9=218|35=G|43=N|52=20180919-01:00:07.000|122=20180919-01:00:05.320|49=UBSACCOUNT|56=EXCHANGE|34=938|11=54479|38=2739|54=2|40=1|59=9|60=20180919-01:00:05.320|48=MASKED|22=8|453=1|448=BROKERID|447=D|452=1|207=XHKG|1812=1|1813=100|1814=1|10=220|
09:00:07.004858 I FIXPUMP 		gateway3:[FIXRX] 8=FIXT.1.1|9=229|35=8|49=EXCHANGE|56=UBSACCOUNT|34=942|52=20180919-01:00:07.004|1128=9|11=54479|14=0|17=hB0.kV./MX6|150=0|151=2739|1093=2|453=1|448=BROKERID|447=D|452=1|37=2242049|38=2739|39=5|40=1|207=XHKG|48=MASKED|22=8|54=2|59=9|60=20180919-01:00:07.000|10=078|
09:00:05.320249 I gateway3			[EVT.onPending:00] [MAPTX] [NEW][order.RefId=459][order.OrderId=47094][clOrdId=55050] [seqNo=938]
09:00:07.001122 I FIXPUMP		gateway3:[FIXTX] 8=FIXT.1.1|9=218|35=D|43=N|52=20180919-01:00:07.000|122=20180919-01:00:05.320|49=UBSACCOUNT|56=EXCHANGE|34=938|11=55050|38=5877|54=2|40=1|59=9|60=20180919-01:00:05.320|48=MASKED|22=8|453=1|448=BROKERID|447=D|452=1|207=XHKG|1812=1|1813=100|1814=1|10=220|
09:00:07.004858 I FIXPUMP 		gateway3:[FIXRX] 8=FIXT.1.1|9=229|35=8|49=EXCHANGE|56=UBSACCOUNT|34=942|52=20180919-01:00:07.004|1128=9|11=55050|14=0|17=hB0.kV./MX6|150=0|151=5877|1093=2|453=1|448=BROKERID|447=D|452=1|37=2242049|38=5877|39=0|40=1|207=XHKG|48=MASKED|22=8|54=2|59=9|60=20180919-01:00:07.000|10=078|
09:00:07.004858 I FIXPUMP 		gateway3:[FIXRX] 8=FIXT.1.1|9=295|35=8|49=EXCHANGE|56=UBS|34=942|52=20180919-01:00:07.004|1128=9|11=55050|14=4712|17=hB0.kV./MX6|150=F|151=1165|1093=2|453=1|448=BROKERID|447=D|452=17|37=2242049|38=5877|39=1|40=1|207=UBS|48=MASKED|22=MASKED|54=1|59=9|60=20180919-01:00:07.000|10=078|
09:00:07.004858 I FIXPUMP 		gateway3:[FIXRX] 8=FIXT.1.1|9=295|35=8|49=EXCHANGE|56=UBS|34=942|52=20180919-01:00:07.004|1128=9|11=55050|14=258|17=hB0.kV./MX6|150=F|151=907|1093=2|453=1|448=BROKERID|447=D|452=17|37=2242049|38=5877|39=1|40=1|207=UBS|48=MASKED|22=MASKED|54=1|59=9|60=20180919-01:00:07.000|10=078|
09:00:07.004858 I FIXPUMP 		gateway3:[FIXRX] 8=FIXT.1.1|9=295|35=8|49=EXCHANGE|56=UBS|34=942|52=20180919-01:00:07.004|1128=9|11=55050|14=91|17=hB0.kV./MX6|150=F|151=816|1093=2|453=1|448=BROKERID|447=D|452=17|37=2242049|38=5877|39=1|40=1|207=UBS|48=MASKED|22=MASKED|54=1|59=9|60=20180919-01:00:07.000|10=078|
09:00:07.004858 I FIXPUMP 		gateway3:[FIXRX] 8=FIXT.1.1|9=295|35=8|49=EXCHANGE|56=UBS|34=942|52=20180919-01:00:07.004|1128=9|11=55050|14=3406|17=hB0.kV./MX6|150=F|151=0|1093=2|453=1|448=BROKERID|447=D|452=17|37=2242049|38=5877|39=2|40=1|207=UBS|48=MASKED|22=MASKED|54=0|59=9|60=20180919-01:00:07.000|10=078|
09:00:05.320249 I gateway3			[EVT.onPendingReplace:06] [MAPTX] [RPL][order.RefId=459][order.OrderId=47094][clOrdId=55050] [seqNo=67175]
09:00:07.001122 I FIXPUMP		gateway3:[FIXTX] 8=FIXT.1.1|9=218|35=G|43=N|52=20180919-01:00:07.000|122=20180919-01:00:05.320|49=UBSACCOUNT|56=EXCHANGE|34=938|11=55050|38=5877|54=2|40=1|59=9|60=20180919-01:00:05.320|48=MASKED|22=8|453=1|448=BROKERID|447=D|452=1|207=XHKG|1812=1|1813=100|1814=1|10=220|
09:00:07.004858 I FIXPUMP 		gateway3:[FIXRX] 8=FIXT.1.1|9=229|35=8|49=EXCHANGE|56=UBSACCOUNT|34=942|52=20180919-01:00:07.004|1128=9|11=55050|14=0|17=hB0.kV./MX6|150=0|151=5877|1093=2|453=1|448=BROKERID|447=D|452=1|37=2242049|38=5877|39=5|40=1|207=XHKG|48=MASKED|22=8|54=2|59=9|60=20180919-01:00:07.000|10=078|
09:00:05.320249 I gateway3			[EVT.onPending:00] [MAPTX] [NEW][order.RefId=474][order.OrderId=75480][clOrdId=15598] [seqNo=938]
09:00:07.001122 I FIXPUMP		gateway3:[FIXTX] 8=FIXT.1.1|9=218|35=D|43=N|52=20180919-01:00:07.000|122=20180919-01:00:05.320|49=UBSACCOUNT|56=EXCHANGE|34=938|11=15598|38=5454|54=2|40=1|59=9|60=20180919-01:00:05.320|48=MASKED|22=8|453=1|448=BROKERID|447=D|452=1|207=XHKG|1812=1|1813=100|1814=1|10=220|
09:00:07.004858 I FIXPUMP 		gateway3:[FIXRX] 8=FIXT.1.1|9=229|35=8|49=EXCHANGE|56=UBSACCOUNT|34=942|52=20180919-01:00:07.004|1128=9|11=15598|14=0|17=hB0.kV./MX6|150=0|151=5454|1093=2|453=1|448=BROKERID|447=D|452=1|37=2242049|38=5454|39=0|40=1|207=XHKG|48=MASKED|22=8|54=2|59=9|60=20180919-01:00:07.000|10=078|
09:00:07.004858 I FIXPUMP 		gateway3:[FIXRX] 8=FIXT.1.1|9=295|35=8|49=EXCHANGE|56=UBS|34=942|52=20180919-01:00:07.004|1128=9|11=15598|14=4229|17=hB0.kV./MX6|150=F|151=1225|1093=2|453=1|448=BROKERID|447=D|452=17|37=2242049|38=5454|39=1|40=1|207=UBS|48=MASKED|22=MASKED|54=1|59=9|60=20180919-01:00:07.000|10=078|
09:00:07.004858 I FIXPUMP 		gateway3:[FIXRX] 8=FIXT.1.1|9=295|35=8|49=EXCHANGE|56=UBS|34=942|52=20180919-01:00:07.004|1128=9|11=15598|14=563|17=hB0.kV./MX6|150=F|151=662|1093=2|453=1|448=BROKERID|447=D|452=17|37=2242049|38=5454|39=1|40=1|207=UBS|48=MASKED|22=MASKED|54=1|59=9|60=20180919-01:00:07.000|10=078|
09:00:07.004858 I FIXPUMP 		gateway3:[FIXRX] 8=FIXT.1.1|9=295|35=8|49=EXCHANGE|56=UBS|34=942|52=20180919-01:00:07.004|1128=9|11=15598|14=4198|17=hB0.kV./MX6|150=F|151=0|1093=2|453=1|448=BROKERID|447=D|452=17|37=2242049|38=5454|39=2|40=1|207=UBS|48=MASKED|22=MASKED|54=0|59=9|60=20180919-01:00:07.000|10=078|
09:00:05.320249 I gateway3			[EVT.onPendingReplace:06] [MAPTX] [RPL][order.RefId=474][order.OrderId=75480][clOrdId=15598] [seqNo=67175]
09:00:07.001122 I FIXPUMP		gateway3:[FIXTX] 8=FIXT.1.1|9=218|35=G|43=N|52=20180919-01:00:07.000|122=20180919-01:00:05.320|49=UBSACCOUNT|56=EXCHANGE|34=938|11=15598|38=5454|54=2|40=1|59=9|60=20180919-01:00:05.320|48=MASKED|22=8|453=1|448=BROKERID|447=D|452=1|207=XHKG|1812=1|1813=100|1814=1|10=220|
09:00:07.004858 I FIXPUMP 		gateway3:[FIXRX] 8=FIXT.1.1|9=229|35=8|49=EXCHANGE|56=UBSACCOUNT|34=942|52=20180919-01:00:07.004|1128=9|11=15598|14=0|17=hB0.kV./MX6|150=0|151=5454|1093=2|453=1|448=BROKERID|447=D|452=1|37=2242049|38=5454|39=5|40=1|207=XHKG|48=MASKED|22=8|54=2|59=9|60=20180919-01:00:07.000|10=078|
09:00:05.320249 I gateway3			[EVT.onPending:00] [MAPTX] [NEW][order.RefId=627][order.OrderId=40745][clOrdId=48190] [seqNo=938]
09:00:07.001122 I FIXPUMP		gateway3:[FIXTX] 8=FIXT.1.1|9=218|35=D|43=N|52=20180919-01:00:07.000|122=20180919-01:00:05.320|49=UBSACCOUNT|56=EXCHANGE|34=938|11=48190|38=7814|54=2|40=1|59=9|60=20180919-01:00:05.320|48=MASKED|22=8|453=1|448=BROKERID|447=D|452=1|207=XHKG|1812=1|1813=100|1814=1|10=220|
09:00:07.004858 I FIXPUMP 		gateway3:[FIXRX] 8=FIXT.1.1|9=229|35=8|49=EXCHANGE|56=UBSACCOUNT|34=942|52=20180919-01:00:07.004|1128=9|11=48190|14=0|17=hB0.kV./MX6|150=0|151=7814|1093=2|453=1|448=BROKERID|447=D|452=1|37=2242049|38=7814|39=0|40=1|207=XHKG|48=MASKED|22=8|54=2|59=9|60=20180919-01:00:07.000|10=078|
09:00:07.004858 I FIXPUMP 		gateway3:[FIXRX] 8=FIXT.1.1|9=295|35=8|49=EXCHANGE|56=UBS|34=942|52=20180919-01:00:07.004|1128=9|11=48190|14=2624|17=hB0.kV./MX6|150=F|151=5190|1093=2|453=1|448=BROKERID|447=D|452=17|37=2242049|38=7814|39=1|40=1|207=UBS|48=MASKED|22=MASKED|54=1|59=9|60=20180919-01:00:07.000|10=078|
09:00:07.004858 I FIXPUMP 		gateway3:[FIXRX] 8=FIXT.1.1|9=295|35=8|49=EXCHANGE|56=UBS|34=942|52=20180919-01:00:07.004|1128=9|11=48190|14=163|17=hB0.kV./MX6|150=F|151=5027|1093=2|453=1|448=BROKERID|447=D|452=17|37=2242049|38=7814|39=1|40=1|207=UBS|48=MASKED|22=MASKED|54=1|59=9|60=20180919-01:00:07.000|10=078|
09:00:07.004858 I FIXPUMP 		gateway3:[FIXRX] 8=FIXT.1.1|9=295|35=8|49=EXCHANGE|56=UBS|34=942|52=20180919-01:00:07.004|1128=9|11=48190|14=2|17=hB0.kV./MX6|150=F|151=5025|1093=2|453=1|448=BROKERID|447=D|452=17|37=2242049|38=7814|39=1|40=1|207=UBS|48=MASKED|22=MASKED|54=1|59=9|60=20180919-01:00:07.000|10=078|
09:00:07.004858 I FIXPUMP 		gateway3:[FIXRX] 8=FIXT.1.1|9=295|35=8|49=EXCHANGE|56=UBS|34=942|52=20180919-01:00:07.004|1128=9|11=48190|14=2115|17=hB0.kV./MX6|150=F|151=2910|1093=2|453=1|448=BROKERID|447=D|452=17|37=2242049|38=7814|39=1|40=1|207=UBS|48=MASKED|22=MASKED|54=1|59=9|60=20180919-01:00:07.000|10=078|
09:00:07.004858 I FIXPUMP 		gateway3:[FIXRX] 8=FIXT.1.1|9=295|35=8|49=EXCHANGE|56=UBS|34=942|52=20180919-01:00:07.004|1128=9|11=48190|14=1715|17=hB0.kV./MX6|150=F|151=1195|1093=2|453=1|448=BROKERID|447=D|452=17|37=2242049|38=7814|39=1|40=1|207=UBS|48=MASKED|22=MASKED|54=1|59=9|60=20180919-01:00:07.000|10=078|
09:00:07.004858 I FIXPUMP 		gateway3:[FIXRX] 8=FIXT.1.1|9=295|35=8|49=EXCHANGE|56=UBS|34=942|52=20180919-01:00:07.004|1128=9|11=48190|14=4926|17=hB0.kV./MX6|150=F|151=0|1093=2|453=1|448=BROKERID|447=D|452=17|37=2242049|38=7814|39=2|40=1|207=UBS|48=MASKED|22=MASKED|54=0|59=9|60=20180919-01:00:07.000|10=078|
09:00:05.320249 I gateway3			[EVT.onPendingReplace:06] [MAPTX] [RPL][order.RefId=627][order.OrderId=40745][clOrdId=48190] [seqNo=67175]
09:00:07.001122 I FIXPUMP		gateway3:[FIXTX] 8=FIXT.1.1|9=218|35=G|43=N|52=20180919-01:00:07.000|122=20180919-01:00:05.320|49=UBSACCOUNT|56=EXCHANGE|34=938|11=48190|38=7814|54=2|40=1|59=9|60=20180919-01:00:05.320|48=MASKED|22=8|453=1|448=BROKERID|447=D|452=1|207=XHKG|1812=1|1813=100|1814=1|10=220|
09:00:07.004858 I FIXPUMP 		gateway3:[FIXRX] 8=FIXT.1.1|9=229|35=8|49=EXCHANGE|56=UBSACCOUNT|34=942|52=20180919-01:00:07.004|1128=9|11=48190|14=0|17=hB0.kV./MX6|150=0|151=7814|1093=2|453=1|448=BROKERID|447=D|452=1|37=2242049|38=7814|39=5|40=1|207=XHKG|48=MASKED|22=8|54=2|59=9|60=20180919-01:00:07.000|10=078|
09:00:05.320249 I gateway3			[EVT.onPending:00] [MAPTX] [NEW][order.RefId=738][order.OrderId=40821][clOrdId=15877] [seqNo=938]
09:00:07.001122 I FIXPUMP		gateway3:[FIXTX] 8=FIXT.1.1|9=218|35=D|43=N|52=20180919-01:00:07.000|122=20180919-01:00:05.320|49=UBSACCOUNT|56=EXCHANGE|34=938|11=15877|38=5347|54=2|40=1|59=9|60=20180919-01:00:05.320|48=MASKED|22=8|453=1|448=BROKERID|447=D|452=1|207=XHKG|1812=1|1813=100|1814=1|10=220|
09:00:07.004858 I FIXPUMP 		gateway3:[FIXRX] 8=FIXT.1.1|9=229|35=8|49=EXCHANGE|56=UBSACCOUNT|34=942|52=20180919-01:00:07.004|1128=9|11=15877|14=0|17=hB0.kV./MX6|150=0|151=5347|1093=2|453=1|448=BROKERID|447=D|452=1|37=2242049|38=5347|39=0|40=1|207=XHKG|48=MASKED|22=8|54=2|59=9|60=20180919-01:00:07.000|10=078|
09:00:07.004858 I FIXPUMP 		gateway3:[FIXRX] 8=FIXT.1.1|9=295|35=8|49=EXCHANGE|56=UBS|34=942|52=20180919-01:00:07.004|1128=9|11=15877|14=1455|17=hB0.kV./MX6|150=F|151=3892|1093=2|453=1|448=BROKERID|447=D|452=17|37=2242049|38=5347|39=1|40=1|207=UBS|48=MASKED|22=MASKED|54=1|59=9|60=20180919-01:00:07.000|10=078|
09:00:07.004858 I FIXPUMP 		gateway3:[FIXRX] 8=FIXT.1.1|9=295|35=8|49=EXCHANGE|56=UBS|34=942|52=20180919-01:00:07.004|1128=9|11=15877|14=4053|17=hB0.kV./MX6|150=F|151=0|1093=2|453=1|448=BROKERID|447=D|452=17|37=2242049|38=5347|39=2|40=1|207=UBS|48=MASKED|22=MASKED|54=0|59=9|60=20180919-01:00:07.000|10=078|
09:00:05.320249 I gateway3			[EVT.onPendingReplace:06] [MAPTX] [RPL][order.RefId=738][order.OrderId=40821][clOrdId=15877] [seqNo=67175]
09:00:07.001122 I FIXPUMP		gateway3:[FIXTX] 8=FIXT.1.1|9=218|35=G|43=N|52=20180919-01:00:07.000|122=20180919-01:00:05.320|49=UBSACCOUNT|56=EXCHANGE|34=938|11=15877|38=5347|54=2|40=1|59=9|60=20180919-01:00:05.320|48=MASKED|22=8|453=1|448=BROKERID|447=D|452=1|207=XHKG|1812=1|1813=100|1814=1|10=220|
09:00:07.004858 I FIXPUMP 		gateway3:[FIXRX] 8=FIXT.1.1|9=229|35=8|49=EXCHANGE|56=UBSACCOUNT|34=942|52=20180919-01:00:07.004|1128=9|11=15877|14=0|17=hB0.kV./MX6|150=0|151=5347|1093=2|453=1|448=BROKERID|447=D|452=1|37=2242049|38=5347|39=5|40=1|207=XHKG|48=MASKED|22=8|54=2|59=9|60=20180919-01:00:07.000|10=078|
09:00:05.320249 I gateway3			[EVT.onPending:00] [MAPTX] [NEW][order.RefId=824][order.OrderId=41576][clOrdId=14701] [seqNo=938]
09:00:07.001122 I FIXPUMP		gateway3:[FIXTX] 8=FIXT.1.1|9=218|35=D|43=N|52=20180919-01:00:07.000|122=20180919-01:00:05.320|49=UBSACCOUNT|56=EXCHANGE|34=938|11=14701|38=8076|54=2|40=1|59=9|60=20180919-01:00:05.320|48=MASKED|22=8|453=1|448=BROKERID|447=D|452=1|207=XHKG|1812=1|1813=100|1814=1|10=220|
09:00:07.004858 I FIXPUMP 		gateway3:[FIXRX] 8=FIXT.1.1|9=229|35=8|49=EXCHANGE|56=UBSACCOUNT|34=942|52=20180919-01:00:07.004|1128=9|11=14701|14=0|17=hB0.kV./MX6|150=0|151=8076|1093=2|453=1|448=BROKERID|447=D|452=1|37=2242049|38=8076|39=0|40=1|207=XHKG|48=MASKED|22=8|54=2|59=9|60=20180919-01:00:07.000|10=078|
09:00:07.004858 I FIXPUMP 		gateway3:[FIXRX] 8=FIXT.1.1|9=295|35=8|49=EXCHANGE|56=UBS|34=942|52=20180919-01:00:07.004|1128=9|11=14701|14=4300|17=hB0.kV./MX6|150=F|151=3776|1093=2|453=1|448=BROKERID|447=D|452=17|37=2242049|38=8076|39=1|40=1|207=UBS|48=MASKED|22=MASKED|54=1|59=9|60=20180919-01:00:07.000|10=078|
09:00:07.004858 I FIXPUMP 		gateway3:[FIXRX] 8=FIXT.1.1|9=295|35=8|49=EXCHANGE|56=UBS|34=942|52=20180919-01:00:07.004|1128=9|11=14701|14=1466|17=hB0.kV./MX6|150=F|151=2310|1093=2|453=1|448=BROKERID|447=D|452=17|37=2242049|38=8076|39=1|40=1|207=UBS|48=MASKED|22=MASKED|54=1|59=9|60=20180919-01:00:07.000|10=078|
09:00:07.004858 I FIXPUMP 		gateway3:[FIXRX] 8=FIXT.1.1|9=295|35=8|49=EXCHANGE|56=UBS|34=942|52=20180919-01:00:07.004|1128=9|11=14701|14=2419|17=hB0.kV./MX6|150=F|151=0|1093=2|453=1|448=BROKERID|447=D|452=17|37=2242049|38=8076|39=2|40=1|207=UBS|48=MASKED|22=MASKED|54=0|59=9|60=20180919-01:00:07.000|10=078|
09:00:05.320249 I gateway3			[EVT.onPendingReplace:06] [MAPTX] [RPL][order.RefId=824][order.OrderId=41576][clOrdId=14701] [seqNo=67175]
09:00:07.001122 I FIXPUMP		gateway3:[FIXTX] 8=FIXT.1.1|9=218|35=G|43=N|52=20180919-01:00:07.000|122=20180919-01:00:05.320|49=UBSACCOUNT|56=EXCHANGE|34=938|11=14701|38=8076|54=2|40=1|59=9|60=20180919-01:00:05.320|48=MASKED|22=8|453=1|448=BROKERID|447=D|452=1|207=XHKG|1812=1|1813=100|1814=1|10=220|
09:00:07.004858 I FIXPUMP 		gateway3:[FIXRX] 8=FIXT.1.1|9=229|35=8|49=EXCHANGE|56=UBSACCOUNT|34=942|52=20180919-01:00:07.004|1128=9|11=14701|14=0|17=hB0.kV./MX6|150=0|151=8076|1093=2|453=1|448=BROKERID|447=D|452=1|37=2242049|38=8076|39=5|40=1|207=XHKG|48=MASKED|22=8|54=2|59=9|60=20180919-01:00:07.000|10=078|
09:00:05.320249 I gateway3			[EVT.onPending:00] [MAPTX] [NEW][order.RefId=166][order.OrderId=66739][clOrdId=43313] [seqNo=938]
09:00:07.001122 I FIXPUMP		gateway3:[FIXTX] 8=FIXT.1.1|9=218|35=D|43=N|52=20180919-01:00:07.000|122=20180919-01:00:05.320|49=UBSACCOUNT|56=EXCHANGE|34=938|11=43313|38=6812|54=2|40=1|59=9|60=20180919-01:00:05.320|48=MASKED|22=8|453=1|448=BROKERID|447=D|452=1|207=XHKG|1812=1|1813=100|1814=1|10=220|
09:00:07.004858 I FIXPUMP 		gateway3:[FIXRX] 8=FIXT.1.1|9=229|35=8|49=EXCHANGE|56=UBSACCOUNT|34=942|52=20180919-01:00:07.004|1128=9|11=43313|14=0|17=hB0.kV./MX6|150=0|151=6812|1093=2|453=1|448=BROKERID|447=D|452=1|37=2242049|38=6812|39=0|40=1|207=XHKG|48=MASKED|22=8|54=2|59=9|60=20180919-01:00:07.000|10=078|
09:00:07.004858 I FIXPUMP 		gateway3:[FIXRX] 8=FIXT.1.1|9=295|35=8|49=EXCHANGE|56=UBS|34=942|52=20180919-01:00:07.004|1128=9|11=43313|14=4248|17=hB0.kV./MX6|150=F|151=2564|1093=2|453=1|448=BROKERID|447=D|452=17|37=2242049|38=6812|39=1|40=1|207=UBS|48=MASKED|22=MASKED|54=1|59=9|60=20180919-01:00:07.000|10=078|
09:00:07.004858 I FIXPUMP 		gateway3:[FIXRX] 8=FIXT.1.1|9=295|35=8|49=EXCHANGE|56=UBS|34=942|52=20180919-01:00:07.004|1128=9|11=43313|14=1261|17=hB0.kV./MX6|150=F|151=1303|1093=2|453=1|448=BROKERID|447=D|452=17|37=2242049|38=6812|39=1|40=1|207=UBS|48=MASKED|22=MASKED|54=1|59=9|60=20180919-01:00:07.000|10=078|
09:00:07.004858 I FIXPUMP 		gateway3:[FIXRX] 8=FIXT.1.1|9=295|35=8|49=EXCHANGE|56=UBS|34=942|52=20180919-01:00:07.004|1128=9|11=43313|14=4794|17=hB0.kV./MX6|150=F|151=0|1093=2|453=1|448=BROKERID|447=D|452=17|37=2242049|38=6812|39=2|40=1|207=UBS|48=MASKED|22=MASKED|54=0|59=9|60=20180919-01:00:07.000|10=078|
09:00:05.320249 I gateway3			[EVT.onPendingReplace:06] [MAPTX] [RPL][order.RefId=166][order.OrderId=66739][clOrdId=43313] [seqNo=67175]
09:00:07.001122 I FIXPUMP		gateway3:[FIXTX] 8=FIXT.1.1|9=218|35=G|43=N|52=20180919-01:00:07.000|122=20180919-01:00:05.320|49=UBSACCOUNT|56=EXCHANGE|34=938|11=43313|38=6812|54=2|40=1|59=9|60=20180919-01:00:05.320|48=MASKED|22=8|453=1|448=BROKERID|447=D|452=1|207=XHKG|1812=1|1813=100|1814=1|10=220|
09:00:07.004858 I FIXPUMP 		gateway3:[FIXRX] 8=FIXT.1.1|9=229|35=8|49=EXCHANGE|56=UBSACCOUNT|34=942|52=20180919-01:00:07.004|1128=9|11=43313|14=0|17=hB0.kV./MX6|150=0|151=6812|1093=2|453=1|448=BROKERID|447=D|452=1|37=2242049|38=6812|39=5|40=1|207=XHKG|48=MASKED|22=8|54=2|59=9|60=20180919-01:00:07.000|10=078|
09:00:05.320249 I gateway3			[EVT.onPending:00] [MAPTX] [NEW][order.RefId=657][order.OrderId=26939][clOrdId=92158] [seqNo=938]
09:00:07.001122 I FIXPUMP		gateway3:[FIXTX] 8=FIXT.1.1|9=218|35=D|43=N|52=20180919-01:00:07.000|122=20180919-01:00:05.320|49=UBSACCOUNT|56=EXCHANGE|34=938|11=92158|38=2002|54=2|40=1|59=9|60=20180919-01:00:05.320|48=MASKED|22=8|453=1|448=BROKERID|447=D|452=1|207=XHKG|1812=1|1813=100|1814=1|10=220|
09:00:07.004858 I FIXPUMP 		gateway3:[FIXRX] 8=FIXT.1.1|9=229|35=8|49=EXCHANGE|56=UBSACCOUNT|34=942|52=20180919-01:00:07.004|1128=9|11=92158|14=0|17=hB0.kV./MX6|150=0|151=2002|1093=2|453=1|448=BROKERID|447=D|452=1|37=2242049|38=2002|39=0|40=1|207=XHKG|48=MASKED|22=8|54=2|59=9|60=20180919-01:00:07.000|10=078|
09:00:07.004858 I FIXPUMP 		gateway3:[FIXRX] 8=FIXT.1.1|9=295|35=8|49=EXCHANGE|56=UBS|34=942|52=20180919-01:00:07.004|1128=9|11=92158|14=4073|17=hB0.kV./MX6|150=F|151=0|1093=2|453=1|448=BROKERID|447=D|452=17|37=2242049|38=2002|39=2|40=1|207=UBS|48=MASKED|22=MASKED|54=0|59=9|60=20180919-01:00:07.000|10=078|
09:00:05.320249 I gateway3			[EVT.onPendingReplace:06] [MAPTX] [RPL][order.RefId=657][order.OrderId=26939][clOrdId=92158] [seqNo=67175]
09:00:07.001122 I FIXPUMP		gateway3:[FIXTX] 8=FIXT.1.1|9=218|35=G|43=N|52=20180919-01:00:07.000|122=20180919-01:00:05.320|49=UBSACCOUNT|56=EXCHANGE|34=938|11=92158|38=2002|54=2|40=1|59=9|60=20180919-01:00:05.320|48=MASKED|22=8|453=1|448=BROKERID|447=D|452=1|207=XHKG|1812=1|1813=100|1814=1|10=220|
09:00:07.004858 I FIXPUMP 		gateway3:[FIXRX] 8=FIXT.1.1|9=229|35=8|49=EXCHANGE|56=UBSACCOUNT|34=942|52=20180919-01:00:07.004|1128=9|11=92158|14=0|17=hB0.kV./MX6|150=0|151=2002|1093=2|453=1|448=BROKERID|447=D|452=1|37=2242049|38=2002|39=5|40=1|207=XHKG|48=MASKED|22=8|54=2|59=9|60=20180919-01:00:07.000|10=078|
09:00:05.320249 I gateway3			[EVT.onPending:00] [MAPTX] [NEW][order.RefId=320][order.OrderId=33954][clOrdId=88138] [seqNo=938]
09:00:07.001122 I FIXPUMP		gateway3:[FIXTX] 8=FIXT.1.1|9=218|35=D|43=N|52=20180919-01:00:07.000|122=20180919-01:00:05.320|49=UBSACCOUNT|56=EXCHANGE|34=938|11=88138|38=6419|54=2|40=1|59=9|60=20180919-01:00:05.320|48=MASKED|22=8|453=1|448=BROKERID|447=D|452=1|207=XHKG|1812=1|1813=100|1814=1|10=220|
09:00:07.004858 I FIXPUMP 		gateway3:[FIXRX] 8=FIXT.1.1|9=229|35=8|49=EXCHANGE|56=UBSACCOUNT|34=942|52=20180919-01:00:07.004|1128=9|11=88138|14=0|17=hB0.kV./MX6|150=0|151=6419|1093=2|453=1|448=BROKERID|447=D|452=1|37=2242049|38=6419|39=0|40=1|207=XHKG|48=MASKED|22=8|54=2|59=9|60=20180919-01:00:07.000|10=078|
09:00:07.004858 I FIXPUMP 		gateway3:[FIXRX] 8=FIXT.1.1|9=295|35=8|49=EXCHANGE|56=UBS|34=942|52=20180919-01:00:07.004|1128=9|11=88138|14=1674|17=hB0.kV./MX6|150=F|151=4745|1093=2|453=1|448=BROKERID|447=D|452=17|37=2242049|38=6419|39=1|40=1|207=UBS|48=MASKED|22=MASKED|54=1|59=9|60=20180919-01:00:07.000|10=078|
09:00:07.004858 I FIXPUMP 		gateway3:[FIXRX] 8=FIXT.1.1|9=295|35=8|49=EXCHANGE|56=UBS|34=942|52=20180919-01:00:07.004|1128=9|11=88138|14=1261|17=hB0.kV./MX6|150=F|151=3484|1093=2|453=1|448=BROKERID|447=D|452=17|37=2242049|38=6419|39=1|40=1|207=UBS|48=MASKED|22=MASKED|54=1|59=9|60=20180919-01:00:07.000|10=078|
09:00:07.004858 I FIXPUMP 		gateway3:[FIXRX] 8=FIXT.1.1|9=295|35=8|49=EXCHANGE|56=UBS|34=942|52=20180919-01:00:07.004|1128=9|11=88138|14=4764|17=hB0.kV./MX6|150=F|151=0|1093=2|453=1|448=BROKERID|447=D|452=17|37=2242049|38=6419|39=2|40=1|207=UBS|48=MASKED|22=MASKED|54=0|59=9|60=20180919-01:00:07.000|10=078|
09:00:05.320249 I gateway3			[EVT.onPendingReplace:06] [MAPTX] [RPL][order.RefId=320][order.OrderId=33954][clOrdId=88138] [seqNo=67175]
09:00:07.001122 I FIXPUMP		gateway3:[FIXTX] 8=FIXT.1.1|9=218|35=G|43=N|52=20180919-01:00:07.000|122=20180919-01:00:05.320|49=UBSACCOUNT|56=EXCHANGE|34=938|11=88138|38=6419|54=2|40=1|59=9|60=20180919-01:00:05.320|48=MASKED|22=8|453=1|448=BROKERID|447=D|452=1|207=XHKG|1812=1|1813=100|1814=1|10=220|
09:00:07.004858 I FIXPUMP 		gateway3:[FIXRX] 8=FIXT.1.1|9=229|35=8|49=EXCHANGE|56=UBSACCOUNT|34=942|52=20180919-01:00:07.004|1128=9|11=88138|14=0|17=hB0.kV./MX6|150=0|151=6419|1093=2|453=1|448=BROKERID|447=D|452=1|37=2242049|38=6419|39=5|40=1|207=XHKG|48=MASKED|22=8|54=2|59=9|60=20180919-01:00:07.000|10=078|
09:00:05.320249 I gateway3			[EVT.onPending:00] [MAPTX] [NEW][order.RefId=218][order.OrderId=88925][clOrdId=22625] [seqNo=938]
09:00:07.001122 I FIXPUMP		gateway3:[FIXTX] 8=FIXT.1.1|9=218|35=D|43=N|52=20180919-01:00:07.000|122=20180919-01:00:05.320|49=UBSACCOUNT|56=EXCHANGE|34=938|11=22625|38=4820|54=2|40=1|59=9|60=20180919-01:00:05.320|48=MASKED|22=8|453=1|448=BROKERID|447=D|452=1|207=XHKG|1812=1|1813=100|1814=1|10=220|
09:00:07.004858 I FIXPUMP 		gateway3:[FIXRX] 8=FIXT.1.1|9=229|35=8|49=EXCHANGE|56=UBSACCOUNT|34=942|52=20180919-01:00:07.004|1128=9|11=22625|14=0|17=hB0.kV./MX6|150=0|151=4820|1093=2|453=1|448=BROKERID|447=D|452=1|37=2242049|38=4820|39=0|40=1|207=XHKG|48=MASKED|22=8|54=2|59=9|60=20180919-01:00:07.000|10=078|
09:00:07.004858 I FIXPUMP 		gateway3:[FIXRX] 8=FIXT.1.1|9=295|35=8|49=EXCHANGE|56=UBS|34=942|52=20180919-01:00:07.004|1128=9|11=22625|14=1400|17=hB0.kV./MX6|150=F|151=3420|1093=2|453=1|448=BROKERID|447=D|452=17|37=2242049|38=4820|39=1|40=1|207=UBS|48=MASKED|22=MASKED|54=1|59=9|60=20180919-01:00:07.000|10=078|
09:00:07.004858 I FIXPUMP 		gateway3:[FIXRX] 8=FIXT.1.1|9=295|35=8|49=EXCHANGE|56=UBS|34=942|52=20180919-01:00:07.004|1128=9|11=22625|14=4629|17=hB0.kV./MX6|150=F|151=0|1093=2|453=1|448=BROKERID|447=D|452=17|37=2242049|38=4820|39=2|40=1|207=UBS|48=MASKED|22=MASKED|54=0|59=9|60=20180919-01:00:07.000|10=078|
09:00:05.320249 I gateway3			[EVT.onPendingReplace:06] [MAPTX] [RPL][order.RefId=218][order.OrderId=88925][clOrdId=22625] [seqNo=67175]
09:00:07.001122 I FIXPUMP		gateway3:[FIXTX] 8=FIXT.1.1|9=218|35=G|43=N|52=20180919-01:00:07.000|122=20180919-01:00:05.320|49=UBSACCOUNT|56=EXCHANGE|34=938|11=22625|38=4820|54=2|40=1|59=9|60=20180919-01:00:05.320|48=MASKED|22=8|453=1|448=BROKERID|447=D|452=1|207=XHKG|1812=1|1813=100|1814=1|10=220|
09:00:07.004858 I FIXPUMP 		gateway3:[FIXRX] 8=FIXT.1.1|9=229|35=8|49=EXCHANGE|56=UBSACCOUNT|34=942|52=20180919-01:00:07.004|1128=9|11=22625|14=0|17=hB0.kV./MX6|150=0|151=4820|1093=2|453=1|448=BROKERID|447=D|452=1|37=2242049|38=4820|39=5|40=1|207=XHKG|48=MASKED|22=8|54=2|59=9|60=20180919-01:00:07.000|10=078|
09:00:05.320249 I gateway3			[EVT.onPending:00] [MAPTX] [NEW][order.RefId=193][order.OrderId=83597][clOrdId=65645] [seqNo=938]
09:00:07.001122 I FIXPUMP		gateway3:[FIXTX] 8=FIXT.1.1|9=218|35=D|43=N|52=20180919-01:00:07.000|122=20180919-01:00:05.320|49=UBSACCOUNT|56=EXCHANGE|34=938|11=65645|38=7321|54=2|40=1|59=9|60=20180919-01:00:05.320|48=MASKED|22=8|453=1|448=BROKERID|447=D|452=1|207=XHKG|1812=1|1813=100|1814=1|10=220|
09:00:07.004858 I FIXPUMP 		gateway3:[FIXRX] 8=FIXT.1.1|9=229|35=8|49=EXCHANGE|56=UBSACCOUNT|34=942|52=20180919-01:00:07.004|1128=9|11=65645|14=0|17=hB0.kV./MX6|150=0|151=7321|1093=2|453=1|448=BROKERID|447=D|452=1|37=2242049|38=7321|39=0|40=1|207=XHKG|48=MASKED|22=8|54=2|59=9|60=20180919-01:00:07.000|10=078|
09:00:07.004858 I FIXPUMP 		gateway3:[FIXRX] 8=FIXT.1.1|9=295|35=8|49=EXCHANGE|56=UBS|34=942|52=20180919-01:00:07.004|1128=9|11=65645|14=1626|17=hB0.kV./MX6|150=F|151=5695|1093=2|453=1|448=BROKERID|447=D|452=17|37=2242049|38=7321|39=1|40=1|207=UBS|48=MASKED|22=MASKED|54=1|59=9|60=20180919-01:00:07.000|10=078|
09:00:07.004858 I FIXPUMP 		gateway3:[FIXRX] 8=FIXT.1.1|9=295|35=8|49=EXCHANGE|56=UBS|34=942|52=20180919-01:00:07.004|1128=9|11=65645|14=674|17=hB0.kV./MX6|150=F|151=5021|1093=2|453=1|448=BROKERID|447=D|452=17|37=2242049|38=7321|39=1|40=1|207=UBS|48=MASKED|22=MASKED|54=1|59=9|60=20180919-01:00:07.000|10=078|
09:00:07.004858 I FIXPUMP 		gateway3:[FIXRX] 8=FIXT.1.1|9=295|35=8|49=EXCHANGE|56=UBS|34=942|52=20180919-01:00:07.004|1128=9|11=65645|14=2821|17=hB0.kV./MX6|150=F|151=2200|1093=2|453=1|448=BROKERID|447=D|452=17|37=2242049|38=7321|39=1|40=1|207=UBS|48=MASKED|22=MASKED|54=1|59=9|60=20180919-01:00:07.000|10=078|
09:00:07.004858 I FIXPUMP 		gateway3:[FIXRX] 8=FIXT.1.1|9=295|35=8|49=EXCHANGE|56=UBS|34=942|52=20180919-01:00:07.004|1128=9|11=65645|14=550|17=hB0.kV./MX6|150=F|151=1650|1093=2|453=1|448=BROKERID|447=D|452=17|37=2242049|38=7321|39=1|40=1|207=UBS|48=MASKED|22=MASKED|54=1|59=9|60=20180919-01:00:07.000|10=078|
09:00:07.004858 I FIXPUMP 		gateway3:[FIXRX] 8=FIXT.1.1|9=295|35=8|49=EXCHANGE|56=UBS|34=942|52=20180919-01:00:07.004|1128=9|11=65645|14=3493|17=hB0.kV./MX6|150=F|151=0|1093=2|453=1|448=BROKERID|447=D|452=17|37=2242049|38=7321|39=2|40=1|207=UBS|48=MASKED|22=MASKED|54=0|59=9|60=20180919-01:00:07.000|10=078|
09:00:05.320249 I gateway3			[EVT.onPendingReplace:06] [MAPTX] [RPL][order.RefId=193][order.OrderId=83597][clOrdId=65645] [seqNo=67175]
09:00:07.001122 I FIXPUMP		gateway3:[FIXTX] 8=FIXT.1.1|9=218|35=G|43=N|52=20180919-01:00:07.000|122=20180919-01:00:05.320|49=UBSACCOUNT|56=EXCHANGE|34=938|11=65645|38=7321|54=2|40=1|59=9|60=20180919-01:00:05.320|48=MASKED|22=8|453=1|448=BROKERID|447=D|452=1|207=XHKG|1812=1|1813=100|1814=1|10=220|
09:00:07.004858 I FIXPUMP 		gateway3:[FIXRX] 8=FIXT.1.1|9=229|35=8|49=EXCHANGE|56=UBSACCOUNT|34=942|52=20180919-01:00:07.004|1128=9|11=65645|14=0|17=hB0.kV./MX6|150=0|151=7321|1093=2|453=1|448=BROKERID|447=D|452=1|37=2242049|38=7321|39=5|40=1|207=XHKG|48=MASKED|22=8|54=2|59=9|60=20180919-01:00:07.000|10=078|
09:00:05.320249 I gateway3			[EVT.onPending:00] [MAPTX] [NEW][order.RefId=599][order.OrderId=45033][clOrdId=65897] [seqNo=938]
09:00:07.001122 I FIXPUMP		gateway3:[FIXTX] 8=FIXT.1.1|9=218|35=D|43=N|52=20180919-01:00:07.000|122=20180919-01:00:05.320|49=UBSACCOUNT|56=EXCHANGE|34=938|11=65897|38=4923|54=2|40=1|59=9|60=20180919-01:00:05.320|48=MASKED|22=8|453=1|448=BROKERID|447=D|452=1|207=XHKG|1812=1|1813=100|1814=1|10=220|
09:00:07.004858 I FIXPUMP 		gateway3:[FIXRX] 8=FIXT.1.1|9=229|35=8|49=EXCHANGE|56=UBSACCOUNT|34=942|52=20180919-01:00:07.004|1128=9|11=65897|14=0|17=hB0.kV./MX6|150=0|151=4923|1093=2|453=1|448=BROKERID|447=D|452=1|37=2242049|38=4923|39=0|40=1|207=XHKG|48=MASKED|22=8|54=2|59=9|60=20180919-01:00:07.000|10=078|
09:00:07.004858 I FIXPUMP 		gateway3:[FIXRX] 8=FIXT.1.1|9=295|35=8|49=EXCHANGE|56=UBS|34=942|52=20180919-01:00:07.004|1128=9|11=65897|14=3917|17=hB0.kV./MX6|150=F|151=1006|1093=2|453=1|448=BROKERID|447=D|452=17|37=2242049|38=4923|39=1|40=1|207=UBS|48=MASKED|22=MASKED|54=1|59=9|60=20180919-01:00:07.000|10=078|
09:00:07.004858 I FIXPUMP 		gateway3:[FIXRX] 8=FIXT.1.1|9=295|35=8|49=EXCHANGE|56=UBS|34=942|52=20180919-01:00:07.004|1128=9|11=65897|14=1354|17=hB0.kV./MX6|150=F|151=0|1093=2|453=1|448=BROKERID|447=D|452=17|37=2242049|38=4923|39=2|40=1|207=UBS|48=MASKED|22=MASKED|54=0|59=9|60=20180919-01:00:07.000|10=078|
09:00:05.320249 I gateway3			[EVT.onPendingReplace:06] [MAPTX] [RPL][order.RefId=599][order.OrderId=45033][clOrdId=65897] [seqNo=67175]
09:00:07.001122 I FIXPUMP		gateway3:[FIXTX] 8=FIXT.1.1|9=218|35=G|43=N|52=20180919-01:00:07.000|122=20180919-01:00:05.320|49=UBSACCOUNT|56=EXCHANGE|34=938|11=65897|38=4923|54=2|40=1|59=9|60=20180919-01:00:05.320|48=MASKED|22=8|453=1|448=BROKERID|447=D|452=1|207=XHKG|1812=1|1813=100|1814=1|10=220|
09:00:07.004858 I FIXPUMP 		gateway3:[FIXRX] 8=FIXT.1.1|9=229|35=8|49=EXCHANGE|56=UBSACCOUNT|34=942|52=20180919-01:00:07.004|1128=9|11=65897|14=0|17=hB0.kV./MX6|150=0|151=4923|1093=2|453=1|448=BROKERID|447=D|452=1|37=2242049|38=4923|39=5|40=1|207=XHKG|48=MASKED|22=8|54=2|59=9|60=20180919-01:00:07.000|10=078|
09:00:05.320249 I gateway3			[EVT.onPending:00] [MAPTX] [NEW][order.RefId=916][order.OrderId=33628][clOrdId=39987] [seqNo=938]
09:00:07.001122 I FIXPUMP		gateway3:[FIXTX] 8=FIXT.1.1|9=218|35=D|43=N|52=20180919-01:00:07.000|122=20180919-01:00:05.320|49=UBSACCOUNT|56=EXCHANGE|34=938|11=39987|38=6802|54=2|40=1|59=9|60=20180919-01:00:05.320|48=MASKED|22=8|453=1|448=BROKERID|447=D|452=1|207=XHKG|1812=1|1813=100|1814=1|10=220|
09:00:07.004858 I FIXPUMP 		gateway3:[FIXRX] 8=FIXT.1.1|9=229|35=8|49=EXCHANGE|56=UBSACCOUNT|34=942|52=20180919-01:00:07.004|1128=9|11=39987|14=0|17=hB0.kV./MX6|150=0|151=6802|1093=2|453=1|448=BROKERID|447=D|452=1|37=2242049|38=6802|39=0|40=1|207=XHKG|48=MASKED|22=8|54=2|59=9|60=20180919-01:00:07.000|10=078|
09:00:07.004858 I FIXPUMP 		gateway3:[FIXRX] 8=FIXT.1.1|9=295|35=8|49=EXCHANGE|56=UBS|34=942|52=20180919-01:00:07.004|1128=9|11=39987|14=1363|17=hB0.kV./MX6|150=F|151=5439|1093=2|453=1|448=BROKERID|447=D|452=17|37=2242049|38=6802|39=1|40=1|207=UBS|48=MASKED|22=MASKED|54=1|59=9|60=20180919-01:00:07.000|10=078|
09:00:07.004858 I FIXPUMP 		gateway3:[FIXRX] 8=FIXT.1.1|9=295|35=8|49=EXCHANGE|56=UBS|34=942|52=20180919-01:00:07.004|1128=9|11=39987|14=1821|17=hB0.kV./MX6|150=F|151=3618|1093=2|453=1|448=BROKERID|447=D|452=17|37=2242049|38=6802|39=1|40=1|207=UBS|48=MASKED|22=MASKED|54=1|59=9|60=20180919-01:00:07.000|10=078|
09:00:07.004858 I FIXPUMP 		gateway3:[FIXRX] 8=FIXT.1.1|9=295|35=8|49=EXCHANGE|56=UBS|34=942|52=20180919-01:00:07.004|1128=9|11=39987|14=3880|17=hB0.kV./MX6|150=F|151=0|1093=2|453=1|448=BROKERID|447=D|452=17|37=2242049|38=6802|39=2|40=1|207=UBS|48=MASKED|22=MASKED|54=0|59=9|60=20180919-01:00:07.000|10=078|
09:00:05.320249 I gateway3			[EVT.onPendingReplace:06] [MAPTX] [RPL][order.RefId=916][order.OrderId=33628][clOrdId=39987] [seqNo=67175]
09:00:07.001122 I FIXPUMP		gateway3:[FIXTX] 8=FIXT.1.1|9=218|35=G|43=N|52=20180919-01:00:07.000|122=20180919-01:00:05.320|49=UBSACCOUNT|56=EXCHANGE|34=938|11=39987|38=6802|54=2|40=1|59=9|60=20180919-01:00:05.320|48=MASKED|22=8|453=1|448=BROKERID|447=D|452=1|207=XHKG|1812=1|1813=100|1814=1|10=220|
09:00:07.004858 I FIXPUMP 		gateway3:[FIXRX] 8=FIXT.1.1|9=229|35=8|49=EXCHANGE|56=UBSACCOUNT|34=942|52=20180919-01:00:07.004|1128=9|11=39987|14=0|17=hB0.kV./MX6|150=0|151=6802|1093=2|453=1|448=BROKERID|447=D|452=1|37=2242049|38=6802|39=5|40=1|207=XHKG|48=MASKED|22=8|54=2|59=9|60=20180919-01:00:07.000|10=078|
09:00:05.320249 I gateway3			[EVT.onPending:00] [MAPTX] [NEW][order.RefId=833][order.OrderId=70101][clOrdId=98792] [seqNo=938]
09:00:07.001122 I FIXPUMP		gateway3:[FIXTX] 8=FIXT.1.1|9=218|35=D|43=N|52=20180919-01:00:07.000|122=20180919-01:00:05.320|49=UBSACCOUNT|56=EXCHANGE|34=938|11=98792|38=7637|54=2|40=1|59=9|60=20180919-01:00:05.320|48=MASKED|22=8|453=1|448=BROKERID|447=D|452=1|207=XHKG|1812=1|1813=100|1814=1|10=220|
09:00:07.004858 I FIXPUMP 		gateway3:[FIXRX] 8=FIXT.1.1|9=229|35=8|49=EXCHANGE|56=UBSACCOUNT|34=942|52=20180919-01:00:07.004|1128=9|11=98792|14=0|17=hB0.kV./MX6|150=0|151=7637|1093=2|453=1|448=BROKERID|447=D|452=1|37=2242049|38=7637|39=0|40=1|207=XHKG|48=MASKED|22=8|54=2|59=9|60=20180919-01:00:07.000|10=078|
09:00:07.004858 I FIXPUMP 		gateway3:[FIXRX] 8=FIXT.1.1|9=295|35=8|49=EXCHANGE|56=UBS|34=942|52=20180919-01:00:07.004|1128=9|11=98792|14=1552|17=hB0.kV./MX6|150=F|151=6085|1093=2|453=1|448=BROKERID|447=D|452=17|37=2242049|38=7637|39=1|40=1|207=UBS|48=MASKED|22=MASKED|54=1|59=9|60=20180919-01:00:07.000|10=078|
09:00:07.004858 I FIXPUMP 		gateway3:[FIXRX] 8=FIXT.1.1|9=295|35=8|49=EXCHANGE|56=UBS|34=942|52=20180919-01:00:07.004|1128=9|11=98792|14=1204|17=hB0.kV./MX6|150=F|151=4881|1093=2|453=1|448=BROKERID|447=D|452=17|37=2242049|38=7637|39=1|40=1|207=UBS|48=MASKED|22=MASKED|54=1|59=9|60=20180919-01:00:07.000|10=078|
09:00:07.004858 I FIXPUMP 		gateway3:[FIXRX] 8=FIXT.1.1|9=295|35=8|49=EXCHANGE|56=UBS|34=942|52=20180919-01:00:07.004|1128=9|11=98792|14=1991|17=hB0.kV./MX6|150=F|151=2890|1093=2|453=1|448=BROKERID|447=D|452=17|37=2242049|38=7637|39=1|40=1|207=UBS|48=MASKED|22=MASKED|54=1|59=9|60=20180919-01:00:07.000|10=078|
09:00:07.004858 I FIXPUMP 		gateway3:[FIXRX] 8=FIXT.1.1|9=295|35=8|49=EXCHANGE|56=UBS|34=942|52=20180919-01:00:07.004|1128=9|11=98792|14=3044|17=hB0.kV./MX6|150=F|151=0|1093=2|453=1|448=BROKERID|447=D|452=17|37=2242049|38=7637|39=2|40=1|207=UBS|48=MASKED|22=MASKED|54=0|59=9|60=20180919-01:00:07.000|10=078|
09:00:05.320249 I gateway3			[EVT.onPendingReplace:06] [MAPTX] [RPL][order.RefId=833][order.OrderId=70101][clOrdId=98792] [seqNo=67175]
09:00:07.001122 I FIXPUMP		gateway3:[FIXTX] 8=FIXT.1.1|9=218|35=G|43=N|52=20180919-01:00:07.000|122=20180919-01:00:05.320|49=UBSACCOUNT|56=EXCHANGE|34=938|11=98792|38=7637|54=2|40=1|59=9|60=20180919-01:00:05.320|48=MASKED|22=8|453=1|448=BROKERID|447=D|452=1|207=XHKG|1812=1|1813=100|1814=1|10=220|
09:00:07.004858 I FIXPUMP 		gateway3:[FIXRX] 8=FIXT.1.1|9=229|35=8|49=EXCHANGE|56=UBSACCOUNT|34=942|52=20180919-01:00:07.004|1128=9|11=98792|14=0|17=hB0.kV./MX6|150=0|151=7637|1093=2|453=1|448=BROKERID|447=D|452=1|37=2242049|38=7637|39=5|40=1|207=XHKG|48=MASKED|22=8|54=2|59=9|60=20180919-01:00:07.000|10=078|
09:00:05.320249 I gateway3			[EVT.onPending:00] [MAPTX] [NEW][order.RefId=339][order.OrderId=60602][clOrdId=80351] [seqNo=938]
09:00:07.001122 I FIXPUMP		gateway3:[FIXTX] 8=FIXT.1.1|9=218|35=D|43=N|52=20180919-01:00:07.000|122=20180919-01:00:05.320|49=UBSACCOUNT|56=EXCHANGE|34=938|11=80351|38=1531|54=2|40=1|59=9|60=20180919-01:00:05.320|48=MASKED|22=8|453=1|448=BROKERID|447=D|452=1|207=XHKG|1812=1|1813=100|1814=1|10=220|
09:00:07.004858 I FIXPUMP 		gateway3:[FIXRX] 8=FIXT.1.1|9=229|35=8|49=EXCHANGE|56=UBSACCOUNT|34=942|52=20180919-01:00:07.004|1128=9|11=80351|14=0|17=hB0.kV./MX6|150=0|151=1531|1093=2|453=1|448=BROKERID|447=D|452=1|37=2242049|38=1531|39=0|40=1|207=XHKG|48=MASKED|22=8|54=2|59=9|60=20180919-01:00:07.000|10=078|
09:00:07.004858 I FIXPUMP 		gateway3:[FIXRX] 8=FIXT.1.1|9=295|35=8|49=EXCHANGE|56=UBS|34=942|52=20180919-01:00:07.004|1128=9|11=80351|14=967|17=hB0.kV./MX6|150=F|151=564|1093=2|453=1|448=BROKERID|447=D|452=17|37=2242049|38=1531|39=1|40=1|207=UBS|48=MASKED|22=MASKED|54=1|59=9|60=20180919-01:00:07.000|10=078|
09:00:07.004858 I FIXPUMP 		gateway3:[FIXRX] 8=FIXT.1.1|9=295|35=8|49=EXCHANGE|56=UBS|34=942|52=20180919-01:00:07.004|1128=9|11=80351|14=63|17=hB0.kV./MX6|150=F|151=501|1093=2|453=1|448=BROKERID|447=D|452=17|37=2242049|38=1531|39=1|40=1|207=UBS|48=MASKED|22=MASKED|54=1|59=9|60=20180919-01:00:07.000|10=078|
09:00:07.004858 I FIXPUMP 		gateway3:[FIXRX] 8=FIXT.1.1|9=295|35=8|49=EXCHANGE|56=UBS|34=942|52=20180919-01:00:07.004|1128=9|11=80351|14=4376|17=hB0.kV./MX6|150=F|151=0|1093=2|453=1|448=BROKERID|447=D|452=17|37=2242049|38=1531|39=2|40=1|207=UBS|48=MASKED|22=MASKED|54=0|59=9|60=20180919-01:00:07.000|10=078|
09:00:05.320249 I gateway3			[EVT.onPendingReplace:06] [MAPTX] [RPL][order.RefId=339][order.OrderId=60602][clOrdId=80351] [seqNo=67175]
09:00:07.001122 I FIXPUMP		gateway3:[FIXTX] 8=FIXT.1.1|9=218|35=G|43=N|52=20180919-01:00:07.000|122=20180919-01:00:05.320|49=UBSACCOUNT|56=EXCHANGE|34=938|11=80351|38=1531|54=2|40=1|59=9|60=20180919-01:00:05.320|48=MASKED|22=8|453=1|448=BROKERID|447=D|452=1|207=XHKG|1812=1|1813=100|1814=1|10=220|
09:00:07.004858 I FIXPUMP 		gateway3:[FIXRX] 8=FIXT.1.1|9=229|35=8|49=EXCHANGE|56=UBSACCOUNT|34=942|52=20180919-01:00:07.004|1128=9|11=80351|14=0|17=hB0.kV./MX6|150=0|151=1531|1093=2|453=1|448=BROKERID|447=D|452=1|37=2242049|38=1531|39=5|40=1|207=XHKG|48=MASKED|22=8|54=2|59=9|60=20180919-01:00:07.000|10=078|
09:00:05.320249 I gateway3			[EVT.onPending:00] [MAPTX] [NEW][order.RefId=81][order.OrderId=39313][clOrdId=15897] [seqNo=938]
09:00:07.001122 I FIXPUMP		gateway3:[FIXTX] 8=FIXT.1.1|9=218|35=D|43=N|52=20180919-01:00:07.000|122=20180919-01:00:05.320|49=UBSACCOUNT|56=EXCHANGE|34=938|11=15897|38=7180|54=2|40=1|59=9|60=20180919-01:00:05.320|48=MASKED|22=8|453=1|448=BROKERID|447=D|452=1|207=XHKG|1812=1|1813=100|1814=1|10=220|
09:00:07.004858 I FIXPUMP 		gateway3:[FIXRX] 8=FIXT.1.1|9=229|35=8|49=EXCHANGE|56=UBSACCOUNT|34=942|52=20180919-01:00:07.004|1128=9|11=15897|14=0|17=hB0.kV./MX6|150=0|151=7180|1093=2|453=1|448=BROKERID|447=D|452=1|37=2242049|38=7180|39=0|40=1|207=XHKG|48=MASKED|22=8|54=2|59=9|60=20180919-01:00:07.000|10=078|
09:00:07.004858 I FIXPUMP 		gateway3:[FIXRX] 8=FIXT.1.1|9=295|35=8|49=EXCHANGE|56=UBS|34=942|52=20180919-01:00:07.004|1128=9|11=15897|14=3676|17=hB0.kV./MX6|150=F|151=3504|1093=2|453=1|448=BROKERID|447=D|452=17|37=2242049|38=7180|39=1|40=1|207=UBS|48=MASKED|22=MASKED|54=1|59=9|60=20180919-01:00:07.000|10=078|
09:00:07.004858 I FIXPUMP 		gateway3:[FIXRX] 8=FIXT.1.1|9=295|35=8|49=EXCHANGE|56=UBS|34=942|52=20180919-01:00:07.004|1128=9|11=15897|14=3017|17=hB0.kV./MX6|150=F|151=487|1093=2|453=1|448=BROKERID|447=D|452=17|37=2242049|38=7180|39=1|40=1|207=UBS|48=MASKED|22=MASKED|54=1|59=9|60=20180919-01:00:07.000|10=078|
09:00:07.004858 I FIXPUMP 		gateway3:[FIXRX] 8=FIXT.1.1|9=295|35=8|49=EXCHANGE|56=UBS|34=942|52=20180919-01:00:07.004|1128=9|11=15897|14=2757|17=hB0.kV./MX6|150=F|151=0|1093=2|453=1|448=BROKERID|447=D|452=17|37=2242049|38=7180|39=2|40=1|207=UBS|48=MASKED|22=MASKED|54=0|59=9|60=20180919-01:00:07.000|10=078|
09:00:05.320249 I gateway3			[EVT.onPendingReplace:06] [MAPTX] [RPL][order.RefId=81][order.OrderId=39313][clOrdId=15897] [seqNo=67175]
09:00:07.001122 I FIXPUMP		gateway3:[FIXTX] 8=FIXT.1.1|9=218|35=G|43=N|52=20180919-01:00:07.000|122=20180919-01:00:05.320|49=UBSACCOUNT|56=EXCHANGE|34=938|11=15897|38=7180|54=2|40=1|59=9|60=20180919-01:00:05.320|48=MASKED|22=8|453=1|448=BROKERID|447=D|452=1|207=XHKG|1812=1|1813=100|1814=1|10=220|
09:00:07.004858 I FIXPUMP 		gateway3:[FIXRX] 8=FIXT.1.1|9=229|35=8|49=EXCHANGE|56=UBSACCOUNT|34=942|52=20180919-01:00:07.004|1128=9|11=15897|14=0|17=hB0.kV./MX6|150=0|151=7180|1093=2|453=1|448=BROKERID|447=D|452=1|37=2242049|38=7180|39=5|40=1|207=XHKG|48=MASKED|22=8|54=2|59=9|60=20180919-01:00:07.000|10=078|
09:00:05.320249 I gateway3			[EVT.onPending:00] [MAPTX] [NEW][order.RefId=719][order.OrderId=71571][clOrdId=66090] [seqNo=938]
09:00:07.001122 I FIXPUMP		gateway3:[FIXTX] 8=FIXT.1.1|9=218|35=D|43=N|52=20180919-01:00:07.000|122=20180919-01:00:05.320|49=UBSACCOUNT|56=EXCHANGE|34=938|11=66090|38=7520|54=2|40=1|59=9|60=20180919-01:00:05.320|48=MASKED|22=8|453=1|448=BROKERID|447=D|452=1|207=XHKG|1812=1|1813=100|1814=1|10=220|
09:00:07.004858 I FIXPUMP 		gateway3:[FIXRX] 8=FIXT.1.1|9=229|35=8|49=EXCHANGE|56=UBSACCOUNT|34=942|52=20180919-01:00:07.004|1128=9|11=66090|14=0|17=hB0.kV./MX6|150=0|151=7520|1093=2|453=1|448=BROKERID|447=D|452=1|37=2242049|38=7520|39=0|40=1|207=XHKG|48=MASKED|22=8|54=2|59=9|60=20180919-01:00:07.000|10=078|
09:00:07.004858 I FIXPUMP 		gateway3:[FIXRX] 8=FIXT.1.1|9=295|35=8|49=EXCHANGE|56=UBS|34=942|52=20180919-01:00:07.004|1128=9|11=66090|14=384|17=hB0.kV./MX6|150=F|151=7136|1093=2|453=1|448=BROKERID|447=D|452=17|37=2242049|38=7520|39=1|40=1|207=UBS|48=MASKED|22=MASKED|54=1|59=9|60=20180919-01:00:07.000|10=078|
09:00:07.004858 I FIXPUMP 		gateway3:[FIXRX] 8=FIXT.1.1|9=295|35=8|49=EXCHANGE|56=UBS|34=942|52=20180919-01:00:07.004|1128=9|11=66090|14=3921|17=hB0.kV./MX6|150=F|151=3215|1093=2|453=1|448=BROKERID|447=D|452=17|37=2242049|38=7520|39=1|40=1|207=UBS|48=MASKED|22=MASKED|54=1|59=9|60=20180919-01:00:07.000|10=078|
09:00:07.004858 I FIXPUMP 		gateway3:[FIXRX] 8=FIXT.1.1|9=295|35=8|49=EXCHANGE|56=UBS|34=942|52=20180919-01:00:07.004|1128=9|11=66090|14=2371|17=hB0.kV./MX6|150=F|151=844|1093=2|453=1|448=BROKERID|447=D|452=17|37=2242049|38=7520|39=1|40=1|207=UBS|48=MASKED|22=MASKED|54=1|59=9|60=20180919-01:00:07.000|10=078|
09:00:07.004858 I FIXPUMP 		gateway3:[FIXRX] 8=FIXT.1.1|9=295|35=8|49=EXCHANGE|56=UBS|34=942|52=20180919-01:00:07.004|1128=9|11=66090|14=4377|17=hB0.kV./MX6|150=F|151=0|1093=2|453=1|448=BROKERID|447=D|452=17|37=2242049|38=7520|39=2|40=1|207=UBS|48=MASKED|22=MASKED|54=0|59=9|60=20180919-01:00:07.000|10=078|
09:00:05.320249 I gateway3			[EVT.onPendingReplace:06] [MAPTX] [RPL][order.RefId=719][order.OrderId=71571][clOrdId=66090] [seqNo=67175]
09:00:07.001122 I FIXPUMP		gateway3:[FIXTX] 8=FIXT.1.1|9=218|35=G|43=N|52=20180919-01:00:07.000|122=20180919-01:00:05.320|49=UBSACCOUNT|56=EXCHANGE|34=938|11=66090|38=7520|54=2|40=1|59=9|60=20180919-01:00:05.320|48=MASKED|22=8|453=1|448=BROKERID|447=D|452=1|207=XHKG|1812=1|1813=100|1814=1|10=220|
09:00:07.004858 I FIXPUMP 		gateway3:[FIXRX] 8=FIXT.1.1|9=229|35=8|49=EXCHANGE|56=UBSACCOUNT|34=942|52=20180919-01:00:07.004|1128=9|11=66090|14=0|17=hB0.kV./MX6|150=0|151=7520|1093=2|453=1|448=BROKERID|447=D|452=1|37=2242049|38=7520|39=5|40=1|207=XHKG|48=MASKED|22=8|54=2|59=9|60=20180919-01:00:07.000|10=078|
09:00:05.320249 I gateway3			[EVT.onPending:00] [MAPTX] [NEW][order.RefId=686][order.OrderId=52989][clOrdId=42204] [seqNo=938]
09:00:07.001122 I FIXPUMP		gateway3:[FIXTX] 8=FIXT.1.1|9=218|35=D|43=N|52=20180919-01:00:07.000|122=20180919-01:00:05.320|49=UBSACCOUNT|56=EXCHANGE|34=938|11=42204|38=7635|54=2|40=1|59=9|60=20180919-01:00:05.320|48=MASKED|22=8|453=1|448=BROKERID|447=D|452=1|207=XHKG|1812=1|1813=100|1814=1|10=220|
09:00:07.004858 I FIXPUMP 		gateway3:[FIXRX] 8=FIXT.1.1|9=229|35=8|49=EXCHANGE|56=UBSACCOUNT|34=942|52=20180919-01:00:07.004|1128=9|11=42204|14=0|17=hB0.kV./MX6|150=0|151=7635|1093=2|453=1|448=BROKERID|447=D|452=1|37=2242049|38=7635|39=0|40=1|207=XHKG|48=MASKED|22=8|54=2|59=9|60=20180919-01:00:07.000|10=078|
09:00:07.004858 I FIXPUMP 		gateway3:[FIXRX] 8=FIXT.1.1|9=295|35=8|49=EXCHANGE|56=UBS|34=942|52=20180919-01:00:07.004|1128=9|11=42204|14=2081|17=hB0.kV./MX6|150=F|151=5554|1093=2|453=1|448=BROKERID|447=D|452=17|37=2242049|38=7635|39=1|40=1|207=UBS|48=MASKED|22=MASKED|54=1|59=9|60=20180919-01:00:07.000|10=078|
09:00:07.004858 I FIXPUMP 		gateway3:[FIXRX] 8=FIXT.1.1|9=295|35=8|49=EXCHANGE|56=UBS|34=942|52=20180919-01:00:07.004|1128=9|11=42204|14=209|17=hB0.kV./MX6|150=F|151=5345|1093=2|453=1|448=BROKERID|447=D|452=17|37=2242049|38=7635|39=1|40=1|207=UBS|48=MASKED|22=MASKED|54=1|59=9|60=20180919-01:00:07.000|10=078|
09:00:07.004858 I FIXPUMP 		gateway3:[FIXRX] 8=FIXT.1.1|9=295|35=8|49=EXCHANGE|56=UBS|34=942|52=20180919-01:00:07.004|1128=9|11=42204|14=1671|17=hB0.kV./MX6|150=F|151=3674|1093=2|453=1|448=BROKERID|447=D|452=17|37=2242049|38=7635|39=1|40=1|207=UBS|48=MASKED|22=MASKED|54=1|59=9|60=20180919-01:00:07.000|10=078|
09:00:07.004858 I FIXPUMP 		gateway3:[FIXRX] 8=FIXT.1.1|9=295|35=8|49=EXCHANGE|56=UBS|34=942|52=20180919-01:00:07.004|1128=9|11=42204|14=2789|17=hB0.kV./MX6|150=F|151=885|1093=2|453=1|448=BROKERID|447=D|452=17|37=2242049|38=7635|39=1|40=1|207=UBS|48=MASKED|22=MASKED|54=1|59=9|60=20180919-01:00:07.000|10=078|
09:00:07.004858 I FIXPUMP 		gateway3:[FIXRX] 8=FIXT.1.1|9=295|35=8|49=EXCHANGE|56=UBS|34=942|52=20180919-01:00:07.004|1128=9|11=42204|14=4477|17=hB0.kV./MX6|150=F|151=0|1093=2|453=1|448=BROKERID|447=D|452=17|37=2242049|38=7635|39=2|40=1|207=UBS|48=MASKED|22=MASKED|54=0|59=9|60=20180919-01:00:07.000|10=078|
09:00:05.320249 I gateway3			[EVT.onPendingReplace:06] [MAPTX] [RPL][order.RefId=686][order.OrderId=52989][clOrdId=42204] [seqNo=67175]
09:00:07.001122 I FIXPUMP		gateway3:[FIXTX] 8=FIXT.1.1|9=218|35=G|43=N|52=20180919-01:00:07.000|122=20180919-01:00:05.320|49=UBSACCOUNT|56=EXCHANGE|34=938|11=42204|38=7635|54=2|40=1|59=9|60=20180919-01:00:05.320|48=MASKED|22=8|453=1|448=BROKERID|447=D|452=1|207=XHKG|1812=1|1813=100|1814=1|10=220|
09:00:07.004858 I FIXPUMP 		gateway3:[FIXRX] 8=FIXT.1.1|9=229|35=8|49=EXCHANGE|56=UBSACCOUNT|34=942|52=20180919-01:00:07.004|1128=9|11=42204|14=0|17=hB0.kV./MX6|150=0|151=7635|1093=2|453=1|448=BROKERID|447=D|452=1|37=2242049|38=7635|39=5|40=1|207=XHKG|48=MASKED|22=8|54=2|59=9|60=20180919-01:00:07.000|10=078|
09:00:05.320249 I gateway3			[EVT.onPending:00] [MAPTX] [NEW][order.RefId=946][order.OrderId=49444][clOrdId=54087] [seqNo=938]
09:00:07.001122 I FIXPUMP		gateway3:[FIXTX] 8=FIXT.1.1|9=218|35=D|43=N|52=20180919-01:00:07.000|122=20180919-01:00:05.320|49=UBSACCOUNT|56=EXCHANGE|34=938|11=54087|38=2013|54=2|40=1|59=9|60=20180919-01:00:05.320|48=MASKED|22=8|453=1|448=BROKERID|447=D|452=1|207=XHKG|1812=1|1813=100|1814=1|10=220|
09:00:07.004858 I FIXPUMP 		gateway3:[FIXRX] 8=FIXT.1.1|9=229|35=8|49=EXCHANGE|56=UBSACCOUNT|34=942|52=20180919-01:00:07.004|1128=9|11=54087|14=0|17=hB0.kV./MX6|150=0|151=2013|1093=2|453=1|448=BROKERID|447=D|452=1|37=2242049|38=2013|39=0|40=1|207=XHKG|48=MASKED|22=8|54=2|59=9|60=20180919-01:00:07.000|10=078|
09:00:07.004858 I FIXPUMP 		gateway3:[FIXRX] 8=FIXT.1.1|9=295|35=8|49=EXCHANGE|56=UBS|34=942|52=20180919-01:00:07.004|1128=9|11=54087|14=2158|17=hB0.kV./MX6|150=F|151=0|1093=2|453=1|448=BROKERID|447=D|452=17|37=2242049|38=2013|39=2|40=1|207=UBS|48=MASKED|22=MASKED|54=0|59=9|60=20180919-01:00:07.000|10=078|
09:00:05.320249 I gateway3			[EVT.onPendingReplace:06] [MAPTX] [RPL][order.RefId=946][order.OrderId=49444][clOrdId=54087] [seqNo=67175]
09:00:07.001122 I FIXPUMP		gateway3:[FIXTX] 8=FIXT.1.1|9=218|35=G|43=N|52=20180919-01:00:07.000|122=20180919-01:00:05.320|49=UBSACCOUNT|56=EXCHANGE|34=938|11=54087|38=2013|54=2|40=1|59=9|60=20180919-01:00:05.320|48=MASKED|22=8|453=1|448=BROKERID|447=D|452=1|207=XHKG|1812=1|1813=100|1814=1|10=220|
09:00:07.004858 I FIXPUMP 		gateway3:[FIXRX] 8=FIXT.1.1|9=229|35=8|49=EXCHANGE|56=UBSACCOUNT|34=942|52=20180919-01:00:07.004|1128=9|11=54087|14=0|17=hB0.kV./MX6|150=0|151=2013|1093=2|453=1|448=BROKERID|447=D|452=1|37=2242049|38=2013|39=5|40=1|207=XHKG|48=MASKED|22=8|54=2|59=9|60=20180919-01:00:07.000|10=078|
09:00:05.320249 I gateway3			[EVT.onPending:00] [MAPTX] [NEW][order.RefId=760][order.OrderId=36269][clOrdId=96908] [seqNo=938]
09:00:07.001122 I FIXPUMP		gateway3:[FIXTX] 8=FIXT.1.1|9=218|35=D|43=N|52=20180919-01:00:07.000|122=20180919-01:00:05.320|49=UBSACCOUNT|56=EXCHANGE|34=938|11=96908|38=4207|54=2|40=1|59=9|60=20180919-01:00:05.320|48=MASKED|22=8|453=1|448=BROKERID|447=D|452=1|207=XHKG|1812=1|1813=100|1814=1|10=220|
09:00:07.004858 I FIXPUMP 		gateway3:[FIXRX] 8=FIXT.1.1|9=229|35=8|49=EXCHANGE|56=UBSACCOUNT|34=942|52=20180919-01:00:07.004|1128=9|11=96908|14=0|17=hB0.kV./MX6|150=0|151=4207|1093=2|453=1|448=BROKERID|447=D|452=1|37=2242049|38=4207|39=0|40=1|207=XHKG|48=MASKED|22=8|54=2|59=9|60=20180919-01:00:07.000|10=078|
09:00:07.004858 I FIXPUMP 		gateway3:[FIXRX] 8=FIXT.1.1|9=295|35=8|49=EXCHANGE|56=UBS|34=942|52=20180919-01:00:07.004|1128=9|11=96908|14=1988|17=hB0.kV./MX6|150=F|151=2219|1093=2|453=1|448=BROKERID|447=D|452=17|37=2242049|38=4207|39=1|40=1|207=UBS|48=MASKED|22=MASKED|54=1|59=9|60=20180919-01:00:07.000|10=078|
09:00:07.004858 I FIXPUMP 		gateway3:[FIXRX] 8=FIXT.1.1|9=295|35=8|49=EXCHANGE|56=UBS|34=942|52=20180919-01:00:07.004|1128=9|11=96908|14=3534|17=hB0.kV./MX6|150=F|151=0|1093=2|453=1|448=BROKERID|447=D|452=17|37=2242049|38=4207|39=2|40=1|207=UBS|48=MASKED|22=MASKED|54=0|59=9|60=20180919-01:00:07.000|10=078|
09:00:05.320249 I gateway3			[EVT.onPendingReplace:06] [MAPTX] [RPL][order.RefId=760][order.OrderId=36269][clOrdId=96908] [seqNo=67175]
09:00:07.001122 I FIXPUMP		gateway3:[FIXTX] 8=FIXT.1.1|9=218|35=G|43=N|52=20180919-01:00:07.000|122=20180919-01:00:05.320|49=UBSACCOUNT|56=EXCHANGE|34=938|11=96908|38=4207|54=2|40=1|59=9|60=20180919-01:00:05.320|48=MASKED|22=8|453=1|448=BROKERID|447=D|452=1|207=XHKG|1812=1|1813=100|1814=1|10=220|
09:00:07.004858 I FIXPUMP 		gateway3:[FIXRX] 8=FIXT.1.1|9=229|35=8|49=EXCHANGE|56=UBSACCOUNT|34=942|52=20180919-01:00:07.004|1128=9|11=96908|14=0|17=hB0.kV./MX6|150=0|151=4207|1093=2|453=1|448=BROKERID|447=D|452=1|37=2242049|38=4207|39=5|40=1|207=XHKG|48=MASKED|22=8|54=2|59=9|60=20180919-01:00:07.000|10=078|
09:00:05.320249 I gateway3			[EVT.onPending:00] [MAPTX] [NEW][order.RefId=6][order.OrderId=16343][clOrdId=12572] [seqNo=938]
09:00:07.001122 I FIXPUMP		gateway3:[FIXTX] 8=FIXT.1.1|9=218|35=D|43=N|52=20180919-01:00:07.000|122=20180919-01:00:05.320|49=UBSACCOUNT|56=EXCHANGE|34=938|11=12572|38=8181|54=2|40=1|59=9|60=20180919-01:00:05.320|48=MASKED|22=8|453=1|448=BROKERID|447=D|452=1|207=XHKG|1812=1|1813=100|1814=1|10=220|
09:00:07.004858 I FIXPUMP 		gateway3:[FIXRX] 8=FIXT.1.1|9=229|35=8|49=EXCHANGE|56=UBSACCOUNT|34=942|52=20180919-01:00:07.004|1128=9|11=12572|14=0|17=hB0.kV./MX6|150=0|151=8181|1093=2|453=1|448=BROKERID|447=D|452=1|37=2242049|38=8181|39=0|40=1|207=XHKG|48=MASKED|22=8|54=2|59=9|60=20180919-01:00:07.000|10=078|
09:00:07.004858 I FIXPUMP 		gateway3:[FIXRX] 8=FIXT.1.1|9=295|35=8|49=EXCHANGE|56=UBS|34=942|52=20180919-01:00:07.004|1128=9|11=12572|14=4281|17=hB0.kV./MX6|150=F|151=3900|1093=2|453=1|448=BROKERID|447=D|452=17|37=2242049|38=8181|39=1|40=1|207=UBS|48=MASKED|22=MASKED|54=1|59=9|60=20180919-01:00:07.000|10=078|
09:00:07.004858 I FIXPUMP 		gateway3:[FIXRX] 8=FIXT.1.1|9=295|35=8|49=EXCHANGE|56=UBS|34=942|52=20180919-01:00:07.004|1128=9|11=12572|14=524|17=hB0.kV./MX6|150=F|151=3376|1093=2|453=1|448=BROKERID|447=D|452=17|37=2242049|38=8181|39=1|40=1|207=UBS|48=MASKED|22=MASKED|54=1|59=9|60=20180919-01:00:07.000|10=078|
09:00:07.004858 I FIXPUMP 		gateway3:[FIXRX] 8=FIXT.1.1|9=295|35=8|49=EXCHANGE|56=UBS|34=942|52=20180919-01:00:07.004|1128=9|11=12572|14=3330|17=hB0.kV./MX6|150=F|151=46|1093=2|453=1|448=BROKERID|447=D|452=17|37=2242049|38=8181|39=1|40=1|207=UBS|48=MASKED|22=MASKED|54=1|59=9|60=20180919-01:00:07.000|10=078|
09:00:07.004858 I FIXPUMP 		gateway3:[FIXRX] 8=FIXT.1.1|9=295|35=8|49=EXCHANGE|56=UBS|34=942|52=20180919-01:00:07.004|1128=9|11=12572|14=3891|17=hB0.kV./MX6|150=F|151=0|1093=2|453=1|448=BROKERID|447=D|452=17|37=2242049|38=8181|39=2|40=1|207=UBS|48=MASKED|22=MASKED|54=0|59=9|60=20180919-01:00:07.000|10=078|
09:00:05.320249 I gateway3			[EVT.onPendingReplace:06] [MAPTX] [RPL][order.RefId=6][order.OrderId=16343][clOrdId=12572] [seqNo=67175]
09:00:07.001122 I FIXPUMP		gateway3:[FIXTX] 8=FIXT.1.1|9=218|35=G|43=N|52=20180919-01:00:07.000|122=20180919-01:00:05.320|49=UBSACCOUNT|56=EXCHANGE|34=938|11=12572|38=8181|54=2|40=1|59=9|60=20180919-01:00:05.320|48=MASKED|22=8|453=1|448=BROKERID|447=D|452=1|207=XHKG|1812=1|1813=100|1814=1|10=220|
09:00:07.004858 I FIXPUMP 		gateway3:[FIXRX] 8=FIXT.1.1|9=229|35=8|49=EXCHANGE|56=UBSACCOUNT|34=942|52=20180919-01:00:07.004|1128=9|11=12572|14=0|17=hB0.kV./MX6|150=0|151=8181|1093=2|453=1|448=BROKERID|447=D|452=1|37=2242049|38=8181|39=5|40=1|207=XHKG|48=MASKED|22=8|54=2|59=9|60=20180919-01:00:07.000|10=078|
09:00:05.320249 I gateway3			[EVT.onPending:00] [MAPTX] [NEW][order.RefId=135][order.OrderId=43281][clOrdId=86003] [seqNo=938]
09:00:07.001122 I FIXPUMP		gateway3:[FIXTX] 8=FIXT.1.1|9=218|35=D|43=N|52=20180919-01:00:07.000|122=20180919-01:00:05.320|49=UBSACCOUNT|56=EXCHANGE|34=938|11=86003|38=7063|54=2|40=1|59=9|60=20180919-01:00:05.320|48=MASKED|22=8|453=1|448=BROKERID|447=D|452=1|207=XHKG|1812=1|1813=100|1814=1|10=220|
09:00:07.004858 I FIXPUMP 		gateway3:[FIXRX] 8=FIXT.1.1|9=229|35=8|49=EXCHANGE|56=UBSACCOUNT|34=942|52=20180919-01:00:07.004|1128=9|11=86003|14=0|17=hB0.kV./MX6|150=0|151=7063|1093=2|453=1|448=BROKERID|447=D|452=1|37=2242049|38=7063|39=0|40=1|207=XHKG|48=MASKED|22=8|54=2|59=9|60=20180919-01:00:07.000|10=078|
09:00:07.004858 I FIXPUMP 		gateway3:[FIXRX] 8=FIXT.1.1|9=295|35=8|49=EXCHANGE|56=UBS|34=942|52=20180919-01:00:07.004|1128=9|11=86003|14=2303|17=hB0.kV./MX6|150=F|151=4760|1093=2|453=1|448=BROKERID|447=D|452=17|37=2242049|38=7063|39=1|40=1|207=UBS|48=MASKED|22=MASKED|54=1|59=9|60=20180919-01:00:07.000|10=078|
09:00:07.004858 I FIXPUMP 		gateway3:[FIXRX] 8=FIXT.1.1|9=295|35=8|49=EXCHANGE|56=UBS|34=942|52=20180919-01:00:07.004|1128=9|11=86003|14=2178|17=hB0.kV./MX6|150=F|151=2582|1093=2|453=1|448=BROKERID|447=D|452=17|37=2242049|38=7063|39=1|40=1|207=UBS|48=MASKED|22=MASKED|54=1|59=9|60=20180919-01:00:07.000|10=078|
09:00:07.004858 I FIXPUMP 		gateway3:[FIXRX] 8=FIXT.1.1|9=295|35=8|49=EXCHANGE|56=UBS|34=942|52=20180919-01:00:07.004|1128=9|11=86003|14=3377|17=hB0.kV./MX6|150=F|151=0|1093=2|453=1|448=BROKERID|447=D|452=17|37=2242049|38=7063|39=2|40=1|207=UBS|48=MASKED|22=MASKED|54=0|59=9|60=20180919-01:00:07.000|10=078|
09:00:05.320249 I gateway3			[EVT.onPendingReplace:06] [MAPTX] [RPL][order.RefId=135][order.OrderId=43281][clOrdId=86003] [seqNo=67175]
09:00:07.001122 I FIXPUMP		gateway3:[FIXTX] 8=FIXT.1.1|9=218|35=G|43=N|52=20180919-01:00:07.000|122=20180919-01:00:05.320|49=UBSACCOUNT|56=EXCHANGE|34=938|11=86003|38=7063|54=2|40=1|59=9|60=20180919-01:00:05.320|48=MASKED|22=8|453=1|448=BROKERID|447=D|452=1|207=XHKG|1812=1|1813=100|1814=1|10=220|
09:00:07.004858 I FIXPUMP 		gateway3:[FIXRX] 8=FIXT.1.1|9=229|35=8|49=EXCHANGE|56=UBSACCOUNT|34=942|52=20180919-01:00:07.004|1128=9|11=86003|14=0|17=hB0.kV./MX6|150=0|151=7063|1093=2|453=1|448=BROKERID|447=D|452=1|37=2242049|38=7063|39=5|40=1|207=XHKG|48=MASKED|22=8|54=2|59=9|60=20180919-01:00:07.000|10=078|
09:00:05.320249 I gateway3			[EVT.onPending:00] [MAPTX] [NEW][order.RefId=400][order.OrderId=50605][clOrdId=47385] [seqNo=938]
09:00:07.001122 I FIXPUMP		gateway3:[FIXTX] 8=FIXT.1.1|9=218|35=D|43=N|52=20180919-01:00:07.000|122=20180919-01:00:05.320|49=UBSACCOUNT|56=EXCHANGE|34=938|11=47385|38=6217|54=2|40=1|59=9|60=20180919-01:00:05.320|48=MASKED|22=8|453=1|448=BROKERID|447=D|452=1|207=XHKG|1812=1|1813=100|1814=1|10=220|
09:00:07.004858 I FIXPUMP 		gateway3:[FIXRX] 8=FIXT.1.1|9=229|35=8|49=EXCHANGE|56=UBSACCOUNT|34=942|52=20180919-01:00:07.004|1128=9|11=47385|14=0|17=hB0.kV./MX6|150=0|151=6217|1093=2|453=1|448=BROKERID|447=D|452=1|37=2242049|38=6217|39=0|40=1|207=XHKG|48=MASKED|22=8|54=2|59=9|60=20180919-01:00:07.000|10=078|
09:00:07.004858 I FIXPUMP 		gateway3:[FIXRX] 8=FIXT.1.1|9=295|35=8|49=EXCHANGE|56=UBS|34=942|52=20180919-01:00:07.004|1128=9|11=47385|14=4358|17=hB0.kV./MX6|150=F|151=1859|1093=2|453=1|448=BROKERID|447=D|452=17|37=2242049|38=6217|39=1|40=1|207=UBS|48=MASKED|22=MASKED|54=1|59=9|60=20180919-01:00:07.000|10=078|
09:00:07.004858 I FIXPUMP 		gateway3:[FIXRX] 8=FIXT.1.1|9=295|35=8|49=EXCHANGE|56=UBS|34=942|52=20180919-01:00:07.004|1128=9|11=47385|14=1578|17=hB0.kV./MX6|150=F|151=281|1093=2|453=1|448=BROKERID|447=D|452=17|37=2242049|38=6217|39=1|40=1|207=UBS|48=MASKED|22=MASKED|54=1|59=9|60=20180919-01:00:07.000|10=078|
09:00:07.004858 I FIXPUMP 		gateway3:[FIXRX] 8=FIXT.1.1|9=295|35=8|49=EXCHANGE|56=UBS|34=942|52=20180919-01:00:07.004|1128=9|11=47385|14=2797|17=hB0.kV./MX6|150=F|151=0|1093=2|453=1|448=BROKERID|447=D|452=17|37=2242049|38=6217|39=2|40=1|207=UBS|48=MASKED|22=MASKED|54=0|59=9|60=20180919-01:00:07.000|10=078|
09:00:05.320249 I gateway3			[EVT.onPendingReplace:06] [MAPTX] [RPL][order.RefId=400][order.OrderId=50605][clOrdId=47385] [seqNo=67175]
09:00:07.001122 I FIXPUMP		gateway3:[FIXTX] 8=FIXT.1.1|9=218|35=G|43=N|52=20180919-01:00:07.000|122=20180919-01:00:05.320|49=UBSACCOUNT|56=EXCHANGE|34=938|11=47385|38=6217|54=2|40=1|59=9|60=20180919-01:00:05.320|48=MASKED|22=8|453=1|448=BROKERID|447=D|452=1|207=XHKG|1812=1|1813=100|1814=1|10=220|
09:00:07.004858 I FIXPUMP 		gateway3:[FIXRX] 8=FIXT.1.1|9=229|35=8|49=EXCHANGE|56=UBSACCOUNT|34=942|52=20180919-01:00:07.004|1128=9|11=47385|14=0|17=hB0.kV./MX6|150=0|151=6217|1093=2|453=1|448=BROKERID|447=D|452=1|37=2242049|38=6217|39=5|40=1|207=XHKG|48=MASKED|22=8|54=2|59=9|60=20180919-01:00:07.000|10=078|
09:00:05.320249 I gateway3			[EVT.onPending:00] [MAPTX] [NEW][order.RefId=715][order.OrderId=29112][clOrdId=99563] [seqNo=938]
09:00:07.001122 I FIXPUMP		gateway3:[FIXTX] 8=FIXT.1.1|9=218|35=D|43=N|52=20180919-01:00:07.000|122=20180919-01:00:05.320|49=UBSACCOUNT|56=EXCHANGE|34=938|11=99563|38=3155|54=2|40=1|59=9|60=20180919-01:00:05.320|48=MASKED|22=8|453=1|448=BROKERID|447=D|452=1|207=XHKG|1812=1|1813=100|1814=1|10=220|
09:00:07.004858 I FIXPUMP 		gateway3:[FIXRX] 8=FIXT.1.1|9=229|35=8|49=EXCHANGE|56=UBSACCOUNT|34=942|52=20180919-01:00:07.004|1128=9|11=99563|14=0|17=hB0.kV./MX6|150=0|151=3155|1093=2|453=1|448=BROKERID|447=D|452=1|37=2242049|38=3155|39=0|40=1|207=XHKG|48=MASKED|22=8|54=2|59=9|60=20180919-01:00:07.000|10=078|
09:00:07.004858 I FIXPUMP 		gateway3:[FIXRX] 8=FIXT.1.1|9=295|35=8|49=EXCHANGE|56=UBS|34=942|52=20180919-01:00:07.004|1128=9|11=99563|14=831|17=hB0.kV./MX6|150=F|151=2324|1093=2|453=1|448=BROKERID|447=D|452=17|37=2242049|38=3155|39=1|40=1|207=UBS|48=MASKED|22=MASKED|54=1|59=9|60=20180919-01:00:07.000|10=078|
09:00:07.004858 I FIXPUMP 		gateway3:[FIXRX] 8=FIXT.1.1|9=295|35=8|49=EXCHANGE|56=UBS|34=942|52=20180919-01:00:07.004|1128=9|11=99563|14=841|17=hB0.kV./MX6|150=F|151=1483|1093=2|453=1|448=BROKERID|447=D|452=17|37=2242049|38=3155|39=1|40=1|207=UBS|48=MASKED|22=MASKED|54=1|59=9|60=20180919-01:00:07.000|10=078|
09:00:07.004858 I FIXPUMP 		gateway3:[FIXRX] 8=FIXT.1.1|9=295|35=8|49=EXCHANGE|56=UBS|34=942|52=20180919-01:00:07.004|1128=9|11=99563|14=2967|17=hB0.kV./MX6|150=F|151=0|1093=2|453=1|448=BROKERID|447=D|452=17|37=2242049|38=3155|39=2|40=1|207=UBS|48=MASKED|22=MASKED|54=0|59=9|60=20180919-01:00:07.000|10=078|
09:00:05.320249 I gateway3			[EVT.onPendingReplace:06] [MAPTX] [RPL][order.RefId=715][order.OrderId=29112][clOrdId=99563] [seqNo=67175]
09:00:07.001122 I FIXPUMP		gateway3:[FIXTX] 8=FIXT.1.1|9=218|35=G|43=N|52=20180919-01:00:07.000|122=20180919-01:00:05.320|49=UBSACCOUNT|56=EXCHANGE|34=938|11=99563|38=3155|54=2|40=1|59=9|60=20180919-01:00:05.320|48=MASKED|22=8|453=1|448=BROKERID|447=D|452=1|207=XHKG|1812=1|1813=100|1814=1|10=220|
09:00:07.004858 I FIXPUMP 		gateway3:[FIXRX] 8=FIXT.1.1|9=229|35=8|49=EXCHANGE|56=UBSACCOUNT|34=942|52=20180919-01:00:07.004|1128=9|11=99563|14=0|17=hB0.kV./MX6|150=0|151=3155|1093=2|453=1|448=BROKERID|447=D|452=1|37=2242049|38=3155|39=5|40=1|207=XHKG|48=MASKED|22=8|54=2|59=9|60=20180919-01:00:07.000|10=078|
09:00:05.320249 I gateway3			[EVT.onPending:00] [MAPTX] [NEW][order.RefId=937][order.OrderId=84702][clOrdId=75694] [seqNo=938]
09:00:07.001122 I FIXPUMP		gateway3:[FIXTX] 8=FIXT.1.1|9=218|35=D|43=N|52=20180919-01:00:07.000|122=20180919-01:00:05.320|49=UBSACCOUNT|56=EXCHANGE|34=938|11=75694|38=9848|54=2|40=1|59=9|60=20180919-01:00:05.320|48=MASKED|22=8|453=1|448=BROKERID|447=D|452=1|207=XHKG|1812=1|1813=100|1814=1|10=220|
09:00:07.004858 I FIXPUMP 		gateway3:[FIXRX] 8=FIXT.1.1|9=229|35=8|49=EXCHANGE|56=UBSACCOUNT|34=942|52=20180919-01:00:07.004|1128=9|11=75694|14=0|17=hB0.kV./MX6|150=0|151=9848|1093=2|453=1|448=BROKERID|447=D|452=1|37=2242049|38=9848|39=0|40=1|207=XHKG|48=MASKED|22=8|54=2|59=9|60=20180919-01:00:07.000|10=078|
09:00:07.004858 I FIXPUMP 		gateway3:[FIXRX] 8=FIXT.1.1|9=295|35=8|49=EXCHANGE|56=UBS|34=942|52=20180919-01:00:07.004|1128=9|11=75694|14=4572|17=hB0.kV./MX6|150=F|151=5276|1093=2|453=1|448=BROKERID|447=D|452=17|37=2242049|38=9848|39=1|40=1|207=UBS|48=MASKED|22=MASKED|54=1|59=9|60=20180919-01:00:07.000|10=078|
09:00:07.004858 I FIXPUMP 		gateway3:[FIXRX] 8=FIXT.1.1|9=295|35=8|49=EXCHANGE|56=UBS|34=942|52=20180919-01:00:07.004|1128=9|11=75694|14=3917|17=hB0.kV./MX6|150=F|151=1359|1093=2|453=1|448=BROKERID|447=D|452=17|37=2242049|38=9848|39=1|40=1|207=UBS|48=MASKED|22=MASKED|54=1|59=9|60=20180919-01:00:07.000|10=078|
09:00:07.004858 I FIXPUMP 		gateway3:[FIXRX] 8=FIXT.1.1|9=295|35=8|49=EXCHANGE|56=UBS|34=942|52=20180919-01:00:07.004|1128=9|11=75694|14=4151|17=hB0.kV./MX6|150=F|151=0|1093=2|453=1|448=BROKERID|447=D|452=17|37=2242049|38=9848|39=2|40=1|207=UBS|48=MASKED|22=MASKED|54=0|59=9|60=20180919-01:00:07.000|10=078|
09:00:05.320249 I gateway3			[EVT.onPendingReplace:06] [MAPTX] [RPL][order.RefId=937][order.OrderId=84702][clOrdId=75694] [seqNo=67175]
09:00:07.001122 I FIXPUMP		gateway3:[FIXTX] 8=FIXT.1.1|9=218|35=G|43=N|52=20180919-01:00:07.000|122=20180919-01:00:05.320|49=UBSACCOUNT|56=EXCHANGE|34=938|11=75694|38=9848|54=2|40=1|59=9|60=20180919-01:00:05.320|48=MASKED|22=8|453=1|448=BROKERID|447=D|452=1|207=XHKG|1812=1|1813=100|1814=1|10=220|
09:00:07.004858 I FIXPUMP 		gateway3:[FIXRX] 8=FIXT.1.1|9=229|35=8|49=EXCHANGE|56=UBSACCOUNT|34=942|52=20180919-01:00:07.004|1128=9|11=75694|14=0|17=hB0.kV./MX6|150=0|151=9848|1093=2|453=1|448=BROKERID|447=D|452=1|37=2242049|38=9848|39=5|40=1|207=XHKG|48=MASKED|22=8|54=2|59=9|60=20180919-01:00:07.000|10=078|
09:00:05.320249 I gateway3			[EVT.onPending:00] [MAPTX] [NEW][order.RefId=502][order.OrderId=78117][clOrdId=36186] [seqNo=938]
09:00:07.001122 I FIXPUMP		gateway3:[FIXTX] 8=FIXT.1.1|9=218|35=D|43=N|52=20180919-01:00:07.000|122=20180919-01:00:05.320|49=UBSACCOUNT|56=EXCHANGE|34=938|11=36186|38=3016|54=2|40=1|59=9|60=20180919-01:00:05.320|48=MASKED|22=8|453=1|448=BROKERID|447=D|452=1|207=XHKG|1812=1|1813=100|1814=1|10=220|
09:00:07.004858 I FIXPUMP 		gateway3:[FIXRX] 8=FIXT.1.1|9=229|35=8|49=EXCHANGE|56=UBSACCOUNT|34=942|52=20180919-01:00:07.004|1128=9|11=36186|14=0|17=hB0.kV./MX6|150=0|151=3016|1093=2|453=1|448=BROKERID|447=D|452=1|37=2242049|38=3016|39=0|40=1|207=XHKG|48=MASKED|22=8|54=2|59=9|60=20180919-01:00:07.000|10=078|
09:00:07.004858 I FIXPUMP 		gateway3:[FIXRX] 8=FIXT.1.1|9=295|35=8|49=EXCHANGE|56=UBS|34=942|52=20180919-01:00:07.004|1128=9|11=36186|14=3434|17=hB0.kV./MX6|150=F|151=0|1093=2|453=1|448=BROKERID|447=D|452=17|37=2242049|38=3016|39=2|40=1|207=UBS|48=MASKED|22=MASKED|54=0|59=9|60=20180919-01:00:07.000|10=078|
09:00:05.320249 I gateway3			[EVT.onPendingReplace:06] [MAPTX] [RPL][order.RefId=502][order.OrderId=78117][clOrdId=36186] [seqNo=67175]
09:00:07.001122 I FIXPUMP		gateway3:[FIXTX] 8=FIXT.1.1|9=218|35=G|43=N|52=20180919-01:00:07.000|122=20180919-01:00:05.320|49=UBSACCOUNT|56=EXCHANGE|34=938|11=36186|38=3016|54=2|40=1|59=9|60=20180919-01:00:05.320|48=MASKED|22=8|453=1|448=BROKERID|447=D|452=1|207=XHKG|1812=1|1813=100|1814=1|10=220|
09:00:07.004858 I FIXPUMP 		gateway3:[FIXRX] 8=FIXT.1.1|9=229|35=8|49=EXCHANGE|56=UBSACCOUNT|34=942|52=20180919-01:00:07.004|1128=9|11=36186|14=0|17=hB0.kV./MX6|150=0|151=3016|1093=2|453=1|448=BROKERID|447=D|452=1|37=2242049|38=3016|39=5|40=1|207=XHKG|48=MASKED|22=8|54=2|59=9|60=20180919-01:00:07.000|10=078|
09:00:05.320249 I gateway3			[EVT.onPending:00] [MAPTX] [NEW][order.RefId=761][order.OrderId=76215][clOrdId=91201] [seqNo=938]
09:00:07.001122 I FIXPUMP		gateway3:[FIXTX] 8=FIXT.1.1|9=218|35=D|43=N|52=20180919-01:00:07.000|122=20180919-01:00:05.320|49=UBSACCOUNT|56=EXCHANGE|34=938|11=91201|38=1108|54=2|40=1|59=9|60=20180919-01:00:05.320|48=MASKED|22=8|453=1|448=BROKERID|447=D|452=1|207=XHKG|1812=1|1813=100|1814=1|10=220|
09:00:07.004858 I FIXPUMP 		gateway3:[FIXRX] 8=FIXT.1.1|9=229|35=8|49=EXCHANGE|56=UBSACCOUNT|34=942|52=20180919-01:00:07.004|1128=9|11=91201|14=0|17=hB0.kV./MX6|150=0|151=1108|1093=2|453=1|448=BROKERID|447=D|452=1|37=2242049|38=1108|39=0|40=1|207=XHKG|48=MASKED|22=8|54=2|59=9|60=20180919-01:00:07.000|10=078|
09:00:07.004858 I FIXPUMP 		gateway3:[FIXRX] 8=FIXT.1.1|9=295|35=8|49=EXCHANGE|56=UBS|34=942|52=20180919-01:00:07.004|1128=9|11=91201|14=500|17=hB0.kV./MX6|150=F|151=608|1093=2|453=1|448=BROKERID|447=D|452=17|37=2242049|38=1108|39=1|40=1|207=UBS|48=MASKED|22=MASKED|54=1|59=9|60=20180919-01:00:07.000|10=078|
09:00:07.004858 I FIXPUMP 		gateway3:[FIXRX] 8=FIXT.1.1|9=295|35=8|49=EXCHANGE|56=UBS|34=942|52=20180919-01:00:07.004|1128=9|11=91201|14=1522|17=hB0.kV./MX6|150=F|151=0|1093=2|453=1|448=BROKERID|447=D|452=17|37=2242049|38=1108|39=2|40=1|207=UBS|48=MASKED|22=MASKED|54=0|59=9|60=20180919-01:00:07.000|10=078|
09:00:05.320249 I gateway3			[EVT.onPendingReplace:06] [MAPTX] [RPL][order.RefId=761][order.OrderId=76215][clOrdId=91201] [seqNo=67175]
09:00:07.001122 I FIXPUMP		gateway3:[FIXTX] 8=FIXT.1.1|9=218|35=G|43=N|52=20180919-01:00:07.000|122=20180919-01:00:05.320|49=UBSACCOUNT|56=EXCHANGE|34=938|11=91201|38=1108|54=2|40=1|59=9|60=20180919-01:00:05.320|48=MASKED|22=8|453=1|448=BROKERID|447=D|452=1|207=XHKG|1812=1|1813=100|1814=1|10=220|
09:00:07.004858 I FIXPUMP 		gateway3:[FIXRX] 8=FIXT.1.1|9=229|35=8|49=EXCHANGE|56=UBSACCOUNT|34=942|52=20180919-01:00:07.004|1128=9|11=91201|14=0|17=hB0.kV./MX6|150=0|151=1108|1093=2|453=1|448=BROKERID|447=D|452=1|37=2242049|38=1108|39=5|40=1|207=XHKG|48=MASKED|22=8|54=2|59=9|60=20180919-01:00:07.000|10=078|
09:00:05.320249 I gateway3			[EVT.onPending:00] [MAPTX] [NEW][order.RefId=951][order.OrderId=698][clOrdId=65896] [seqNo=938]
09:00:07.001122 I FIXPUMP		gateway3:[FIXTX] 8=FIXT.1.1|9=218|35=D|43=N|52=20180919-01:00:07.000|122=20180919-01:00:05.320|49=UBSACCOUNT|56=EXCHANGE|34=938|11=65896|38=2808|54=2|40=1|59=9|60=20180919-01:00:05.320|48=MASKED|22=8|453=1|448=BROKERID|447=D|452=1|207=XHKG|1812=1|1813=100|1814=1|10=220|
09:00:07.004858 I FIXPUMP 		gateway3:[FIXRX] 8=FIXT.1.1|9=229|35=8|49=EXCHANGE|56=UBSACCOUNT|34=942|52=20180919-01:00:07.004|1128=9|11=65896|14=0|17=hB0.kV./MX6|150=0|151=2808|1093=2|453=1|448=BROKERID|447=D|452=1|37=2242049|38=2808|39=0|40=1|207=XHKG|48=MASKED|22=8|54=2|59=9|60=20180919-01:00:07.000|10=078|
09:00:07.004858 I FIXPUMP 		gateway3:[FIXRX] 8=FIXT.1.1|9=295|35=8|49=EXCHANGE|56=UBS|34=942|52=20180919-01:00:07.004|1128=9|11=65896|14=3909|17=hB0.kV./MX6|150=F|151=0|1093=2|453=1|448=BROKERID|447=D|452=17|37=2242049|38=2808|39=2|40=1|207=UBS|48=MASKED|22=MASKED|54=0|59=9|60=20180919-01:00:07.000|10=078|
