09:00:05.320249 I gateway3			[EVT.onPending:00] [MAPTX] [NEW][order.RefId=773][order.OrderId=70441][clOrdId=36339] [seqNo=938]
09:00:07.001122 I FIXPUMP		gateway3:[FIXTX] 8=FIXT.1.1|9=218|35=D|43=N|52=20180919-01:00:07.000|122=20180919-01:00:05.320|49=UBSACCOUNT|56=EXCHANGE|34=938|11=36339|38=8686|54=2|40=1|59=9|60=20180919-01:00:05.320|48=MASKED|22=8|453=1|448=BROKERID|447=D|452=1|207=XHKG|1812=1|1813=100|1814=1|10=220|
09:00:07.004858 I FIXPUMP 		gateway3:[FIXRX] 8=FIXT.1.1|9=229|35=8|49=EXCHANGE|56=UBSACCOUNT|34=942|52=20180919-01:00:07.004|1128=9|11=36339|14=0|17=hB0.kV./MX6|150=0|151=8686|1093=2|453=1|448=BROKERID|447=D|452=1|37=2242049|38=8686|39=0|40=1|207=XHKG|48=MASKED|22=8|54=2|59=9|60=20180919-01:00:07.000|10=078|
09:00:07.004858 I FIXPUMP 		gateway3:[FIXRX] 8=FIXT.1.1|9=295|35=8|49=EXCHANGE|56=UBS|34=942|52=20180919-01:00:07.004|1128=9|11=36339|14=4073|17=hB0.kV./MX6|150=F|151=4613|1093=2|453=1|448=BROKERID|447=D|452=17|37=2242049|38=8686|39=1|40=1|207=UBS|48=MASKED|22=MASKED|54=1|59=9|60=20180919-01:00:07.000|10=078|
09:00:07.004858 I FIXPUMP 		gateway3:[FIXRX] 8=FIXT.1.1|9=295|35=8|49=EXCHANGE|56=UBS|34=942|52=20180919-01:00:07.004|1128=9|11=36339|14=113|17=hB0.kV./MX6|150=F|151=4500|1093=2|453=1|448=BROKERID|447=D|452=17|37=2242049|38=8686|39=1|40=1|207=UBS|48=MASKED|22=MASKED|54=1|59=9|60=20180919-01:00:07.000|10=078|
09:00:07.004858 I FIXPUMP 		gateway3:[FIXRX] 8=FIXT.1.1|9=295|35=8|49=EXCHANGE|56=UBS|34=942|52=20180919-01:00:07.004|1128=9|11=36339|14=3389|17=hB0.kV./MX6|150=F|151=1111|1093=2|453=1|448=BROKERID|447=D|452=17|37=2242049|38=8686|39=1|40=1|207=UBS|48=MASKED|22=MASKED|54=1|59=9|60=20180919-01:00:07.000|10=078|
09:00:07.004858 I FIXPUMP 		gateway3:[FIXRX] 8=FIXT.1.1|9=295|35=8|49=EXCHANGE|56=UBS|34=942|52=20180919-01:00:07.004|1128=9|11=36339|14=1839|17=hB0.kV./MX6|150=F|151=0|1093=2|453=1|448=BROKERID|447=D|452=17|37=2242049|38=8686|39=2|40=1|207=UBS|48=MASKED|22=MASKED|54=0|59=9|60=20180919-01:00:07.000|10=078|
09:00:05.320249 I gateway3			[EVT.onPendingReplace:06] [MAPTX] [RPL][order.RefId=773][order.OrderId=70441][clOrdId=36339] [seqNo=67175]
09:00:07.001122 I FIXPUMP		gateway3:[FIXTX] 8=FIXT.1.1|9=218|35=G|43=N|52=20180919-01:00:07.000|122=20180919-01:00:05.320|49=UBSACCOUNT|56=EXCHANGE|34=938|11=36339|38=8686|54=2|40=1|59=9|60=20180919-01:00:05.320|48=MASKED|22=8|453=1|448=BROKERID|447=D|452=1|207=XHKG|1812=1|1813=100|1814=1|10=220|
09:00:07.004858 I FIXPUMP 		gateway3:[FIXRX] 8=FIXT.1.1|9=229|35=8|49=EXCHANGE|56=UBSACCOUNT|34=942|52=20180919-01:00:07.004|1128=9|11=36339|14=0|17=hB0.kV./MX6|150=0|151=8686|1093=2|453=1|448=BROKERID|447=D|452=1|37=2242049|38=8686|39=5|40=1|207=XHKG|48=MASKED|22=8|54=2|59=9|60=20180919-01:00:07.000|10=078|
09:00:05.320249 I gateway3			[EVT.onPending:00] [MAPTX] [NEW][order.RefId=901][order.OrderId=66796][clOrdId=17348] [seqNo=938]
09:00:07.001122 I FIXPUMP		gateway3:[FIXTX] 8=FIXT.1.1|9=218|35=D|43=N|52=20180919-01:00:07.000|122=20180919-01:00:05.320|49=UBSACCOUNT|56=EXCHANGE|34=938|11=17348|38=7759|54=2|40=1|59=9|60=20180919-01:00:05.320|48=MASKED|22=8|453=1|448=BROKERID|447=D|452=1|207=XHKG|1812=1|1813=100|1814=1|10=220|
09:00:07.004858 I FIXPUMP 		gateway3:[FIXRX] 8=FIXT.1.1|9=229|35=8|49=EXCHANGE|56=UBSACCOUNT|34=942|52=20180919-01:00:07.004|1128=9|11=17348|14=0|17=hB0.kV./MX6|150=0|151=7759|1093=2|453=1|448=BROKERID|447=D|452=1|37=2242049|38=7759|39=0|40=1|207=XHKG|48=MASKED|22=8|54=2|59=9|60=20180919-01:00:07.000|10=078|
09:00:07.004858 I FIXPUMP 		gateway3:[FIXRX] 8=FIXT.1.1|9=295|35=8|49=EXCHANGE|56=UBS|34=942|52=20180919-01:00:07.004|1128=9|11=17348|14=3611|17=hB0.kV./MX6|150=F|151=4148|1093=2|453=1|448=BROKERID|447=D|452=17|37=2242049|38=7759|39=1|40=1|207=UBS|48=MASKED|22=MASKED|54=1|59=9|60=20180919-01:00:07.000|10=078|
09:00:07.004858 I FIXPUMP 		gateway3:[FIXRX] 8=FIXT.1.1|9=295|35=8|49=EXCHANGE|56=UBS|34=942|52=20180919-01:00:07.004|1128=9|11=17348|14=4609|17=hB0.kV./MX6|150=F|151=0|1093=2|453=1|448=BROKERID|447=D|452=17|37=2242049|38=7759|39=2|40=1|207=UBS|48=MASKED|22=MASKED|54=0|59=9|60=20180919-01:00:07.000|10=078|
09:00:05.320249 I gateway3			[EVT.onPendingReplace:06] [MAPTX] [RPL][order.RefId=901][order.OrderId=66796][clOrdId=17348] [seqNo=67175]
09:00:07.001122 I FIXPUMP		gateway3:[FIXTX] 8=FIXT.1.1|9=218|35=G|43=N|52=20180919-01:00:07.000|122=20180919-01:00:05.320|49=UBSACCOUNT|56=EXCHANGE|34=938|11=17348|38=7759|54=2|40=1|59=9|60=20180919-01:00:05.320|48=MASKED|22=8|453=1|448=BROKERID|447=D|452=1|207=XHKG|1812=1|1813=100|1814=1|10=220|
09:00:07.004858 I FIXPUMP 		gateway3:[FIXRX] 8=FIXT.1.1|9=229|35=8|49=EXCHANGE|56=UBSACCOUNT|34=942|52=20180919-01:00:07.004|1128=9|11=17348|14=0|17=hB0.kV./MX6|150=0|151=7759|1093=2|453=1|448=BROKERID|447=D|452=1|37=2242049|38=7759|39=5|40=1|207=XHKG|48=MASKED|22=8|54=2|59=9|60=20180919-01:00:07.000|10=078|
09:00:05.320249 I gateway3			[EVT.onPending:00] [MAPTX] [NEW][order.RefId=244][order.OrderId=15900][clOrdId=2224] [seqNo=938]
09:00:07.001122 I FIXPUMP		gateway3:[FIXTX] 8=FIXT.1.1|9=218|35=D|43=N|52=20180919-01:00:07.000|122=20180919-01:00:05.320|49=UBSACCOUNT|56=EXCHANGE|34=938|11=2224|38=4574|54=2|40=1|59=9|60=20180919-01:00:05.320|48=MASKED|22=8|453=1|448=BROKERID|447=D|452=1|207=XHKG|1812=1|1813=100|1814=1|10=220|
09:00:07.004858 I FIXPUMP 		gateway3:[FIXRX] 8=FIXT.1.1|9=229|35=8|49=EXCHANGE|56=UBSACCOUNT|34=942|52=20180919-01:00:07.004|1128=9|11=2224|14=0|17=hB0.kV./MX6|150=0|151=4574|1093=2|453=1|448=BROKERID|447=D|452=1|37=2242049|38=4574|39=0|40=1|207=XHKG|48=MASKED|22=8|54=2|59=9|60=20180919-01:00:07.000|10=078|
09:00:07.004858 I FIXPUMP 		gateway3:[FIXRX] 8=FIXT.1.1|9=295|35=8|49=EXCHANGE|56=UBS|34=942|52=20180919-01:00:07.004|1128=9|11=2224|14=983|17=hB0.kV./MX6|150=F|151=3591|1093=2|453=1|448=BROKERID|447=D|452=17|37=2242049|38=4574|39=1|40=1|207=UBS|48=MASKED|22=MASKED|54=1|59=9|60=20180919-01:00:07.000|10=078|
09:00:07.004858 I FIXPUMP 		gateway3:[FIXRX] 8=FIXT.1.1|9=295|35=8|49=EXCHANGE|56=UBS|34=942|52=20180919-01:00:07.004|1128=9|11=2224|14=4956|17=hB0.kV./MX6|150=F|151=0|1093=2|453=1|448=BROKERID|447=D|452=17|37=2242049|38=4574|39=2|40=1|207=UBS|48=MASKED|22=MASKED|54=0|59=9|60=20180919-01:00:07.000|10=078|
09:00:05.320249 I gateway3			[EVT.onPendingReplace:06] [MAPTX] [RPL][order.RefId=244][order.OrderId=15900][clOrdId=2224] [seqNo=67175]
09:00:07.001122 I FIXPUMP		gateway3:[FIXTX] 8=FIXT.1.1|9=218|35=G|43=N|52=20180919-01:00:07.000|122=20180919-01:00:05.320|49=UBSACCOUNT|56=EXCHANGE|34=938|11=2224|38=4574|54=2|40=1|59=9|60=20180919-01:00:05.320|48=MASKED|22=8|453=1|448=BROKERID|447=D|452=1|207=XHKG|1812=1|1813=100|1814=1|10=220|
09:00:07.004858 I FIXPUMP 		gateway3:[FIXRX] 8=FIXT.1.1|9=229|35=8|49=EXCHANGE|56=UBSACCOUNT|34=942|52=20180919-01:00:07.004|1128=9|11=2224|14=0|17=hB0.kV./MX6|150=0|151=4574|1093=2|453=1|448=BROKERID|447=D|452=1|37=2242049|38=4574|39=5|40=1|207=XHKG|48=MASKED|22=8|54=2|59=9|60=20180919-01:00:07.000|10=078|
09:00:05.320249 I gateway3			[EVT.onPending:00] [MAPTX] [NEW][order.RefId=352][order.OrderId=15406][clOrdId=2095] [seqNo=938]
09:00:07.001122 I FIXPUMP		gateway3:[FIXTX] 8=FIXT.1.1|9=218|35=D|43=N|52=20180919-01:00:07.000|122=20180919-01:00:05.320|49=UBSACCOUNT|56=EXCHANGE|34=938|11=2095|38=2589|54=2|40=1|59=9|60=20180919-01:00:05.320|48=MASKED|22=8|453=1|448=BROKERID|447=D|452=1|207=XHKG|1812=1|1813=100|1814=1|10=220|
09:00:07.004858 I FIXPUMP 		gateway3:[FIXRX] 8=FIXT.1.1|9=229|35=8|49=EXCHANGE|56=UBSACCOUNT|34=942|52=20180919-01:00:07.004|1128=9|11=2095|14=0|17=hB0.kV./MX6|150=0|151=2589|1093=2|453=1|448=BROKERID|447=D|452=1|37=2242049|38=2589|39=0|40=1|207=XHKG|48=MASKED|22=8|54=2|59=9|60=20180919-01:00:07.000|10=078|
09:00:07.004858 I FIXPUMP 		gateway3:[FIXRX] 8=FIXT.1.1|9=295|35=8|49=EXCHANGE|56=UBS|34=942|52=20180919-01:00:07.004|1128=9|11=2095|14=2601|17=hB0.kV./MX6|150=F|151=0|1093=2|453=1|448=BROKERID|447=D|452=17|37=2242049|38=2589|39=2|40=1|207=UBS|48=MASKED|22=MASKED|54=0|59=9|60=20180919-01:00:07.000|10=078|
09:00:05.320249 I gateway3			[EVT.onPendingReplace:06] [MAPTX] [RPL][order.RefId=352][order.OrderId=15406][clOrdId=2095] [seqNo=67175]
09:00:07.001122 I FIXPUMP		gateway3:[FIXTX] 8=FIXT.1.1|9=218|35=G|43=N|52=20180919-01:00:07.000|122=20180919-01:00:05.320|49=UBSACCOUNT|56=EXCHANGE|34=938|11=2095|38=2589|54=2|40=1|59=9|60=20180919-01:00:05.320|48=MASKED|22=8|453=1|448=BROKERID|447=D|452=1|207=XHKG|1812=1|1813=100|1814=1|10=220|
09:00:07.004858 I FIXPUMP 		gateway3:[FIXRX] 8=FIXT.1.1|9=229|35=8|49=EXCHANGE|56=UBSACCOUNT|34=942|52=20180919-01:00:07.004|1128=9|11=2095|14=0|17=hB0.kV./MX6|150=0|151=2589|1093=2|453=1|448=BROKERID|447=D|452=1|37=2242049|38=2589|39=5|40=1|207=XHKG|48=MASKED|22=8|54=2|59=9|60=20180919-01:00:07.000|10=078|
09:00:05.320249 I gateway3			[EVT.onPending:00] [MAPTX] [NEW][order.RefId=832][order.OrderId=50386][clOrdId=93591] [seqNo=938]
09:00:07.001122 I FIXPUMP		gateway3:[FIXTX] 8=FIXT.1.1|9=218|35=D|43=N|52=20180919-01:00:07.000|122=20180919-01:00:05.320|49=UBSACCOUNT|56=EXCHANGE|34=938|11=93591|38=9471|54=2|40=1|59=9|60=20180919-01:00:05.320|48=MASKED|22=8|453=1|448=BROKERID|447=D|452=1|207=XHKG|1812=1|1813=100|1814=1|10=220|
09:00:07.004858 I FIXPUMP 		gateway3:[FIXRX] 8=FIXT.1.1|9=229|35=8|49=EXCHANGE|56=UBSACCOUNT|34=942|52=20180919-01:00:07.004|1128=9|11=93591|14=0|17=hB0.kV./MX6|150=0|151=9471|1093=2|453=1|448=BROKERID|447=D|452=1|37=2242049|38=9471|39=0|40=1|207=XHKG|48=MASKED|22=8|54=2|59=9|60=20180919-01:00:07.000|10=078|
09:00:07.004858 I FIXPUMP 		gateway3:[FIXRX] 8=FIXT.1.1|9=295|35=8|49=EXCHANGE|56=UBS|34=942|52=20180919-01:00:07.004|1128=9|11=93591|14=2917|17=hB0.kV./MX6|150=F|151=6554|1093=2|453=1|448=BROKERID|447=D|452=17|37=2242049|38=9471|39=1|40=1|207=UBS|48=MASKED|22=MASKED|54=1|59=9|60=20180919-01:00:07.000|10=078|
09:00:07.004858 I FIXPUMP 		gateway3:[FIXRX] 8=FIXT.1.1|9=295|35=8|49=EXCHANGE|56=UBS|34=942|52=20180919-01:00:07.004|1128=9|11=93591|14=3532|17=hB0.kV./MX6|150=F|151=3022|1093=2|453=1|448=BROKERID|447=D|452=17|37=2242049|38=9471|39=1|40=1|207=UBS|48=MASKED|22=MASKED|54=1|59=9|60=20180919-01:00:07.000|10=078|
09:00:07.004858 I FIXPUMP 		gateway3:[FIXRX] 8=FIXT.1.1|9=295|35=8|49=EXCHANGE|56=UBS|34=942|52=20180919-01:00:07.004|1128=9|11=93591|14=2257|17=hB0.kV./MX6|150=F|151=765|1093=2|453=1|448=BROKERID|447=D|452=17|37=2242049|38=9471|39=1|40=1|207=UBS|48=MASKED|22=MASKED|54=1|59=9|60=20180919-01:00:07.000|10=078|
09:00:07.004858 I FIXPUMP 		gateway3:[FIXRX] 8=FIXT.1.1|9=295|35=8|49=EXCHANGE|56=UBS|34=942|52=20180919-01:00:07.004|1128=9|11=93591|14=4260|17=hB0.kV./MX6|150=F|151=0|1093=2|453=1|448=BROKERID|447=D|452=17|37=2242049|38=9471|39=2|40=1|207=UBS|48=MASKED|22=MASKED|54=0|59=9|60=20180919-01:00:07.000|10=078|
09:00:05.320249 I gateway3			[EVT.onPendingReplace:06] [MAPTX] [RPL][order.RefId=832][order.OrderId=50386][clOrdId=93591] [seqNo=67175]
09:00:07.001122 I FIXPUMP		gateway3:[FIXTX] 8=FIXT.1.1|9=218|35=G|43=N|52=20180919-01:00:07.000|122=20180919-01:00:05.320|49=UBSACCOUNT|56=EXCHANGE|34=938|11=93591|38=9471|54=2|40=1|59=9|60=20180919-01:00:05.320|48=MASKED|22=8|453=1|448=BROKERID|447=D|452=1|207=XHKG|1812=1|1813=100|1814=1|10=220|
09:00:07.004858 I FIXPUMP 		gateway3:[FIXRX] 8=FIXT.1.1|9=229|35=8|49=EXCHANGE|56=UBSACCOUNT|34=942|52=20180919-01:00:07.004|1128=9|11=93591|14=0|17=hB0.kV./MX6|150=0|151=9471|1093=2|453=1|448=BROKERID|447=D|452=1|37=2242049|38=9471|39=5|40=1|207=XHKG|48=MASKED|22=8|54=2|59=9|60=20180919-01:00:07.000|10=078|
09:00:05.320249 I gateway3			[EVT.onPending:00] [MAPTX] [NEW][order.RefId=843][order.OrderId=3082][clOrdId=84272] [seqNo=938]
09:00:07.001122 I FIXPUMP		gateway3:[FIXTX] 8=FIXT.1.1|9=218|35=D|43=N|52=20180919-01:00:07.000|122=20180919-01:00:05.320|49=UBSACCOUNT|56=EXCHANGE|34=938|11=84272|38=9635|54=2|40=1|59=9|60=20180919-01:00:05.320|48=MASKED|22=8|453=1|448=BROKERID|447=D|452=1|207=XHKG|1812=1|1813=100|1814=1|10=220|
09:00:07.004858 I FIXPUMP 		gateway3:[FIXRX] 8=FIXT.1.1|9=229|35=8|49=EXCHANGE|56=UBSACCOUNT|34=942|52=20180919-01:00:07.004|1128=9|11=84272|14=0|17=hB0.kV./MX6|150=0|151=9635|1093=2|453=1|448=BROKERID|447=D|452=1|37=2242049|38=9635|39=0|40=1|207=XHKG|48=MASKED|22=8|54=2|59=9|60=20180919-01:00:07.000|10=078|
09:00:07.004858 I FIXPUMP 		gateway3:[FIXRX] 8=FIXT.1.1|9=295|35=8|49=EXCHANGE|56=UBS|34=942|52=20180919-01:00:07.004|1128=9|11=84272|14=3353|17=hB0.kV./MX6|150=F|151=6282|1093=2|453=1|448=BROKERID|447=D|452=17|37=2242049|38=9635|39=1|40=1|207=UBS|48=MASKED|22=MASKED|54=1|59=9|60=20180919-01:00:07.000|10=078|
09:00:07.004858 I FIXPUMP 		gateway3:[FIXRX] 8=FIXT.1.1|9=295|35=8|49=EXCHANGE|56=UBS|34=942|52=20180919-01:00:07.004|1128=9|11=84272|14=4983|17=hB0.kV./MX6|150=F|151=1299|1093=2|453=1|448=BROKERID|447=D|452=17|37=2242049|38=9635|39=1|40=1|207=UBS|48=MASKED|22=MASKED|54=1|59=9|60=20180919-01:00:07.000|10=078|
09:00:07.004858 I FIXPUMP 		gateway3:[FIXRX] 8=FIXT.1.1|9=295|35=8|49=EXCHANGE|56=UBS|34=942|52=20180919-01:00:07.004|1128=9|11=84272|14=2051|17=hB0.kV./MX6|150=F|151=0|1093=2|453=1|448=BROKERID|447=D|452=17|37=2242049|38=9635|39=2|40=1|207=UBS|48=MASKED|22=MASKED|54=0|59=9|60=20180919-01:00:07.000|10=078|
09:00:05.320249 I gateway3			[EVT.onPendingReplace:06] [MAPTX] [RPL][order.RefId=843][order.OrderId=3082][clOrdId=84272] [seqNo=67175]
09:00:07.001122 I FIXPUMP		gateway3:[FIXTX] 8=FIXT.1.1|9=218|35=G|43=N|52=20180919-01:00:07.000|122=20180919-01:00:05.320|49=UBSACCOUNT|56=EXCHANGE|34=938|11=84272|38=9635|54=2|40=1|59=9|60=20180919-01:00:05.320|48=MASKED|22=8|453=1|448=BROKERID|447=D|452=1|207=XHKG|1812=1|1813=100|1814=1|10=220|
09:00:07.004858 I FIXPUMP 		gateway3:[FIXRX] 8=FIXT.1.1|9=229|35=8|49=EXCHANGE|56=UBSACCOUNT|34=942|52=20180919-01:00:07.004|1128=9|11=84272|14=0|17=hB0.kV./MX6|150=0|151=9635|1093=2|453=1|448=BROKERID|447=D|452=1|37=2242049|38=9635|39=5|40=1|207=XHKG|48=MASKED|22=8|54=2|59=9|60=20180919-01:00:07.000|10=078|
09:00:05.320249 I gateway3			[EVT.onPending:00] [MAPTX] [NEW][order.RefId=733][order.OrderId=22510][clOrdId=90122] [seqNo=938]
09:00:07.001122 I FIXPUMP		gateway3:[FIXTX] 8=FIXT.1.1|9=218|35=D|43=N|52=20180919-01:00:07.000|122=20180919-01:00:05.320|49=UBSACCOUNT|56=EXCHANGE|34=938|11=90122|38=7136|54=2|40=1|59=9|60=20180919-01:00:05.320|48=MASKED|22=8|453=1|448=BROKERID|447=D|452=1|207=XHKG|1812=1|1813=100|1814=1|10=220|
09:00:07.004858 I FIXPUMP 		gateway3:[FIXRX] 8=FIXT.1.1|9=229|35=8|49=EXCHANGE|56=UBSACCOUNT|34=942|52=20180919-01:00:07.004|1128=9|11=90122|14=0|17=hB0.kV./MX6|150=0|151=7136|1093=2|453=1|448=BROKERID|447=D|452=1|37=2242049|38=7136|39=0|40=1|207=XHKG|48=MASKED|22=8|54=2|59=9|60=20180919-01:00:07.000|10=078|
09:00:07.004858 I FIXPUMP 		gateway3:[FIXRX] 8=FIXT.1.1|9=295|35=8|49=EXCHANGE|56=UBS|34=942|52=20180919-01:00:07.004|1128=9|11=90122|14=4276|17=hB0.kV./MX6|150=F|151=2860|1093=2|453=1|448=BROKERID|447=D|452=17|37=2242049|38=7136|39=1|40=1|207=UBS|48=MASKED|22=MASKED|54=1|59=9|60=20180919-01:00:07.000|10=078|
09:00:07.004858 I FIXPUMP 		gateway3:[FIXRX] 8=FIXT.1.1|9=295|35=8|49=EXCHANGE|56=UBS|34=942|52=20180919-01:00:07.004|1128=9|11=90122|14=2541|17=hB0.kV./MX6|150=F|151=319|1093=2|453=1|448=BROKERID|447=D|452=17|37=2242049|38=7136|39=1|40=1|207=UBS|48=MASKED|22=MASKED|54=1|59=9|60=20180919-01:00:07.000|10=078|
09:00:07.004858 I FIXPUMP 		gateway3:[FIXRX] 8=FIXT.1.1|9=295|35=8|49=EXCHANGE|56=UBS|34=942|52=20180919-01:00:07.004|1128=9|11=90122|14=2382|17=hB0.kV./MX6|150=F|151=0|1093=2|453=1|448=BROKERID|447=D|452=17|37=2242049|38=7136|39=2|40=1|207=UBS|48=MASKED|22=MASKED|54=0|59=9|60=20180919-01:00:07.000|10=078|
09:00:05.320249 I gateway3			[EVT.onPendingReplace:06] [MAPTX] [RPL][order.RefId=733][order.OrderId=22510][clOrdId=90122] [seqNo=67175]
09:00:07.001122 I FIXPUMP		gateway3:[FIXTX] 8=FIXT.1.1|9=218|35=G|43=N|52=20180919-01:00:07.000|122=20180919-01:00:05.320|49=UBSACCOUNT|56=EXCHANGE|34=938|11=90122|38=7136|54=2|40=1|59=9|60=20180919-01:00:05.320|48=MASKED|22=8|453=1|448=BROKERID|447=D|452=1|207=XHKG|1812=1|1813=100|1814=1|10=220|
09:00:07.004858 I FIXPUMP 		gateway3:[FIXRX] 8=FIXT.1.1|9=229|35=8|49=EXCHANGE|56=UBSACCOUNT|34=942|52=20180919-01:00:07.004|1128=9|11=90122|14=0|17=hB0.kV./MX6|150=0|151=7136|1093=2|453=1|448=BROKERID|447=D|452=1|37=2242049|38=7136|39=5|40=1|207=XHKG|48=MASKED|22=8|54=2|59=9|60=20180919-01:00:07.000|10=078|
09:00:05.320249 I gateway3			[EVT.onPending:00] [MAPTX] [NEW][order.RefId=249][order.OrderId=30646][clOrdId=64229] [seqNo=938]
09:00:07.001122 I FIXPUMP		gateway3:[FIXTX] 8=FIXT.1.1|9=218|35=D|43=N|52=20180919-01:00:07.000|122=20180919-01:00:05.320|49=UBSACCOUNT|56=EXCHANGE|34=938|11=64229|38=5095|54=2|40=1|59=9|60=20180919-01:00:05.320|48=MASKED|22=8|453=1|448=BROKERID|447=D|452=1|207=XHKG|1812=1|1813=100|1814=1|10=220|
09:00:07.004858 I FIXPUMP 		gateway3:[FIXRX] 8=FIXT.1.1|9=229|35=8|49=EXCHANGE|56=UBSACCOUNT|34=942|52=20180919-01:00:07.004|1128=9|11=64229|14=0|17=hB0.kV./MX6|150=0|151=5095|1093=2|453=1|448=BROKERID|447=D|452=1|37=2242049|38=5095|39=0|40=1|207=XHKG|48=MASKED|22=8|54=2|59=9|60=20180919-01:00:07.000|10=078|
09:00:07.004858 I FIXPUMP 		gateway3:[FIXRX] 8=FIXT.1.1|9=295|35=8|49=EXCHANGE|56=UBS|34=942|52=20180919-01:00:07.004|1128=9|11=64229|14=3130|17=hB0.kV./MX6|150=F|151=1965|1093=2|453=1|448=BROKERID|447=D|452=17|37=2242049|38=5095|39=1|40=1|207=UBS|48=MASKED|22=MASKED|54=1|59=9|60=20180919-01:00:07.000|10=078|
09:00:07.004858 I FIXPUMP 		gateway3:[FIXRX] 8=FIXT.1.1|9=295|35=8|49=EXCHANGE|56=UBS|34=942|52=20180919-01:00:07.004|1128=9|11=64229|14=3838|17=hB0.kV./MX6|150=F|151=0|1093=2|453=1|448=BROKERID|447=D|452=17|37=2242049|38=5095|39=2|40=1|207=UBS|48=MASKED|22=MASKED|54=0|59=9|60=20180919-01:00:07.000|10=078|
09:00:05.320249 I gateway3			[EVT.onPendingReplace:06] [MAPTX] [RPL][order.RefId=249][order.OrderId=30646][clOrdId=64229] [seqNo=67175]
09:00:07.001122 I FIXPUMP		gateway3:[FIXTX] 8=FIXT.1.1|9=218|35=G|43=N|52=20180919-01:00:07.000|122=20180919-01:00:05.320|49=UBSACCOUNT|56=EXCHANGE|34=938|11=64229|38=5095|54=2|40=1|59=9|60=20180919-01:00:05.320|48=MASKED|22=8|453=1|448=BROKERID|447=D|452=1|207=XHKG|1812=1|1813=100|1814=1|10=220|
09:00:07.004858 I FIXPUMP 		gateway3:[FIXRX] 8=FIXT.1.1|9=229|35=8|49=EXCHANGE|56=UBSACCOUNT|34=942|52=20180919-01:00:07.004|1128=9|11=64229|14=0|17=hB0.kV./MX6|150=0|151=5095|1093=2|453=1|448=BROKERID|447=D|452=1|37=2242049|38=5095|39=5|40=1|207=XHKG|48=MASKED|22=8|54=2|59=9|60=20180919-01:00:07.000|10=078|
09:00:05.320249 I gateway3			[EVT.onPending:00] [MAPTX] [NEW][order.RefId=301][order.OrderId=10175][clOrdId=34334] [seqNo=938]
09:00:07.001122 I FIXPUMP		gateway3:[FIXTX] 8=FIXT.1.1|9=218|35=D|43=N|52=20180919-01:00:07.000|122=20180919-01:00:05.320|49=UBSACCOUNT|56=EXCHANGE|34=938|11=34334|38=2482|54=2|40=1|59=9|60=20180919-01:00:05.320|48=MASKED|22=8|453=1|448=BROKERID|447=D|452=1|207=XHKG|1812=1|1813=100|1814=1|10=220|
09:00:07.004858 I FIXPUMP 		gateway3:[FIXRX] 8=FIXT.1.1|9=229|35=8|49=EXCHANGE|56=UBSACCOUNT|34=942|52=20180919-01:00:07.004|1128=9|11=34334|14=0|17=hB0.kV./MX6|150=0|151=2482|1093=2|453=1|448=BROKERID|447=D|452=1|37=2242049|38=2482|39=0|40=1|207=XHKG|48=MASKED|22=8|54=2|59=9|60=20180919-01:00:07.000|10=078|
09:00:07.004858 I FIXPUMP 		gateway3:[FIXRX] 8=FIXT.1.1|9=295|35=8|49=EXCHANGE|56=UBS|34=942|52=20180919-01:00:07.004|1128=9|11=34334|14=3937|17=hB0.kV./MX6|150=F|151=0|1093=2|453=1|448=BROKERID|447=D|452=17|37=2242049|38=2482|39=2|40=1|207=UBS|48=MASKED|22=MASKED|54=0|59=9|60=20180919-01:00:07.000|10=078|
09:00:05.320249 I gateway3			[EVT.onPendingReplace:06] [MAPTX] [RPL][order.RefId=301][order.OrderId=10175][clOrdId=34334] [seqNo=67175]
09:00:07.001122 I FIXPUMP		gateway3:[FIXTX] 8=FIXT.1.1|9=218|35=G|43=N|52=20180919-01:00:07.000|122=20180919-01:00:05.320|49=UBSACCOUNT|56=EXCHANGE|34=938|11=34334|38=2482|54=2|40=1|59=9|60=20180919-01:00:05.320|48=MASKED|22=8|453=1|448=BROKERID|447=D|452=1|207=XHKG|1812=1|1813=100|1814=1|10=220|
09:00:07.004858 I FIXPUMP 		gateway3:[FIXRX] 8=FIXT.1.1|9=229|35=8|49=EXCHANGE|56=UBSACCOUNT|34=942|52=20180919-01:00:07.004|1128=9|11=34334|14=0|17=hB0.kV./MX6|150=0|151=2482|1093=2|453=1|448=BROKERID|447=D|452=1|37=2242049|38=2482|39=5|40=1|207=XHKG|48=MASKED|22=8|54=2|59=9|60=20180919-01:00:07.000|10=078|
09:00:05.320249 I gateway3			[EVT.onPending:00] [MAPTX] [NEW][order.RefId=484][order.OrderId=99346][clOrdId=4313] [seqNo=938]
09:00:07.001122 I FIXPUMP		gateway3:[FIXTX] 8=FIXT.1.1|9=218|35=D|43=N|52=20180919-01:00:07.000|122=20180919-01:00:05.320|49=UBSACCOUNT|56=EXCHANGE|34=938|11=4313|38=3689|54=2|40=1|59=9|60=20180919-01:00:05.320|48=MASKED|22=8|453=1|448=BROKERID|447=D|452=1|207=XHKG|1812=1|1813=100|1814=1|10=220|
09:00:07.004858 I FIXPUMP 		gateway3:[FIXRX] 8=FIXT.1.1|9=229|35=8|49=EXCHANGE|56=UBSACCOUNT|34=942|52=20180919-01:00:07.004|1128=9|11=4313|14=0|17=hB0.kV./MX6|150=0|151=3689|1093=2|453=1|448=BROKERID|447=D|452=1|37=2242049|38=3689|39=0|40=1|207=XHKG|48=MASKED|22=8|54=2|59=9|60=20180919-01:00:07.000|10=078|
09:00:07.004858 I FIXPUMP 		gateway3:[FIXRX] 8=FIXT.1.1|9=295|35=8|49=EXCHANGE|56=UBS|34=942|52=20180919-01:00:07.004|1128=9|11=4313|14=2987|17=hB0.kV./MX6|150=F|151=702|1093=2|453=1|448=BROKERID|447=D|452=17|37=2242049|38=3689|39=1|40=1|207=UBS|48=MASKED|22=MASKED|54=1|59=9|60=20180919-01:00:07.000|10=078|
09:00:07.004858 I FIXPUMP 		gateway3:[FIXRX] 8=FIXT.1.1|9=295|35=8|49=EXCHANGE|56=UBS|34=942|52=20180919-01:00:07.004|1128=9|11=4313|14=3527|17=hB0.kV./MX6|150=F|151=0|1093=2|453=1|448=BROKERID|447=D|452=17|37=2242049|38=3689|39=2|40=1|207=UBS|48=MASKED|22=MASKED|54=0|59=9|60=20180919-01:00:07.000|10=078|
09:00:05.320249 I gateway3			[EVT.onPendingReplace:06] [MAPTX] [RPL][order.RefId=484][order.OrderId=99346][clOrdId=4313] [seqNo=67175]
09:00:07.001122 I FIXPUMP		gateway3:[FIXTX] 8=FIXT.1.1|9=218|35=G|43=N|52=20180919-01:00:07.000|122=20180919-01:00:05.320|49=UBSACCOUNT|56=EXCHANGE|34=938|11=4313|38=3689|54=2|40=1|59=9|60=20180919-01:00:05.320|48=MASKED|22=8|453=1|448=BROKERID|447=D|452=1|207=XHKG|1812=1|1813=100|1814=1|10=220|
09:00:07.004858 I FIXPUMP 		gateway3:[FIXRX] 8=FIXT.1.1|9=229|35=8|49=EXCHANGE|56=UBSACCOUNT|34=942|52=20180919-01:00:07.004|1128=9|11=4313|14=0|17=hB0.kV./MX6|150=0|151=3689|1093=2|453=1|448=BROKERID|447=D|452=1|37=2242049|38=3689|39=5|40=1|207=XHKG|48=MASKED|22=8|54=2|59=9|60=20180919-01:00:07.000|10=078|
09:00:05.320249 I gateway3			[EVT.onPending:00] [MAPTX] [NEW][order.RefId=9][order.OrderId=43326][clOrdId=27222] [seqNo=938]
09:00:07.001122 I FIXPUMP		gateway3:[FIXTX] 8=FIXT.1.1|9=218|35=D|43=N|52=20180919-01:00:07.000|122=20180919-01:00:05.320|49=UBSACCOUNT|56=EXCHANGE|34=938|11=27222|38=1505|54=2|40=1|59=9|60=20180919-01:00:05.320|48=MASKED|22=8|453=1|448=BROKERID|447=D|452=1|207=XHKG|1812=1|1813=100|1814=1|10=220|
09:00:07.004858 I FIXPUMP 		gateway3:[FIXRX] 8=FIXT.1.1|9=229|35=8|49=EXCHANGE|56=UBSACCOUNT|34=942|52=20180919-01:00:07.004|1128=9|11=27222|14=0|17=hB0.kV./MX6|150=0|151=1505|1093=2|453=1|448=BROKERID|447=D|452=1|37=2242049|38=1505|39=0|40=1|207=XHKG|48=MASKED|22=8|54=2|59=9|60=20180919-01:00:07.000|10=078|
09:00:07.004858 I FIXPUMP 		gateway3:[FIXRX] 8=FIXT.1.1|9=295|35=8|49=EXCHANGE|56=UBS|34=942|52=20180919-01:00:07.004|1128=9|11=27222|14=1421|17=hB0.kV./MX6|150=F|151=84|1093=2|453=1|448=BROKERID|447=D|452=17|37=2242049|38=1505|39=1|40=1|207=UBS|48=MASKED|22=MASKED|54=1|59=9|60=20180919-01:00:07.000|10=078|
09:00:07.004858 I FIXPUMP 		gateway3:[FIXRX] 8=FIXT.1.1|9=295|35=8|49=EXCHANGE|56=UBS|34=942|52=20180919-01:00:07.004|1128=9|11=27222|14=2064|17=hB0.kV./MX6|150=F|151=0|1093=2|453=1|448=BROKERID|447=D|452=17|37=2242049|38=1505|39=2|40=1|207=UBS|48=MASKED|22=MASKED|54=0|59=9|60=20180919-01:00:07.000|10=078|
09:00:05.320249 I gateway3			[EVT.onPendingReplace:06] [MAPTX] [RPL][order.RefId=9][order.OrderId=43326][clOrdId=27222] [seqNo=67175]
09:00:07.001122 I FIXPUMP		gateway3:[FIXTX] 8=FIXT.1.1|9=218|35=G|43=N|52=20180919-01:00:07.000|122=20180919-01:00:05.320|49=UBSACCOUNT|56=EXCHANGE|34=938|11=27222|38=1505|54=2|40=1|59=9|60=20180919-01:00:05.320|48=MASKED|22=8|453=1|448=BROKERID|447=D|452=1|207=XHKG|1812=1|1813=100|1814=1|10=220|
09:00:07.004858 I FIXPUMP 		gateway3:[FIXRX] 8=FIXT.1.1|9=229|35=8|49=EXCHANGE|56=UBSACCOUNT|34=942|52=20180919-01:00:07.004|1128=9|11=27222|14=0|17=hB0.kV./MX6|150=0|151=1505|1093=2|453=1|448=BROKERID|447=D|452=1|37=2242049|38=1505|39=5|40=1|207=XHKG|48=MASKED|22=8|54=2|59=9|60=20180919-01:00:07.000|10=078|
09:00:05.320249 I gateway3			[EVT.onPending:00] [MAPTX] [NEW][order.RefId=485][order.OrderId=33595][clOrdId=92257] [seqNo=938]
09:00:07.001122 I FIXPUMP		gateway3:[FIXTX] 8=FIXT.1.1|9=218|35=D|43=N|52=20180919-01:00:07.000|122=20180919-01:00:05.320|49=UBSACCOUNT|56=EXCHANGE|34=938|11=92257|38=9732|54=2|40=1|59=9|60=20180919-01:00:05.320|48=MASKED|22=8|453=1|448=BROKERID|447=D|452=1|207=XHKG|1812=1|1813=100|1814=1|10=220|
09:00:07.004858 I FIXPUMP 		gateway3:[FIXRX] 8=FIXT.1.1|9=229|35=8|49=EXCHANGE|56=UBSACCOUNT|34=942|52=20180919-01:00:07.004|1128=9|11=92257|14=0|17=hB0.kV./MX6|150=0|151=9732|1093=2|453=1|448=BROKERID|447=D|452=1|37=2242049|38=9732|39=0|40=1|207=XHKG|48=MASKED|22=8|54=2|59=9|60=20180919-01:00:07.000|10=078|
09:00:07.004858 I FIXPUMP 		gateway3:[FIXRX] 8=FIXT.1.1|9=295|35=8|49=EXCHANGE|56=UBS|34=942|52=20180919-01:00:07.004|1128=9|11=92257|14=4084|17=hB0.kV./MX6|150=F|151=5648|1093=2|453=1|448=BROKERID|447=D|452=17|37=2242049|38=9732|39=1|40=1|207=UBS|48=MASKED|22=MASKED|54=1|59=9|60=20180919-01:00:07.000|10=078|
09:00:07.004858 I FIXPUMP 		gateway3:[FIXRX] 8=FIXT.1.1|9=295|35=8|49=EXCHANGE|56=UBS|34=942|52=20180919-01:00:07.004|1128=9|11=92257|14=3448|17=hB0.kV./MX6|150=F|151=2200|1093=2|453=1|448=BROKERID|447=D|452=17|37=2242049|38=9732|39=1|40=1|207=UBS|48=MASKED|22=MASKED|54=1|59=9|60=20180919-01:00:07.000|10=078|
09:00:07.004858 I FIXPUMP 		gateway3:[FIXRX] 8=FIXT.1.1|9=295|35=8|49=EXCHANGE|56=UBS|34=942|52=20180919-01:00:07.004|1128=9|11=92257|14=2380|17=hB0.kV./MX6|150=F|151=0|1093=2|453=1|448=BROKERID|447=D|452=17|37=2242049|38=9732|39=2|40=1|207=UBS|48=MASKED|22=MASKED|54=0|59=9|60=20180919-01:00:07.000|10=078|
09:00:05.320249 I gateway3			[EVT.onPendingReplace:06] [MAPTX] [RPL][order.RefId=485][order.OrderId=33595][clOrdId=92257] [seqNo=67175]
09:00:07.001122 I FIXPUMP		gateway3:[FIXTX] 8=FIXT.1.1|9=218|35=G|43=N|52=20180919-01:00:07.000|122=20180919-01:00:05.320|49=UBSACCOUNT|56=EXCHANGE|34=938|11=92257|38=9732|54=2|40=1|59=9|60=20180919-01:00:05.320|48=MASKED|22=8|453=1|448=BROKERID|447=D|452=1|207=XHKG|1812=1|1813=100|1814=1|10=220|
09:00:07.004858 I FIXPUMP 		gateway3:[FIXRX] 8=FIXT.1.1|9=229|35=8|49=EXCHANGE|56=UBSACCOUNT|34=942|52=20180919-01:00:07.004|1128=9|11=92257|14=0|17=hB0.kV./MX6|150=0|151=9732|1093=2|453=1|448=BROKERID|447=D|452=1|37=2242049|38=9732|39=5|40=1|207=XHKG|48=MASKED|22=8|54=2|59=9|60=20180919-01:00:07.000|10=078|
09:00:05.320249 I gateway3			[EVT.onPending:00] [MAPTX] [NEW][order.RefId=905][order.OrderId=27343][clOrdId=67161] [seqNo=938]
09:00:07.001122 I FIXPUMP		gateway3:[FIXTX] 8=FIXT.1.1|9=218|35=D|43=N|52=20180919-01:00:07.000|122=20180919-01:00:05.320|49=UBSACCOUNT|56=EXCHANGE|34=938|11=67161|38=4796|54=2|40=1|59=9|60=20180919-01:00:05.320|48=MASKED|22=8|453=1|448=BROKERID|447=D|452=1|207=XHKG|1812=1|1813=100|1814=1|10=220|
09:00:07.004858 I FIXPUMP 		gateway3:[FIXRX] 8=FIXT.1.1|9=229|35=8|49=EXCHANGE|56=UBSACCOUNT|34=942|52=20180919-01:00:07.004|1128=9|11=67161|14=0|17=hB0.kV./MX6|150=0|151=4796|1093=2|453=1|448=BROKERID|447=D|452=1|37=2242049|38=4796|39=0|40=1|207=XHKG|48=MASKED|22=8|54=2|59=9|60=20180919-01:00:07.000|10=078|
09:00:07.004858 I FIXPUMP 		gateway3:[FIXRX] 8=FIXT.1.1|9=295|35=8|49=EXCHANGE|56=UBS|34=942|52=20180919-01:00:07.004|1128=9|11=67161|14=822|17=hB0.kV./MX6|150=F|151=3974|1093=2|453=1|448=BROKERID|447=D|452=17|37=2242049|38=4796|39=1|40=1|207=UBS|48=MASKED|22=MASKED|54=1|59=9|60=20180919-01:00:07.000|10=078|
09:00:07.004858 I FIXPUMP 		gateway3:[FIXRX] 8=FIXT.1.1|9=295|35=8|49=EXCHANGE|56=UBS|34=942|52=20180919-01:00:07.004|1128=9|11=67161|14=4429|17=hB0.kV./MX6|150=F|151=0|1093=2|453=1|448=BROKERID|447=D|452=17|37=2242049|38=4796|39=2|40=1|207=UBS|48=MASKED|22=MASKED|54=0|59=9|60=20180919-01:00:07.000|10=078|
09:00:05.320249 I gateway3			[EVT.onPendingReplace:06] [MAPTX] [RPL][order.RefId=905][order.OrderId=27343][clOrdId=67161] [seqNo=67175]
09:00:07.001122 I FIXPUMP		gateway3:[FIXTX] 8=FIXT.1.1|9=218|35=G|43=N|52=20180919-01:00:07.000|122=20180919-01:00:05.320|49=UBSACCOUNT|56=EXCHANGE|34=938|11=67161|38=4796|54=2|40=1|59=9|60=20180919-01:00:05.320|48=MASKED|22=8|453=1|448=BROKERID|447=D|452=1|207=XHKG|1812=1|1813=100|1814=1|10=220|
09:00:07.004858 I FIXPUMP 		gateway3:[FIXRX] 8=FIXT.1.1|9=229|35=8|49=EXCHANGE|56=UBSACCOUNT|34=942|52=20180919-01:00:07.004|1128=9|11=67161|14=0|17=hB0.kV./MX6|150=0|151=4796|1093=2|453=1|448=BROKERID|447=D|452=1|37=2242049|38=4796|39=5|40=1|207=XHKG|48=MASKED|22=8|54=2|59=9|60=20180919-01:00:07.000|10=078|
09:00:05.320249 I gateway3			[EVT.onPending:00] [MAPTX] [NEW][order.RefId=192][order.OrderId=51080][clOrdId=31027] [seqNo=938]
09:00:07.001122 I FIXPUMP		gateway3:[FIXTX] 8=FIXT.1.1|9=218|35=D|43=N|52=20180919-01:00:07.000|122=20180919-01:00:05.320|49=UBSACCOUNT|56=EXCHANGE|34=938|11=31027|38=4638|54=2|40=1|59=9|60=20180919-01:00:05.320|48=MASKED|22=8|453=1|448=BROKERID|447=D|452=1|207=XHKG|1812=1|1813=100|1814=1|10=220|
09:00:07.004858 I FIXPUMP 		gateway3:[FIXRX] 8=FIXT.1.1|9=229|35=8|49=EXCHANGE|56=UBSACCOUNT|34=942|52=20180919-01:00:07.004|1128=9|11=31027|14=0|17=hB0.kV./MX6|150=0|151=4638|1093=2|453=1|448=BROKERID|447=D|452=1|37=2242049|38=4638|39=0|40=1|207=XHKG|48=MASKED|22=8|54=2|59=9|60=20180919-01:00:07.000|10=078|
09:00:07.004858 I FIXPUMP 		gateway3:[FIXRX] 8=FIXT.1.1|9=295|35=8|49=EXCHANGE|56=UBS|34=942|52=20180919-01:00:07.004|1128=9|11=31027|14=4351|17=hB0.kV./MX6|150=F|151=287|1093=2|453=1|448=BROKERID|447=D|452=17|37=2242049|38=4638|39=1|40=1|207=UBS|48=MASKED|22=MASKED|54=1|59=9|60=20180919-01:00:07.000|10=078|
09:00:07.004858 I FIXPUMP 		gateway3:[FIXRX] 8=FIXT.1.1|9=295|35=8|49=EXCHANGE|56=UBS|34=942|52=20180919-01:00:07.004|1128=9|11=31027|14=1845|17=hB0.kV./MX6|150=F|151=0|1093=2|453=1|448=BROKERID|447=D|452=17|37=2242049|38=4638|39=2|40=1|207=UBS|48=MASKED|22=MASKED|54=0|59=9|60=20180919-01:00:07.000|10=078|
09:00:05.320249 I gateway3			[EVT.onPendingReplace:06] [MAPTX] [RPL][order.RefId=192][order.OrderId=51080][clOrdId=31027] [seqNo=67175]
09:00:07.001122 I FIXPUMP		gateway3:[FIXTX] 8=FIXT.1.1|9=218|35=G|43=N|52=20180919-01:00:07.000|122=20180919-01:00:05.320|49=UBSACCOUNT|56=EXCHANGE|34=938|11=31027|38=4638|54=2|40=1|59=9|60=20180919-01:00:05.320|48=MASKED|22=8|453=1|448=BROKERID|447=D|452=1|207=XHKG|1812=1|1813=100|1814=1|10=220|
09:00:07.004858 I FIXPUMP 		gateway3:[FIXRX] 8=FIXT.1.1|9=229|35=8|49=EXCHANGE|56=UBSACCOUNT|34=942|52=20180919-01:00:07.004|1128=9|11=31027|14=0|17=hB0.kV./MX6|150=0|151=4638|1093=2|453=1|448=BROKERID|447=D|452=1|37=2242049|38=4638|39=5|40=1|207=XHKG|48=MASKED|22=8|54=2|59=9|60=20180919-01:00:07.000|10=078|
09:00:05.320249 I gateway3			[EVT.onPending:00] [MAPTX] [NEW][order.RefId=966][order.OrderId=13586][clOrdId=4417] [seqNo=938]
09:00:07.001122 I FIXPUMP		gateway3:[FIXTX] 8=FIXT.1.1|9=218|35=D|43=N|52=20180919-01:00:07.000|122=20180919-01:00:05.320|49=UBSACCOUNT|56=EXCHANGE|34=938|11=4417|38=3353|54=2|40=1|59=9|60=20180919-01:00:05.320|48=MASKED|22=8|453=1|448=BROKERID|447=D|452=1|207=XHKG|1812=1|1813=100|1814=1|10=220|
09:00:07.004858 I FIXPUMP 		gateway3:[FIXRX] 8=FIXT.1.1|9=229|35=8|49=EXCHANGE|56=UBSACCOUNT|34=942|52=20180919-01:00:07.004|1128=9|11=4417|14=0|17=hB0.kV./MX6|150=0|151=3353|1093=2|453=1|448=BROKERID|447=D|452=1|37=2242049|38=3353|39=0|40=1|207=XHKG|48=MASKED|22=8|54=2|59=9|60=20180919-01:00:07.000|10=078|
09:00:07.004858 I FIXPUMP 		gateway3:[FIXRX] 8=FIXT.1.1|9=295|35=8|49=EXCHANGE|56=UBS|34=942|52=20180919-01:00:07.004|1128=9|11=4417|14=172|17=hB0.kV./MX6|150=F|151=3181|1093=2|453=1|448=BROKERID|447=D|452=17|37=2242049|38=3353|39=1|40=1|207=UBS|48=MASKED|22=MASKED|54=1|59=9|60=20180919-01:00:07.000|10=078|
09:00:07.004858 I FIXPUMP 		gateway3:[FIXRX] 8=FIXT.1.1|9=295|35=8|49=EXCHANGE|56=UBS|34=942|52=20180919-01:00:07.004|1128=9|11=4417|14=3148|17=hB0.kV./MX6|150=F|151=33|1093=2|453=1|448=BROKERID|447=D|452=17|37=2242049|38=3353|39=1|40=1|207=UBS|48=MASKED|22=MASKED|54=1|59=9|60=20180919-01:00:07.000|10=078|
09:00:07.004858 I FIXPUMP 		gateway3:[FIXRX] 8=FIXT.1.1|9=295|35=8|49=EXCHANGE|56=UBS|34=942|52=20180919-01:00:07.004|1128=9|11=4417|14=3236|17=hB0.kV./MX6|150=F|151=0|1093=2|453=1|448=BROKERID|447=D|452=17|37=2242049|38=3353|39=2|40=1|207=UBS|48=MASKED|22=MASKED|54=0|59=9|60=20180919-01:00:07.000|10=078|
09:00:05.320249 I gateway3			[EVT.onPendingReplace:06] [MAPTX] [RPL][order.RefId=966][order.OrderId=13586][clOrdId=4417] [seqNo=67175]
09:00:07.001122 I FIXPUMP		gateway3:[FIXTX] 8=FIXT.1.1|9=218|35=G|43=N|52=20180919-01:00:07.000|122=20180919-01:00:05.320|49=UBSACCOUNT|56=EXCHANGE|34=938|11=4417|38=3353|54=2|40=1|59=9|60=20180919-01:00:05.320|48=MASKED|22=8|453=1|448=BROKERID|447=D|452=1|207=XHKG|1812=1|1813=100|1814=1|10=220|
09:00:07.004858 I FIXPUMP 		gateway3:[FIXRX] 8=FIXT.1.1|9=229|35=8|49=EXCHANGE|56=UBSACCOUNT|34=942|52=20180919-01:00:07.004|1128=9|11=4417|14=0|17=hB0.kV./MX6|150=0|151=3353|1093=2|453=1|448=BROKERID|447=D|452=1|37=2242049|38=3353|39=5|40=1|207=XHKG|48=MASKED|22=8|54=2|59=9|60=20180919-01:00:07.000|10=078|
09:00:05.320249 I gateway3			[EVT.onPending:00] [MAPTX] [NEW][order.RefId=644][order.OrderId=65126][clOrdId=58010] [seqNo=938]
09:00:07.001122 I FIXPUMP		gateway3:[FIXTX] 8=FIXT.1.1|9=218|35=D|43=N|52=20180919-01:00:07.000|122=20180919-01:00:05.320|49=UBSACCOUNT|56=EXCHANGE|34=938|11=58010|38=1579|54=2|40=1|59=9|60=20180919-01:00:05.320|48=MASKED|22=8|453=1|448=BROKERID|447=D|452=1|207=XHKG|1812=1|1813=100|1814=1|10=220|
09:00:07.004858 I FIXPUMP 		gateway3:[FIXRX] 8=FIXT.1.1|9=229|35=8|49=EXCHANGE|56=UBSACCOUNT|34=942|52=20180919-01:00:07.004|1128=9|11=58010|14=0|17=hB0.kV./MX6|150=0|151=1579|1093=2|453=1|448=BROKERID|447=D|452=1|37=2242049|38=1579|39=0|40=1|207=XHKG|48=MASKED|22=8|54=2|59=9|60=20180919-01:00:07.000|10=078|
09:00:07.004858 I FIXPUMP 		gateway3:[FIXRX] 8=FIXT.1.1|9=295|35=8|49=EXCHANGE|56=UBS|34=942|52=20180919-01:00:07.004|1128=9|11=58010|14=1514|17=hB0.kV./MX6|150=F|151=65|1093=2|453=1|448=BROKERID|447=D|452=17|37=2242049|38=1579|39=1|40=1|207=UBS|48=MASKED|22=MASKED|54=1|59=9|60=20180919-01:00:07.000|10=078|
09:00:07.004858 I FIXPUMP 		gateway3:[FIXRX] 8=FIXT.1.1|9=295|35=8|49=EXCHANGE|56=UBS|34=942|52=20180919-01:00:07.004|1128=9|11=58010|14=3192|17=hB0.kV./MX6|150=F|151=0|1093=2|453=1|448=BROKERID|447=D|452=17|37=2242049|38=1579|39=2|40=1|207=UBS|48=MASKED|22=MASKED|54=0|59=9|60=20180919-01:00:07.000|10=078|
09:00:05.320249 I gateway3			[EVT.onPendingReplace:06] [MAPTX] [RPL][order.RefId=644][order.OrderId=65126][clOrdId=58010] [seqNo=67175]
09:00:07.001122 I FIXPUMP		gateway3:[FIXTX] 8=FIXT.1.1|9=218|35=G|43=N|52=20180919-01:00:07.000|122=20180919-01:00:05.320|49=UBSACCOUNT|56=EXCHANGE|34=938|11=58010|38=1579|54=2|40=1|59=9|60=20180919-01:00:05.320|48=MASKED|22=8|453=1|448=BROKERID|447=D|452=1|207=XHKG|1812=1|1813=100|1814=1|10=220|
09:00:07.004858 I FIXPUMP 		gateway3:[FIXRX] 8=FIXT.1.1|9=229|35=8|49=EXCHANGE|56=UBSACCOUNT|34=942|52=20180919-01:00:07.004|1128=9|11=58010|14=0|17=hB0.kV./MX6|150=0|151=1579|1093=2|453=1|448=BROKERID|447=D|452=1|37=2242049|38=1579|39=5|40=1|207=XHKG|48=MASKED|22=8|54=2|59=9|60=20180919-01:00:07.000|10=078|
09:00:05.320249 I gateway3			[EVT.onPending:00] [MAPTX] [NEW][order.RefId=433][order.OrderId=85456][clOrdId=27700] [seqNo=938]
09:00:07.001122 I FIXPUMP		gateway3:[FIXTX] 8=FIXT.1.1|9=218|35=D|43=N|52=20180919-01:00:07.000|122=20180919-01:00:05.320|49=UBSACCOUNT|56=EXCHANGE|34=938|11=27700|38=9296|54=2|40=1|59=9|60=20180919-01:00:05.320|48=MASKED|22=8|453=1|448=BROKERID|447=D|452=1|207=XHKG|1812=1|1813=100|1814=1|10=220|
09:00:07.004858 I FIXPUMP 		gateway3:[FIXRX] 8=FIXT.1.1|9=229|35=8|49=EXCHANGE|56=UBSACCOUNT|34=942|52=20180919-01:00:07.004|1128=9|11=27700|14=0|17=hB0.kV./MX6|150=0|151=9296|1093=2|453=1|448=BROKERID|447=D|452=1|37=2242049|38=9296|39=0|40=1|207=XHKG|48=MASKED|22=8|54=2|59=9|60=20180919-01:00:07.000|10=078|
09:00:07.004858 I FIXPUMP 		gateway3:[FIXRX] 8=FIXT.1.1|9=295|35=8|49=EXCHANGE|56=UBS|34=942|52=20180919-01:00:07.004|1128=9|11=27700|14=696|17=hB0.kV./MX6|150=F|151=8600|1093=2|453=1|448=BROKERID|447=D|452=17|37=2242049|38=9296|39=1|40=1|207=UBS|48=MASKED|22=MASKED|54=1|59=9|60=20180919-01:00:07.000|10=078|
09:00:07.004858 I FIXPUMP 		gateway3:[FIXRX] 8=FIXT.1.1|9=295|35=8|49=EXCHANGE|56=UBS|34=942|52=20180919-01:00:07.004|1128=9|11=27700|14=429|17=hB0.kV./MX6|150=F|151=8171|1093=2|453=1|448=BROKERID|447=D|452=17|37=2242049|38=9296|39=1|40=1|207=UBS|48=MASKED|22=MASKED|54=1|59=9|60=20180919-01:00:07.000|10=078|
09:00:07.004858 I FIXPUMP 		gateway3:[FIXRX] 8=FIXT.1.1|9=295|35=8|49=EXCHANGE|56=UBS|34=942|52=20180919-01:00:07.004|1128=9|11=27700|14=1756|17=hB0.kV./MX6|150=F|151=6415|1093=2|453=1|448=BROKERID|447=D|452=17|37=2242049|38=9296|39=1|40=1|207=UBS|48=MASKED|22=MASKED|54=1|59=9|60=20180919-01:00:07.000|10=078|
09:00:07.004858 I FIXPUMP 		gateway3:[FIXRX] 8=FIXT.1.1|9=295|35=8|49=EXCHANGE|56=UBS|34=942|52=20180919-01:00:07.004|1128=9|11=27700|14=447|17=hB0.kV./MX6|150=F|151=5968|1093=2|453=1|448=BROKERID|447=D|452=17|37=2242049|38=9296|39=1|40=1|207=UBS|48=MASKED|22=MASKED|54=1|59=9|60=20180919-01:00:07.000|10=078|
09:00:07.004858 I FIXPUMP 		gateway3:[FIXRX] 8=FIXT.1.1|9=295|35=8|49=EXCHANGE|56=UBS|34=942|52=20180919-01:00:07.004|1128=9|11=27700|14=3674|17=hB0.kV./MX6|150=F|151=2294|1093=2|453=1|448=BROKERID|447=D|452=17|37=2242049|38=9296|39=1|40=1|207=UBS|48=MASKED|22=MASKED|54=1|59=9|60=20180919-01:00:07.000|10=078|
09:00:07.004858 I FIXPUMP 		gateway3:[FIXRX] 8=FIXT.1.1|9=295|35=8|49=EXCHANGE|56=UBS|34=942|52=20180919-01:00:07.004|1128=9|11=27700|14=3660|17=hB0.kV./MX6|150=F|151=0|1093=2|453=1|448=BROKERID|447=D|452=17|37=2242049|38=9296|39=2|40=1|207=UBS|48=MASKED|22=MASKED|54=0|59=9|60=20180919-01:00:07.000|10=078|
09:00:05.320249 I gateway3			[EVT.onPendingReplace:06] [MAPTX] [RPL][order.RefId=433][order.OrderId=85456][clOrdId=27700] [seqNo=67175]
09:00:07.001122 I FIXPUMP		gateway3:[FIXTX] 8=FIXT.1.1|9=218|35=G|43=N|52=20180919-01:00:07.000|122=20180919-01:00:05.320|49=UBSACCOUNT|56=EXCHANGE|34=938|11=27700|38=9296|54=2|40=1|59=9|60=20180919-01:00:05.320|48=MASKED|22=8|453=1|448=BROKERID|447=D|452=1|207=XHKG|1812=1|1813=100|1814=1|10=220|
09:00:07.004858 I FIXPUMP 		gateway3:[FIXRX] 8=FIXT.1.1|9=229|35=8|49=EXCHANGE|56=UBSACCOUNT|34=942|52=20180919-01:00:07.004|1128=9|11=27700|14=0|17=hB0.kV./MX6|150=0|151=9296|1093=2|453=1|448=BROKERID|447=D|452=1|37=2242049|38=9296|39=5|40=1|207=XHKG|48=MASKED|22=8|54=2|59=9|60=20180919-01:00:07.000|10=078|
09:00:05.320249 I gateway3			[EVT.onPending:00] [MAPTX] [NEW][order.RefId=851][order.OrderId=91400][clOrdId=39733] [seqNo=938]
09:00:07.001122 I FIXPUMP		gateway3:[FIXTX] 8=FIXT.1.1|9=218|35=D|43=N|52=20180919-01:00:07.000|122=20180919-01:00:05.320|49=UBSACCOUNT|56=EXCHANGE|34=938|11=39733|38=9227|54=2|40=1|59=9|60=20180919-01:00:05.320|48=MASKED|22=8|453=1|448=BROKERID|447=D|452=1|207=XHKG|1812=1|1813=100|1814=1|10=220|
09:00:07.004858 I FIXPUMP 		gateway3:[FIXRX] 8=FIXT.1.1|9=229|35=8|49=EXCHANGE|56=UBSACCOUNT|34=942|52=20180919-01:00:07.004|1128=9|11=39733|14=0|17=hB0.kV./MX6|150=0|151=9227|1093=2|453=1|448=BROKERID|447=D|452=1|37=2242049|38=9227|39=0|40=1|207=XHKG|48=MASKED|22=8|54=2|59=9|60=20180919-01:00:07.000|10=078|
09:00:07.004858 I FIXPUMP 		gateway3:[FIXRX] 8=FIXT.1.1|9=295|35=8|49=EXCHANGE|56=UBS|34=942|52=20180919-01:00:07.004|1128=9|11=39733|14=1242|17=hB0.kV./MX6|150=F|151=7985|1093=2|453=1|448=BROKERID|447=D|452=17|37=2242049|38=9227|39=1|40=1|207=UBS|48=MASKED|22=MASKED|54=1|59=9|60=20180919-01:00:07.000|10=078|
09:00:07.004858 I FIXPUMP 		gateway3:[FIXRX] 8=FIXT.1.1|9=295|35=8|49=EXCHANGE|56=UBS|34=942|52=20180919-01:00:07.004|1128=9|11=39733|14=3561|17=hB0.kV./MX6|150=F|151=4424|1093=2|453=1|448=BROKERID|447=D|452=17|37=2242049|38=9227|39=1|40=1|207=UBS|48=MASKED|22=MASKED|54=1|59=9|60=20180919-01:00:07.000|10=078|
09:00:07.004858 I FIXPUMP 		gateway3:[FIXRX] 8=FIXT.1.1|9=295|35=8|49=EXCHANGE|56=UBS|34=942|52=20180919-01:00:07.004|1128=9|11=39733|14=4126|17=hB0.kV./MX6|150=F|151=298|1093=2|453=1|448=BROKERID|447=D|452=17|37=2242049|38=9227|39=1|40=1|207=UBS|48=MASKED|22=MASKED|54=1|59=9|60=20180919-01:00:07.000|10=078|
09:00:07.004858 I FIXPUMP 		gateway3:[FIXRX] 8=FIXT.1.1|9=295|35=8|49=EXCHANGE|56=UBS|34=942|52=20180919-01:00:07.004|1128=9|11=39733|14=1738|17=hB0.kV./MX6|150=F|151=0|1093=2|453=1|448=BROKERID|447=D|452=17|37=2242049|38=9227|39=2|40=1|207=UBS|48=MASKED|22=MASKED|54=0|59=9|60=20180919-01:00:07.000|10=078|
09:00:05.320249 I gateway3			[EVT.onPendingReplace:06] [MAPTX] [RPL][order.RefId=851][order.OrderId=91400][clOrdId=39733] [seqNo=67175]
09:00:07.001122 I FIXPUMP		gateway3:[FIXTX] 8=FIXT.1.1|9=218|35=G|43=N|52=20180919-01:00:07.000|122=20180919-01:00:05.320|49=UBSACCOUNT|56=EXCHANGE|34=938|11=39733|38=9227|54=2|40=1|59=9|60=20180919-01:00:05.320|48=MASKED|22=8|453=1|448=BROKERID|447=D|452=1|207=XHKG|1812=1|1813=100|1814=1|10=220|
09:00:07.004858 I FIXPUMP 		gateway3:[FIXRX] 8=FIXT.1.1|9=229|35=8|49=EXCHANGE|56=UBSACCOUNT|34=942|52=20180919-01:00:07.004|1128=9|11=39733|14=0|17=hB0.kV./MX6|150=0|151=9227|1093=2|453=1|448=BROKERID|447=D|452=1|37=2242049|38=9227|39=5|40=1|207=XHKG|48=MASKED|22=8|54=2|59=9|60=20180919-01:00:07.000|10=078|
09:00:05.320249 I gateway3			[EVT.onPending:00] [MAPTX] [NEW][order.RefId=774][order.OrderId=91169][clOrdId=88863] [seqNo=938]
09:00:07.001122 I FIXPUMP		gateway3:[FIXTX] 8=FIXT.1.1|9=218|35=D|43=N|52=20180919-01:00:07.000|122=20180919-01:00:05.320|49=UBSACCOUNT|56=EXCHANGE|34=938|11=88863|38=4963|54=2|40=1|59=9|60=20180919-01:00:05.320|48=MASKED|22=8|453=1|448=BROKERID|447=D|452=1|207=XHKG|1812=1|1813=100|1814=1|10=220|
09:00:07.004858 I FIXPUMP 		gateway3:[FIXRX] 8=FIXT.1.1|9=229|35=8|49=EXCHANGE|56=UBSACCOUNT|34=942|52=20180919-01:00:07.004|1128=9|11=88863|14=0|17=hB0.kV./MX6|150=0|151=4963|1093=2|453=1|448=BROKERID|447=D|452=1|37=2242049|38=4963|39=0|40=1|207=XHKG|48=MASKED|22=8|54=2|59=9|60=20180919-01:00:07.000|10=078|
09:00:07.004858 I FIXPUMP 		gateway3:[FIXRX] 8=FIXT.1.1|9=295|35=8|49=EXCHANGE|56=UBS|34=942|52=20180919-01:00:07.004|1128=9|11=88863|14=1366|17=hB0.kV./MX6|150=F|151=3597|1093=2|453=1|448=BROKERID|447=D|452=17|37=2242049|38=4963|39=1|40=1|207=UBS|48=MASKED|22=MASKED|54=1|59=9|60=20180919-01:00:07.000|10=078|
09:00:07.004858 I FIXPUMP 		gateway3:[FIXRX] 8=FIXT.1.1|9=295|35=8|49=EXCHANGE|56=UBS|34=942|52=20180919-01:00:07.004|1128=9|11=88863|14=3548|17=hB0.kV./MX6|150=F|151=49|1093=2|453=1|448=BROKERID|447=D|452=17|37=2242049|38=4963|39=1|40=1|207=UBS|48=MASKED|22=MASKED|54=1|59=9|60=20180919-01:00:07.000|10=078|
09:00:07.004858 I FIXPUMP 		gateway3:[FIXRX] 8=FIXT.1.1|9=295|35=8|49=EXCHANGE|56=UBS|34=942|52=20180919-01:00:07.004|1128=9|11=88863|14=669|17=hB0.kV./MX6|150=F|151=0|1093=2|453=1|448=BROKERID|447=D|452=17|37=2242049|38=4963|39=2|40=1|207=UBS|48=MASKED|22=MASKED|54=0|59=9|60=20180919-01:00:07.000|10=078|
09:00:05.320249 I gateway3			[EVT.onPendingReplace:06] [MAPTX] [RPL][order.RefId=774][order.OrderId=91169][clOrdId=88863] [seqNo=67175]
09:00:07.001122 I FIXPUMP		gateway3:[FIXTX] 8=FIXT.1.1|9=218|35=G|43=N|52=20180919-01:00:07.000|122=20180919-01:00:05.320|49=UBSACCOUNT|56=EXCHANGE|34=938|11=88863|38=4963|54=2|40=1|59=9|60=20180919-01:00:05.320|48=MASKED|22=8|453=1|448=BROKERID|447=D|452=1|207=XHKG|1812=1|1813=100|1814=1|10=220|
09:00:07.004858 I FIXPUMP 		gateway3:[FIXRX] 8=FIXT.1.1|9=229|35=8|49=EXCHANGE|56=UBSACCOUNT|34=942|52=20180919-01:00:07.004|1128=9|11=88863|14=0|17=hB0.kV./MX6|150=0|151=4963|1093=2|453=1|448=BROKERID|447=D|452=1|37=2242049|38=4963|39=5|40=1|207=XHKG|48=MASKED|22=8|54=2|59=9|60=20180919-01:00:07.000|10=078|
09:00:05.320249 I gateway3			[EVT.onPending:00] [MAPTX] [NEW][order.RefId=962][order.OrderId=58935][clOrdId=43757] [seqNo=938]
09:00:07.001122 I FIXPUMP		gateway3:[FIXTX] 8=FIXT.1.1|9=218|35=D|43=N|52=20180919-01:00:07.000|122=20180919-01:00:05.320|49=UBSACCOUNT|56=EXCHANGE|34=938|11=43757|38=5380|54=2|40=1|59=9|60=20180919-01:00:05.320|48=MASKED|22=8|453=1|448=BROKERID|447=D|452=1|207=XHKG|1812=1|1813=100|1814=1|10=220|
09:00:07.004858 I FIXPUMP 		gateway3:[FIXRX] 8=FIXT.1.1|9=229|35=8|49=EXCHANGE|56=UBSACCOUNT|34=942|52=20180919-01:00:07.004|1128=9|11=43757|14=0|17=hB0.kV./MX6|150=0|151=5380|1093=2|453=1|448=BROKERID|447=D|452=1|37=2242049|38=5380|39=0|40=1|207=XHKG|48=MASKED|22=8|54=2|59=9|60=20180919-01:00:07.000|10=078|
09:00:07.004858 I FIXPUMP 		gateway3:[FIXRX] 8=FIXT.1.1|9=295|35=8|49=EXCHANGE|56=UBS|34=942|52=20180919-01:00:07.004|1128=9|11=43757|14=3241|17=hB0.kV./MX6|150=F|151=2139|1093=2|453=1|448=BROKERID|447=D|452=17|37=2242049|38=5380|39=1|40=1|207=UBS|48=MASKED|22=MASKED|54=1|59=9|60=20180919-01:00:07.000|10=078|
09:00:07.004858 I FIXPUMP 		gateway3:[FIXRX] 8=FIXT.1.1|9=295|35=8|49=EXCHANGE|56=UBS|34=942|52=20180919-01:00:07.004|1128=9|11=43757|14=1291|17=hB0.kV./MX6|150=F|151=848|1093=2|453=1|448=BROKERID|447=D|452=17|37=2242049|38=5380|39=1|40=1|207=UBS|48=MASKED|22=MASKED|54=1|59=9|60=20180919-01:00:07.000|10=078|
09:00:07.004858 I FIXPUMP 		gateway3:[FIXRX] 8=FIXT.1.1|9=295|35=8|49=EXCHANGE|56=UBS|34=942|52=20180919-01:00:07.004|1128=9|11=43757|14=4185|17=hB0.kV./MX6|150=F|151=0|1093=2|453=1|448=BROKERID|447=D|452=17|37=2242049|38=5380|39=2|40=1|207=UBS|48=MASKED|22=MASKED|54=0|59=9|60=20180919-01:00:07.000|10=078|
09:00:05.320249 I gateway3			[EVT.onPendingReplace:06] [MAPTX] [RPL][order.RefId=962][order.OrderId=58935][clOrdId=43757] [seqNo=67175]
09:00:07.001122 I FIXPUMP		gateway3:[FIXTX] 8=FIXT.1.1|9=218|35=G|43=N|52=20180919-01:00:07.000|122=20180919-01:00:05.320|49=UBSACCOUNT|56=EXCHANGE|34=938|11=43757|38=5380|54=2|40=1|59=9|60=20180919-01:00:05.320|48=MASKED|22=8|453=1|448=BROKERID|447=D|452=1|207=XHKG|1812=1|1813=100|1814=1|10=220|
09:00:07.004858 I FIXPUMP 		gateway3:[FIXRX] 8=FIXT.1.1|9=229|35=8|49=EXCHANGE|56=UBSACCOUNT|34=942|52=20180919-01:00:07.004|1128=9|11=43757|14=0|17=hB0.kV./MX6|150=0|151=5380|1093=2|453=1|448=BROKERID|447=D|452=1|37=2242049|38=5380|39=5|40=1|207=XHKG|48=MASKED|22=8|54=2|59=9|60=20180919-01:00:07.000|10=078|
09:00:05.320249 I gateway3			[EVT.onPending:00] [MAPTX] [NEW][order.RefId=107][order.OrderId=10449][clOrdId=6867] [seqNo=938]
09:00:07.001122 I FIXPUMP		gateway3:[FIXTX] 8=FIXT.1.1|9=218|35=D|43=N|52=20180919-01:00:07.000|122=20180919-01:00:05.320|49=UBSACCOUNT|56=EXCHANGE|34=938|11=6867|38=7847|54=2|40=1|59=9|60=20180919-01:00:05.320|48=MASKED|22=8|453=1|448=BROKERID|447=D|452=1|207=XHKG|1812=1|1813=100|1814=1|10=220|
09:00:07.004858 I FIXPUMP 		gateway3:[FIXRX] 8=FIXT.1.1|9=229|35=8|49=EXCHANGE|56=UBSACCOUNT|34=942|52=20180919-01:00:07.004|1128=9|11=6867|14=0|17=hB0.kV./MX6|150=0|151=7847|1093=2|453=1|448=BROKERID|447=D|452=1|37=2242049|38=7847|39=0|40=1|207=XHKG|48=MASKED|22=8|54=2|59=9|60=20180919-01:00:07.000|10=078|
09:00:07.004858 I FIXPUMP 		gateway3:[FIXRX] 8=FIXT.1.1|9=295|35=8|49=EXCHANGE|56=UBS|34=942|52=20180919-01:00:07.004|1128=9|11=6867|14=2477|17=hB0.kV./MX6|150=F|151=5370|1093=2|453=1|448=BROKERID|447=D|452=17|37=2242049|38=7847|39=1|40=1|207=UBS|48=MASKED|22=MASKED|54=1|59=9|60=20180919-01:00:07.000|10=078|
09:00:07.004858 I FIXPUMP 		gateway3:[FIXRX] 8=FIXT.1.1|9=295|35=8|49=EXCHANGE|56=UBS|34=942|52=20180919-01:00:07.004|1128=9|11=6867|14=3258|17=hB0.kV./MX6|150=F|151=2112|1093=2|453=1|448=BROKERID|447=D|452=17|37=2242049|38=7847|39=1|40=1|207=UBS|48=MASKED|22=MASKED|54=1|59=9|60=20180919-01:00:07.000|10=078|
09:00:07.004858 I FIXPUMP 		gateway3:[FIXRX] 8=FIXT.1.1|9=295|35=8|49=EXCHANGE|56=UBS|34=942|52=20180919-01:00:07.004|1128=9|11=6867|14=3944|17=hB0.kV./MX6|150=F|151=0|1093=2|453=1|448=BROKERID|447=D|452=17|37=2242049|38=7847|39=2|40=1|207=UBS|48=MASKED|22=MASKED|54=0|59=9|60=20180919-01:00:07.000|10=078|
09:00:05.320249 I gateway3			[EVT.onPendingReplace:06] [MAPTX] [RPL][order.RefId=107][order.OrderId=10449][clOrdId=6867] [seqNo=67175]
09:00:07.001122 I FIXPUMP		gateway3:[FIXTX] 8=FIXT.1.1|9=218|35=G|43=N|52=20180919-01:00:07.000|122=20180919-01:00:05.320|49=UBSACCOUNT|56=EXCHANGE|34=938|11=6867|38=7847|54=2|40=1|59=9|60=20180919-01:00:05.320|48=MASKED|22=8|453=1|448=BROKERID|447=D|452=1|207=XHKG|1812=1|1813=100|1814=1|10=220|
09:00:07.004858 I FIXPUMP 		gateway3:[FIXRX] 8=FIXT.1.1|9=229|35=8|49=EXCHANGE|56=UBSACCOUNT|34=942|52=20180919-01:00:07.004|1128=9|11=6867|14=0|17=hB0.kV./MX6|150=0|151=7847|1093=2|453=1|448=BROKERID|447=D|452=1|37=2242049|38=7847|39=5|40=1|207=XHKG|48=MASKED|22=8|54=2|59=9|60=20180919-01:00:07.000|10=078|
09:00:05.320249 I gateway3			[EVT.onPending:00] [MAPTX] [NEW][order.RefId=429][order.OrderId=66055][clOrdId=86798] [seqNo=938]
09:00:07.001122 I FIXPUMP		gateway3:[FIXTX] 8=FIXT.1.1|9=218|35=D|43=N|52=20180919-01:00:07.000|122=20180919-01:00:05.320|49=UBSACCOUNT|56=EXCHANGE|34=938|11=86798|38=3887|54=2|40=1|59=9|60=20180919-01:00:05.320|48=MASKED|22=8|453=1|448=BROKERID|447=D|452=1|207=XHKG|1812=1|1813=100|1814=1|10=220|
09:00:07.004858 I FIXPUMP 		gateway3:[FIXRX] 8=FIXT.1.1|9=229|35=8|49=EXCHANGE|56=UBSACCOUNT|34=942|52=20180919-01:00:07.004|1128=9|11=86798|14=0|17=hB0.kV./MX6|150=0|151=3887|1093=2|453=1|448=BROKERID|447=D|452=1|37=2242049|38=3887|39=0|40=1|207=XHKG|48=MASKED|22=8|54=2|59=9|60=20180919-01:00:07.000|10=078|
09:00:07.004858 I FIXPUMP 		gateway3:[FIXRX] 8=FIXT.1.1|9=295|35=8|49=EXCHANGE|56=UBS|34=942|52=20180919-01:00:07.004|1128=9|11=86798|14=2611|17=hB0.kV./MX6|150=F|151=1276|1093=2|453=1|448=BROKERID|447=D|452=17|37=2242049|38=3887|39=1|40=1|207=UBS|48=MASKED|22=MASKED|54=1|59=9|60=20180919-01:00:07.000|10=078|
09:00:07.004858 I FIXPUMP 		gateway3:[FIXRX] 8=FIXT.1.1|9=295|35=8|49=EXCHANGE|56=UBS|34=942|52=20180919-01:00:07.004|1128=9|11=86798|14=4931|17=hB0.kV./MX6|150=F|151=0|1093=2|453=1|448=BROKERID|447=D|452=17|37=2242049|38=3887|39=2|40=1|207=UBS|48=MASKED|22=MASKED|54=0|59=9|60=20180919-01:00:07.000|10=078|
09:00:05.320249 I gateway3			[EVT.onPendingReplace:06] [MAPTX] [RPL][order.RefId=429][order.OrderId=66055][clOrdId=86798] [seqNo=67175]
09:00:07.001122 I FIXPUMP		gateway3:[FIXTX] 8=FIXT.1.1|9=218|35=G|43=N|52=20180919-01:00:07.000|122=20180919-01:00:05.320|49=UBSACCOUNT|56=EXCHANGE|34=938|11=86798|38=3887|54=2|40=1|59=9|60=20180919-01:00:05.320|48=MASKED|22=8|453=1|448=BROKERID|447=D|452=1|207=XHKG|1812=1|1813=100|1814=1|10=220|
09:00:07.004858 I FIXPUMP 		gateway3:[FIXRX] 8=FIXT.1.1|9=229|35=8|49=EXCHANGE|56=UBSACCOUNT|34=942|52=20180919-01:00:07.004|1128=9|11=86798|14=0|17=hB0.kV./MX6|150=0|151=3887|1093=2|453=1|448=BROKERID|447=D|452=1|37=2242049|38=3887|39=5|40=1|207=XHKG|48=MASKED|22=8|54=2|59=9|60=20180919-01:00:07.000|10=078|
09:00:05.320249 I gateway3			[EVT.onPending:00] [MAPTX] [NEW][order.RefId=546][order.OrderId=43820][clOrdId=89626] [seqNo=938]
09:00:07.001122 I FIXPUMP		gateway3:[FIXTX] 8=FIXT.1.1|9=218|35=D|43=N|52=20180919-01:00:07.000|122=20180919-01:00:05.320|49=UBSACCOUNT|56=EXCHANGE|34=938|11=89626|38=1626|54=2|40=1|59=9|60=20180919-01:00:05.320|48=MASKED|22=8|453=1|448=BROKERID|447=D|452=1|207=XHKG|1812=1|1813=100|1814=1|10=220|
09:00:07.004858 I FIXPUMP 		gateway3:[FIXRX] 8=FIXT.1.1|9=229|35=8|49=EXCHANGE|56=UBSACCOUNT|34=942|52=20180919-01:00:07.004|1128=9|11=89626|14=0|17=hB0.kV./MX6|150=0|151=1626|1093=2|453=1|448=BROKERID|447=D|452=1|37=2242049|38=1626|39=0|40=1|207=XHKG|48=MASKED|22=8|54=2|59=9|60=20180919-01:00:07.000|10=078|
09:00:07.004858 I FIXPUMP 		gateway3:[FIXRX] 8=FIXT.1.1|9=295|35=8|49=EXCHANGE|56=UBS|34=942|52=20180919-01:00:07.004|1128=9|11=89626|14=3205|17=hB0.kV./MX6|150=F|151=0|1093=2|453=1|448=BROKERID|447=D|452=17|37=2242049|38=1626|39=2|40=1|207=UBS|48=MASKED|22=MASKED|54=0|59=9|60=20180919-01:00:07.000|10=078|
09:00:05.320249 I gateway3			[EVT.onPendingReplace:06] [MAPTX] [RPL][order.RefId=546][order.OrderId=43820][clOrdId=89626] [seqNo=67175]
09:00:07.001122 I FIXPUMP		gateway3:[FIXTX] 8=FIXT.1.1|9=218|35=G|43=N|52=20180919-01:00:07.000|122=20180919-01:00:05.320|49=UBSACCOUNT|56=EXCHANGE|34=938|11=89626|38=1626|54=2|40=1|59=9|60=20180919-01:00:05.320|48=MASKED|22=8|453=1|448=BROKERID|447=D|452=1|207=XHKG|1812=1|1813=100|1814=1|10=220|
09:00:07.004858 I FIXPUMP 		gateway3:[FIXRX] 8=FIXT.1.1|9=229|35=8|49=EXCHANGE|56=UBSACCOUNT|34=942|52=20180919-01:00:07.004|1128=9|11=89626|14=0|17=hB0.kV./MX6|150=0|151=1626|1093=2|453=1|448=BROKERID|447=D|452=1|37=2242049|38=1626|39=5|40=1|207=XHKG|48=MASKED|22=8|54=2|59=9|60=20180919-01:00:07.000|10=078|
09:00:05.320249 I gateway3			[EVT.onPending:00] [MAPTX] [NEW][order.RefId=75][order.OrderId=7456][clOrdId=8328] [seqNo=938]
09:00:07.001122 I FIXPUMP		gateway3:[FIXTX] 8=FIXT.1.1|9=218|35=D|43=N|52=20180919-01:00:07.000|122=20180919-01:00:05.320|49=UBSACCOUNT|56=EXCHANGE|34=938|11=8328|38=5181|54=2|40=1|59=9|60=20180919-01:00:05.320|48=MASKED|22=8|453=1|448=BROKERID|447=D|452=1|207=XHKG|1812=1|1813=100|1814=1|10=220|
09:00:07.004858 I FIXPUMP 		gateway3:[FIXRX] 8=FIXT.1.1|9=229|35=8|49=EXCHANGE|56=UBSACCOUNT|34=942|52=20180919-01:00:07.004|1128=9|11=8328|14=0|17=hB0.kV./MX6|150=0|151=5181|1093=2|453=1|448=BROKERID|447=D|452=1|37=2242049|38=5181|39=0|40=1|207=XHKG|48=MASKED|22=8|54=2|59=9|60=20180919-01:00:07.000|10=078|
09:00:07.004858 I FIXPUMP 		gateway3:[FIXRX] 8=FIXT.1.1|9=295|35=8|49=EXCHANGE|56=UBS|34=942|52=20180919-01:00:07.004|1128=9|11=8328|14=2819|17=hB0.kV./MX6|150=F|151=2362|1093=2|453=1|448=BROKERID|447=D|452=17|37=2242049|38=5181|39=1|40=1|207=UBS|48=MASKED|22=MASKED|54=1|59=9|60=20180919-01:00:07.000|10=078|
09:00:07.004858 I FIXPUMP 		gateway3:[FIXRX] 8=FIXT.1.1|9=295|35=8|49=EXCHANGE|56=UBS|34=942|52=20180919-01:00:07.004|1128=9|11=8328|14=1689|17=hB0.kV./MX6|150=F|151=673|1093=2|453=1|448=BROKERID|447=D|452=17|37=2242049|38=5181|39=1|40=1|207=UBS|48=MASKED|22=MASKED|54=1|59=9|60=20180919-01:00:07.000|10=078|
09:00:07.004858 I FIXPUMP 		gateway3:[FIXRX] 8=FIXT.1.1|9=295|35=8|49=EXCHANGE|56=UBS|34=942|52=20180919-01:00:07.004|1128=9|11=8328|14=1399|17=hB0.kV./MX6|150=F|151=0|1093=2|453=1|448=BROKERID|447=D|452=17|37=2242049|38=5181|39=2|40=1|207=UBS|48=MASKED|22=MASKED|54=0|59=9|60=20180919-01:00:07.000|10=078|
09:00:05.320249 I gateway3			[EVT.onPendingReplace:06] [MAPTX] [RPL][order.RefId=75][order.OrderId=7456][clOrdId=8328] [seqNo=67175]
09:00:07.001122 I FIXPUMP		gateway3:[FIXTX] 8=FIXT.1.1|9=218|35=G|43=N|52=20180919-01:00:07.000|122=20180919-01:00:05.320|49=UBSACCOUNT|56=EXCHANGE|34=938|11=8328|38=5181|54=2|40=1|59=9|60=20180919-01:00:05.320|48=MASKED|22=8|453=1|448=BROKERID|447=D|452=1|207=XHKG|1812=1|1813=100|1814=1|10=220|
09:00:07.004858 I FIXPUMP 		gateway3:[FIXRX] 8=FIXT.1.1|9=229|35=8|49=EXCHANGE|56=UBSACCOUNT|34=942|52=20180919-01:00:07.004|1128=9|11=8328|14=0|17=hB0.kV./MX6|150=0|151=5181|1093=2|453=1|448=BROKERID|447=D|452=1|37=2242049|38=5181|39=5|40=1|207=XHKG|48=MASKED|22=8|54=2|59=9|60=20180919-01:00:07.000|10=078|
09:00:05.320249 I gateway3			[EVT.onPending:00] [MAPTX] [NEW][order.RefId=472][order.OrderId=91003][clOrdId=64753] [seqNo=938]
09:00:07.001122 I FIXPUMP		gateway3:[FIXTX] 8=FIXT.1.1|9=218|35=D|43=N|52=20180919-01:00:07.000|122=20180919-01:00:05.320|49=UBSACCOUNT|56=EXCHANGE|34=938|11=64753|38=6251|54=2|40=1|59=9|60=20180919-01:00:05.320|48=MASKED|22=8|453=1|448=BROKERID|447=D|452=1|207=XHKG|1812=1|1813=100|1814=1|10=220|
09:00:07.004858 I FIXPUMP 		gateway3:[FIXRX] 8=FIXT.1.1|9=229|35=8|49=EXCHANGE|56=UBSACCOUNT|34=942|52=20180919-01:00:07.004|1128=9|11=64753|14=0|17=hB0.kV./MX6|150=0|151=6251|1093=2|453=1|448=BROKERID|447=D|452=1|37=2242049|38=6251|39=0|40=1|207=XHKG|48=MASKED|22=8|54=2|59=9|60=20180919-01:00:07.000|10=078|
09:00:07.004858 I FIXPUMP 		gateway3:[FIXRX] 8=FIXT.1.1|9=295|35=8|49=EXCHANGE|56=UBS|34=942|52=20180919-01:00:07.004|1128=9|11=64753|14=1414|17=hB0.kV./MX6|150=F|151=4837|1093=2|453=1|448=BROKERID|447=D|452=17|37=2242049|38=6251|39=1|40=1|207=UBS|48=MASKED|22=MASKED|54=1|59=9|60=20180919-01:00:07.000|10=078|
09:00:07.004858 I FIXPUMP 		gateway3:[FIXRX] 8=FIXT.1.1|9=295|35=8|49=EXCHANGE|56=UBS|34=942|52=20180919-01:00:07.004|1128=9|11=64753|14=1|17=hB0.kV./MX6|150=F|151=4836|1093=2|453=1|448=BROKERID|447=D|452=17|37=2242049|38=6251|39=1|40=1|207=UBS|48=MASKED|22=MASKED|54=1|59=9|60=20180919-01:00:07.000|10=078|
09:00:07.004858 I FIXPUMP 		gateway3:[FIXRX] 8=FIXT.1.1|9=295|35=8|49=EXCHANGE|56=UBS|34=942|52=20180919-01:00:07.004|1128=9|11=64753|14=2877|17=hB0.kV./MX6|150=F|151=1959|1093=2|453=1|448=BROKERID|447=D|452=17|37=2242049|38=6251|39=1|40=1|207=UBS|48=MASKED|22=MASKED|54=1|59=9|60=20180919-01:00:07.000|10=078|
09:00:07.004858 I FIXPUMP 		gateway3:[FIXRX] 8=FIXT.1.1|9=295|35=8|49=EXCHANGE|56=UBS|34=942|52=20180919-01:00:07.004|1128=9|11=64753|14=328|17=hB0.kV./MX6|150=F|151=1631|1093=2|453=1|448=BROKERID|447=D|452=17|37=2242049|38=6251|39=1|40=1|207=UBS|48=MASKED|22=MASKED|54=1|59=9|60=20180919-01:00:07.000|10=078|
09:00:07.004858 I FIXPUMP 		gateway3:[FIXRX] 8=FIXT.1.1|9=295|35=8|49=EXCHANGE|56=UBS|34=942|52=20180919-01:00:07.004|1128=9|11=64753|14=3790|17=hB0.kV./MX6|150=F|151=0|1093=2|453=1|448=BROKERID|447=D|452=17|37=2242049|38=6251|39=2|40=1|207=UBS|48=MASKED|22=MASKED|54=0|59=9|60=20180919-01:00:07.000|10=078|
09:00:05.320249 I gateway3			[EVT.onPendingReplace:06] [MAPTX] [RPL][order.RefId=472][order.OrderId=91003][clOrdId=64753] [seqNo=67175]
09:00:07.001122 I FIXPUMP		gateway3:[FIXTX] 8=FIXT.1.1|9=218|35=G|43=N|52=20180919-01:00:07.000|122=20180919-01:00:05.320|49=UBSACCOUNT|56=EXCHANGE|34=938|11=64753|38=6251|54=2|40=1|59=9|60=20180919-01:00:05.320|48=MASKED|22=8|453=1|448=BROKERID|447=D|452=1|207=XHKG|1812=1|1813=100|1814=1|10=220|
09:00:07.004858 I FIXPUMP 		gateway3:[FIXRX] 8=FIXT.1.1|9=229|35=8|49=EXCHANGE|56=UBSACCOUNT|34=942|52=20180919-01:00:07.004|1128=9|11=64753|14=0|17=hB0.kV./MX6|150=0|151=6251|1093=2|453=1|448=BROKERID|447=D|452=1|37=2242049|38=6251|39=5|40=1|207=XHKG|48=MASKED|22=8|54=2|59=9|60=20180919-01:00:07.000|10=078|
09:00:05.320249 I gateway3			[EVT.onPending:00] [MAPTX] [NEW][order.RefId=703][order.OrderId=65731][clOrdId=29734] [seqNo=938]
09:00:07.001122 I FIXPUMP		gateway3:[FIXTX] 8=FIXT.1.1|9=218|35=D|43=N|52=20180919-01:00:07.000|122=20180919-01:00:05.320|49=UBSACCOUNT|56=EXCHANGE|34=938|11=29734|38=4102|54=2|40=1|59=9|60=20180919-01:00:05.320|48=MASKED|22=8|453=1|448=BROKERID|447=D|452=1|207=XHKG|1812=1|1813=100|1814=1|10=220|
09:00:07.004858 I FIXPUMP 		gateway3:[FIXRX] 8=FIXT.1.1|9=229|35=8|49=EXCHANGE|56=UBSACCOUNT|34=942|52=20180919-01:00:07.004|1128=9|11=29734|14=0|17=hB0.kV./MX6|150=0|151=4102|1093=2|453=1|448=BROKERID|447=D|452=1|37=2242049|38=4102|39=0|40=1|207=XHKG|48=MASKED|22=8|54=2|59=9|60=20180919-01:00:07.000|10=078|
09:00:07.004858 I FIXPUMP 		gateway3:[FIXRX] 8=FIXT.1.1|9=295|35=8|49=EXCHANGE|56=UBS|34=942|52=20180919-01:00:07.004|1128=9|11=29734|14=600|17=hB0.kV./MX6|150=F|151=3502|1093=2|453=1|448=BROKERID|447=D|452=17|37=2242049|38=4102|39=1|40=1|207=UBS|48=MASKED|22=MASKED|54=1|59=9|60=20180919-01:00:07.000|10=078|
09:00:07.004858 I FIXPUMP 		gateway3:[FIXRX] 8=FIXT.1.1|9=295|35=8|49=EXCHANGE|56=UBS|34=942|52=20180919-01:00:07.004|1128=9|11=29734|14=2061|17=hB0.kV./MX6|150=F|151=1441|1093=2|453=1|448=BROKERID|447=D|452=17|37=2242049|38=4102|39=1|40=1|207=UBS|48=MASKED|22=MASKED|54=1|59=9|60=20180919-01:00:07.000|10=078|
09:00:07.004858 I FIXPUMP 		gateway3:[FIXRX] 8=FIXT.1.1|9=295|35=8|49=EXCHANGE|56=UBS|34=942|52=20180919-01:00:07.004|1128=9|11=29734|14=3770|17=hB0.kV./MX6|150=F|151=0|1093=2|453=1|448=BROKERID|447=D|452=17|37=2242049|38=4102|39=2|40=1|207=UBS|48=MASKED|22=MASKED|54=0|59=9|60=20180919-01:00:07.000|10=078|
09:00:05.320249 I gateway3			[EVT.onPendingReplace:06] [MAPTX] [RPL][order.RefId=703][order.OrderId=65731][clOrdId=29734] [seqNo=67175]
09:00:07.001122 I FIXPUMP		gateway3:[FIXTX] 8=FIXT.1.1|9=218|35=G|43=N|52=20180919-01:00:07.000|122=20180919-01:00:05.320|49=UBSACCOUNT|56=EXCHANGE|34=938|11=29734|38=4102|54=2|40=1|59=9|60=20180919-01:00:05.320|48=MASKED|22=8|453=1|448=BROKERID|447=D|452=1|207=XHKG|1812=1|1813=100|1814=1|10=220|
09:00:07.004858 I FIXPUMP 		gateway3:[FIXRX] 8=FIXT.1.1|9=229|35=8|49=EXCHANGE|56=UBSACCOUNT|34=942|52=20180919-01:00:07.004|1128=9|11=29734|14=0|17=hB0.kV./MX6|150=0|151=4102|1093=2|453=1|448=BROKERID|447=D|452=1|37=2242049|38=4102|39=5|40=1|207=XHKG|48=MASKED|22=8|54=2|59=9|60=20180919-01:00:07.000|10=078|
09:00:05.320249 I gateway3			[EVT.onPending:00] [MAPTX] [NEW][order.RefId=757][order.OrderId=60005][clOrdId=51894] [seqNo=938]
09:00:07.001122 I FIXPUMP		gateway3:[FIXTX] 8=FIXT.1.1|9=218|35=D|43=N|52=20180919-01:00:07.000|122=20180919-01:00:05.320|49=UBSACCOUNT|56=EXCHANGE|34=938|11=51894|38=8018|54=2|40=1|59=9|60=20180919-01:00:05.320|48=MASKED|22=8|453=1|448=BROKERID|447=D|452=1|207=XHKG|1812=1|1813=100|1814=1|10=220|
09:00:07.004858 I FIXPUMP 		gateway3:[FIXRX] 8=FIXT.1.1|9=229|35=8|49=EXCHANGE|56=UBSACCOUNT|34=942|52=20180919-01:00:07.004|1128=9|11=51894|14=0|17=hB0.kV./MX6|150=0|151=8018|1093=2|453=1|448=BROKERID|447=D|452=1|37=2242049|38=8018|39=0|40=1|207=XHKG|48=MASKED|22=8|54=2|59=9|60=20180919-01:00:07.000|10=078|
09:00:07.004858 I FIXPUMP 		gateway3:[FIXRX] 8=FIXT.1.1|9=295|35=8|49=EXCHANGE|56=UBS|34=942|52=20180919-01:00:07.004|1128=9|11=51894|14=4509|17=hB0.kV./MX6|150=F|151=3509|1093=2|453=1|448=BROKERID|447=D|452=17|37=2242049|38=8018|39=1|40=1|207=UBS|48=MASKED|22=MASKED|54=1|59=9|60=20180919-01:00:07.000|10=078|
09:00:07.004858 I FIXPUMP 		gateway3:[FIXRX] 8=FIXT.1.1|9=295|35=8|49=EXCHANGE|56=UBS|34=942|52=20180919-01:00:07.004|1128=9|11=51894|14=3088|17=hB0.kV./MX6|150=F|151=421|1093=2|453=1|448=BROKERID|447=D|452=17|37=2242049|38=8018|39=1|40=1|207=UBS|48=MASKED|22=MASKED|54=1|59=9|60=20180919-01:00:07.000|10=078|
09:00:07.004858 I FIXPUMP 		gateway3:[FIXRX] 8=FIXT.1.1|9=295|35=8|49=EXCHANGE|56=UBS|34=942|52=20180919-01:00:07.004|1128=9|11=51894|14=2131|17=hB0.kV./MX6|150=F|151=0|1093=2|453=1|448=BROKERID|447=D|452=17|37=2242049|38=8018|39=2|40=1|207=UBS|48=MASKED|22=MASKED|54=0|59=9|60=20180919-01:00:07.000|10=078|
09:00:05.320249 I gateway3			[EVT.onPendingReplace:06] [MAPTX] [RPL][order.RefId=757][order.OrderId=60005][clOrdId=51894] [seqNo=67175]
09:00:07.001122 I FIXPUMP		gateway3:[FIXTX] 8=FIXT.1.1|9=218|35=G|43=N|52=20180919-01:00:07.000|122=20180919-01:00:05.320|49=UBSACCOUNT|56=EXCHANGE|34=938|11=51894|38=8018|54=2|40=1|59=9|60=20180919-01:00:05.320|48=MASKED|22=8|453=1|448=BROKERID|447=D|452=1|207=XHKG|1812=1|1813=100|1814=1|10=220|
09:00:07.004858 I FIXPUMP 		gateway3:[FIXRX] 8=FIXT.1.1|9=229|35=8|49=EXCHANGE|56=UBSACCOUNT|34=942|52=20180919-01:00:07.004|1128=9|11=51894|14=0|17=hB0.kV./MX6|150=0|151=8018|1093=2|453=1|448=BROKERID|447=D|452=1|37=2242049|38=8018|39=5|40=1|207=XHKG|48=MASKED|22=8|54=2|59=9|60=20180919-01:00:07.000|10=078|
09:00:05.320249 I gateway3			[EVT.onPending:00] [MAPTX] [NEW][order.RefId=448][order.OrderId=6733][clOrdId=66269] [seqNo=938]
09:00:07.001122 I FIXPUMP		gateway3:[FIXTX] 8=FIXT.1.1|9=218|35=D|43=N|52=20180919-01:00:07.000|122=20180919-01:00:05.320|49=UBSACCOUNT|56=EXCHANGE|34=938|11=66269|38=6873|54=2|40=1|59=9|60=20180919-01:00:05.320|48=MASKED|22=8|453=1|448=BROKERID|447=D|452=1|207=XHKG|1812=1|1813=100|1814=1|10=220|
09:00:07.004858 I FIXPUMP 		gateway3:[FIXRX] 8=FIXT.1.1|9=229|35=8|49=EXCHANGE|56=UBSACCOUNT|34=942|52=20180919-01:00:07.004|1128=9|11=66269|14=0|17=hB0.kV./MX6|150=0|151=6873|1093=2|453=1|448=BROKERID|447=D|452=1|37=2242049|38=6873|39=0|40=1|207=XHKG|48=MASKED|22=8|54=2|59=9|60=20180919-01:00:07.000|10=078|
09:00:07.004858 I FIXPUMP 		gateway3:[FIXRX] 8=FIXT.1.1|9=295|35=8|49=EXCHANGE|56=UBS|34=942|52=20180919-01:00:07.004|1128=9|11=66269|14=609|17=hB0.kV./MX6|150=F|151=6264|1093=2|453=1|448=BROKERID|447=D|452=17|37=2242049|38=6873|39=1|40=1|207=UBS|48=MASKED|22=MASKED|54=1|59=9|60=20180919-01:00:07.000|10=078|
09:00:07.004858 I FIXPUMP 		gateway3:[FIXRX] 8=FIXT.1.1|9=295|35=8|49=EXCHANGE|56=UBS|34=942|52=20180919-01:00:07.004|1128=9|11=66269|14=2888|17=hB0.kV./MX6|150=F|151=3376|1093=2|453=1|448=BROKERID|447=D|452=17|37=2242049|38=6873|39=1|40=1|207=UBS|48=MASKED|22=MASKED|54=1|59=9|60=20180919-01:00:07.000|10=078|
09:00:07.004858 I FIXPUMP 		gateway3:[FIXRX] 8=FIXT.1.1|9=295|35=8|49=EXCHANGE|56=UBS|34=942|52=20180919-01:00:07.004|1128=9|11=66269|14=2950|17=hB0.kV./MX6|150=F|151=426|1093=2|453=1|448=BROKERID|447=D|452=17|37=2242049|38=6873|39=1|40=1|207=UBS|48=MASKED|22=MASKED|54=1|59=9|60=20180919-01:00:07.000|10=078|
09:00:07.004858 I FIXPUMP 		gateway3:[FIXRX] 8=FIXT.1.1|9=295|35=8|49=EXCHANGE|56=UBS|34=942|52=20180919-01:00:07.004|1128=9|11=66269|14=3600|17=hB0.kV./MX6|150=F|151=0|1093=2|453=1|448=BROKERID|447=D|452=17|37=2242049|38=6873|39=2|40=1|207=UBS|48=MASKED|22=MASKED|54=0|59=9|60=20180919-01:00:07.000|10=078|
09:00:05.320249 I gateway3			[EVT.onPendingReplace:06] [MAPTX] [RPL][order.RefId=448][order.OrderId=6733][clOrdId=66269] [seqNo=67175]
09:00:07.001122 I FIXPUMP		gateway3:[FIXTX] 8=FIXT.1.1|9=218|35=G|43=N|52=20180919-01:00:07.000|122=20180919-01:00:05.320|49=UBSACCOUNT|56=EXCHANGE|34=938|11=66269|38=6873|54=2|40=1|59=9|60=20180919-01:00:05.320|48=MASKED|22=8|453=1|448=BROKERID|447=D|452=1|207=XHKG|1812=1|1813=100|1814=1|10=220|
09:00:07.004858 I FIXPUMP 		gateway3:[FIXRX] 8=FIXT.1.1|9=229|35=8|49=EXCHANGE|56=UBSACCOUNT|34=942|52=20180919-01:00:07.004|1128=9|11=66269|14=0|17=hB0.kV./MX6|150=0|151=6873|1093=2|453=1|448=BROKERID|447=D|452=1|37=2242049|38=6873|39=5|40=1|207=XHKG|48=MASKED|22=8|54=2|59=9|60=20180919-01:00:07.000|10=078|
09:00:05.320249 I gateway3			[EVT.onPending:00] [MAPTX] [NEW][order.RefId=180][order.OrderId=33470][clOrdId=2600] [seqNo=938]
09:00:07.001122 I FIXPUMP		gateway3:[FIXTX] 8=FIXT.1.1|9=218|35=D|43=N|52=20180919-01:00:07.000|122=20180919-01:00:05.320|49=UBSACCOUNT|56=EXCHANGE|34=938|11=2600|38=3644|54=2|40=1|59=9|60=20180919-01:00:05.320|48=MASKED|22=8|453=1|448=BROKERID|447=D|452=1|207=XHKG|1812=1|1813=100|1814=1|10=220|
09:00:07.004858 I FIXPUMP 		gateway3:[FIXRX] 8=FIXT.1.1|9=229|35=8|49=EXCHANGE|56=UBSACCOUNT|34=942|52=20180919-01:00:07.004|1128=9|11=2600|14=0|17=hB0.kV./MX6|150=0|151=3644|1093=2|453=1|448=BROKERID|447=D|452=1|37=2242049|38=3644|39=0|40=1|207=XHKG|48=MASKED|22=8|54=2|59=9|60=20180919-01:00:07.000|10=078|
09:00:07.004858 I FIXPUMP 		gateway3:[FIXRX] 8=FIXT.1.1|9=295|35=8|49=EXCHANGE|56=UBS|34=942|52=20180919-01:00:07.004|1128=9|11=2600|14=955|17=hB0.kV./MX6|150=F|151=2689|1093=2|453=1|448=BROKERID|447=D|452=17|37=2242049|38=3644|39=1|40=1|207=UBS|48=MASKED|22=MASKED|54=1|59=9|60=20180919-01:00:07.000|10=078|
09:00:07.004858 I FIXPUMP 		gateway3:[FIXRX] 8=FIXT.1.1|9=295|35=8|49=EXCHANGE|56=UBS|34=942|52=20180919-01:00:07.004|1128=9|11=2600|14=4442|17=hB0.kV./MX6|150=F|151=0|1093=2|453=1|448=BROKERID|447=D|452=17|37=2242049|38=3644|39=2|40=1|207=UBS|48=MASKED|22=MASKED|54=0|59=9|60=20180919-01:00:07.000|10=078|
09:00:05.320249 I gateway3			[EVT.onPendingReplace:06] [MAPTX] [RPL][order.RefId=180][order.OrderId=33470][clOrdId=2600] [seqNo=67175]
09:00:07.001122 I FIXPUMP		gateway3:[FIXTX] 8=FIXT.1.1|9=218|35=G|43=N|52=20180919-01:00:07.000|122=20180919-01:00:05.320|49=UBSACCOUNT|56=EXCHANGE|34=938|11=2600|38=3644|54=2|40=1|59=9|60=20180919-01:00:05.320|48=MASKED|22=8|453=1|448=BROKERID|447=D|452=1|207=XHKG|1812=1|1813=100|1814=1|10=220|
09:00:07.004858 I FIXPUMP 		gateway3:[FIXRX] 8=FIXT.1.1|9=229|35=8|49=EXCHANGE|56=UBSACCOUNT|34=942|52=20180919-01:00:07.004|1128=9|11=2600|14=0|17=hB0.kV./MX6|150=0|151=3644|1093=2|453=1|448=BROKERID|447=D|452=1|37=2242049|38=3644|39=5|40=1|207=XHKG|48=MASKED|22=8|54=2|59=9|60=20180919-01:00:07.000|10=078|
09:00:05.320249 I gateway3			[EVT.onPending:00] [MAPTX] [NEW][order.RefId=312][order.OrderId=4930][clOrdId=48803] [seqNo=938]
09:00:07.001122 I FIXPUMP		gateway3:[FIXTX] 8=FIXT.1.1|9=218|35=D|43=N|52=20180919-01:00:07.000|122=20180919-01:00:05.320|49=UBSACCOUNT|56=EXCHANGE|34=938|11=48803|38=5986|54=2|40=1|59=9|60=20180919-01:00:05.320|48=MASKED|22=8|453=1|448=BROKERID|447=D|452=1|207=XHKG|1812=1|1813=100|1814=1|10=220|
09:00:07.004858 I FIXPUMP 		gateway3:[FIXRX] 8=FIXT.1.1|9=229|35=8|49=EXCHANGE|56=UBSACCOUNT|34=942|52=20180919-01:00:07.004|1128=9|11=48803|14=0|17=hB0.kV./MX6|150=0|151=5986|1093=2|453=1|448=BROKERID|447=D|452=1|37=2242049|38=5986|39=0|40=1|207=XHKG|48=MASKED|22=8|54=2|59=9|60=20180919-01:00:07.000|10=078|
09:00:07.004858 I FIXPUMP 		gateway3:[FIXRX] 8=FIXT.1.1|9=295|35=8|49=EXCHANGE|56=UBS|34=942|52=20180919-01:00:07.004|1128=9|11=48803|14=1731|17=hB0.kV./MX6|150=F|151=4255|1093=2|453=1|448=BROKERID|447=D|452=17|37=2242049|38=5986|39=1|40=1|207=UBS|48=MASKED|22=MASKED|54=1|59=9|60=20180919-01:00:07.000|10=078|
09:00:07.004858 I FIXPUMP 		gateway3:[FIXRX] 8=FIXT.1.1|9=295|35=8|49=EXCHANGE|56=UBS|34=942|52=20180919-01:00:07.004|1128=9|11=48803|14=1743|17=hB0.kV./MX6|150=F|151=2512|1093=2|453=1|448=BROKERID|447=D|452=17|37=2242049|38=5986|39=1|40=1|207=UBS|48=MASKED|22=MASKED|54=1|59=9|60=20180919-01:00:07.000|10=078|
09:00:07.004858 I FIXPUMP 		gateway3:[FIXRX] 8=FIXT.1.1|9=295|35=8|49=EXCHANGE|56=UBS|34=942|52=20180919-01:00:07.004|1128=9|11=48803|14=1430|17=hB0.kV./MX6|150=F|151=1082|1093=2|453=1|448=BROKERID|447=D|452=17|37=2242049|38=5986|39=1|40=1|207=UBS|48=MASKED|22=MASKED|54=1|59=9|60=20180919-01:00:07.000|10=078|
09:00:07.004858 I FIXPUMP 		gateway3:[FIXRX] 8=FIXT.1.1|9=295|35=8|49=EXCHANGE|56=UBS|34=942|52=20180919-01:00:07.004|1128=9|11=48803|14=20|17=hB0.kV./MX6|150=F|151=1062|1093=2|453=1|448=BROKERID|447=D|452=17|37=2242049|38=5986|39=1|40=1|207=UBS|48=MASKED|22=MASKED|54=1|59=9|60=20180919-01:00:07.000|10=078|
09:00:07.004858 I FIXPUMP 		gateway3:[FIXRX] 8=FIXT.1.1|9=295|35=8|49=EXCHANGE|56=UBS|34=942|52=20180919-01:00:07.004|1128=9|11=48803|14=2501|17=hB0.kV./MX6|150=F|151=0|1093=2|453=1|448=BROKERID|447=D|452=17|37=2242049|38=5986|39=2|40=1|207=UBS|48=MASKED|22=MASKED|54=0|59=9|60=20180919-01:00:07.000|10=078|
09:00:05.320249 I gateway3			[EVT.onPendingReplace:06] [MAPTX] [RPL][order.RefId=312][order.OrderId=4930][clOrdId=48803] [seqNo=67175]
09:00:07.001122 I FIXPUMP		gateway3:[FIXTX] 8=FIXT.1.1|9=218|35=G|43=N|52=20180919-01:00:07.000|122=20180919-01:00:05.320|49=UBSACCOUNT|56=EXCHANGE|34=938|11=48803|38=5986|54=2|40=1|59=9|60=20180919-01:00:05.320|48=MASKED|22=8|453=1|448=BROKERID|447=D|452=1|207=XHKG|1812=1|1813=100|1814=1|10=220|
09:00:07.004858 I FIXPUMP 		gateway3:[FIXRX] 8=FIXT.1.1|9=229|35=8|49=EXCHANGE|56=UBSACCOUNT|34=942|52=20180919-01:00:07.004|1128=9|11=48803|14=0|17=hB0.kV./MX6|150=0|151=5986|1093=2|453=1|448=BROKERID|447=D|452=1|37=2242049|38=5986|39=5|40=1|207=XHKG|48=MASKED|22=8|54=2|59=9|60=20180919-01:00:07.000|10=078|
09:00:05.320249 I gateway3			[EVT.onPending:00] [MAPTX] [NEW][order.RefId=708][order.OrderId=17069][clOrdId=53931] [seqNo=938]
09:00:07.001122 I FIXPUMP		gateway3:[FIXTX] 8=FIXT.1.1|9=218|35=D|43=N|52=20180919-01:00:07.000|122=20180919-01:00:05.320|49=UBSACCOUNT|56=EXCHANGE|34=938|11=53931|38=3779|54=2|40=1|59=9|60=20180919-01:00:05.320|48=MASKED|22=8|453=1|448=BROKERID|447=D|452=1|207=XHKG|1812=1|1813=100|1814=1|10=220|
09:00:07.004858 I FIXPUMP 		gateway3:[FIXRX] 8=FIXT.1.1|9=229|35=8|49=EXCHANGE|56=UBSACCOUNT|34=942|52=20180919-01:00:07.004|1128=9|11=53931|14=0|17=hB0.kV./MX6|150=0|151=3779|1093=2|453=1|448=BROKERID|447=D|452=1|37=2242049|38=3779|39=0|40=1|207=XHKG|48=MASKED|22=8|54=2|59=9|60=20180919-01:00:07.000|10=078|
09:00:07.004858 I FIXPUMP 		gateway3:[FIXRX] 8=FIXT.1.1|9=295|35=8|49=EXCHANGE|56=UBS|34=942|52=20180919-01:00:07.004|1128=9|11=53931|14=4793|17=hB0.kV./MX6|150=F|151=0|1093=2|453=1|448=BROKERID|447=D|452=17|37=2242049|38=3779|39=2|40=1|207=UBS|48=MASKED|22=MASKED|54=0|59=9|60=20180919-01:00:07.000|10=078|
09:00:05.320249 I gateway3			[EVT.onPendingReplace:06] [MAPTX] [RPL][order.RefId=708][order.OrderId=17069][clOrdId=53931] [seqNo=67175]
09:00:07.001122 I FIXPUMP		gateway3:[FIXTX] 8=FIXT.1.1|9=218|35=G|43=N|52=20180919-01:00:07.000|122=20180919-01:00:05.320|49=UBSACCOUNT|56=EXCHANGE|34=938|11=53931|38=3779|54=2|40=1|59=9|60=20180919-01:00:05.320|48=MASKED|22=8|453=1|448=BROKERID|447=D|452=1|207=XHKG|1812=1|1813=100|1814=1|10=220|
09:00:07.004858 I FIXPUMP 		gateway3:[FIXRX] 8=FIXT.1.1|9=229|35=8|49=EXCHANGE|56=UBSACCOUNT|34=942|52=20180919-01:00:07.004|1128=9|11=53931|14=0|17=hB0.kV./MX6|150=0|151=3779|1093=2|453=1|448=BROKERID|447=D|452=1|37=2242049|38=3779|39=5|40=1|207=XHKG|48=MASKED|22=8|54=2|59=9|60=20180919-01:00:07.000|10=078|
09:00:05.320249 I gateway3			[EVT.onPending:00] [MAPTX] [NEW][order.RefId=414][order.OrderId=93996][clOrdId=49566] [seqNo=938]
09:00:07.001122 I FIXPUMP		gateway3:[FIXTX] 8=FIXT.1.1|9=218|35=D|43=N|52=20180919-01:00:07.000|122=20180919-01:00:05.320|49=UBSACCOUNT|56=EXCHANGE|34=938|11=49566|38=1080|54=2|40=1|59=9|60=20180919-01:00:05.320|48=MASKED|22=8|453=1|448=BROKERID|447=D|452=1|207=XHKG|1812=1|1813=100|1814=1|10=220|
09:00:07.004858 I FIXPUMP 		gateway3:[FIXRX] 8=FIXT.1.1|9=229|35=8|49=EXCHANGE|56=UBSACCOUNT|34=942|52=20180919-01:00:07.004|1128=9|11=49566|14=0|17=hB0.kV./MX6|150=0|151=1080|1093=2|453=1|448=BROKERID|447=D|452=1|37=2242049|38=1080|39=0|40=1|207=XHKG|48=MASKED|22=8|54=2|59=9|60=20180919-01:00:07.000|10=078|
09:00:07.004858 I FIXPUMP 		gateway3:[FIXRX] 8=FIXT.1.1|9=295|35=8|49=EXCHANGE|56=UBS|34=942|52=20180919-01:00:07.004|1128=9|11=49566|14=173|17=hB0.kV./MX6|150=F|151=907|1093=2|453=1|448=BROKERID|447=D|452=17|37=2242049|38=1080|39=1|40=1|207=UBS|48=MASKED|22=MASKED|54=1|59=9|60=20180919-01:00:07.000|10=078|
09:00:07.004858 I FIXPUMP 		gateway3:[FIXRX] 8=FIXT.1.1|9=295|35=8|49=EXCHANGE|56=UBS|34=942|52=20180919-01:00:07.004|1128=9|11=49566|14=1190|17=hB0.kV./MX6|150=F|151=0|1093=2|453=1|448=BROKERID|447=D|452=17|37=2242049|38=1080|39=2|40=1|207=UBS|48=MASKED|22=MASKED|54=0|59=9|60=20180919-01:00:07.000|10=078|
09:00:05.320249 I gateway3			[EVT.onPendingReplace:06] [MAPTX] [RPL][order.RefId=414][order.OrderId=93996][clOrdId=49566] [seqNo=67175]
09:00:07.001122 I FIXPUMP		gateway3:[FIXTX] 8=FIXT.1.1|9=218|35=G|43=N|52=20180919-01:00:07.000|122=20180919-01:00:05.320|49=UBSACCOUNT|56=EXCHANGE|34=938|11=49566|38=1080|54=2|40=1|59=9|60=20180919-01:00:05.320|48=MASKED|22=8|453=1|448=BROKERID|447=D|452=1|207=XHKG|1812=1|1813=100|1814=1|10=220|
09:00:07.004858 I FIXPUMP 		gateway3:[FIXRX] 8=FIXT.1.1|9=229|35=8|49=EXCHANGE|56=UBSACCOUNT|34=942|52=20180919-01:00:07.004|1128=9|11=49566|14=0|17=hB0.kV./MX6|150=0|151=1080|1093=2|453=1|448=BROKERID|447=D|452=1|37=2242049|38=1080|39=5|40=1|207=XHKG|48=MASKED|22=8|54=2|59=9|60=20180919-01:00:07.000|10=078|
09:00:05.320249 I gateway3			[EVT.onPending:00] [MAPTX] [NEW][order.RefId=49][order.OrderId=17505][clOrdId=59403] [seqNo=938]
09:00:07.001122 I FIXPUMP		gateway3:[FIXTX] 8=FIXT.1.1|9=218|35=D|43=N|52=20180919-01:00:07.000|122=20180919-01:00:05.320|49=UBSACCOUNT|56=EXCHANGE|34=938|11=59403|38=4194|54=2|40=1|59=9|60=20180919-01:00:05.320|48=MASKED|22=8|453=1|448=BROKERID|447=D|452=1|207=XHKG|1812=1|1813=100|1814=1|10=220|
09:00:07.004858 I FIXPUMP 		gateway3:[FIXRX] 8=FIXT.1.1|9=229|35=8|49=EXCHANGE|56=UBSACCOUNT|34=942|52=20180919-01:00:07.004|1128=9|11=59403|14=0|17=hB0.kV./MX6|150=0|151=4194|1093=2|453=1|448=BROKERID|447=D|452=1|37=2242049|38=4194|39=0|40=1|207=XHKG|48=MASKED|22=8|54=2|59=9|60=20180919-01:00:07.000|10=078|
09:00:07.004858 I FIXPUMP 		gateway3:[FIXRX] 8=FIXT.1.1|9=295|35=8|49=EXCHANGE|56=UBS|34=942|52=20180919-01:00:07.004|1128=9|11=59403|14=2300|17=hB0.kV./MX6|150=F|151=1894|1093=2|453=1|448=BROKERID|447=D|452=17|37=2242049|38=4194|39=1|40=1|207=UBS|48=MASKED|22=MASKED|54=1|59=9|60=20180919-01:00:07.000|10=078|
09:00:07.004858 I FIXPUMP 		gateway3:[FIXRX] 8=FIXT.1.1|9=295|35=8|49=EXCHANGE|56=UBS|34=942|52=20180919-01:00:07.004|1128=9|11=59403|14=4402|17=hB0.kV./MX6|150=F|151=0|1093=2|453=1|448=BROKERID|447=D|452=17|37=2242049|38=4194|39=2|40=1|207=UBS|48=MASKED|22=MASKED|54=0|59=9|60=20180919-01:00:07.000|10=078|
09:00:05.320249 I gateway3			[EVT.onPendingReplace:06] [MAPTX] [RPL][order.RefId=49][order.OrderId=17505][clOrdId=59403] [seqNo=67175]
09:00:07.001122 I FIXPUMP		gateway3:[FIXTX] 8=FIXT.1.1|9=218|35=G|43=N|52=20180919-01:00:07.000|122=20180919-01:00:05.320|49=UBSACCOUNT|56=EXCHANGE|34=938|11=59403|38=4194|54=2|40=1|59=9|60=20180919-01:00:05.320|48=MASKED|22=8|453=1|448=BROKERID|447=D|452=1|207=XHKG|1812=1|1813=100|1814=1|10=220|
09:00:07.004858 I FIXPUMP 		gateway3:[FIXRX] 8=FIXT.1.1|9=229|35=8|49=EXCHANGE|56=UBSACCOUNT|34=942|52=20180919-01:00:07.004|1128=9|11=59403|14=0|17=hB0.kV./MX6|150=0|151=4194|1093=2|453=1|448=BROKERID|447=D|452=1|37=2242049|38=4194|39=5|40=1|207=XHKG|48=MASKED|22=8|54=2|59=9|60=20180919-01:00:07.000|10=078|
09:00:05.320249 I gateway3			[EVT.onPending:00] [MAPTX] [NEW][order.RefId=748][order.OrderId=31354][clOrdId=17907] [seqNo=938]
09:00:07.001122 I FIXPUMP		gateway3:[FIXTX] 8=FIXT.1.1|9=218|35=D|43=N|52=20180919-01:00:07.000|122=20180919-01:00:05.320|49=UBSACCOUNT|56=EXCHANGE|34=938|11=17907|38=7843|54=2|40=1|59=9|60=20180919-01:00:05.320|48=MASKED|22=8|453=1|448=BROKERID|447=D|452=1|207=XHKG|1812=1|1813=100|1814=1|10=220|
09:00:07.004858 I FIXPUMP 		gateway3:[FIXRX] 8=FIXT.1.1|9=229|35=8|49=EXCHANGE|56=UBSACCOUNT|34=942|52=20180919-01:00:07.004|1128=9|11=17907|14=0|17=hB0.kV./MX6|150=0|151=7843|1093=2|453=1|448=BROKERID|447=D|452=1|37=2242049|38=7843|39=0|40=1|207=XHKG|48=MASKED|22=8|54=2|59=9|60=20180919-01:00:07.000|10=078|
09:00:07.004858 I FIXPUMP 		gateway3:[FIXRX] 8=FIXT.1.1|9=295|35=8|49=EXCHANGE|56=UBS|34=942|52=20180919-01:00:07.004|1128=9|11=17907|14=2971|17=hB0.kV./MX6|150=F|151=4872|1093=2|453=1|448=BROKERID|447=D|452=17|37=2242049|38=7843|39=1|40=1|207=UBS|48=MASKED|22=MASKED|54=1|59=9|60=20180919-01:00:07.000|10=078|
09:00:07.004858 I FIXPUMP 		gateway3:[FIXRX] 8=FIXT.1.1|9=295|35=8|49=EXCHANGE|56=UBS|34=942|52=20180919-01:00:07.004|1128=9|11=17907|14=2803|17=hB0.kV./MX6|150=F|151=2069|1093=2|453=1|448=BROKERID|447=D|452=17|37=2242049|38=7843|39=1|40=1|207=UBS|48=MASKED|22=MASKED|54=1|59=9|60=20180919-01:00:07.000|10=078|
09:00:07.004858 I FIXPUMP 		gateway3:[FIXRX] 8=FIXT.1.1|9=295|35=8|49=EXCHANGE|56=UBS|34=942|52=20180919-01:00:07.004|1128=9|11=17907|14=1187|17=hB0.kV./MX6|150=F|151=882|1093=2|453=1|448=BROKERID|447=D|452=17|37=2242049|38=7843|39=1|40=1|207=UBS|48=MASKED|22=MASKED|54=1|59=9|60=20180919-01:00:07.000|10=078|
09:00:07.004858 I FIXPUMP 		gateway3:[FIXRX] 8=FIXT.1.1|9=295|35=8|49=EXCHANGE|56=UBS|34=942|52=20180919-01:00:07.004|1128=9|11=17907|14=3397|17=hB0.kV./MX6|150=F|151=0|1093=2|453=1|448=BROKERID|447=D|452=17|37=2242049|38=7843|39=2|40=1|207=UBS|48=MASKED|22=MASKED|54=0|59=9|60=20180919-01:00:07.000|10=078|
09:00:05.320249 I gateway3			[EVT.onPendingReplace:06] [MAPTX] [RPL][order.RefId=748][order.OrderId=31354][clOrdId=17907] [seqNo=67175]
09:00:07.001122 I FIXPUMP		gateway3:[FIXTX] 8=FIXT.1.1|9=218|35=G|43=N|52=20180919-01:00:07.000|122=20180919-01:00:05.320|49=UBSACCOUNT|56=EXCHANGE|34=938|11=17907|38=7843|54=2|40=1|59=9|60=20180919-01:00:05.320|48=MASKED|22=8|453=1|448=BROKERID|447=D|452=1|207=XHKG|1812=1|1813=100|1814=1|10=220|
09:00:07.004858 I FIXPUMP 		gateway3:[FIXRX] 8=FIXT.1.1|9=229|35=8|49=EXCHANGE|56=UBSACCOUNT|34=942|52=20180919-01:00:07.004|1128=9|11=17907|14=0|17=hB0.kV./MX6|150=0|151=7843|1093=2|453=1|448=BROKERID|447=D|452=1|37=2242049|38=7843|39=5|40=1|207=XHKG|48=MASKED|22=8|54=2|59=9|60=20180919-01:00:07.000|10=078|
09:00:05.320249 I gateway3			[EVT.onPending:00] [MAPTX] [NEW][order.RefId=539][order.OrderId=5207][clOrdId=21139] [seqNo=938]
09:00:07.001122 I FIXPUMP		gateway3:[FIXTX] 8=FIXT.1.1|9=218|35=D|43=N|52=20180919-01:00:07.000|122=20180919-01:00:05.320|49=UBSACCOUNT|56=EXCHANGE|34=938|11=21139|38=2327|54=2|40=1|59=9|60=20180919-01:00:05.320|48=MASKED|22=8|453=1|448=BROKERID|447=D|452=1|207=XHKG|1812=1|1813=100|1814=1|10=220|
09:00:07.004858 I FIXPUMP 		gateway3:[FIXRX] 8=FIXT.1.1|9=229|35=8|49=EXCHANGE|56=UBSACCOUNT|34=942|52=20180919-01:00:07.004|1128=9|11=21139|14=0|17=hB0.kV./MX6|150=0|151=2327|1093=2|453=1|448=BROKERID|447=D|452=1|37=2242049|38=2327|39=0|40=1|207=XHKG|48=MASKED|22=8|54=2|59=9|60=20180919-01:00:07.000|10=078|
09:00:07.004858 I FIXPUMP 		gateway3:[FIXRX] 8=FIXT.1.1|9=295|35=8|49=EXCHANGE|56=UBS|34=942|52=20180919-01:00:07.004|1128=9|11=21139|14=1325|17=hB0.kV./MX6|150=F|151=1002|1093=2|453=1|448=BROKERID|447=D|452=17|37=2242049|38=2327|39=1|40=1|207=UBS|48=MASKED|22=MASKED|54=1|59=9|60=20180919-01:00:07.000|10=078|
09:00:07.004858 I FIXPUMP 		gateway3:[FIXRX] 8=FIXT.1.1|9=295|35=8|49=EXCHANGE|56=UBS|34=942|52=20180919-01:00:07.004|1128=9|11=21139|14=3324|17=hB0.kV./MX6|150=F|151=0|1093=2|453=1|448=BROKERID|447=D|452=17|37=2242049|38=2327|39=2|40=1|207=UBS|48=MASKED|22=MASKED|54=0|59=9|60=20180919-01:00:07.000|10=078|
09:00:05.320249 I gateway3			[EVT.onPendingReplace:06] [MAPTX] [RPL][order.RefId=539][order.OrderId=5207][clOrdId=21139] [seqNo=67175]
09:00:07.001122 I FIXPUMP		gateway3:[FIXTX] 8=FIXT.1.1|9=218|35=G|43=N|52=20180919-01:00:07.000|122=20180919-01:00:05.320|49=UBSACCOUNT|56=EXCHANGE|34=938|11=21139|38=2327|54=2|40=1|59=9|60=20180919-01:00:05.320|48=MASKED|22=8|453=1|448=BROKERID|447=D|452=1|207=XHKG|1812=1|1813=100|1814=1|10=220|
09:00:07.004858 I FIXPUMP 		gateway3:[FIXRX] 8=FIXT.1.1|9=229|35=8|49=EXCHANGE|56=UBSACCOUNT|34=942|52=20180919-01:00:07.004|1128=9|11=21139|14=0|17=hB0.kV./MX6|150=0|151=2327|1093=2|453=1|448=BROKERID|447=D|452=1|37=2242049|38=2327|39=5|40=1|207=XHKG|48=MASKED|22=8|54=2|59=9|60=20180919-01:00:07.000|10=078|
09:00:05.320249 I gateway3			[EVT.onPending:00] [MAPTX] [NEW][order.RefId=481][order.OrderId=81181][clOrdId=40100] [seqNo=938]
09:00:07.001122 I FIXPUMP		gateway3:[FIXTX] 8=FIXT.1.1|9=218|35=D|43=N|52=20180919-01:00:07.000|122=20180919-01:00:05.320|49=UBSACCOUNT|56=EXCHANGE|34=938|11=40100|38=4122|54=2|40=1|59=9|60=20180919-01:00:05.320|48=MASKED|22=8|453=1|448=BROKERID|447=D|452=1|207=XHKG|1812=1|1813=100|1814=1|10=220|
09:00:07.004858 I FIXPUMP 		gateway3:[FIXRX] 8=FIXT.1.1|9=229|35=8|49=EXCHANGE|56=UBSACCOUNT|34=942|52=20180919-01:00:07.004|1128=9|11=40100|14=0|17=hB0.kV./MX6|150=0|151=4122|1093=2|453=1|448=BROKERID|447=D|452=1|37=2242049|38=4122|39=0|40=1|207=XHKG|48=MASKED|22=8|54=2|59=9|60=20180919-01:00:07.000|10=078|
09:00:07.004858 I FIXPUMP 		gateway3:[FIXRX] 8=FIXT.1.1|9=295|35=8|49=EXCHANGE|56=UBS|34=942|52=20180919-01:00:07.004|1128=9|11=40100|14=1793|17=hB0.kV./MX6|150=F|151=2329|1093=2|453=1|448=BROKERID|447=D|452=17|37=2242049|38=4122|39=1|40=1|207=UBS|48=MASKED|22=MASKED|54=1|59=9|60=20180919-01:00:07.000|10=078|
09:00:07.004858 I FIXPUMP 		gateway3:[FIXRX] 8=FIXT.1.1|9=295|35=8|49=EXCHANGE|56=UBS|34=942|52=20180919-01:00:07.004|1128=9|11=40100|14=4135|17=hB0.kV./MX6|150=F|151=0|1093=2|453=1|448=BROKERID|447=D|452=17|37=2242049|38=4122|39=2|40=1|207=UBS|48=MASKED|22=MASKED|54=0|59=9|60=20180919-01:00:07.000|10=078|
09:00:05.320249 I gateway3			[EVT.onPendingReplace:06] [MAPTX] [RPL][order.RefId=481][order.OrderId=81181][clOrdId=40100] [seqNo=67175]
09:00:07.001122 I FIXPUMP		gateway3:[FIXTX] 8=FIXT.1.1|9=218|35=G|43=N|52=20180919-01:00:07.000|122=20180919-01:00:05.320|49=UBSACCOUNT|56=EXCHANGE|34=938|11=40100|38=4122|54=2|40=1|59=9|60=20180919-01:00:05.320|48=MASKED|22=8|453=1|448=BROKERID|447=D|452=1|207=XHKG|1812=1|1813=100|1814=1|10=220|
09:00:07.004858 I FIXPUMP 		gateway3:[FIXRX] 8=FIXT.1.1|9=229|35=8|49=EXCHANGE|56=UBSACCOUNT|34=942|52=20180919-01:00:07.004|1128=9|11=40100|14=0|17=hB0.kV./MX6|150=0|151=4122|1093=2|453=1|448=BROKERID|447=D|452=1|37=2242049|38=4122|39=5|40=1|207=XHKG|48=MASKED|22=8|54=2|59=9|60=20180919-01:00:07.000|10=078|
09:00:05.320249 I gateway3			[EVT.onPending:00] [MAPTX] [NEW][order.RefId=286][order.OrderId=87581][clOrdId=10464] [seqNo=938]
09:00:07.001122 I FIXPUMP		gateway3:[FIXTX] 8=FIXT.1.1|9=218|35=D|43=N|52=20180919-01:00:07.000|122=20180919-01:00:05.320|49=UBSACCOUNT|56=EXCHANGE|34=938|11=10464|38=2302|54=2|40=1|59=9|60=20180919-01:00:05.320|48=MASKED|22=8|453=1|448=BROKERID|447=D|452=1|207=XHKG|1812=1|1813=100|1814=1|10=220|
09:00:07.004858 I FIXPUMP 		gateway3:[FIXRX] 8=FIXT.1.1|9=229|35=8|49=EXCHANGE|56=UBSACCOUNT|34=942|52=20180919-01:00:07.004|1128=9|11=10464|14=0|17=hB0.kV./MX6|150=0|151=2302|1093=2|453=1|448=BROKERID|447=D|452=1|37=2242049|38=2302|39=0|40=1|207=XHKG|48=MASKED|22=8|54=2|59=9|60=20180919-01:00:07.000|10=078|
09:00:07.004858 I FIXPUMP 		gateway3:[FIXRX] 8=FIXT.1.1|9=295|35=8|49=EXCHANGE|56=UBS|34=942|52=20180919-01:00:07.004|1128=9|11=10464|14=3481|17=hB0.kV./MX6|150=F|151=0|1093=2|453=1|448=BROKERID|447=D|452=17|37=2242049|38=2302|39=2|40=1|207=UBS|48=MASKED|22=MASKED|54=0|59=9|60=20180919-01:00:07.000|10=078|
09:00:05.320249 I gateway3			[EVT.onPendingReplace:06] [MAPTX] [RPL][order.RefId=286][order.OrderId=87581][clOrdId=10464] [seqNo=67175]
09:00:07.001122 I FIXPUMP		gateway3:[FIXTX] 8=FIXT.1.1|9=218|35=G|43=N|52=20180919-01:00:07.000|122=20180919-01:00:05.320|49=UBSACCOUNT|56=EXCHANGE|34=938|11=10464|38=2302|54=2|40=1|59=9|60=20180919-01:00:05.320|48=MASKED|22=8|453=1|448=BROKERID|447=D|452=1|207=XHKG|1812=1|1813=100|1814=1|10=220|
09:00:07.004858 I FIXPUMP 		gateway3:[FIXRX] 8=FIXT.1.1|9=229|35=8|49=EXCHANGE|56=UBSACCOUNT|34=942|52=20180919-01:00:07.004|1128=9|11=10464|14=0|17=hB0.kV./MX6|150=0|151=2302|1093=2|453=1|448=BROKERID|447=D|452=1|37=2242049|38=2302|39=5|40=1|207=XHKG|48=MASKED|22=8|54=2|59=9|60=20180919-01:00:07.000|10=078|
09:00:05.320249 I gateway3			[EVT.onPending:00] [MAPTX] [NEW][order.RefId=421][order.OrderId=71357][clOrdId=94924] [seqNo=938]
09:00:07.001122 I FIXPUMP		gateway3:[FIXTX] 8=FIXT.1.1|9=218|35=D|43=N|52=20180919-01:00:07.000|122=20180919-01:00:05.320|49=UBSACCOUNT|56=EXCHANGE|34=938|11=94924|38=8659|54=2|40=1|59=9|60=20180919-01:00:05.320|48=MASKED|22=8|453=1|448=BROKERID|447=D|452=1|207=XHKG|1812=1|1813=100|1814=1|10=220|
09:00:07.004858 I FIXPUMP 		gateway3:[FIXRX] 8=FIXT.1.1|9=229|35=8|49=EXCHANGE|56=UBSACCOUNT|34=942|52=20180919-01:00:07.004|1128=9|11=94924|14=0|17=hB0.kV./MX6|150=0|151=8659|1093=2|453=1|448=BROKERID|447=D|452=1|37=2242049|38=8659|39=0|40=1|207=XHKG|48=MASKED|22=8|54=2|59=9|60=20180919-01:00:07.000|10=078|
09:00:07.004858 I FIXPUMP 		gateway3:[FIXRX] 8=FIXT.1.1|9=295|35=8|49=EXCHANGE|56=UBS|34=942|52=20180919-01:00:07.004|1128=9|11=94924|14=4981|17=hB0.kV./MX6|150=F|151=3678|1093=2|453=1|448=BROKERID|447=D|452=17|37=2242049|38=8659|39=1|40=1|207=UBS|48=MASKED|22=MASKED|54=1|59=9|60=20180919-01:00:07.000|10=078|
09:00:07.004858 I FIXPUMP 		gateway3:[FIXRX] 8=FIXT.1.1|9=295|35=8|49=EXCHANGE|56=UBS|34=942|52=20180919-01:00:07.004|1128=9|11=94924|14=4893|17=hB0.kV./MX6|150=F|151=0|1093=2|453=1|448=BROKERID|447=D|452=17|37=2242049|38=8659|39=2|40=1|207=UBS|48=MASKED|22=MASKED|54=0|59=9|60=20180919-01:00:07.000|10=078|
09:00:05.320249 I gateway3			[EVT.onPendingReplace:06] [MAPTX] [RPL][order.RefId=421][order.OrderId=71357][clOrdId=94924] [seqNo=67175]
09:00:07.001122 I FIXPUMP		gateway3:[FIXTX] 8=FIXT.1.1|9=218|35=G|43=N|52=20180919-01:00:07.000|122=20180919-01:00:05.320|49=UBSACCOUNT|56=EXCHANGE|34=938|11=94924|38=8659|54=2|40=1|59=9|60=20180919-01:00:05.320|48=MASKED|22=8|453=1|448=BROKERID|447=D|452=1|207=XHKG|1812=1|1813=100|1814=1|10=220|
09:00:07.004858 I FIXPUMP 		gateway3:[FIXRX] 8=FIXT.1.1|9=229|35=8|49=EXCHANGE|56=UBSACCOUNT|34=942|52=20180919-01:00:07.004|1128=9|11=94924|14=0|17=hB0.kV./MX6|150=0|151=8659|1093=2|453=1|448=BROKERID|447=D|452=1|37=2242049|38=8659|39=5|40=1|207=XHKG|48=MASKED|22=8|54=2|59=9|60=20180919-01:00:07.000|10=078|
09:00:05.320249 I gateway3			[EVT.onPending:00] [MAPTX] [NEW][order.RefId=449][order.OrderId=59177][clOrdId=39093] [seqNo=938]
09:00:07.001122 I FIXPUMP		gateway3:[FIXTX] 8=FIXT.1.1|9=218|35=D|43=N|52=20180919-01:00:07.000|122=20180919-01:00:05.320|49=UBSACCOUNT|56=EXCHANGE|34=938|11=39093|38=8766|54=2|40=1|59=9|60=20180919-01:00:05.320|48=MASKED|22=8|453=1|448=BROKERID|447=D|452=1|207=XHKG|1812=1|1813=100|1814=1|10=220|
09:00:07.004858 I FIXPUMP 		gateway3:[FIXRX] 8=FIXT.1.1|9=229|35=8|49=EXCHANGE|56=UBSACCOUNT|34=942|52=20180919-01:00:07.004|1128=9|11=39093|14=0|17=hB0.kV./MX6|150=0|151=8766|1093=2|453=1|448=BROKERID|447=D|452=1|37=2242049|38=8766|39=0|40=1|207=XHKG|48=MASKED|22=8|54=2|59=9|60=20180919-01:00:07.000|10=078|
09:00:07.004858 I FIXPUMP 		gateway3:[FIXRX] 8=FIXT.1.1|9=295|35=8|49=EXCHANGE|56=UBS|34=942|52=20180919-01:00:07.004|1128=9|11=39093|14=1363|17=hB0.kV./MX6|150=F|151=7403|1093=2|453=1|448=BROKERID|447=D|452=17|37=2242049|38=8766|39=1|40=1|207=UBS|48=MASKED|22=MASKED|54=1|59=9|60=20180919-01:00:07.000|10=078|
09:00:07.004858 I FIXPUMP 		gateway3:[FIXRX] 8=FIXT.1.1|9=295|35=8|49=EXCHANGE|56=UBS|34=942|52=20180919-01:00:07.004|1128=9|11=39093|14=429|17=hB0.kV./MX6|150=F|151=6974|1093=2|453=1|448=BROKERID|447=D|452=17|37=2242049|38=8766|39=1|40=1|207=UBS|48=MASKED|22=MASKED|54=1|59=9|60=20180919-01:00:07.000|10=078|
09:00:07.004858 I FIXPUMP 		gateway3:[FIXRX] 8=FIXT.1.1|9=295|35=8|49=EXCHANGE|56=UBS|34=942|52=20180919-01:00:07.004|1128=9|11=39093|14=4021|17=hB0.kV./MX6|150=F|151=2953|1093=2|453=1|448=BROKERID|447=D|452=17|37=2242049|38=8766|39=1|40=1|207=UBS|48=MASKED|22=MASKED|54=1|59=9|60=20180919-01:00:07.000|10=078|
09:00:07.004858 I FIXPUMP 		gateway3:[FIXRX] 8=FIXT.1.1|9=295|35=8|49=EXCHANGE|56=UBS|34=942|52=20180919-01:00:07.004|1128=9|11=39093|14=3196|17=hB0.kV./MX6|150=F|151=0|1093=2|453=1|448=BROKERID|447=D|452=17|37=2242049|38=8766|39=2|40=1|207=UBS|48=MASKED|22=MASKED|54=0|59=9|60=20180919-01:00:07.000|10=078|
09:00:05.320249 I gateway3			[EVT.onPendingReplace:06] [MAPTX] [RPL][order.RefId=449][order.OrderId=59177][clOrdId=39093] [seqNo=67175]
09:00:07.001122 I FIXPUMP		gateway3:[FIXTX] 8=FIXT.1.1|9=218|35=G|43=N|52=20180919-01:00:07.000|122=20180919-01:00:05.320|49=UBSACCOUNT|56=EXCHANGE|34=938|11=39093|38=8766|54=2|40=1|59=9|60=20180919-01:00:05.320|48=MASKED|22=8|453=1|448=BROKERID|447=D|452=1|207=XHKG|1812=1|1813=100|1814=1|10=220|
09:00:07.004858 I FIXPUMP 		gateway3:[FIXRX] 8=FIXT.1.1|9=229|35=8|49=EXCHANGE|56=UBSACCOUNT|34=942|52=20180919-01:00:07.004|1128=9|11=39093|14=0|17=hB0.kV./MX6|150=0|151=8766|1093=2|453=1|448=BROKERID|447=D|452=1|37=2242049|38=8766|39=5|40=1|207=XHKG|48=MASKED|22=8|54=2|59=9|60=20180919-01:00:07.000|10=078|
09:00:05.320249 I gateway3			[EVT.onPending:00] [MAPTX] [NEW][order.RefId=990][order.OrderId=63543][clOrdId=76006] [seqNo=938]
09:00:07.001122 I FIXPUMP		gateway3:[FIXTX] 8=FIXT.1.1|9=218|35=D|43=N|52=20180919-01:00:07.000|122=20180919-01:00:05.320|49=UBSACCOUNT|56=EXCHANGE|34=938|11=76006|38=8074|54=2|40=1|59=9|60=20180919-01:00:05.320|48=MASKED|22=8|453=1|448=BROKERID|447=D|452=1|207=XHKG|1812=1|1813=100|1814=1|10=220|
09:00:07.004858 I FIXPUMP 		gateway3:[FIXRX] 8=FIXT.1.1|9=229|35=8|49=EXCHANGE|56=UBSACCOUNT|34=942|52=20180919-01:00:07.004|1128=9|11=76006|14=0|17=hB0.kV./MX6|150=0|151=8074|1093=2|453=1|448=BROKERID|447=D|452=1|37=2242049|38=8074|39=0|40=1|207=XHKG|48=MASKED|22=8|54=2|59=9|60=20180919-01:00:07.000|10=078|
09:00:07.004858 I FIXPUMP 		gateway3:[FIXRX] 8=FIXT.1.1|9=295|35=8|49=EXCHANGE|56=UBS|34=942|52=20180919-01:00:07.004|1128=9|11=76006|14=3523|17=hB0.kV./MX6|150=F|151=4551|1093=2|453=1|448=BROKERID|447=D|452=17|37=2242049|38=8074|39=1|40=1|207=UBS|48=MASKED|22=MASKED|54=1|59=9|60=20180919-01:00:07.000|10=078|
09:00:07.004858 I FIXPUMP 		gateway3:[FIXRX] 8=FIXT.1.1|9=295|35=8|49=EXCHANGE|56=UBS|34=942|52=20180919-01:00:07.004|1128=9|11=76006|14=1640|17=hB0.kV./MX6|150=F|151=2911|1093=2|453=1|448=BROKERID|447=D|452=17|37=2242049|38=8074|39=1|40=1|207=UBS|48=MASKED|22=MASKED|54=1|59=9|60=20180919-01:00:07.000|10=078|
09:00:07.004858 I FIXPUMP 		gateway3:[FIXRX] 8=FIXT.1.1|9=295|35=8|49=EXCHANGE|56=UBS|34=942|52=20180919-01:00:07.004|1128=9|11=76006|14=4677|17=hB0.kV./MX6|150=F|151=0|1093=2|453=1|448=BROKERID|447=D|452=17|37=2242049|38=8074|39=2|40=1|207=UBS|48=MASKED|22=MASKED|54=0|59=9|60=20180919-01:00:07.000|10=078|
09:00:05.320249 I gateway3			[EVT.onPendingReplace:06] [MAPTX] [RPL][order.RefId=990][order.OrderId=63543][clOrdId=76006] [seqNo=67175]
09:00:07.001122 I FIXPUMP		gateway3:[FIXTX] 8=FIXT.1.1|9=218|35=G|43=N|52=20180919-01:00:07.000|122=20180919-01:00:05.320|49=UBSACCOUNT|56=EXCHANGE|34=938|11=76006|38=8074|54=2|40=1|59=9|60=20180919-01:00:05.320|48=MASKED|22=8|453=1|448=BROKERID|447=D|452=1|207=XHKG|1812=1|1813=100|1814=1|10=220|
09:00:07.004858 I FIXPUMP 		gateway3:[FIXRX] 8=FIXT.1.1|9=229|35=8|49=EXCHANGE|56=UBSACCOUNT|34=942|52=20180919-01:00:07.004|1128=9|11=76006|14=0|17=hB0.kV./MX6|150=0|151=8074|1093=2|453=1|448=BROKERID|447=D|452=1|37=2242049|38=8074|39=5|40=1|207=XHKG|48=MASKED|22=8|54=2|59=9|60=20180919-01:00:07.000|10=078|
09:00:05.320249 I gateway3			[EVT.onPending:00] [MAPTX] [NEW][order.RefId=127][order.OrderId=50703][clOrdId=31313] [seqNo=938]
09:00:07.001122 I FIXPUMP		gateway3:[FIXTX] 8=FIXT.1.1|9=218|35=D|43=N|52=20180919-01:00:07.000|122=20180919-01:00:05.320|49=UBSACCOUNT|56=EXCHANGE|34=938|11=31313|38=1189|54=2|40=1|59=9|60=20180919-01:00:05.320|48=MASKED|22=8|453=1|448=BROKERID|447=D|452=1|207=XHKG|1812=1|1813=100|1814=1|10=220|
09:00:07.004858 I FIXPUMP 		gateway3:[FIXRX] 8=FIXT.1.1|9=229|35=8|49=EXCHANGE|56=UBSACCOUNT|34=942|52=20180919-01:00:07.004|1128=9|11=31313|14=0|17=hB0.kV./MX6|150=0|151=1189|1093=2|453=1|448=BROKERID|447=D|452=1|37=2242049|38=1189|39=0|40=1|207=XHKG|48=MASKED|22=8|54=2|59=9|60=20180919-01:00:07.000|10=078|
09:00:07.004858 I FIXPUMP 		gateway3:[FIXRX] 8=FIXT.1.1|9=295|35=8|49=EXCHANGE|56=UBS|34=942|52=20180919-01:00:07.004|1128=9|11=31313|14=2767|17=hB0.kV./MX6|150=F|151=0|1093=2|453=1|448=BROKERID|447=D|452=17|37=2242049|38=1189|39=2|40=1|207=UBS|48=MASKED|22=MASKED|54=0|59=9|60=20180919-01:00:07.000|10=078|
09:00:05.320249 I gateway3			[EVT.onPendingReplace:06] [MAPTX] [RPL][order.RefId=127][order.OrderId=50703][clOrdId=31313] [seqNo=67175]
09:00:07.001122 I FIXPUMP		gateway3:[FIXTX] 8=FIXT.1.1|9=218|35=G|43=N|52=20180919-01:00:07.000|122=20180919-01:00:05.320|49=UBSACCOUNT|56=EXCHANGE|34=938|11=31313|38=1189|54=2|40=1|59=9|60=20180919-01:00:05.320|48=MASKED|22=8|453=1|448=BROKERID|447=D|452=1|207=XHKG|1812=1|1813=100|1814=1|10=220|
09:00:07.004858 I FIXPUMP 		gateway3:[FIXRX] 8=FIXT.1.1|9=229|35=8|49=EXCHANGE|56=UBSACCOUNT|34=942|52=20180919-01:00:07.004|1128=9|11=31313|14=0|17=hB0.kV./MX6|150=0|151=1189|1093=2|453=1|448=BROKERID|447=D|452=1|37=2242049|38=1189|39=5|40=1|207=XHKG|48=MASKED|22=8|54=2|59=9|60=20180919-01:00:07.000|10=078|
09:00:05.320249 I gateway3			[EVT.onPending:00] [MAPTX] [NEW][order.RefId=186][order.OrderId=39939][clOrdId=98660] [seqNo=938]
09:00:07.001122 I FIXPUMP		gateway3:[FIXTX] 8=FIXT.1.1|9=218|35=D|43=N|52=20180919-01:00:07.000|122=20180919-01:00:05.320|49=UBSACCOUNT|56=EXCHANGE|34=938|11=98660|38=1879|54=2|40=1|59=9|60=20180919-01:00:05.320|48=MASKED|22=8|453=1|448=BROKERID|447=D|452=1|207=XHKG|1812=1|1813=100|1814=1|10=220|
09:00:07.004858 I FIXPUMP 		gateway3:[FIXRX] 8=FIXT.1.1|9=229|35=8|49=EXCHANGE|56=UBSACCOUNT|34=942|52=20180919-01:00:07.004|1128=9|11=98660|14=0|17=hB0.kV./MX6|150=0|151=1879|1093=2|453=1|448=BROKERID|447=D|452=1|37=2242049|38=1879|39=0|40=1|207=XHKG|48=MASKED|22=8|54=2|59=9|60=20180919-01:00:07.000|10=078|
09:00:07.004858 I FIXPUMP 		gateway3:[FIXRX] 8=FIXT.1.1|9=295|35=8|49=EXCHANGE|56=UBS|34=942|52=20180919-01:00:07.004|1128=9|11=98660|14=529|17=hB0.kV./MX6|150=F|151=1350|1093=2|453=1|448=BROKERID|447=D|452=17|37=2242049|38=1879|39=1|40=1|207=UBS|48=MASKED|22=MASKED|54=1|59=9|60=20180919-01:00:07.000|10=078|
09:00:07.004858 I FIXPUMP 		gateway3:[FIXRX] 8=FIXT.1.1|9=295|35=8|49=EXCHANGE|56=UBS|34=942|52=20180919-01:00:07.004|1128=9|11=98660|14=4418|17=hB0.kV./MX6|150=F|151=0|1093=2|453=1|448=BROKERID|447=D|452=17|37=2242049|38=1879|39=2|40=1|207=UBS|48=MASKED|22=MASKED|54=0|59=9|60=20180919-01:00:07.000|10=078|
09:00:05.320249 I gateway3			[EVT.onPendingReplace:06] [MAPTX] [RPL][order.RefId=186][order.OrderId=39939][clOrdId=98660] [seqNo=67175]
09:00:07.001122 I FIXPUMP		gateway3:[FIXTX] 8=FIXT.1.1|9=218|35=G|43=N|52=20180919-01:00:07.000|122=20180919-01:00:05.320|49=UBSACCOUNT|56=EXCHANGE|34=938|11=98660|38=1879|54=2|40=1|59=9|60=20180919-01:00:05.320|48=MASKED|22=8|453=1|448=BROKERID|447=D|452=1|207=XHKG|1812=1|1813=100|1814=1|10=220|
09:00:07.004858 I FIXPUMP 		gateway3:[FIXRX] 8=FIXT.1.1|9=229|35=8|49=EXCHANGE|56=UBSACCOUNT|34=942|52=20180919-01:00:07.004|1128=9|11=98660|14=0|17=hB0.kV./MX6|150=0|151=1879|1093=2|453=1|448=BROKERID|447=D|452=1|37=2242049|38=1879|39=5|40=1|207=XHKG|48=MASKED|22=8|54=2|59=9|60=20180919-01:00:07.000|10=078|
09:00:05.320249 I gateway3			[EVT.onPending:00] [MAPTX] [NEW][order.RefId=40][order.OrderId=20812][clOrdId=54400] [seqNo=938]
09:00:07.001122 I FIXPUMP		gateway3:[FIXTX] 8=FIXT.1.1|9=218|35=D|43=N|52=20180919-01:00:07.000|122=20180919-01:00:05.320|49=UBSACCOUNT|56=EXCHANGE|34=938|11=54400|38=4594|54=2|40=1|59=9|60=20180919-01:00:05.320|48=MASKED|22=8|453=1|448=BROKERID|447=D|452=1|207=XHKG|1812=1|1813=100|1814=1|10=220|
09:00:07.004858 I FIXPUMP 		gateway3:[FIXRX] 8=FIXT.1.1|9=229|35=8|49=EXCHANGE|56=UBSACCOUNT|34=942|52=20180919-01:00:07.004|1128=9|11=54400|14=0|17=hB0.kV./MX6|150=0|151=4594|1093=2|453=1|448=BROKERID|447=D|452=1|37=2242049|38=4594|39=0|40=1|207=XHKG|48=MASKED|22=8|54=2|59=9|60=20180919-01:00:07.000|10=078|
09:00:07.004858 I FIXPUMP 		gateway3:[FIXRX] 8=FIXT.1.1|9=295|35=8|49=EXCHANGE|56=UBS|34=942|52=20180919-01:00:07.004|1128=9|11=54400|14=4807|17=hB0.kV./MX6|150=F|151=0|1093=2|453=1|448=BROKERID|447=D|452=17|37=2242049|38=4594|39=2|40=1|207=UBS|48=MASKED|22=MASKED|54=0|59=9|60=20180919-01:00:07.000|10=078|
09:00:05.320249 I gateway3			[EVT.onPendingReplace:06] [MAPTX] [RPL][order.RefId=40][order.OrderId=20812][clOrdId=54400] [seqNo=67175]
09:00:07.001122 I FIXPUMP		gateway3:[FIXTX] 8=FIXT.1.1|9=218|35=G|43=N|52=20180919-01:00:07.000|122=20180919-01:00:05.320|49=UBSACCOUNT|56=EXCHANGE|34=938|11=54400|38=4594|54=2|40=1|59=9|60=20180919-01:00:05.320|48=MASKED|22=8|453=1|448=BROKERID|447=D|452=1|207=XHKG|1812=1|1813=100|1814=1|10=220|
09:00:07.004858 I FIXPUMP 		gateway3:[FIXRX] 8=FIXT.1.1|9=229|35=8|49=EXCHANGE|56=UBSACCOUNT|34=942|52=20180919-01:00:07.004|1128=9|11=54400|14=0|17=hB0.kV./MX6|150=0|151=4594|1093=2|453=1|448=BROKERID|447=D|452=1|37=2242049|38=4594|39=5|40=1|207=XHKG|48=MASKED|22=8|54=2|59=9|60=20180919-01:00:07.000|10=078|
09:00:05.320249 I gateway3			[EVT.onPending:00] [MAPTX] [NEW][order.RefId=263][order.OrderId=12445][clOrdId=52261] [seqNo=938]
09:00:07.001122 I FIXPUMP		gateway3:[FIXTX] 8=FIXT.1.1|9=218|35=D|43=N|52=20180919-01:00:07.000|122=20180919-01:00:05.320|49=UBSACCOUNT|56=EXCHANGE|34=938|11=52261|38=3775|54=2|40=1|59=9|60=20180919-01:00:05.320|48=MASKED|22=8|453=1|448=BROKERID|447=D|452=1|207=XHKG|1812=1|1813=100|1814=1|10=220|
09:00:07.004858 I FIXPUMP 		gateway3:[FIXRX] 8=FIXT.1.1|9=229|35=8|49=EXCHANGE|56=UBSACCOUNT|34=942|52=20180919-01:00:07.004|1128=9|11=52261|14=0|17=hB0.kV./MX6|150=0|151=3775|1093=2|453=1|448=BROKERID|447=D|452=1|37=2242049|38=3775|39=0|40=1|207=XHKG|48=MASKED|22=8|54=2|59=9|60=20180919-01:00:07.000|10=078|
09:00:07.004858 I FIXPUMP 		gateway3:[FIXRX] 8=FIXT.1.1|9=295|35=8|49=EXCHANGE|56=UBS|34=942|52=20180919-01:00:07.004|1128=9|11=52261|14=388|17=hB0.kV./MX6|150=F|151=3387|1093=2|453=1|448=BROKERID|447=D|452=17|37=2242049|38=3775|39=1|40=1|207=UBS|48=MASKED|22=MASKED|54=1|59=9|60=20180919-01:00:07.000|10=078|
09:00:07.004858 I FIXPUMP 		gateway3:[FIXRX] 8=FIXT.1.1|9=295|35=8|49=EXCHANGE|56=UBS|34=942|52=20180919-01:00:07.004|1128=9|11=52261|14=669|17=hB0.kV./MX6|150=F|151=2718|1093=2|453=1|448=BROKERID|447=D|452=17|37=2242049|38=3775|39=1|40=1|207=UBS|48=MASKED|22=MASKED|54=1|59=9|60=20180919-01:00:07.000|10=078|
09:00:07.004858 I FIXPUMP 		gateway3:[FIXRX] 8=FIXT.1.1|9=295|35=8|49=EXCHANGE|56=UBS|34=942|52=20180919-01:00:07.004|1128=9|11=52261|14=4238|17=hB0.kV./MX6|150=F|151=0|1093=2|453=1|448=BROKERID|447=D|452=17|37=2242049|38=3775|39=2|40=1|207=UBS|48=MASKED|22=MASKED|54=0|59=9|60=20180919-01:00:07.000|10=078|
09:00:05.320249 I gateway3			[EVT.onPendingReplace:06] [MAPTX] [RPL][order.RefId=263][order.OrderId=12445][clOrdId=52261] [seqNo=67175]
